{
  "_format": "hh-sol-artifact-1",
  "contractName": "PandoraTicket",
  "sourceName": "contracts/PandoraTicket.sol",
  "abi": [
    {
      "inputs": [
        {
          "internalType": "address",
          "name": "_factory",
          "type": "address"
        }
      ],
      "stateMutability": "nonpayable",
      "type": "constructor"
    },
    {
      "inputs": [],
      "name": "Ticket__Unauthorized",
      "type": "error"
    },
    {
      "anonymous": false,
      "inputs": [
        {
          "indexed": true,
          "internalType": "address",
          "name": "owner",
          "type": "address"
        },
        {
          "indexed": true,
          "internalType": "address",
          "name": "approved",
          "type": "address"
        },
        {
          "indexed": true,
          "internalType": "uint256",
          "name": "tokenId",
          "type": "uint256"
        }
      ],
      "name": "Approval",
      "type": "event"
    },
    {
      "anonymous": false,
      "inputs": [
        {
          "indexed": true,
          "internalType": "address",
          "name": "owner",
          "type": "address"
        },
        {
          "indexed": true,
          "internalType": "address",
          "name": "operator",
          "type": "address"
        },
        {
          "indexed": false,
          "internalType": "bool",
          "name": "approved",
          "type": "bool"
        }
      ],
      "name": "ApprovalForAll",
      "type": "event"
    },
    {
      "anonymous": false,
      "inputs": [
        {
          "indexed": true,
          "internalType": "address",
          "name": "previousOwner",
          "type": "address"
        },
        {
          "indexed": true,
          "internalType": "address",
          "name": "newOwner",
          "type": "address"
        }
      ],
      "name": "OwnershipTransferred",
      "type": "event"
    },
    {
      "anonymous": false,
      "inputs": [
        {
          "indexed": true,
          "internalType": "address",
          "name": "from",
          "type": "address"
        },
        {
          "indexed": true,
          "internalType": "address",
          "name": "to",
          "type": "address"
        },
        {
          "indexed": true,
          "internalType": "uint256",
          "name": "tokenId",
          "type": "uint256"
        }
      ],
      "name": "Transfer",
      "type": "event"
    },
    {
      "inputs": [
        {
          "internalType": "address",
          "name": "to",
          "type": "address"
        },
        {
          "internalType": "uint256",
          "name": "tokenId",
          "type": "uint256"
        }
      ],
      "name": "approve",
      "outputs": [],
      "stateMutability": "nonpayable",
      "type": "function"
    },
    {
      "inputs": [
        {
          "internalType": "address",
          "name": "owner",
          "type": "address"
        }
      ],
      "name": "balanceOf",
      "outputs": [
        {
          "internalType": "uint256",
          "name": "",
          "type": "uint256"
        }
      ],
      "stateMutability": "view",
      "type": "function"
    },
    {
      "inputs": [
        {
          "internalType": "uint256",
          "name": "tokenId",
          "type": "uint256"
        }
      ],
      "name": "getApproved",
      "outputs": [
        {
          "internalType": "address",
          "name": "",
          "type": "address"
        }
      ],
      "stateMutability": "view",
      "type": "function"
    },
    {
      "inputs": [
        {
          "internalType": "address",
          "name": "owner",
          "type": "address"
        },
        {
          "internalType": "address",
          "name": "operator",
          "type": "address"
        }
      ],
      "name": "isApprovedForAll",
      "outputs": [
        {
          "internalType": "bool",
          "name": "",
          "type": "bool"
        }
      ],
      "stateMutability": "view",
      "type": "function"
    },
    {
      "inputs": [
        {
          "internalType": "uint256",
          "name": "",
          "type": "uint256"
        }
      ],
      "name": "isClaimed",
      "outputs": [
        {
          "internalType": "bool",
          "name": "",
          "type": "bool"
        }
      ],
      "stateMutability": "view",
      "type": "function"
    },
    {
      "inputs": [
        {
          "internalType": "uint256",
          "name": "",
          "type": "uint256"
        }
      ],
      "name": "isRefunded",
      "outputs": [
        {
          "internalType": "bool",
          "name": "",
          "type": "bool"
        }
      ],
      "stateMutability": "view",
      "type": "function"
    },
    {
      "inputs": [
        {
          "internalType": "uint256",
          "name": "",
          "type": "uint256"
        }
      ],
      "name": "isWinner",
      "outputs": [
        {
          "internalType": "bool",
          "name": "",
          "type": "bool"
        }
      ],
      "stateMutability": "view",
      "type": "function"
    },
    {
      "inputs": [
        {
          "internalType": "uint256",
          "name": "",
          "type": "uint256"
        }
      ],
      "name": "lootboxIds",
      "outputs": [
        {
          "internalType": "uint256",
          "name": "",
          "type": "uint256"
        }
      ],
      "stateMutability": "view",
      "type": "function"
    },
    {
      "inputs": [
        {
          "internalType": "address",
          "name": "_to",
          "type": "address"
        },
        {
          "internalType": "uint256",
          "name": "_amount",
          "type": "uint256"
        },
        {
          "internalType": "uint256",
          "name": "_lootboxId",
          "type": "uint256"
        }
      ],
      "name": "mint",
      "outputs": [],
      "stateMutability": "nonpayable",
      "type": "function"
    },
    {
      "inputs": [],
      "name": "name",
      "outputs": [
        {
          "internalType": "string",
          "name": "",
          "type": "string"
        }
      ],
      "stateMutability": "view",
      "type": "function"
    },
    {
      "inputs": [],
      "name": "owner",
      "outputs": [
        {
          "internalType": "address",
          "name": "",
          "type": "address"
        }
      ],
      "stateMutability": "view",
      "type": "function"
    },
    {
      "inputs": [
        {
          "internalType": "uint256",
          "name": "tokenId",
          "type": "uint256"
        }
      ],
      "name": "ownerOf",
      "outputs": [
        {
          "internalType": "address",
          "name": "",
          "type": "address"
        }
      ],
      "stateMutability": "view",
      "type": "function"
    },
    {
      "inputs": [
        {
          "internalType": "uint256[]",
          "name": "tokenIds",
          "type": "uint256[]"
        }
      ],
      "name": "refundTicket",
      "outputs": [],
      "stateMutability": "nonpayable",
      "type": "function"
    },
    {
      "inputs": [],
      "name": "renounceOwnership",
      "outputs": [],
      "stateMutability": "nonpayable",
      "type": "function"
    },
    {
      "inputs": [
        {
          "internalType": "address",
          "name": "from",
          "type": "address"
        },
        {
          "internalType": "address",
          "name": "to",
          "type": "address"
        },
        {
          "internalType": "uint256",
          "name": "tokenId",
          "type": "uint256"
        }
      ],
      "name": "safeTransferFrom",
      "outputs": [],
      "stateMutability": "nonpayable",
      "type": "function"
    },
    {
      "inputs": [
        {
          "internalType": "address",
          "name": "from",
          "type": "address"
        },
        {
          "internalType": "address",
          "name": "to",
          "type": "address"
        },
        {
          "internalType": "uint256",
          "name": "tokenId",
          "type": "uint256"
        },
        {
          "internalType": "bytes",
          "name": "_data",
          "type": "bytes"
        }
      ],
      "name": "safeTransferFrom",
      "outputs": [],
      "stateMutability": "nonpayable",
      "type": "function"
    },
    {
      "inputs": [
        {
          "internalType": "address",
          "name": "operator",
          "type": "address"
        },
        {
          "internalType": "bool",
          "name": "approved",
          "type": "bool"
        }
      ],
      "name": "setApprovalForAll",
      "outputs": [],
      "stateMutability": "nonpayable",
      "type": "function"
    },
    {
      "inputs": [
        {
          "internalType": "uint256",
          "name": "_tokenId",
          "type": "uint256"
        }
      ],
      "name": "setClaim",
      "outputs": [],
      "stateMutability": "nonpayable",
      "type": "function"
    },
    {
      "inputs": [
        {
          "internalType": "uint256",
          "name": "_tokenId",
          "type": "uint256"
        }
      ],
      "name": "setWinner",
      "outputs": [],
      "stateMutability": "nonpayable",
      "type": "function"
    },
    {
      "inputs": [
        {
          "internalType": "bytes4",
          "name": "interfaceId",
          "type": "bytes4"
        }
      ],
      "name": "supportsInterface",
      "outputs": [
        {
          "internalType": "bool",
          "name": "",
          "type": "bool"
        }
      ],
      "stateMutability": "view",
      "type": "function"
    },
    {
      "inputs": [],
      "name": "symbol",
      "outputs": [
        {
          "internalType": "string",
          "name": "",
          "type": "string"
        }
      ],
      "stateMutability": "view",
      "type": "function"
    },
    {
      "inputs": [
        {
          "internalType": "uint256",
          "name": "",
          "type": "uint256"
        },
        {
          "internalType": "uint256",
          "name": "",
          "type": "uint256"
        }
      ],
      "name": "ticketIds",
      "outputs": [
        {
          "internalType": "uint256",
          "name": "",
          "type": "uint256"
        }
      ],
      "stateMutability": "view",
      "type": "function"
    },
    {
      "inputs": [
        {
          "internalType": "uint256",
          "name": "index",
          "type": "uint256"
        }
      ],
      "name": "tokenByIndex",
      "outputs": [
        {
          "internalType": "uint256",
          "name": "",
          "type": "uint256"
        }
      ],
      "stateMutability": "view",
      "type": "function"
    },
    {
      "inputs": [],
      "name": "tokenIdCounter",
      "outputs": [
        {
          "internalType": "uint256",
          "name": "_value",
          "type": "uint256"
        }
      ],
      "stateMutability": "view",
      "type": "function"
    },
    {
      "inputs": [
        {
          "internalType": "address",
          "name": "owner",
          "type": "address"
        },
        {
          "internalType": "uint256",
          "name": "index",
          "type": "uint256"
        }
      ],
      "name": "tokenOfOwnerByIndex",
      "outputs": [
        {
          "internalType": "uint256",
          "name": "",
          "type": "uint256"
        }
      ],
      "stateMutability": "view",
      "type": "function"
    },
    {
      "inputs": [
        {
          "internalType": "uint256",
          "name": "tokenId",
          "type": "uint256"
        }
      ],
      "name": "tokenURI",
      "outputs": [
        {
          "internalType": "string",
          "name": "",
          "type": "string"
        }
      ],
      "stateMutability": "view",
      "type": "function"
    },
    {
      "inputs": [],
      "name": "totalSupply",
      "outputs": [
        {
          "internalType": "uint256",
          "name": "",
          "type": "uint256"
        }
      ],
      "stateMutability": "view",
      "type": "function"
    },
    {
      "inputs": [
        {
          "internalType": "address",
          "name": "from",
          "type": "address"
        },
        {
          "internalType": "address",
          "name": "to",
          "type": "address"
        },
        {
          "internalType": "uint256",
          "name": "tokenId",
          "type": "uint256"
        }
      ],
      "name": "transferFrom",
      "outputs": [],
      "stateMutability": "nonpayable",
      "type": "function"
    },
    {
      "inputs": [
        {
          "internalType": "address",
          "name": "newOwner",
          "type": "address"
        }
      ],
      "name": "transferOwnership",
      "outputs": [],
      "stateMutability": "nonpayable",
      "type": "function"
    }
  ],
  "bytecode": "0x608060405260405180608001604052806042815260200162004a9560429139601290805190602001906200003592919062000271565b5060405180608001604052806042815260200162004a5360429139601390805190602001906200006792919062000271565b503480156200007557600080fd5b5060405162004ad738038062004ad783398181016040528101906200009b919062000338565b6040518060400160405280601281526020017f5468652050616e646f7261205469636b657400000000000000000000000000008152506040518060400160405280600781526020017f50414e444f52410000000000000000000000000000000000000000000000000081525081600090805190602001906200011f92919062000271565b5080600190805190602001906200013892919062000271565b5050506200015b6200014f620001a360201b60201c565b620001ab60201b60201c565b80600b60006101000a81548173ffffffffffffffffffffffffffffffffffffffff021916908373ffffffffffffffffffffffffffffffffffffffff1602179055505062000422565b600033905090565b6000600a60009054906101000a900473ffffffffffffffffffffffffffffffffffffffff16905081600a60006101000a81548173ffffffffffffffffffffffffffffffffffffffff021916908373ffffffffffffffffffffffffffffffffffffffff1602179055508173ffffffffffffffffffffffffffffffffffffffff168173ffffffffffffffffffffffffffffffffffffffff167f8be0079c531659141344cd1fd0a4f28419497f9722a3daafe3b4186f6b6457e060405160405180910390a35050565b8280546200027f906200039e565b90600052602060002090601f016020900481019282620002a35760008555620002ef565b82601f10620002be57805160ff1916838001178555620002ef565b82800160010185558215620002ef579182015b82811115620002ee578251825591602001919060010190620002d1565b5b509050620002fe919062000302565b5090565b5b808211156200031d57600081600090555060010162000303565b5090565b600081519050620003328162000408565b92915050565b60006020828403121562000351576200035062000403565b5b6000620003618482850162000321565b91505092915050565b600062000377826200037e565b9050919050565b600073ffffffffffffffffffffffffffffffffffffffff82169050919050565b60006002820490506001821680620003b757607f821691505b60208210811415620003ce57620003cd620003d4565b5b50919050565b7f4e487b7100000000000000000000000000000000000000000000000000000000600052602260045260246000fd5b600080fd5b62000413816200036a565b81146200041f57600080fd5b50565b61462180620004326000396000f3fe608060405234801561001057600080fd5b50600436106101cf5760003560e01c80636352211e1161010457806398bdf6f5116100a2578063b88d4fde11610071578063b88d4fde14610564578063c87b56dd14610580578063e985e9c5146105b0578063f2fde38b146105e0576101cf565b806398bdf6f5146104de5780639a86297c146104fc5780639e34070f14610518578063a22cb46514610548576101cf565b8063781334af116100de578063781334af1461044257806378df3a52146104725780638da5cb5b146104a257806395d89b41146104c0576101cf565b80636352211e146103d857806370a0823114610408578063715018a614610438576101cf565b806318160ddd116101715780632f745c591161014b5780632f745c591461032c57806342842e0e1461035c5780634f6ccce71461037857806355866c8d146103a8576101cf565b806318160ddd146102d657806323b872dd146102f45780632a64da6314610310576101cf565b8063095ea7b3116101ad578063095ea7b3146102525780630df716021461026e5780630e3922881461028a578063156e29f6146102ba576101cf565b806301ffc9a7146101d457806306fdde0314610204578063081812fc14610222575b600080fd5b6101ee60048036038101906101e99190612f8d565b6105fc565b6040516101fb9190613704565b60405180910390f35b61020c610676565b604051610219919061371f565b60405180910390f35b61023c60048036038101906102379190613030565b610708565b604051610249919061369d565b60405180910390f35b61026c60048036038101906102679190612eb1565b61078d565b005b61028860048036038101906102839190613030565b6108a5565b005b6102a4600480360381019061029f9190613030565b61095b565b6040516102b19190613704565b60405180910390f35b6102d460048036038101906102cf9190612ef1565b61097b565b005b6102de610a9b565b6040516102eb9190613961565b60405180910390f35b61030e60048036038101906103099190612d9b565b610aa8565b005b61032a60048036038101906103259190612f44565b610b08565b005b61034660048036038101906103419190612eb1565b610bf8565b6040516103539190613961565b60405180910390f35b61037660048036038101906103719190612d9b565b610c9d565b005b610392600480360381019061038d9190613030565b610cbd565b60405161039f9190613961565b60405180910390f35b6103c260048036038101906103bd9190613030565b610d2e565b6040516103cf9190613704565b60405180910390f35b6103f260048036038101906103ed9190613030565b610d4e565b6040516103ff919061369d565b60405180910390f35b610422600480360381019061041d9190612d01565b610e00565b60405161042f9190613961565b60405180910390f35b610440610eb8565b005b61045c60048036038101906104579190613030565b610f40565b6040516104699190613961565b60405180910390f35b61048c6004803603810190610487919061308a565b610f58565b6040516104999190613961565b60405180910390f35b6104aa610f89565b6040516104b7919061369d565b60405180910390f35b6104c8610fb3565b6040516104d5919061371f565b60405180910390f35b6104e6611045565b6040516104f39190613961565b60405180910390f35b61051660048036038101906105119190613030565b611051565b005b610532600480360381019061052d9190613030565b611166565b60405161053f9190613704565b60405180910390f35b610562600480360381019061055d9190612e71565b611186565b005b61057e60048036038101906105799190612dee565b61119c565b005b61059a60048036038101906105959190613030565b6111fe565b6040516105a7919061371f565b60405180910390f35b6105ca60048036038101906105c59190612d5b565b6115fd565b6040516105d79190613704565b60405180910390f35b6105fa60048036038101906105f59190612d01565b611691565b005b60007f780e9d63000000000000000000000000000000000000000000000000000000007bffffffffffffffffffffffffffffffffffffffffffffffffffffffff1916827bffffffffffffffffffffffffffffffffffffffffffffffffffffffff1916148061066f575061066e82611789565b5b9050919050565b60606000805461068590613c3d565b80601f01602080910402602001604051908101604052809291908181526020018280546106b190613c3d565b80156106fe5780601f106106d3576101008083540402835291602001916106fe565b820191906000526020600020905b8154815290600101906020018083116106e157829003601f168201915b5050505050905090565b60006107138261186b565b610752576040517f08c379a0000000000000000000000000000000000000000000000000000000008152600401610749906138c1565b60405180910390fd5b6004600083815260200190815260200160002060009054906101000a900473ffffffffffffffffffffffffffffffffffffffff169050919050565b600061079882610d4e565b90508073ffffffffffffffffffffffffffffffffffffffff168373ffffffffffffffffffffffffffffffffffffffff161415610809576040517f08c379a000000000000000000000000000000000000000000000000000000000815260040161080090613901565b60405180910390fd5b8073ffffffffffffffffffffffffffffffffffffffff166108286118d7565b73ffffffffffffffffffffffffffffffffffffffff1614806108575750610856816108516118d7565b6115fd565b5b610896576040517f08c379a000000000000000000000000000000000000000000000000000000000815260040161088d90613841565b60405180910390fd5b6108a083836118df565b505050565b600b60009054906101000a900473ffffffffffffffffffffffffffffffffffffffff1673ffffffffffffffffffffffffffffffffffffffff163373ffffffffffffffffffffffffffffffffffffffff161461092c576040517f1ec1cc2c00000000000000000000000000000000000000000000000000000000815260040160405180910390fd5b6001600e600083815260200190815260200160002060006101000a81548160ff02191690831515021790555050565b600e6020528060005260406000206000915054906101000a900460ff1681565b600b60009054906101000a900473ffffffffffffffffffffffffffffffffffffffff1673ffffffffffffffffffffffffffffffffffffffff163373ffffffffffffffffffffffffffffffffffffffff1614610a02576040517f1ec1cc2c00000000000000000000000000000000000000000000000000000000815260040160405180910390fd5b60005b82811015610a95576000610a196011611998565b9050610a2560116119a6565b610a2f85826119bc565b82600c600083815260200190815260200160002081905550600d6000848152602001908152602001600020819080600181540180825580915050600190039060005260206000200160009091909190915055508080610a8d90613ca0565b915050610a05565b50505050565b6000600880549050905090565b610ab9610ab36118d7565b826119da565b610af8576040517f08c379a0000000000000000000000000000000000000000000000000000000008152600401610aef90613921565b60405180910390fd5b610b03838383611ab8565b505050565b600b60009054906101000a900473ffffffffffffffffffffffffffffffffffffffff1673ffffffffffffffffffffffffffffffffffffffff163373ffffffffffffffffffffffffffffffffffffffff1614610b8f576040517f1ec1cc2c00000000000000000000000000000000000000000000000000000000815260040160405180910390fd5b60005b8151811015610bf4576001600f6000848481518110610bb457610bb3613e04565b5b6020026020010151815260200190815260200160002060006101000a81548160ff0219169083151502179055508080610bec90613ca0565b915050610b92565b5050565b6000610c0383610e00565b8210610c44576040517f08c379a0000000000000000000000000000000000000000000000000000000008152600401610c3b90613741565b60405180910390fd5b600660008473ffffffffffffffffffffffffffffffffffffffff1673ffffffffffffffffffffffffffffffffffffffff168152602001908152602001600020600083815260200190815260200160002054905092915050565b610cb88383836040518060200160405280600081525061119c565b505050565b6000610cc7610a9b565b8210610d08576040517f08c379a0000000000000000000000000000000000000000000000000000000008152600401610cff90613941565b60405180910390fd5b60088281548110610d1c57610d1b613e04565b5b90600052602060002001549050919050565b600f6020528060005260406000206000915054906101000a900460ff1681565b6000806002600084815260200190815260200160002060009054906101000a900473ffffffffffffffffffffffffffffffffffffffff169050600073ffffffffffffffffffffffffffffffffffffffff168173ffffffffffffffffffffffffffffffffffffffff161415610df7576040517f08c379a0000000000000000000000000000000000000000000000000000000008152600401610dee90613881565b60405180910390fd5b80915050919050565b60008073ffffffffffffffffffffffffffffffffffffffff168273ffffffffffffffffffffffffffffffffffffffff161415610e71576040517f08c379a0000000000000000000000000000000000000000000000000000000008152600401610e6890613861565b60405180910390fd5b600360008373ffffffffffffffffffffffffffffffffffffffff1673ffffffffffffffffffffffffffffffffffffffff168152602001908152602001600020549050919050565b610ec06118d7565b73ffffffffffffffffffffffffffffffffffffffff16610ede610f89565b73ffffffffffffffffffffffffffffffffffffffff1614610f34576040517f08c379a0000000000000000000000000000000000000000000000000000000008152600401610f2b906138e1565b60405180910390fd5b610f3e6000611d1f565b565b600c6020528060005260406000206000915090505481565b600d6020528160005260406000208181548110610f7457600080fd5b90600052602060002001600091509150505481565b6000600a60009054906101000a900473ffffffffffffffffffffffffffffffffffffffff16905090565b606060018054610fc290613c3d565b80601f0160208091040260200160405190810160405280929190818152602001828054610fee90613c3d565b801561103b5780601f106110105761010080835404028352916020019161103b565b820191906000526020600020905b81548152906001019060200180831161101e57829003601f168201915b5050505050905090565b60118060000154905081565b600b60009054906101000a900473ffffffffffffffffffffffffffffffffffffffff1673ffffffffffffffffffffffffffffffffffffffff163373ffffffffffffffffffffffffffffffffffffffff16146110d8576040517f1ec1cc2c00000000000000000000000000000000000000000000000000000000815260040160405180910390fd5b60001515600e600083815260200190815260200160002060009054906101000a900460ff1615151415611137576040517f1ec1cc2c00000000000000000000000000000000000000000000000000000000815260040160405180910390fd5b60016010600083815260200190815260200160002060006101000a81548160ff02191690831515021790555050565b60106020528060005260406000206000915054906101000a900460ff1681565b6111986111916118d7565b8383611de5565b5050565b6111ad6111a76118d7565b836119da565b6111ec576040517f08c379a00000000000000000000000000000000000000000000000000000000081526004016111e390613921565b60405180910390fd5b6111f884848484611f52565b50505050565b606060006012805461120f90613c3d565b80601f016020809104026020016040519081016040528092919081815260200182805461123b90613c3d565b80156112885780601f1061125d57610100808354040283529160200191611288565b820191906000526020600020905b81548152906001019060200180831161126b57829003601f168201915b50505050509050600e600084815260200190815260200160002060009054906101000a900460ff161561134357601380546112c290613c3d565b80601f01602080910402602001604051908101604052809291908181526020018280546112ee90613c3d565b801561133b5780601f106113105761010080835404028352916020019161133b565b820191906000526020600020905b81548152906001019060200180831161131e57829003601f168201915b505050505090505b6115d661134f84611fae565b61136b600c600087815260200190815260200160002054611fae565b600b60009054906101000a900473ffffffffffffffffffffffffffffffffffffffff1673ffffffffffffffffffffffffffffffffffffffff1663b3e2af06600c6000898152602001908152602001600020546040518263ffffffff1660e01b81526004016113d99190613961565b60006040518083038186803b1580156113f157600080fd5b505afa158015611405573d6000803e3d6000fd5b505050506040513d6000823e3d601f19601f8201168201806040525081019061142e9190612fe7565b600e600088815260200190815260200160002060009054906101000a900460ff16600f600089815260200190815260200160002060009054906101000a900460ff16600b60009054906101000a900473ffffffffffffffffffffffffffffffffffffffff1673ffffffffffffffffffffffffffffffffffffffff1663a18cefee600c60008c8152602001908152602001600020546040518263ffffffff1660e01b81526004016114de9190613961565b60206040518083038186803b1580156114f657600080fd5b505afa15801561150a573d6000803e3d6000fd5b505050506040513d601f19601f8201168201806040525081019061152e9190612d2e565b73ffffffffffffffffffffffffffffffffffffffff1663b914a2196040518163ffffffff1660e01b815260040160206040518083038186803b15801561157357600080fd5b505afa158015611587573d6000803e3d6000fd5b505050506040513d601f19601f820116820180604052508101906115ab919061305d565b876040516020016115c2979695949392919061359c565b60405160208183030381529060405261210f565b6040516020016115e6919061367b565b604051602081830303815290604052915050919050565b6000600560008473ffffffffffffffffffffffffffffffffffffffff1673ffffffffffffffffffffffffffffffffffffffff16815260200190815260200160002060008373ffffffffffffffffffffffffffffffffffffffff1673ffffffffffffffffffffffffffffffffffffffff16815260200190815260200160002060009054906101000a900460ff16905092915050565b6116996118d7565b73ffffffffffffffffffffffffffffffffffffffff166116b7610f89565b73ffffffffffffffffffffffffffffffffffffffff161461170d576040517f08c379a0000000000000000000000000000000000000000000000000000000008152600401611704906138e1565b60405180910390fd5b600073ffffffffffffffffffffffffffffffffffffffff168173ffffffffffffffffffffffffffffffffffffffff16141561177d576040517f08c379a000000000000000000000000000000000000000000000000000000000815260040161177490613781565b60405180910390fd5b61178681611d1f565b50565b60007f80ac58cd000000000000000000000000000000000000000000000000000000007bffffffffffffffffffffffffffffffffffffffffffffffffffffffff1916827bffffffffffffffffffffffffffffffffffffffffffffffffffffffff1916148061185457507f5b5e139f000000000000000000000000000000000000000000000000000000007bffffffffffffffffffffffffffffffffffffffffffffffffffffffff1916827bffffffffffffffffffffffffffffffffffffffffffffffffffffffff1916145b80611864575061186382612273565b5b9050919050565b60008073ffffffffffffffffffffffffffffffffffffffff166002600084815260200190815260200160002060009054906101000a900473ffffffffffffffffffffffffffffffffffffffff1673ffffffffffffffffffffffffffffffffffffffff1614159050919050565b600033905090565b816004600083815260200190815260200160002060006101000a81548173ffffffffffffffffffffffffffffffffffffffff021916908373ffffffffffffffffffffffffffffffffffffffff160217905550808273ffffffffffffffffffffffffffffffffffffffff1661195283610d4e565b73ffffffffffffffffffffffffffffffffffffffff167f8c5be1e5ebec7d5bd14f71427d1e84f3dd0314c0f7b2291e5b200ac8c7c3b92560405160405180910390a45050565b600081600001549050919050565b6001816000016000828254019250508190555050565b6119d68282604051806020016040528060008152506122dd565b5050565b60006119e58261186b565b611a24576040517f08c379a0000000000000000000000000000000000000000000000000000000008152600401611a1b90613821565b60405180910390fd5b6000611a2f83610d4e565b90508073ffffffffffffffffffffffffffffffffffffffff168473ffffffffffffffffffffffffffffffffffffffff161480611a715750611a7081856115fd565b5b80611aaf57508373ffffffffffffffffffffffffffffffffffffffff16611a9784610708565b73ffffffffffffffffffffffffffffffffffffffff16145b91505092915050565b8273ffffffffffffffffffffffffffffffffffffffff16611ad882610d4e565b73ffffffffffffffffffffffffffffffffffffffff1614611b2e576040517f08c379a0000000000000000000000000000000000000000000000000000000008152600401611b25906137a1565b60405180910390fd5b600073ffffffffffffffffffffffffffffffffffffffff168273ffffffffffffffffffffffffffffffffffffffff161415611b9e576040517f08c379a0000000000000000000000000000000000000000000000000000000008152600401611b95906137e1565b60405180910390fd5b611ba9838383612338565b611bb46000826118df565b6001600360008573ffffffffffffffffffffffffffffffffffffffff1673ffffffffffffffffffffffffffffffffffffffff1681526020019081526020016000206000828254611c049190613b53565b925050819055506001600360008473ffffffffffffffffffffffffffffffffffffffff1673ffffffffffffffffffffffffffffffffffffffff1681526020019081526020016000206000828254611c5b9190613a72565b92505081905550816002600083815260200190815260200160002060006101000a81548173ffffffffffffffffffffffffffffffffffffffff021916908373ffffffffffffffffffffffffffffffffffffffff160217905550808273ffffffffffffffffffffffffffffffffffffffff168473ffffffffffffffffffffffffffffffffffffffff167fddf252ad1be2c89b69c2b068fc378daa952ba7f163c4a11628f55a4df523b3ef60405160405180910390a4611d1a83838361244c565b505050565b6000600a60009054906101000a900473ffffffffffffffffffffffffffffffffffffffff16905081600a60006101000a81548173ffffffffffffffffffffffffffffffffffffffff021916908373ffffffffffffffffffffffffffffffffffffffff1602179055508173ffffffffffffffffffffffffffffffffffffffff168173ffffffffffffffffffffffffffffffffffffffff167f8be0079c531659141344cd1fd0a4f28419497f9722a3daafe3b4186f6b6457e060405160405180910390a35050565b8173ffffffffffffffffffffffffffffffffffffffff168373ffffffffffffffffffffffffffffffffffffffff161415611e54576040517f08c379a0000000000000000000000000000000000000000000000000000000008152600401611e4b90613801565b60405180910390fd5b80600560008573ffffffffffffffffffffffffffffffffffffffff1673ffffffffffffffffffffffffffffffffffffffff16815260200190815260200160002060008473ffffffffffffffffffffffffffffffffffffffff1673ffffffffffffffffffffffffffffffffffffffff16815260200190815260200160002060006101000a81548160ff0219169083151502179055508173ffffffffffffffffffffffffffffffffffffffff168373ffffffffffffffffffffffffffffffffffffffff167f17307eab39ab6107e8899845ad3d59bd9653f200f220920489ca2b5937696c3183604051611f459190613704565b60405180910390a3505050565b611f5d848484611ab8565b611f6984848484612451565b611fa8576040517f08c379a0000000000000000000000000000000000000000000000000000000008152600401611f9f90613761565b60405180910390fd5b50505050565b60606000821415611ff6576040518060400160405280600181526020017f3000000000000000000000000000000000000000000000000000000000000000815250905061210a565b600082905060005b6000821461202857808061201190613ca0565b915050600a826120219190613ac8565b9150611ffe565b60008167ffffffffffffffff81111561204457612043613e33565b5b6040519080825280601f01601f1916602001820160405280156120765781602001600182028036833780820191505090505b5090505b600085146121035760018261208f9190613b53565b9150600a8561209e9190613d17565b60306120aa9190613a72565b60f81b8183815181106120c0576120bf613e04565b5b60200101907effffffffffffffffffffffffffffffffffffffffffffffffffffffffffffff1916908160001a905350600a856120fc9190613ac8565b945061207a565b8093505050505b919050565b60606000825114156121325760405180602001604052806000815250905061226e565b60006040518060600160405280604081526020016145ac60409139905060006003600285516121619190613a72565b61216b9190613ac8565b60046121779190613af9565b67ffffffffffffffff8111156121905761218f613e33565b5b6040519080825280601f01601f1916602001820160405280156121c25781602001600182028036833780820191505090505b509050600182016020820185865187015b8082101561222e576003820191508151603f8160121c168501518453600184019350603f81600c1c168501518453600184019350603f8160061c168501518453600184019350603f81168501518453600184019350506121d3565b505060038651066001811461224a576002811461225d57612265565b603d6001830353603d6002830353612265565b603d60018303535b50505080925050505b919050565b60007f01ffc9a7000000000000000000000000000000000000000000000000000000007bffffffffffffffffffffffffffffffffffffffffffffffffffffffff1916827bffffffffffffffffffffffffffffffffffffffffffffffffffffffff1916149050919050565b6122e783836125e8565b6122f46000848484612451565b612333576040517f08c379a000000000000000000000000000000000000000000000000000000000815260040161232a90613761565b60405180910390fd5b505050565b6123438383836127c2565b600073ffffffffffffffffffffffffffffffffffffffff168373ffffffffffffffffffffffffffffffffffffffff16141561238657612381816127c7565b6123c5565b8173ffffffffffffffffffffffffffffffffffffffff168373ffffffffffffffffffffffffffffffffffffffff16146123c4576123c38382612810565b5b5b600073ffffffffffffffffffffffffffffffffffffffff168273ffffffffffffffffffffffffffffffffffffffff161415612408576124038161297d565b612447565b8273ffffffffffffffffffffffffffffffffffffffff168273ffffffffffffffffffffffffffffffffffffffff1614612446576124458282612a4e565b5b5b505050565b505050565b60006124728473ffffffffffffffffffffffffffffffffffffffff16612acd565b156125db578373ffffffffffffffffffffffffffffffffffffffff1663150b7a0261249b6118d7565b8786866040518563ffffffff1660e01b81526004016124bd94939291906136b8565b602060405180830381600087803b1580156124d757600080fd5b505af192505050801561250857506040513d601f19601f820116820180604052508101906125059190612fba565b60015b61258b573d8060008114612538576040519150601f19603f3d011682016040523d82523d6000602084013e61253d565b606091505b50600081511415612583576040517f08c379a000000000000000000000000000000000000000000000000000000000815260040161257a90613761565b60405180910390fd5b805181602001fd5b63150b7a0260e01b7bffffffffffffffffffffffffffffffffffffffffffffffffffffffff1916817bffffffffffffffffffffffffffffffffffffffffffffffffffffffff1916149150506125e0565b600190505b949350505050565b600073ffffffffffffffffffffffffffffffffffffffff168273ffffffffffffffffffffffffffffffffffffffff161415612658576040517f08c379a000000000000000000000000000000000000000000000000000000000815260040161264f906138a1565b60405180910390fd5b6126618161186b565b156126a1576040517f08c379a0000000000000000000000000000000000000000000000000000000008152600401612698906137c1565b60405180910390fd5b6126ad60008383612338565b6001600360008473ffffffffffffffffffffffffffffffffffffffff1673ffffffffffffffffffffffffffffffffffffffff16815260200190815260200160002060008282546126fd9190613a72565b92505081905550816002600083815260200190815260200160002060006101000a81548173ffffffffffffffffffffffffffffffffffffffff021916908373ffffffffffffffffffffffffffffffffffffffff160217905550808273ffffffffffffffffffffffffffffffffffffffff16600073ffffffffffffffffffffffffffffffffffffffff167fddf252ad1be2c89b69c2b068fc378daa952ba7f163c4a11628f55a4df523b3ef60405160405180910390a46127be6000838361244c565b5050565b505050565b6008805490506009600083815260200190815260200160002081905550600881908060018154018082558091505060019003906000526020600020016000909190919091505550565b6000600161281d84610e00565b6128279190613b53565b905060006007600084815260200190815260200160002054905081811461290c576000600660008673ffffffffffffffffffffffffffffffffffffffff1673ffffffffffffffffffffffffffffffffffffffff168152602001908152602001600020600084815260200190815260200160002054905080600660008773ffffffffffffffffffffffffffffffffffffffff1673ffffffffffffffffffffffffffffffffffffffff168152602001908152602001600020600084815260200190815260200160002081905550816007600083815260200190815260200160002081905550505b6007600084815260200190815260200160002060009055600660008573ffffffffffffffffffffffffffffffffffffffff1673ffffffffffffffffffffffffffffffffffffffff16815260200190815260200160002060008381526020019081526020016000206000905550505050565b600060016008805490506129919190613b53565b90506000600960008481526020019081526020016000205490506000600883815481106129c1576129c0613e04565b5b9060005260206000200154905080600883815481106129e3576129e2613e04565b5b906000526020600020018190555081600960008381526020019081526020016000208190555060096000858152602001908152602001600020600090556008805480612a3257612a31613dd5565b5b6001900381819060005260206000200160009055905550505050565b6000612a5983610e00565b905081600660008573ffffffffffffffffffffffffffffffffffffffff1673ffffffffffffffffffffffffffffffffffffffff168152602001908152602001600020600083815260200190815260200160002081905550806007600084815260200190815260200160002081905550505050565b6000808273ffffffffffffffffffffffffffffffffffffffff163b119050919050565b6000612b03612afe846139a1565b61397c565b90508083825260208201905082856020860282011115612b2657612b25613e67565b5b60005b85811015612b565781612b3c8882612cd7565b845260208401935060208301925050600181019050612b29565b5050509392505050565b6000612b73612b6e846139cd565b61397c565b905082815260208101848484011115612b8f57612b8e613e6c565b5b612b9a848285613bfb565b509392505050565b6000612bb5612bb0846139fe565b61397c565b905082815260208101848484011115612bd157612bd0613e6c565b5b612bdc848285613c0a565b509392505050565b600081359050612bf38161454f565b92915050565b600081519050612c088161454f565b92915050565b600082601f830112612c2357612c22613e62565b5b8135612c33848260208601612af0565b91505092915050565b600081359050612c4b81614566565b92915050565b600081359050612c608161457d565b92915050565b600081519050612c758161457d565b92915050565b600082601f830112612c9057612c8f613e62565b5b8135612ca0848260208601612b60565b91505092915050565b600082601f830112612cbe57612cbd613e62565b5b8151612cce848260208601612ba2565b91505092915050565b600081359050612ce681614594565b92915050565b600081519050612cfb81614594565b92915050565b600060208284031215612d1757612d16613e76565b5b6000612d2584828501612be4565b91505092915050565b600060208284031215612d4457612d43613e76565b5b6000612d5284828501612bf9565b91505092915050565b60008060408385031215612d7257612d71613e76565b5b6000612d8085828601612be4565b9250506020612d9185828601612be4565b9150509250929050565b600080600060608486031215612db457612db3613e76565b5b6000612dc286828701612be4565b9350506020612dd386828701612be4565b9250506040612de486828701612cd7565b9150509250925092565b60008060008060808587031215612e0857612e07613e76565b5b6000612e1687828801612be4565b9450506020612e2787828801612be4565b9350506040612e3887828801612cd7565b925050606085013567ffffffffffffffff811115612e5957612e58613e71565b5b612e6587828801612c7b565b91505092959194509250565b60008060408385031215612e8857612e87613e76565b5b6000612e9685828601612be4565b9250506020612ea785828601612c3c565b9150509250929050565b60008060408385031215612ec857612ec7613e76565b5b6000612ed685828601612be4565b9250506020612ee785828601612cd7565b9150509250929050565b600080600060608486031215612f0a57612f09613e76565b5b6000612f1886828701612be4565b9350506020612f2986828701612cd7565b9250506040612f3a86828701612cd7565b9150509250925092565b600060208284031215612f5a57612f59613e76565b5b600082013567ffffffffffffffff811115612f7857612f77613e71565b5b612f8484828501612c0e565b91505092915050565b600060208284031215612fa357612fa2613e76565b5b6000612fb184828501612c51565b91505092915050565b600060208284031215612fd057612fcf613e76565b5b6000612fde84828501612c66565b91505092915050565b600060208284031215612ffd57612ffc613e76565b5b600082015167ffffffffffffffff81111561301b5761301a613e71565b5b61302784828501612ca9565b91505092915050565b60006020828403121561304657613045613e76565b5b600061305484828501612cd7565b91505092915050565b60006020828403121561307357613072613e76565b5b600061308184828501612cec565b91505092915050565b600080604083850312156130a1576130a0613e76565b5b60006130af85828601612cd7565b92505060206130c085828601612cd7565b9150509250929050565b6130d381613b87565b82525050565b6130e281613b99565b82525050565b6130f96130f482613b99565b613ce9565b82525050565b600061310a82613a2f565b6131148185613a45565b9350613124818560208601613c0a565b61312d81613e7b565b840191505092915050565b600061314382613a3a565b61314d8185613a56565b935061315d818560208601613c0a565b61316681613e7b565b840191505092915050565b600061317c82613a3a565b6131868185613a67565b9350613196818560208601613c0a565b80840191505092915050565b60006131af602783613a67565b91506131ba82613e99565b602782019050919050565b60006131d2602b83613a56565b91506131dd82613ee8565b604082019050919050565b60006131f5603283613a56565b915061320082613f37565b604082019050919050565b6000613218601283613a67565b915061322382613f86565b601282019050919050565b600061323b602683613a56565b915061324682613faf565b604082019050919050565b600061325e602583613a56565b915061326982613ffe565b604082019050919050565b6000613281601c83613a56565b915061328c8261404d565b602082019050919050565b60006132a4602483613a56565b91506132af82614076565b604082019050919050565b60006132c7601983613a56565b91506132d2826140c5565b602082019050919050565b60006132ea602c83613a56565b91506132f5826140ee565b604082019050919050565b600061330d603883613a56565b91506133188261413d565b604082019050919050565b6000613330602a83613a56565b915061333b8261418c565b604082019050919050565b6000613353602983613a56565b915061335e826141db565b604082019050919050565b6000613376601083613a67565b91506133818261422a565b601082019050919050565b6000613399600283613a67565b91506133a482614253565b600282019050919050565b60006133bc603983613a67565b91506133c78261427c565b603982019050919050565b60006133df602083613a56565b91506133ea826142cb565b602082019050919050565b6000613402600d83613a67565b915061340d826142f4565b600d82019050919050565b6000613425601e83613a67565b91506134308261431d565b601e82019050919050565b6000613448602c83613a56565b915061345382614346565b604082019050919050565b600061346b601283613a67565b915061347682614395565b601282019050919050565b600061348e602083613a56565b9150613499826143be565b602082019050919050565b60006134b1601483613a67565b91506134bc826143e7565b601482019050919050565b60006134d4602183613a56565b91506134df82614410565b604082019050919050565b60006134f7601d83613a67565b91506135028261445f565b601d82019050919050565b600061351a603183613a56565b915061352582614488565b604082019050919050565b600061353d602c83613a56565b9150613548826144d7565b604082019050919050565b6000613560600283613a67565b915061356b82614526565b600282019050919050565b61357f81613bf1565b82525050565b61359661359182613bf1565b613cfb565b82525050565b60006135a782613418565b91506135b3828a613171565b91506135be8261345e565b91506135c9826131a2565b91506135d58289613171565b91506135e082613553565b91506135ec8288613171565b91506135f7826133af565b915061360282613369565b915061360e82876130e8565b60018201915061361d8261320b565b915061362982866130e8565b600182019150613638826134a4565b91506136448285613585565b602082019150613653826133f5565b915061365f8284613171565b915061366a8261338c565b915081905098975050505050505050565b6000613686826134ea565b91506136928284613171565b915081905092915050565b60006020820190506136b260008301846130ca565b92915050565b60006080820190506136cd60008301876130ca565b6136da60208301866130ca565b6136e76040830185613576565b81810360608301526136f981846130ff565b905095945050505050565b600060208201905061371960008301846130d9565b92915050565b600060208201905081810360008301526137398184613138565b905092915050565b6000602082019050818103600083015261375a816131c5565b9050919050565b6000602082019050818103600083015261377a816131e8565b9050919050565b6000602082019050818103600083015261379a8161322e565b9050919050565b600060208201905081810360008301526137ba81613251565b9050919050565b600060208201905081810360008301526137da81613274565b9050919050565b600060208201905081810360008301526137fa81613297565b9050919050565b6000602082019050818103600083015261381a816132ba565b9050919050565b6000602082019050818103600083015261383a816132dd565b9050919050565b6000602082019050818103600083015261385a81613300565b9050919050565b6000602082019050818103600083015261387a81613323565b9050919050565b6000602082019050818103600083015261389a81613346565b9050919050565b600060208201905081810360008301526138ba816133d2565b9050919050565b600060208201905081810360008301526138da8161343b565b9050919050565b600060208201905081810360008301526138fa81613481565b9050919050565b6000602082019050818103600083015261391a816134c7565b9050919050565b6000602082019050818103600083015261393a8161350d565b9050919050565b6000602082019050818103600083015261395a81613530565b9050919050565b60006020820190506139766000830184613576565b92915050565b6000613986613997565b90506139928282613c6f565b919050565b6000604051905090565b600067ffffffffffffffff8211156139bc576139bb613e33565b5b602082029050602081019050919050565b600067ffffffffffffffff8211156139e8576139e7613e33565b5b6139f182613e7b565b9050602081019050919050565b600067ffffffffffffffff821115613a1957613a18613e33565b5b613a2282613e7b565b9050602081019050919050565b600081519050919050565b600081519050919050565b600082825260208201905092915050565b600082825260208201905092915050565b600081905092915050565b6000613a7d82613bf1565b9150613a8883613bf1565b9250827fffffffffffffffffffffffffffffffffffffffffffffffffffffffffffffffff03821115613abd57613abc613d48565b5b828201905092915050565b6000613ad382613bf1565b9150613ade83613bf1565b925082613aee57613aed613d77565b5b828204905092915050565b6000613b0482613bf1565b9150613b0f83613bf1565b9250817fffffffffffffffffffffffffffffffffffffffffffffffffffffffffffffffff0483118215151615613b4857613b47613d48565b5b828202905092915050565b6000613b5e82613bf1565b9150613b6983613bf1565b925082821015613b7c57613b7b613d48565b5b828203905092915050565b6000613b9282613bd1565b9050919050565b60008115159050919050565b60007fffffffff0000000000000000000000000000000000000000000000000000000082169050919050565b600073ffffffffffffffffffffffffffffffffffffffff82169050919050565b6000819050919050565b82818337600083830152505050565b60005b83811015613c28578082015181840152602081019050613c0d565b83811115613c37576000848401525b50505050565b60006002820490506001821680613c5557607f821691505b60208210811415613c6957613c68613da6565b5b50919050565b613c7882613e7b565b810181811067ffffffffffffffff82111715613c9757613c96613e33565b5b80604052505050565b6000613cab82613bf1565b91507fffffffffffffffffffffffffffffffffffffffffffffffffffffffffffffffff821415613cde57613cdd613d48565b5b600182019050919050565b6000613cf482613d05565b9050919050565b6000819050919050565b6000613d1082613e8c565b9050919050565b6000613d2282613bf1565b9150613d2d83613bf1565b925082613d3d57613d3c613d77565b5b828206905092915050565b7f4e487b7100000000000000000000000000000000000000000000000000000000600052601160045260246000fd5b7f4e487b7100000000000000000000000000000000000000000000000000000000600052601260045260246000fd5b7f4e487b7100000000000000000000000000000000000000000000000000000000600052602260045260246000fd5b7f4e487b7100000000000000000000000000000000000000000000000000000000600052603160045260246000fd5b7f4e487b7100000000000000000000000000000000000000000000000000000000600052603260045260246000fd5b7f4e487b7100000000000000000000000000000000000000000000000000000000600052604160045260246000fd5b600080fd5b600080fd5b600080fd5b600080fd5b600080fd5b6000601f19601f8301169050919050565b60008160f81b9050919050565b7f54686973207469636b65742069732067656e6572617465642066726f6d204c6f60008201527f6f74626f78202300000000000000000000000000000000000000000000000000602082015250565b7f455243373231456e756d657261626c653a206f776e657220696e646578206f7560008201527f74206f6620626f756e6473000000000000000000000000000000000000000000602082015250565b7f4552433732313a207472616e7366657220746f206e6f6e20455243373231526560008201527f63656976657220696d706c656d656e7465720000000000000000000000000000602082015250565b7f222c20226973526566756e646564223a20220000000000000000000000000000600082015250565b7f4f776e61626c653a206e6577206f776e657220697320746865207a65726f206160008201527f6464726573730000000000000000000000000000000000000000000000000000602082015250565b7f4552433732313a207472616e736665722066726f6d20696e636f72726563742060008201527f6f776e6572000000000000000000000000000000000000000000000000000000602082015250565b7f4552433732313a20746f6b656e20616c7265616479206d696e74656400000000600082015250565b7f4552433732313a207472616e7366657220746f20746865207a65726f2061646460008201527f7265737300000000000000000000000000000000000000000000000000000000602082015250565b7f4552433732313a20617070726f766520746f2063616c6c657200000000000000600082015250565b7f4552433732313a206f70657261746f7220717565727920666f72206e6f6e657860008201527f697374656e7420746f6b656e0000000000000000000000000000000000000000602082015250565b7f4552433732313a20617070726f76652063616c6c6572206973206e6f74206f7760008201527f6e6572206e6f7220617070726f76656420666f7220616c6c0000000000000000602082015250565b7f4552433732313a2062616c616e636520717565727920666f7220746865207a6560008201527f726f206164647265737300000000000000000000000000000000000000000000602082015250565b7f4552433732313a206f776e657220717565727920666f72206e6f6e657869737460008201527f656e7420746f6b656e0000000000000000000000000000000000000000000000602082015250565b7f222c2022697357696e6e6572223a202200000000000000000000000000000000600082015250565b7f227d000000000000000000000000000000000000000000000000000000000000600082015250565b7f2120596f7520686176652061206368616e636520746f2077696e207072697a6560008201527f7320696e73696465207468652050616e646f726120426f782100000000000000602082015250565b7f4552433732313a206d696e7420746f20746865207a65726f2061646472657373600082015250565b7f222c2022696d616765223a202200000000000000000000000000000000000000600082015250565b7f7b226e616d65223a225468652050616e646f7261205469636b65742023220000600082015250565b7f4552433732313a20617070726f76656420717565727920666f72206e6f6e657860008201527f697374656e7420746f6b656e0000000000000000000000000000000000000000602082015250565b7f222c20226465736372697074696f6e223a220000000000000000000000000000600082015250565b7f4f776e61626c653a2063616c6c6572206973206e6f7420746865206f776e6572600082015250565b7f222c20226472617754696d657374616d70223a22000000000000000000000000600082015250565b7f4552433732313a20617070726f76616c20746f2063757272656e74206f776e6560008201527f7200000000000000000000000000000000000000000000000000000000000000602082015250565b7f646174613a6170706c69636174696f6e2f6a736f6e3b6261736536342c000000600082015250565b7f4552433732313a207472616e736665722063616c6c6572206973206e6f74206f60008201527f776e6572206e6f7220617070726f766564000000000000000000000000000000602082015250565b7f455243373231456e756d657261626c653a20676c6f62616c20696e646578206f60008201527f7574206f6620626f756e64730000000000000000000000000000000000000000602082015250565b7f3a20000000000000000000000000000000000000000000000000000000000000600082015250565b61455881613b87565b811461456357600080fd5b50565b61456f81613b99565b811461457a57600080fd5b50565b61458681613ba5565b811461459157600080fd5b50565b61459d81613bf1565b81146145a857600080fd5b5056fe4142434445464748494a4b4c4d4e4f505152535455565758595a6162636465666768696a6b6c6d6e6f707172737475767778797a303132333435363738392b2fa26469706673582212200acb8feb978a9d7200f0bb36ed062c8631925ec4ce99eee29126aa3f9dcccd1d64736f6c63430008070033697066733a2f2f62616679626569617637377633346c6e373276626e6f7a70726b7a666c6f717674776c623565616f68696e746b6a69766170327470346774716469697066733a2f2f6261666b726569676d356972377679697269636e6c323361376262627a69337665327472367635347069327175737666757932726c647563337765",
  "linkReferences": {},
  "deployedLinkReferences": {}
}