{
  "_format": "hh-sol-artifact-1",
  "contractName": "PandoraTicket",
  "sourceName": "contracts/PandoraTicket.sol",
  "abi": [
    {
      "inputs": [
        {
          "internalType": "address",
          "name": "_factory",
          "type": "address"
        }
      ],
      "stateMutability": "nonpayable",
      "type": "constructor"
    },
    {
      "inputs": [],
      "name": "Ticket__Unauthorized",
      "type": "error"
    },
    {
      "anonymous": false,
      "inputs": [
        {
          "indexed": true,
          "internalType": "address",
          "name": "owner",
          "type": "address"
        },
        {
          "indexed": true,
          "internalType": "address",
          "name": "approved",
          "type": "address"
        },
        {
          "indexed": true,
          "internalType": "uint256",
          "name": "tokenId",
          "type": "uint256"
        }
      ],
      "name": "Approval",
      "type": "event"
    },
    {
      "anonymous": false,
      "inputs": [
        {
          "indexed": true,
          "internalType": "address",
          "name": "owner",
          "type": "address"
        },
        {
          "indexed": true,
          "internalType": "address",
          "name": "operator",
          "type": "address"
        },
        {
          "indexed": false,
          "internalType": "bool",
          "name": "approved",
          "type": "bool"
        }
      ],
      "name": "ApprovalForAll",
      "type": "event"
    },
    {
      "anonymous": false,
      "inputs": [
        {
          "indexed": true,
          "internalType": "address",
          "name": "previousOwner",
          "type": "address"
        },
        {
          "indexed": true,
          "internalType": "address",
          "name": "newOwner",
          "type": "address"
        }
      ],
      "name": "OwnershipTransferred",
      "type": "event"
    },
    {
      "anonymous": false,
      "inputs": [
        {
          "indexed": true,
          "internalType": "uint256",
          "name": "tokenId",
          "type": "uint256"
        },
        {
          "indexed": false,
          "internalType": "address",
          "name": "to",
          "type": "address"
        },
        {
          "indexed": false,
          "internalType": "uint256",
          "name": "lootboxId",
          "type": "uint256"
        }
      ],
      "name": "TicketMinted",
      "type": "event"
    },
    {
      "anonymous": false,
      "inputs": [
        {
          "indexed": true,
          "internalType": "address",
          "name": "from",
          "type": "address"
        },
        {
          "indexed": true,
          "internalType": "address",
          "name": "to",
          "type": "address"
        },
        {
          "indexed": true,
          "internalType": "uint256",
          "name": "tokenId",
          "type": "uint256"
        }
      ],
      "name": "Transfer",
      "type": "event"
    },
    {
      "inputs": [
        {
          "internalType": "address",
          "name": "to",
          "type": "address"
        },
        {
          "internalType": "uint256",
          "name": "tokenId",
          "type": "uint256"
        }
      ],
      "name": "approve",
      "outputs": [],
      "stateMutability": "nonpayable",
      "type": "function"
    },
    {
      "inputs": [
        {
          "internalType": "address",
          "name": "owner",
          "type": "address"
        }
      ],
      "name": "balanceOf",
      "outputs": [
        {
          "internalType": "uint256",
          "name": "",
          "type": "uint256"
        }
      ],
      "stateMutability": "view",
      "type": "function"
    },
    {
      "inputs": [
        {
          "internalType": "uint256",
          "name": "tokenId",
          "type": "uint256"
        }
      ],
      "name": "getApproved",
      "outputs": [
        {
          "internalType": "address",
          "name": "",
          "type": "address"
        }
      ],
      "stateMutability": "view",
      "type": "function"
    },
    {
      "inputs": [
        {
          "internalType": "uint256",
          "name": "lootboxId",
          "type": "uint256"
        }
      ],
      "name": "getOwnTicketsForLootbox",
      "outputs": [
        {
          "internalType": "uint256[]",
          "name": "",
          "type": "uint256[]"
        }
      ],
      "stateMutability": "view",
      "type": "function"
    },
    {
      "inputs": [
        {
          "internalType": "uint256",
          "name": "lootboxId",
          "type": "uint256"
        }
      ],
      "name": "getTicketsForLootbox",
      "outputs": [
        {
          "internalType": "uint256[]",
          "name": "",
          "type": "uint256[]"
        }
      ],
      "stateMutability": "view",
      "type": "function"
    },
    {
      "inputs": [
        {
          "internalType": "address",
          "name": "owner",
          "type": "address"
        },
        {
          "internalType": "address",
          "name": "operator",
          "type": "address"
        }
      ],
      "name": "isApprovedForAll",
      "outputs": [
        {
          "internalType": "bool",
          "name": "",
          "type": "bool"
        }
      ],
      "stateMutability": "view",
      "type": "function"
    },
    {
      "inputs": [
        {
          "internalType": "uint256",
          "name": "",
          "type": "uint256"
        }
      ],
      "name": "isClaimed",
      "outputs": [
        {
          "internalType": "bool",
          "name": "",
          "type": "bool"
        }
      ],
      "stateMutability": "view",
      "type": "function"
    },
    {
      "inputs": [
        {
          "internalType": "uint256",
          "name": "",
          "type": "uint256"
        }
      ],
      "name": "isRefunded",
      "outputs": [
        {
          "internalType": "bool",
          "name": "",
          "type": "bool"
        }
      ],
      "stateMutability": "view",
      "type": "function"
    },
    {
      "inputs": [
        {
          "internalType": "uint256",
          "name": "",
          "type": "uint256"
        }
      ],
      "name": "isWinner",
      "outputs": [
        {
          "internalType": "bool",
          "name": "",
          "type": "bool"
        }
      ],
      "stateMutability": "view",
      "type": "function"
    },
    {
      "inputs": [
        {
          "internalType": "uint256",
          "name": "",
          "type": "uint256"
        }
      ],
      "name": "lootboxIds",
      "outputs": [
        {
          "internalType": "uint256",
          "name": "",
          "type": "uint256"
        }
      ],
      "stateMutability": "view",
      "type": "function"
    },
    {
      "inputs": [
        {
          "internalType": "address",
          "name": "_to",
          "type": "address"
        },
        {
          "internalType": "uint256",
          "name": "_amount",
          "type": "uint256"
        },
        {
          "internalType": "uint256",
          "name": "_lootboxId",
          "type": "uint256"
        }
      ],
      "name": "mint",
      "outputs": [],
      "stateMutability": "nonpayable",
      "type": "function"
    },
    {
      "inputs": [],
      "name": "name",
      "outputs": [
        {
          "internalType": "string",
          "name": "",
          "type": "string"
        }
      ],
      "stateMutability": "view",
      "type": "function"
    },
    {
      "inputs": [],
      "name": "owner",
      "outputs": [
        {
          "internalType": "address",
          "name": "",
          "type": "address"
        }
      ],
      "stateMutability": "view",
      "type": "function"
    },
    {
      "inputs": [
        {
          "internalType": "uint256",
          "name": "tokenId",
          "type": "uint256"
        }
      ],
      "name": "ownerOf",
      "outputs": [
        {
          "internalType": "address",
          "name": "",
          "type": "address"
        }
      ],
      "stateMutability": "view",
      "type": "function"
    },
    {
      "inputs": [
        {
          "internalType": "uint256[]",
          "name": "tokenIds",
          "type": "uint256[]"
        }
      ],
      "name": "refundTicket",
      "outputs": [],
      "stateMutability": "nonpayable",
      "type": "function"
    },
    {
      "inputs": [],
      "name": "renounceOwnership",
      "outputs": [],
      "stateMutability": "nonpayable",
      "type": "function"
    },
    {
      "inputs": [
        {
          "internalType": "address",
          "name": "from",
          "type": "address"
        },
        {
          "internalType": "address",
          "name": "to",
          "type": "address"
        },
        {
          "internalType": "uint256",
          "name": "tokenId",
          "type": "uint256"
        }
      ],
      "name": "safeTransferFrom",
      "outputs": [],
      "stateMutability": "nonpayable",
      "type": "function"
    },
    {
      "inputs": [
        {
          "internalType": "address",
          "name": "from",
          "type": "address"
        },
        {
          "internalType": "address",
          "name": "to",
          "type": "address"
        },
        {
          "internalType": "uint256",
          "name": "tokenId",
          "type": "uint256"
        },
        {
          "internalType": "bytes",
          "name": "_data",
          "type": "bytes"
        }
      ],
      "name": "safeTransferFrom",
      "outputs": [],
      "stateMutability": "nonpayable",
      "type": "function"
    },
    {
      "inputs": [
        {
          "internalType": "address",
          "name": "operator",
          "type": "address"
        },
        {
          "internalType": "bool",
          "name": "approved",
          "type": "bool"
        }
      ],
      "name": "setApprovalForAll",
      "outputs": [],
      "stateMutability": "nonpayable",
      "type": "function"
    },
    {
      "inputs": [
        {
          "internalType": "uint256",
          "name": "_tokenId",
          "type": "uint256"
        }
      ],
      "name": "setClaim",
      "outputs": [],
      "stateMutability": "nonpayable",
      "type": "function"
    },
    {
      "inputs": [
        {
          "internalType": "uint256",
          "name": "_tokenId",
          "type": "uint256"
        }
      ],
      "name": "setWinner",
      "outputs": [],
      "stateMutability": "nonpayable",
      "type": "function"
    },
    {
      "inputs": [
        {
          "internalType": "bytes4",
          "name": "interfaceId",
          "type": "bytes4"
        }
      ],
      "name": "supportsInterface",
      "outputs": [
        {
          "internalType": "bool",
          "name": "",
          "type": "bool"
        }
      ],
      "stateMutability": "view",
      "type": "function"
    },
    {
      "inputs": [],
      "name": "symbol",
      "outputs": [
        {
          "internalType": "string",
          "name": "",
          "type": "string"
        }
      ],
      "stateMutability": "view",
      "type": "function"
    },
    {
      "inputs": [
        {
          "internalType": "uint256",
          "name": "",
          "type": "uint256"
        },
        {
          "internalType": "uint256",
          "name": "",
          "type": "uint256"
        }
      ],
      "name": "ticketIds",
      "outputs": [
        {
          "internalType": "uint256",
          "name": "",
          "type": "uint256"
        }
      ],
      "stateMutability": "view",
      "type": "function"
    },
    {
      "inputs": [
        {
          "internalType": "uint256",
          "name": "index",
          "type": "uint256"
        }
      ],
      "name": "tokenByIndex",
      "outputs": [
        {
          "internalType": "uint256",
          "name": "",
          "type": "uint256"
        }
      ],
      "stateMutability": "view",
      "type": "function"
    },
    {
      "inputs": [],
      "name": "tokenIdCounter",
      "outputs": [
        {
          "internalType": "uint256",
          "name": "_value",
          "type": "uint256"
        }
      ],
      "stateMutability": "view",
      "type": "function"
    },
    {
      "inputs": [
        {
          "internalType": "address",
          "name": "owner",
          "type": "address"
        },
        {
          "internalType": "uint256",
          "name": "index",
          "type": "uint256"
        }
      ],
      "name": "tokenOfOwnerByIndex",
      "outputs": [
        {
          "internalType": "uint256",
          "name": "",
          "type": "uint256"
        }
      ],
      "stateMutability": "view",
      "type": "function"
    },
    {
      "inputs": [
        {
          "internalType": "uint256",
          "name": "tokenId",
          "type": "uint256"
        }
      ],
      "name": "tokenURI",
      "outputs": [
        {
          "internalType": "string",
          "name": "",
          "type": "string"
        }
      ],
      "stateMutability": "view",
      "type": "function"
    },
    {
      "inputs": [],
      "name": "totalSupply",
      "outputs": [
        {
          "internalType": "uint256",
          "name": "",
          "type": "uint256"
        }
      ],
      "stateMutability": "view",
      "type": "function"
    },
    {
      "inputs": [
        {
          "internalType": "address",
          "name": "from",
          "type": "address"
        },
        {
          "internalType": "address",
          "name": "to",
          "type": "address"
        },
        {
          "internalType": "uint256",
          "name": "tokenId",
          "type": "uint256"
        }
      ],
      "name": "transferFrom",
      "outputs": [],
      "stateMutability": "nonpayable",
      "type": "function"
    },
    {
      "inputs": [
        {
          "internalType": "address",
          "name": "newOwner",
          "type": "address"
        }
      ],
      "name": "transferOwnership",
      "outputs": [],
      "stateMutability": "nonpayable",
      "type": "function"
    }
  ],
  "bytecode": "0x61010060405260426080818152906200363f60a03980516200002a9160129160209091019062000258565b50604051806080016040528060428152602001620035376042913980516200005b9160139160209091019062000258565b50604051806080016040528060428152602001620035796042913980516200008c9160149160209091019062000258565b50604051806080016040528060428152602001620035fd604291398051620000bd9160159160209091019062000258565b50604051806080016040528060428152602001620035bb604291398051620000ee9160169160209091019062000258565b50604051806080016040528060428152602001620034f56042913980516200011f9160179160209091019062000258565b503480156200012d57600080fd5b506040516200368138038062003681833981016040819052620001509162000311565b6040805180820182526012815271151a194814185b991bdc9848151a58dad95d60721b60208083019182528351808501909452600784526650414e444f524160c81b908401528151919291620001a99160009162000258565b508051620001bf90600190602084019062000258565b505050620001dc620001d66200020260201b60201c565b62000206565b600b80546001600160a01b0319166001600160a01b0392909216919091179055620003b1565b3390565b600a80546001600160a01b038381166001600160a01b0319831681179093556040519116919082907f8be0079c531659141344cd1fd0a4f28419497f9722a3daafe3b4186f6b6457e090600090a35050565b828054620002669062000350565b90600052602060002090601f0160209004810192826200028a5760008555620002d5565b82601f10620002a557805160ff1916838001178555620002d5565b82800160010185558215620002d5579182015b82811115620002d5578251825591602001919060010190620002b8565b50620002e3929150620002e7565b5090565b5b80821115620002e35760008155600101620002e8565b80516200030b8162000397565b92915050565b600060208284031215620003285762000328600080fd5b6000620003368484620002fe565b949350505050565b60006001600160a01b0382166200030b565b6002810460018216806200036557607f821691505b602082108114156200037b576200037b62000381565b50919050565b634e487b7160e01b600052602260045260246000fd5b620003a2816200033e565b8114620003ae57600080fd5b50565b61313480620003c16000396000f3fe608060405234801561001057600080fd5b50600436106101e55760003560e01c806370a082311161010f5780639e34070f116100a2578063c87b56dd11610071578063c87b56dd14610439578063e7a3fc111461044c578063e985e9c51461045f578063f2fde38b1461049b57600080fd5b80639e34070f146103d0578063a22cb465146103f3578063b68c8fad14610406578063b88d4fde1461042657600080fd5b80638da5cb5b116100de5780638da5cb5b1461039a57806395d89b41146103ab57806398bdf6f5146103b35780639a86297c146103bd57600080fd5b806370a082311461034c578063715018a61461035f578063781334af1461036757806378df3a521461038757600080fd5b806318160ddd1161018757806342842e0e1161015657806342842e0e146102f05780634f6ccce71461030357806355866c8d146103165780636352211e1461033957600080fd5b806318160ddd146102a657806323b872dd146102b75780632a64da63146102ca5780632f745c59146102dd57600080fd5b8063095ea7b3116101c3578063095ea7b3146102485780630df716021461025d5780630e39228814610270578063156e29f61461029357600080fd5b806301ffc9a7146101ea57806306fdde0314610213578063081812fc14610228575b600080fd5b6101fd6101f83660046123b3565b6104ae565b60405161020a9190612c5b565b60405180910390f35b61021b6104d9565b60405161020a9190612c69565b61023b610236366004612430565b61056b565b60405161020a9190612bdd565b61025b6102563660046122ef565b6105c4565b005b61025b61026b366004612430565b61064a565b6101fd61027e366004612430565b600e6020526000908152604090205460ff1681565b61025b6102a1366004612322565b610690565b6008545b60405161020a9190612d8a565b61025b6102c53660046121ed565b61076f565b61025b6102d8366004612357565b6107a0565b6102aa6102eb3660046122ef565b610833565b61025b6102fe3660046121ed565b610885565b6102aa610311366004612430565b6108a0565b6101fd610324366004612430565b600f6020526000908152604090205460ff1681565b61023b610347366004612430565b6108ee565b6102aa61035a36600461216e565b610923565b61025b610967565b6102aa610375366004612430565b600c6020526000908152604090205481565b6102aa610395366004612472565b61099d565b600a546001600160a01b031661023b565b61021b6109ce565b6011546102aa9081565b61025b6103cb366004612430565b6109dd565b6101fd6103de366004612430565b60106020526000908152604090205460ff1681565b61025b6104013660046122bc565b610a52565b610419610414366004612430565b610a5d565b60405161020a9190612c4a565b61025b61043436600461223d565b610b5b565b61021b610447366004612430565b610b8d565b61041961045a366004612430565b61144d565b6101fd61046d3660046121b0565b6001600160a01b03918216600090815260056020908152604080832093909416825291909152205460ff1690565b61025b6104a936600461216e565b6114af565b60006001600160e01b0319821663780e9d6360e01b14806104d357506104d38261150b565b92915050565b6060600080546104e890612ea9565b80601f016020809104026020016040519081016040528092919081815260200182805461051490612ea9565b80156105615780601f1061053657610100808354040283529160200191610561565b820191906000526020600020905b81548152906001019060200180831161054457829003601f168201915b5050505050905090565b6000818152600260205260408120546001600160a01b03166105a85760405162461bcd60e51b815260040161059f90612d3a565b60405180910390fd5b506000908152600460205260409020546001600160a01b031690565b60006105cf826108ee565b9050806001600160a01b0316836001600160a01b031614156106035760405162461bcd60e51b815260040161059f90612d5a565b336001600160a01b038216148061061f575061061f813361046d565b61063b5760405162461bcd60e51b815260040161059f90612cfa565b610645838361155b565b505050565b600b546001600160a01b03163314610675576040516307b0730b60e21b815260040160405180910390fd5b6000908152600e60205260409020805460ff19166001179055565b600b546001600160a01b031633146106bb576040516307b0730b60e21b815260040160405180910390fd5b60005b828110156107695760006106d160115490565b90506106e1601180546001019055565b6106eb85826115c9565b6000818152600c60209081526040808320869055858352600d8252808320805460018101825590845291909220018290555181907f5c1c9352d51031acc9a558d7cdcca15b0ce5fe4f46d7315cca355248175b0a379061074e9088908790612c2f565b60405180910390a2508061076181612f03565b9150506106be565b50505050565b61077933826115e3565b6107955760405162461bcd60e51b815260040161059f90612d6a565b610645838383611695565b600b546001600160a01b031633146107cb576040516307b0730b60e21b815260040160405180910390fd5b60005b815181101561082f576001600f60008484815181106107ef576107ef612f8a565b6020026020010151815260200190815260200160002060006101000a81548160ff021916908315150217905550808061082790612f03565b9150506107ce565b5050565b600061083e83610923565b821061085c5760405162461bcd60e51b815260040161059f90612c7a565b506001600160a01b03919091166000908152600660209081526040808320938352929052205490565b61064583838360405180602001604052806000815250610b5b565b60006108ab60085490565b82106108c95760405162461bcd60e51b815260040161059f90612d7a565b600882815481106108dc576108dc612f8a565b90600052602060002001549050919050565b6000818152600260205260408120546001600160a01b0316806104d35760405162461bcd60e51b815260040161059f90612d1a565b60006001600160a01b03821661094b5760405162461bcd60e51b815260040161059f90612d0a565b506001600160a01b031660009081526003602052604090205490565b600a546001600160a01b031633146109915760405162461bcd60e51b815260040161059f90612d4a565b61099b60006117c2565b565b600d60205281600052604060002081815481106109b957600080fd5b90600052602060002001600091509150505481565b6060600180546104e890612ea9565b600b546001600160a01b03163314610a08576040516307b0730b60e21b815260040160405180910390fd5b6000818152600e602052604090205460ff16610a37576040516307b0730b60e21b815260040160405180910390fd5b6000908152601060205260409020805460ff19166001179055565b61082f338383611814565b60606000610a6a8361144d565b90506000815167ffffffffffffffff811115610a8857610a88612fa0565b604051908082528060200260200182016040528015610ab1578160200160208202803683370190505b5090506000805b8351811015610b5157336001600160a01b0316610aed858381518110610ae057610ae0612f8a565b60200260200101516108ee565b6001600160a01b03161415610b3f57838181518110610b0e57610b0e612f8a565b6020026020010151838381518110610b2857610b28612f8a565b6020908102919091010152610b3c82612f03565b91505b80610b4981612f03565b915050610ab8565b5090949350505050565b610b6533836115e3565b610b815760405162461bcd60e51b815260040161059f90612d6a565b610769848484846118b7565b6040805160208082018352600080835283518083018552818152600b54868352600c909352908490205493516350c677f760e11b815260609491926001600160a01b03169163a18cefee91610be59190600401612d8a565b60206040518083038186803b158015610bfd57600080fd5b505afa158015610c11573d6000803e3d6000fd5b505050506040513d601f19601f82011682018060405250810190610c35919061218f565b6001600160a01b0316633c2bcadc6040518163ffffffff1660e01b815260040160206040518083038186803b158015610c6d57600080fd5b505afa158015610c81573d6000803e3d6000fd5b505050506040513d601f19601f82011682018060405250810190610ca59190612392565b610d565760128054610cb690612ea9565b80601f0160208091040260200160405190810160405280929190818152602001828054610ce290612ea9565b8015610d2f5780601f10610d0457610100808354040283529160200191610d2f565b820191906000526020600020905b815481529060010190602001808311610d1257829003601f168201915b505050505091506040518060600160405280603981526020016130926039913990506111fd565b600b546000858152600c6020526040908190205490516350c677f760e11b81526001600160a01b039092169163a18cefee91610d9491600401612d8a565b60206040518083038186803b158015610dac57600080fd5b505afa158015610dc0573d6000803e3d6000fd5b505050506040513d601f19601f82011682018060405250810190610de4919061218f565b6001600160a01b0316632c1fecfe6040518163ffffffff1660e01b815260040160206040518083038186803b158015610e1c57600080fd5b505afa158015610e30573d6000803e3d6000fd5b505050506040513d601f19601f82011682018060405250810190610e549190612392565b15610fe7576000848152600f602052604090205460ff1615610f1d5760148054610e7d90612ea9565b80601f0160208091040260200160405190810160405280929190818152602001828054610ea990612ea9565b8015610ef65780601f10610ecb57610100808354040283529160200191610ef6565b820191906000526020600020905b815481529060010190602001808311610ed957829003601f168201915b50505050509150604051806060016040528060318152602001612fe96031913990506111fd565b60168054610f2a90612ea9565b80601f0160208091040260200160405190810160405280929190818152602001828054610f5690612ea9565b8015610fa35780601f10610f7857610100808354040283529160200191610fa3565b820191906000526020600020905b815481529060010190602001808311610f8657829003601f168201915b505050505091506040518060400160405280601d81526020017f212054686973207469636b65742063616e20626520726566756e64656400000081525090506111fd565b6000848152600e602052604090205460ff161561116f5760008481526010602052604090205460ff16156110c2576015805461102290612ea9565b80601f016020809104026020016040519081016040528092919081815260200182805461104e90612ea9565b801561109b5780601f106110705761010080835404028352916020019161109b565b820191906000526020600020905b81548152906001019060200180831161107e57829003601f168201915b505050505091506040518060600160405280603481526020016130cb6034913990506111fd565b601380546110cf90612ea9565b80601f01602080910402602001604051908101604052809291908181526020018280546110fb90612ea9565b80156111485780601f1061111d57610100808354040283529160200191611148565b820191906000526020600020905b81548152906001019060200180831161112b57829003601f168201915b5050505050915060405180606001604052806038815260200161301a6038913990506111fd565b6017805461117c90612ea9565b80601f01602080910402602001604051908101604052809291908181526020018280546111a890612ea9565b80156111f55780601f106111ca576101008083540402835291602001916111f5565b820191906000526020600020905b8154815290600101906020018083116111d857829003601f168201915b505050505091505b611425611209856118ea565b6000868152600c6020526040902054611221906118ea565b600b546000888152600c6020526040908190205490516359f1578360e11b81526001600160a01b039092169163b3e2af069161125f91600401612d8a565b60006040518083038186803b15801561127757600080fd5b505afa15801561128b573d6000803e3d6000fd5b505050506040513d6000823e601f3d908101601f191682016040526112b391908101906123f5565b6000888152600e602052604090205485906112d9906112d49060ff166119e8565b6118ea565b60008a8152600f60205260409020546112f8906112d49060ff166119e8565b600b5460008c8152600c6020526040908190205490516350c677f760e11b81526113f9926001600160a01b03169163a18cefee916113399190600401612d8a565b60206040518083038186803b15801561135157600080fd5b505afa158015611365573d6000803e3d6000fd5b505050506040513d601f19601f82011682018060405250810190611389919061218f565b6001600160a01b031663b914a2196040518163ffffffff1660e01b815260040160206040518083038186803b1580156113c157600080fd5b505afa1580156113d5573d6000803e3d6000fd5b505050506040513d601f19601f820116820180604052508101906112d49190612451565b89604051602001611411989796959493929190612ab6565b604051602081830303815290604052611a05565b6040516020016114359190612a98565b60405160208183030381529060405292505050919050565b6000818152600d60209081526040918290208054835181840281018401909452808452606093928301828280156114a357602002820191906000526020600020905b81548152602001906001019080831161148f575b50505050509050919050565b600a546001600160a01b031633146114d95760405162461bcd60e51b815260040161059f90612d4a565b6001600160a01b0381166114ff5760405162461bcd60e51b815260040161059f90612c9a565b611508816117c2565b50565b60006001600160e01b031982166380ac58cd60e01b148061153c57506001600160e01b03198216635b5e139f60e01b145b806104d357506301ffc9a760e01b6001600160e01b03198316146104d3565b600081815260046020526040902080546001600160a01b0319166001600160a01b0384169081179091558190611590826108ee565b6001600160a01b03167f8c5be1e5ebec7d5bd14f71427d1e84f3dd0314c0f7b2291e5b200ac8c7c3b92560405160405180910390a45050565b61082f828260405180602001604052806000815250611b59565b6000818152600260205260408120546001600160a01b03166116175760405162461bcd60e51b815260040161059f90612cea565b6000611622836108ee565b9050806001600160a01b0316846001600160a01b0316148061166957506001600160a01b0380821660009081526005602090815260408083209388168352929052205460ff165b8061168d5750836001600160a01b03166116828461056b565b6001600160a01b0316145b949350505050565b826001600160a01b03166116a8826108ee565b6001600160a01b0316146116ce5760405162461bcd60e51b815260040161059f90612caa565b6001600160a01b0382166116f45760405162461bcd60e51b815260040161059f90612cca565b6116ff838383611b8c565b61170a60008261155b565b6001600160a01b0383166000908152600360205260408120805460019290611733908490612e49565b90915550506001600160a01b0382166000908152600360205260408120805460019290611761908490612dfe565b909155505060008181526002602052604080822080546001600160a01b0319166001600160a01b0386811691821790925591518493918716917fddf252ad1be2c89b69c2b068fc378daa952ba7f163c4a11628f55a4df523b3ef91a4505050565b600a80546001600160a01b038381166001600160a01b0319831681179093556040519116919082907f8be0079c531659141344cd1fd0a4f28419497f9722a3daafe3b4186f6b6457e090600090a35050565b816001600160a01b0316836001600160a01b031614156118465760405162461bcd60e51b815260040161059f90612cda565b6001600160a01b0383811660008181526005602090815260408083209487168084529490915290819020805460ff1916851515179055517f17307eab39ab6107e8899845ad3d59bd9653f200f220920489ca2b5937696c31906118aa908590612c5b565b60405180910390a3505050565b6118c2848484611695565b6118ce84848484611c44565b6107695760405162461bcd60e51b815260040161059f90612c8a565b60608161190e5750506040805180820190915260018152600360fc1b602082015290565b8160005b8115611938578061192281612f03565b91506119319050600a83612e16565b9150611912565b60008167ffffffffffffffff81111561195357611953612fa0565b6040519080825280601f01601f19166020018201604052801561197d576020820181803683370190505b5090505b841561168d57611992600183612e49565b915061199f600a86612f1e565b6119aa906030612dfe565b60f81b8183815181106119bf576119bf612f8a565b60200101906001600160f81b031916908160001a9053506119e1600a86612e16565b9450611981565b600081156119f857506001919050565b506000919050565b919050565b6060815160001415611a2557505060408051602081019091526000815290565b60006040518060600160405280604081526020016130526040913990506000600384516002611a549190612dfe565b611a5e9190612e16565b611a69906004612e2a565b67ffffffffffffffff811115611a8157611a81612fa0565b6040519080825280601f01601f191660200182016040528015611aab576020820181803683370190505b509050600182016020820185865187015b80821015611b17576003820191508151603f8160121c168501518453600184019350603f81600c1c168501518453600184019350603f8160061c168501518453600184019350603f8116850151845360018401935050611abc565b5050600386510660018114611b335760028114611b4657611b4e565b603d6001830353603d6002830353611b4e565b603d60018303535b509195945050505050565b611b638383611d51565b611b706000848484611c44565b6106455760405162461bcd60e51b815260040161059f90612c8a565b6001600160a01b038316611be757611be281600880546000838152600960205260408120829055600182018355919091527ff3f7a9fe364faab93b216da50a3214154f22a0a2b415b23a84c8169e8b636ee30155565b611c0a565b816001600160a01b0316836001600160a01b031614611c0a57611c0a8382611e3f565b6001600160a01b038216611c215761064581611edc565b826001600160a01b0316826001600160a01b031614610645576106458282611f8b565b60006001600160a01b0384163b15611d4657604051630a85bd0160e11b81526001600160a01b0385169063150b7a0290611c88903390899088908890600401612beb565b602060405180830381600087803b158015611ca257600080fd5b505af1925050508015611cd2575060408051601f3d908101601f19168201909252611ccf918101906123d4565b60015b611d2c573d808015611d00576040519150601f19603f3d011682016040523d82523d6000602084013e611d05565b606091505b508051611d245760405162461bcd60e51b815260040161059f90612c8a565b805181602001fd5b6001600160e01b031916630a85bd0160e11b14905061168d565b506001949350505050565b6001600160a01b038216611d775760405162461bcd60e51b815260040161059f90612d2a565b6000818152600260205260409020546001600160a01b031615611dac5760405162461bcd60e51b815260040161059f90612cba565b611db860008383611b8c565b6001600160a01b0382166000908152600360205260408120805460019290611de1908490612dfe565b909155505060008181526002602052604080822080546001600160a01b0319166001600160a01b03861690811790915590518392907fddf252ad1be2c89b69c2b068fc378daa952ba7f163c4a11628f55a4df523b3ef908290a45050565b60006001611e4c84610923565b611e569190612e49565b600083815260076020526040902054909150808214611ea9576001600160a01b03841660009081526006602090815260408083208584528252808320548484528184208190558352600790915290208190555b5060009182526007602090815260408084208490556001600160a01b039094168352600681528383209183525290812055565b600854600090611eee90600190612e49565b60008381526009602052604081205460088054939450909284908110611f1657611f16612f8a565b906000526020600020015490508060088381548110611f3757611f37612f8a565b6000918252602080832090910192909255828152600990915260408082208490558582528120556008805480611f6f57611f6f612f74565b6001900381819060005260206000200160009055905550505050565b6000611f9683610923565b6001600160a01b039093166000908152600660209081526040808320868452825280832085905593825260079052919091209190915550565b6000611fe2611fdd84612daf565b612d98565b9050808382526020820190508285602086028201111561200457612004600080fd5b60005b85811015612030578161201a8882612158565b8452506020928301929190910190600101612007565b5050509392505050565b6000612048611fdd84612dd3565b90508281526020810184848401111561206357612063600080fd5b61206e848285612e71565b509392505050565b6000612084611fdd84612dd3565b90508281526020810184848401111561209f5761209f600080fd5b61206e848285612e7d565b80356104d381612fb6565b80516104d381612fb6565b600082601f8301126120d4576120d4600080fd5b813561168d848260208601611fcf565b80356104d381612fca565b80516104d381612fca565b80356104d381612fd2565b80516104d381612fd2565b600082601f83011261212457612124600080fd5b813561168d84826020860161203a565b600082601f83011261214857612148600080fd5b815161168d848260208601612076565b80356104d381612fe2565b80516104d381612fe2565b60006020828403121561218357612183600080fd5b600061168d84846120aa565b6000602082840312156121a4576121a4600080fd5b600061168d84846120b5565b600080604083850312156121c6576121c6600080fd5b60006121d285856120aa565b92505060206121e3858286016120aa565b9150509250929050565b60008060006060848603121561220557612205600080fd5b600061221186866120aa565b9350506020612222868287016120aa565b925050604061223386828701612158565b9150509250925092565b6000806000806080858703121561225657612256600080fd5b600061226287876120aa565b9450506020612273878288016120aa565b935050604061228487828801612158565b925050606085013567ffffffffffffffff8111156122a4576122a4600080fd5b6122b087828801612110565b91505092959194509250565b600080604083850312156122d2576122d2600080fd5b60006122de85856120aa565b92505060206121e3858286016120e4565b6000806040838503121561230557612305600080fd5b600061231185856120aa565b92505060206121e385828601612158565b60008060006060848603121561233a5761233a600080fd5b600061234686866120aa565b935050602061222286828701612158565b60006020828403121561236c5761236c600080fd5b813567ffffffffffffffff81111561238657612386600080fd5b61168d848285016120c0565b6000602082840312156123a7576123a7600080fd5b600061168d84846120ef565b6000602082840312156123c8576123c8600080fd5b600061168d84846120fa565b6000602082840312156123e9576123e9600080fd5b600061168d8484612105565b60006020828403121561240a5761240a600080fd5b815167ffffffffffffffff81111561242457612424600080fd5b61168d84828501612134565b60006020828403121561244557612445600080fd5b600061168d8484612158565b60006020828403121561246657612466600080fd5b600061168d8484612163565b6000806040838503121561248857612488600080fd5b60006123118585612158565b60006124a08383612a92565b505060200190565b6124b181612e60565b82525050565b60006124c1825190565b80845260209384019383018060005b838110156124f55781516124e48882612494565b9750602083019250506001016124d0565b509495945050505050565b8015156124b1565b6000612512825190565b808452602084019350612529818560208601612e7d565b601f01601f19169290920192915050565b6000612544825190565b612552818560208601612e7d565b9290920192915050565b602b81526000602082017f455243373231456e756d657261626c653a206f776e657220696e646578206f7581526a74206f6620626f756e647360a81b602082015291505b5060400190565b603281526000602082017f4552433732313a207472616e7366657220746f206e6f6e20455243373231526581527131b2b4bb32b91034b6b83632b6b2b73a32b960711b602082015291506125a0565b711116101134b9a932b33ab73232b2111d101160711b815260005b5060120190565b602681526000602082017f4f776e61626c653a206e6577206f776e657220697320746865207a65726f206181526564647265737360d01b602082015291506125a0565b602581526000602082017f4552433732313a207472616e736665722066726f6d20696e636f72726563742081526437bbb732b960d91b602082015291506125a0565b601c81526000602082017f4552433732313a20746f6b656e20616c7265616479206d696e74656400000000815291505b5060200190565b602481526000602082017f4552433732313a207472616e7366657220746f20746865207a65726f206164648152637265737360e01b602082015291506125a0565b601981526000602082017f4552433732313a20617070726f766520746f2063616c6c657200000000000000815291506126cd565b602c81526000602082017f4552433732313a206f70657261746f7220717565727920666f72206e6f6e657881526b34b9ba32b73a103a37b5b2b760a11b602082015291506125a0565b603881526000602082017f4552433732313a20617070726f76652063616c6c6572206973206e6f74206f7781527f6e6572206e6f7220617070726f76656420666f7220616c6c0000000000000000602082015291506125a0565b602a81526000602082017f4552433732313a2062616c616e636520717565727920666f7220746865207a65815269726f206164647265737360b01b602082015291506125a0565b602981526000602082017f4552433732313a206f776e657220717565727920666f72206e6f6e657869737481526832b73a103a37b5b2b760b91b602082015291506125a0565b61227d60f01b815260005b5060020190565b60208082527f4552433732313a206d696e7420746f20746865207a65726f2061646472657373910190815260006126cd565b602c81526000602082017f4552433732313a20617070726f76656420717565727920666f72206e6f6e657881526b34b9ba32b73a103a37b5b2b760a11b602082015291506125a0565b71111610113232b9b1b934b83a34b7b7111d1160711b81526000612611565b60208082527f4f776e61626c653a2063616c6c6572206973206e6f7420746865206f776e6572910190815260006126cd565b602181526000602082017f4552433732313a20617070726f76616c20746f2063757272656e74206f776e658152603960f91b602082015291506125a0565b7f646174613a6170706c69636174696f6e2f6a736f6e3b6261736536342c000000815260005b50601d0190565b603181526000602082017f4552433732313a207472616e736665722063616c6c6572206973206e6f74206f8152701ddb995c881b9bdc88185c1c1c9bdd9959607a1b602082015291506125a0565b602c81526000602082017f455243373231456e756d657261626c653a20676c6f62616c20696e646578206f81526b7574206f6620626f756e647360a01b602082015291506125a0565b6101d160f51b81526000612884565b7f7b226e616d65223a225468652050616e646f7261205469636b65742023000000815260006129bb565b806124b1565b6000612aa382612995565b9150612aaf828461253a565b9392505050565b6000612ac182612a68565b9150612acd828b61253a565b9150612ad882612906565b7f54686973207469636b65742069732067656e6572617465642066726f6d204c6f8152666f74626f78202360c81b60208201526027019150612b1a828a61253a565b9150612b2582612a59565b9150612b31828961253a565b9150612b3d828861253a565b6f1116101134b9abb4b73732b9111d101160811b81526010019150612b62828761253a565b9150612b6d826125f6565b9150612b79828661253a565b7311161011323930bbaa34b6b2b9ba30b6b8111d1160611b81526014019150612ba2828561253a565b6c1116101134b6b0b3b2911d101160991b8152600d019150612bc4828461253a565b9150612bcf82612879565b9a9950505050505050505050565b602081016104d382846124a8565b60808101612bf982876124a8565b612c0660208301866124a8565b612c136040830185612a92565b8181036060830152612c258184612508565b9695505050505050565b60408101612c3d82856124a8565b612aaf6020830184612a92565b60208082528101612aaf81846124b7565b602081016104d38284612500565b60208082528101612aaf8184612508565b602080825281016104d38161255c565b602080825281016104d3816125a7565b602080825281016104d381612618565b602080825281016104d38161265b565b602080825281016104d38161269d565b602080825281016104d3816126d4565b602080825281016104d381612715565b602080825281016104d381612749565b602080825281016104d381612792565b602080825281016104d3816127ec565b602080825281016104d381612833565b602080825281016104d38161288b565b602080825281016104d3816128bd565b602080825281016104d381612925565b602080825281016104d381612957565b602080825281016104d3816129c2565b602080825281016104d381612a10565b602081016104d38284612a92565b6000612da360405190565b9050611a008282612ed6565b600067ffffffffffffffff821115612dc957612dc9612fa0565b5060209081020190565b600067ffffffffffffffff821115612ded57612ded612fa0565b601f19601f83011660200192915050565b60008219821115612e1157612e11612f32565b500190565b600082612e2557612e25612f48565b500490565b6000816000190483118215151615612e4457612e44612f32565b500290565b600082821015612e5b57612e5b612f32565b500390565b60006001600160a01b0382166104d3565b82818337506000910152565b60005b83811015612e98578181015183820152602001612e80565b838111156107695750506000910152565b600281046001821680612ebd57607f821691505b60208210811415612ed057612ed0612f5e565b50919050565b601f19601f830116810181811067ffffffffffffffff82111715612efc57612efc612fa0565b6040525050565b6000600019821415612f1757612f17612f32565b5060010190565b600082612f2d57612f2d612f48565b500690565b634e487b7160e01b600052601160045260246000fd5b634e487b7160e01b600052601260045260246000fd5b634e487b7160e01b600052602260045260246000fd5b634e487b7160e01b600052603160045260246000fd5b634e487b7160e01b600052603260045260246000fd5b634e487b7160e01b600052604160045260246000fd5b612fbf81612e60565b811461150857600080fd5b801515612fbf565b6001600160e01b03198116612fbf565b80612fbf56fe2120596f75206861766520616c7265616479206265656e20726566756e64656420666f722074686973207469636b65742e2120436f6e67726174756c6174696f6e732c20596f75206861766520776f6e204e4654207072697a652e20436c61696d206974206e6f77214142434445464748494a4b4c4d4e4f505152535455565758595a6162636465666768696a6b6c6d6e6f707172737475767778797a303132333435363738392b2f2120596f7520686176652061206368616e636520746f2077696e207072697a657320696e73696465207468652050616e646f726120426f7821212054686973207469636b6574206861766520616c7265616479206265656e20636c61696d656420666f722061207072697a652ea2646970667358221220064b3f1cf207286da0bb14670bee5fff2f88275b01aada56d17de13f7236e10a64736f6c63430008070033697066733a2f2f6261666b726569666366733336717037747436786d6d7972746a3264716f79746668666f36626375623437637362616e7775746c32676375616875697066733a2f2f6261667962656961696f7836656f6e3572666a6d336d623337343278696f77743774706e79373372746d7279727164786d6f756c6374356a696e61697066733a2f2f6261666b726569653435757079676a326f74646e637963646c32666c75716d797176786d65376a36787369367a76366e647a727163617273703675697066733a2f2f6261666b726569617a6c726e356d72327333643572323461636d6f707a75657a736769377336616d78326d3362706e366d76656b67643567633765697066733a2f2f6261666b726569633478376c627761376c6f337667786b3272677234366e627577726f32696164636475726e37356d786f3376346a7a7736667871697066733a2f2f6261666b726569676d356972377679697269636e6c323361376262627a69337665327472367635347069327175737666757932726c647563337765",
  "linkReferences": {},
  "deployedLinkReferences": {}
}