{
  "_format": "hh-sol-artifact-1",
  "contractName": "PandoraTicket",
  "sourceName": "contracts/PandoraTicket.sol",
  "abi": [
    {
      "inputs": [
        {
          "internalType": "address",
          "name": "_factory",
          "type": "address"
        }
      ],
      "stateMutability": "nonpayable",
      "type": "constructor"
    },
    {
      "inputs": [],
      "name": "Ticket__Unauthorized",
      "type": "error"
    },
    {
      "anonymous": false,
      "inputs": [
        {
          "indexed": true,
          "internalType": "address",
          "name": "owner",
          "type": "address"
        },
        {
          "indexed": true,
          "internalType": "address",
          "name": "approved",
          "type": "address"
        },
        {
          "indexed": true,
          "internalType": "uint256",
          "name": "tokenId",
          "type": "uint256"
        }
      ],
      "name": "Approval",
      "type": "event"
    },
    {
      "anonymous": false,
      "inputs": [
        {
          "indexed": true,
          "internalType": "address",
          "name": "owner",
          "type": "address"
        },
        {
          "indexed": true,
          "internalType": "address",
          "name": "operator",
          "type": "address"
        },
        {
          "indexed": false,
          "internalType": "bool",
          "name": "approved",
          "type": "bool"
        }
      ],
      "name": "ApprovalForAll",
      "type": "event"
    },
    {
      "anonymous": false,
      "inputs": [
        {
          "indexed": true,
          "internalType": "address",
          "name": "previousOwner",
          "type": "address"
        },
        {
          "indexed": true,
          "internalType": "address",
          "name": "newOwner",
          "type": "address"
        }
      ],
      "name": "OwnershipTransferred",
      "type": "event"
    },
    {
      "anonymous": false,
      "inputs": [
        {
          "indexed": true,
          "internalType": "address",
          "name": "from",
          "type": "address"
        },
        {
          "indexed": true,
          "internalType": "address",
          "name": "to",
          "type": "address"
        },
        {
          "indexed": true,
          "internalType": "uint256",
          "name": "tokenId",
          "type": "uint256"
        }
      ],
      "name": "Transfer",
      "type": "event"
    },
    {
      "inputs": [
        {
          "internalType": "address",
          "name": "to",
          "type": "address"
        },
        {
          "internalType": "uint256",
          "name": "tokenId",
          "type": "uint256"
        }
      ],
      "name": "approve",
      "outputs": [],
      "stateMutability": "nonpayable",
      "type": "function"
    },
    {
      "inputs": [
        {
          "internalType": "address",
          "name": "owner",
          "type": "address"
        }
      ],
      "name": "balanceOf",
      "outputs": [
        {
          "internalType": "uint256",
          "name": "",
          "type": "uint256"
        }
      ],
      "stateMutability": "view",
      "type": "function"
    },
    {
      "inputs": [
        {
          "internalType": "uint256",
          "name": "tokenId",
          "type": "uint256"
        }
      ],
      "name": "getApproved",
      "outputs": [
        {
          "internalType": "address",
          "name": "",
          "type": "address"
        }
      ],
      "stateMutability": "view",
      "type": "function"
    },
    {
      "inputs": [
        {
          "internalType": "uint256",
          "name": "lootboxId",
          "type": "uint256"
        }
      ],
      "name": "getOwnTicketsForLootbox",
      "outputs": [
        {
          "internalType": "uint256[]",
          "name": "",
          "type": "uint256[]"
        }
      ],
      "stateMutability": "view",
      "type": "function"
    },
    {
      "inputs": [
        {
          "internalType": "uint256",
          "name": "lootboxId",
          "type": "uint256"
        }
      ],
      "name": "getTicketsForLootbox",
      "outputs": [
        {
          "internalType": "uint256[]",
          "name": "",
          "type": "uint256[]"
        }
      ],
      "stateMutability": "view",
      "type": "function"
    },
    {
      "inputs": [
        {
          "internalType": "address",
          "name": "owner",
          "type": "address"
        },
        {
          "internalType": "address",
          "name": "operator",
          "type": "address"
        }
      ],
      "name": "isApprovedForAll",
      "outputs": [
        {
          "internalType": "bool",
          "name": "",
          "type": "bool"
        }
      ],
      "stateMutability": "view",
      "type": "function"
    },
    {
      "inputs": [
        {
          "internalType": "uint256",
          "name": "",
          "type": "uint256"
        }
      ],
      "name": "isClaimed",
      "outputs": [
        {
          "internalType": "bool",
          "name": "",
          "type": "bool"
        }
      ],
      "stateMutability": "view",
      "type": "function"
    },
    {
      "inputs": [
        {
          "internalType": "uint256",
          "name": "",
          "type": "uint256"
        }
      ],
      "name": "isRefunded",
      "outputs": [
        {
          "internalType": "bool",
          "name": "",
          "type": "bool"
        }
      ],
      "stateMutability": "view",
      "type": "function"
    },
    {
      "inputs": [
        {
          "internalType": "uint256",
          "name": "",
          "type": "uint256"
        }
      ],
      "name": "isWinner",
      "outputs": [
        {
          "internalType": "bool",
          "name": "",
          "type": "bool"
        }
      ],
      "stateMutability": "view",
      "type": "function"
    },
    {
      "inputs": [
        {
          "internalType": "uint256",
          "name": "",
          "type": "uint256"
        }
      ],
      "name": "lootboxIds",
      "outputs": [
        {
          "internalType": "uint256",
          "name": "",
          "type": "uint256"
        }
      ],
      "stateMutability": "view",
      "type": "function"
    },
    {
      "inputs": [
        {
          "internalType": "address",
          "name": "_to",
          "type": "address"
        },
        {
          "internalType": "uint256",
          "name": "_amount",
          "type": "uint256"
        },
        {
          "internalType": "uint256",
          "name": "_lootboxId",
          "type": "uint256"
        }
      ],
      "name": "mint",
      "outputs": [],
      "stateMutability": "nonpayable",
      "type": "function"
    },
    {
      "inputs": [],
      "name": "name",
      "outputs": [
        {
          "internalType": "string",
          "name": "",
          "type": "string"
        }
      ],
      "stateMutability": "view",
      "type": "function"
    },
    {
      "inputs": [],
      "name": "owner",
      "outputs": [
        {
          "internalType": "address",
          "name": "",
          "type": "address"
        }
      ],
      "stateMutability": "view",
      "type": "function"
    },
    {
      "inputs": [
        {
          "internalType": "uint256",
          "name": "tokenId",
          "type": "uint256"
        }
      ],
      "name": "ownerOf",
      "outputs": [
        {
          "internalType": "address",
          "name": "",
          "type": "address"
        }
      ],
      "stateMutability": "view",
      "type": "function"
    },
    {
      "inputs": [
        {
          "internalType": "uint256[]",
          "name": "tokenIds",
          "type": "uint256[]"
        }
      ],
      "name": "refundTicket",
      "outputs": [],
      "stateMutability": "nonpayable",
      "type": "function"
    },
    {
      "inputs": [],
      "name": "renounceOwnership",
      "outputs": [],
      "stateMutability": "nonpayable",
      "type": "function"
    },
    {
      "inputs": [
        {
          "internalType": "address",
          "name": "from",
          "type": "address"
        },
        {
          "internalType": "address",
          "name": "to",
          "type": "address"
        },
        {
          "internalType": "uint256",
          "name": "tokenId",
          "type": "uint256"
        }
      ],
      "name": "safeTransferFrom",
      "outputs": [],
      "stateMutability": "nonpayable",
      "type": "function"
    },
    {
      "inputs": [
        {
          "internalType": "address",
          "name": "from",
          "type": "address"
        },
        {
          "internalType": "address",
          "name": "to",
          "type": "address"
        },
        {
          "internalType": "uint256",
          "name": "tokenId",
          "type": "uint256"
        },
        {
          "internalType": "bytes",
          "name": "_data",
          "type": "bytes"
        }
      ],
      "name": "safeTransferFrom",
      "outputs": [],
      "stateMutability": "nonpayable",
      "type": "function"
    },
    {
      "inputs": [
        {
          "internalType": "address",
          "name": "operator",
          "type": "address"
        },
        {
          "internalType": "bool",
          "name": "approved",
          "type": "bool"
        }
      ],
      "name": "setApprovalForAll",
      "outputs": [],
      "stateMutability": "nonpayable",
      "type": "function"
    },
    {
      "inputs": [
        {
          "internalType": "uint256",
          "name": "_tokenId",
          "type": "uint256"
        }
      ],
      "name": "setClaim",
      "outputs": [],
      "stateMutability": "nonpayable",
      "type": "function"
    },
    {
      "inputs": [
        {
          "internalType": "uint256",
          "name": "_tokenId",
          "type": "uint256"
        }
      ],
      "name": "setWinner",
      "outputs": [],
      "stateMutability": "nonpayable",
      "type": "function"
    },
    {
      "inputs": [
        {
          "internalType": "bytes4",
          "name": "interfaceId",
          "type": "bytes4"
        }
      ],
      "name": "supportsInterface",
      "outputs": [
        {
          "internalType": "bool",
          "name": "",
          "type": "bool"
        }
      ],
      "stateMutability": "view",
      "type": "function"
    },
    {
      "inputs": [],
      "name": "symbol",
      "outputs": [
        {
          "internalType": "string",
          "name": "",
          "type": "string"
        }
      ],
      "stateMutability": "view",
      "type": "function"
    },
    {
      "inputs": [
        {
          "internalType": "uint256",
          "name": "",
          "type": "uint256"
        },
        {
          "internalType": "uint256",
          "name": "",
          "type": "uint256"
        }
      ],
      "name": "ticketIds",
      "outputs": [
        {
          "internalType": "uint256",
          "name": "",
          "type": "uint256"
        }
      ],
      "stateMutability": "view",
      "type": "function"
    },
    {
      "inputs": [
        {
          "internalType": "uint256",
          "name": "index",
          "type": "uint256"
        }
      ],
      "name": "tokenByIndex",
      "outputs": [
        {
          "internalType": "uint256",
          "name": "",
          "type": "uint256"
        }
      ],
      "stateMutability": "view",
      "type": "function"
    },
    {
      "inputs": [],
      "name": "tokenIdCounter",
      "outputs": [
        {
          "internalType": "uint256",
          "name": "_value",
          "type": "uint256"
        }
      ],
      "stateMutability": "view",
      "type": "function"
    },
    {
      "inputs": [
        {
          "internalType": "address",
          "name": "owner",
          "type": "address"
        },
        {
          "internalType": "uint256",
          "name": "index",
          "type": "uint256"
        }
      ],
      "name": "tokenOfOwnerByIndex",
      "outputs": [
        {
          "internalType": "uint256",
          "name": "",
          "type": "uint256"
        }
      ],
      "stateMutability": "view",
      "type": "function"
    },
    {
      "inputs": [
        {
          "internalType": "uint256",
          "name": "tokenId",
          "type": "uint256"
        }
      ],
      "name": "tokenURI",
      "outputs": [
        {
          "internalType": "string",
          "name": "",
          "type": "string"
        }
      ],
      "stateMutability": "view",
      "type": "function"
    },
    {
      "inputs": [],
      "name": "totalSupply",
      "outputs": [
        {
          "internalType": "uint256",
          "name": "",
          "type": "uint256"
        }
      ],
      "stateMutability": "view",
      "type": "function"
    },
    {
      "inputs": [
        {
          "internalType": "address",
          "name": "from",
          "type": "address"
        },
        {
          "internalType": "address",
          "name": "to",
          "type": "address"
        },
        {
          "internalType": "uint256",
          "name": "tokenId",
          "type": "uint256"
        }
      ],
      "name": "transferFrom",
      "outputs": [],
      "stateMutability": "nonpayable",
      "type": "function"
    },
    {
      "inputs": [
        {
          "internalType": "address",
          "name": "newOwner",
          "type": "address"
        }
      ],
      "name": "transferOwnership",
      "outputs": [],
      "stateMutability": "nonpayable",
      "type": "function"
    }
  ],
  "bytecode": "0x608060405260405180608001604052806042815260200162004d4a60429139601290805190602001906200003592919062000271565b5060405180608001604052806042815260200162004d0860429139601390805190602001906200006792919062000271565b503480156200007557600080fd5b5060405162004d8c38038062004d8c83398181016040528101906200009b919062000338565b6040518060400160405280601281526020017f5468652050616e646f7261205469636b657400000000000000000000000000008152506040518060400160405280600781526020017f50414e444f52410000000000000000000000000000000000000000000000000081525081600090805190602001906200011f92919062000271565b5080600190805190602001906200013892919062000271565b5050506200015b6200014f620001a360201b60201c565b620001ab60201b60201c565b80600b60006101000a81548173ffffffffffffffffffffffffffffffffffffffff021916908373ffffffffffffffffffffffffffffffffffffffff1602179055505062000422565b600033905090565b6000600a60009054906101000a900473ffffffffffffffffffffffffffffffffffffffff16905081600a60006101000a81548173ffffffffffffffffffffffffffffffffffffffff021916908373ffffffffffffffffffffffffffffffffffffffff1602179055508173ffffffffffffffffffffffffffffffffffffffff168173ffffffffffffffffffffffffffffffffffffffff167f8be0079c531659141344cd1fd0a4f28419497f9722a3daafe3b4186f6b6457e060405160405180910390a35050565b8280546200027f906200039e565b90600052602060002090601f016020900481019282620002a35760008555620002ef565b82601f10620002be57805160ff1916838001178555620002ef565b82800160010185558215620002ef579182015b82811115620002ee578251825591602001919060010190620002d1565b5b509050620002fe919062000302565b5090565b5b808211156200031d57600081600090555060010162000303565b5090565b600081519050620003328162000408565b92915050565b60006020828403121562000351576200035062000403565b5b6000620003618482850162000321565b91505092915050565b600062000377826200037e565b9050919050565b600073ffffffffffffffffffffffffffffffffffffffff82169050919050565b60006002820490506001821680620003b757607f821691505b60208210811415620003ce57620003cd620003d4565b5b50919050565b7f4e487b7100000000000000000000000000000000000000000000000000000000600052602260045260246000fd5b600080fd5b62000413816200036a565b81146200041f57600080fd5b50565b6148d680620004326000396000f3fe608060405234801561001057600080fd5b50600436106101e55760003560e01c806370a082311161010f5780639e34070f116100a2578063c87b56dd11610071578063c87b56dd146105c6578063e7a3fc11146105f6578063e985e9c514610626578063f2fde38b14610656576101e5565b80639e34070f1461052e578063a22cb4651461055e578063b68c8fad1461057a578063b88d4fde146105aa576101e5565b80638da5cb5b116100de5780638da5cb5b146104b857806395d89b41146104d657806398bdf6f5146104f45780639a86297c14610512576101e5565b806370a082311461041e578063715018a61461044e578063781334af1461045857806378df3a5214610488576101e5565b806318160ddd1161018757806342842e0e1161015657806342842e0e146103725780634f6ccce71461038e57806355866c8d146103be5780636352211e146103ee576101e5565b806318160ddd146102ec57806323b872dd1461030a5780632a64da63146103265780632f745c5914610342576101e5565b8063095ea7b3116101c3578063095ea7b3146102685780630df71602146102845780630e392288146102a0578063156e29f6146102d0576101e5565b806301ffc9a7146101ea57806306fdde031461021a578063081812fc14610238575b600080fd5b61020460048036038101906101ff91906131d7565b610672565b60405161021191906139bb565b60405180910390f35b6102226106ec565b60405161022f91906139d6565b60405180910390f35b610252600480360381019061024d919061327a565b61077e565b60405161025f9190613932565b60405180910390f35b610282600480360381019061027d91906130fb565b610803565b005b61029e6004803603810190610299919061327a565b61091b565b005b6102ba60048036038101906102b5919061327a565b6109d1565b6040516102c791906139bb565b60405180910390f35b6102ea60048036038101906102e5919061313b565b6109f1565b005b6102f4610b11565b6040516103019190613c18565b60405180910390f35b610324600480360381019061031f9190612fe5565b610b1e565b005b610340600480360381019061033b919061318e565b610b7e565b005b61035c600480360381019061035791906130fb565b610c6e565b6040516103699190613c18565b60405180910390f35b61038c60048036038101906103879190612fe5565b610d13565b005b6103a860048036038101906103a3919061327a565b610d33565b6040516103b59190613c18565b60405180910390f35b6103d860048036038101906103d3919061327a565b610da4565b6040516103e591906139bb565b60405180910390f35b6104086004803603810190610403919061327a565b610dc4565b6040516104159190613932565b60405180910390f35b61043860048036038101906104339190612f4b565b610e76565b6040516104459190613c18565b60405180910390f35b610456610f2e565b005b610472600480360381019061046d919061327a565b610fb6565b60405161047f9190613c18565b60405180910390f35b6104a2600480360381019061049d91906132d4565b610fce565b6040516104af9190613c18565b60405180910390f35b6104c0610fff565b6040516104cd9190613932565b60405180910390f35b6104de611029565b6040516104eb91906139d6565b60405180910390f35b6104fc6110bb565b6040516105099190613c18565b60405180910390f35b61052c6004803603810190610527919061327a565b6110c7565b005b6105486004803603810190610543919061327a565b6111dc565b60405161055591906139bb565b60405180910390f35b610578600480360381019061057391906130bb565b6111fc565b005b610594600480360381019061058f919061327a565b611212565b6040516105a19190613999565b60405180910390f35b6105c460048036038101906105bf9190613038565b611338565b005b6105e060048036038101906105db919061327a565b61139a565b6040516105ed91906139d6565b60405180910390f35b610610600480360381019061060b919061327a565b6117c1565b60405161061d9190613999565b60405180910390f35b610640600480360381019061063b9190612fa5565b61182c565b60405161064d91906139bb565b60405180910390f35b610670600480360381019061066b9190612f4b565b6118c0565b005b60007f780e9d63000000000000000000000000000000000000000000000000000000007bffffffffffffffffffffffffffffffffffffffffffffffffffffffff1916827bffffffffffffffffffffffffffffffffffffffffffffffffffffffff191614806106e557506106e4826119b8565b5b9050919050565b6060600080546106fb90613f2d565b80601f016020809104026020016040519081016040528092919081815260200182805461072790613f2d565b80156107745780601f1061074957610100808354040283529160200191610774565b820191906000526020600020905b81548152906001019060200180831161075757829003601f168201915b5050505050905090565b600061078982611a9a565b6107c8576040517f08c379a00000000000000000000000000000000000000000000000000000000081526004016107bf90613b78565b60405180910390fd5b6004600083815260200190815260200160002060009054906101000a900473ffffffffffffffffffffffffffffffffffffffff169050919050565b600061080e82610dc4565b90508073ffffffffffffffffffffffffffffffffffffffff168373ffffffffffffffffffffffffffffffffffffffff16141561087f576040517f08c379a000000000000000000000000000000000000000000000000000000000815260040161087690613bb8565b60405180910390fd5b8073ffffffffffffffffffffffffffffffffffffffff1661089e611b06565b73ffffffffffffffffffffffffffffffffffffffff1614806108cd57506108cc816108c7611b06565b61182c565b5b61090c576040517f08c379a000000000000000000000000000000000000000000000000000000000815260040161090390613af8565b60405180910390fd5b6109168383611b0e565b505050565b600b60009054906101000a900473ffffffffffffffffffffffffffffffffffffffff1673ffffffffffffffffffffffffffffffffffffffff163373ffffffffffffffffffffffffffffffffffffffff16146109a2576040517f1ec1cc2c00000000000000000000000000000000000000000000000000000000815260040160405180910390fd5b6001600e600083815260200190815260200160002060006101000a81548160ff02191690831515021790555050565b600e6020528060005260406000206000915054906101000a900460ff1681565b600b60009054906101000a900473ffffffffffffffffffffffffffffffffffffffff1673ffffffffffffffffffffffffffffffffffffffff163373ffffffffffffffffffffffffffffffffffffffff1614610a78576040517f1ec1cc2c00000000000000000000000000000000000000000000000000000000815260040160405180910390fd5b60005b82811015610b0b576000610a8f6011611bc7565b9050610a9b6011611bd5565b610aa58582611beb565b82600c600083815260200190815260200160002081905550600d6000848152602001908152602001600020819080600181540180825580915050600190039060005260206000200160009091909190915055508080610b0390613f90565b915050610a7b565b50505050565b6000600880549050905090565b610b2f610b29611b06565b82611c09565b610b6e576040517f08c379a0000000000000000000000000000000000000000000000000000000008152600401610b6590613bd8565b60405180910390fd5b610b79838383611ce7565b505050565b600b60009054906101000a900473ffffffffffffffffffffffffffffffffffffffff1673ffffffffffffffffffffffffffffffffffffffff163373ffffffffffffffffffffffffffffffffffffffff1614610c05576040517f1ec1cc2c00000000000000000000000000000000000000000000000000000000815260040160405180910390fd5b60005b8151811015610c6a576001600f6000848481518110610c2a57610c296140c6565b5b6020026020010151815260200190815260200160002060006101000a81548160ff0219169083151502179055508080610c6290613f90565b915050610c08565b5050565b6000610c7983610e76565b8210610cba576040517f08c379a0000000000000000000000000000000000000000000000000000000008152600401610cb1906139f8565b60405180910390fd5b600660008473ffffffffffffffffffffffffffffffffffffffff1673ffffffffffffffffffffffffffffffffffffffff168152602001908152602001600020600083815260200190815260200160002054905092915050565b610d2e83838360405180602001604052806000815250611338565b505050565b6000610d3d610b11565b8210610d7e576040517f08c379a0000000000000000000000000000000000000000000000000000000008152600401610d7590613bf8565b60405180910390fd5b60088281548110610d9257610d916140c6565b5b90600052602060002001549050919050565b600f6020528060005260406000206000915054906101000a900460ff1681565b6000806002600084815260200190815260200160002060009054906101000a900473ffffffffffffffffffffffffffffffffffffffff169050600073ffffffffffffffffffffffffffffffffffffffff168173ffffffffffffffffffffffffffffffffffffffff161415610e6d576040517f08c379a0000000000000000000000000000000000000000000000000000000008152600401610e6490613b38565b60405180910390fd5b80915050919050565b60008073ffffffffffffffffffffffffffffffffffffffff168273ffffffffffffffffffffffffffffffffffffffff161415610ee7576040517f08c379a0000000000000000000000000000000000000000000000000000000008152600401610ede90613b18565b60405180910390fd5b600360008373ffffffffffffffffffffffffffffffffffffffff1673ffffffffffffffffffffffffffffffffffffffff168152602001908152602001600020549050919050565b610f36611b06565b73ffffffffffffffffffffffffffffffffffffffff16610f54610fff565b73ffffffffffffffffffffffffffffffffffffffff1614610faa576040517f08c379a0000000000000000000000000000000000000000000000000000000008152600401610fa190613b98565b60405180910390fd5b610fb46000611f4e565b565b600c6020528060005260406000206000915090505481565b600d6020528160005260406000208181548110610fea57600080fd5b90600052602060002001600091509150505481565b6000600a60009054906101000a900473ffffffffffffffffffffffffffffffffffffffff16905090565b60606001805461103890613f2d565b80601f016020809104026020016040519081016040528092919081815260200182805461106490613f2d565b80156110b15780601f10611086576101008083540402835291602001916110b1565b820191906000526020600020905b81548152906001019060200180831161109457829003601f168201915b5050505050905090565b60118060000154905081565b600b60009054906101000a900473ffffffffffffffffffffffffffffffffffffffff1673ffffffffffffffffffffffffffffffffffffffff163373ffffffffffffffffffffffffffffffffffffffff161461114e576040517f1ec1cc2c00000000000000000000000000000000000000000000000000000000815260040160405180910390fd5b60001515600e600083815260200190815260200160002060009054906101000a900460ff16151514156111ad576040517f1ec1cc2c00000000000000000000000000000000000000000000000000000000815260040160405180910390fd5b60016010600083815260200190815260200160002060006101000a81548160ff02191690831515021790555050565b60106020528060005260406000206000915054906101000a900460ff1681565b61120e611207611b06565b8383612014565b5050565b6060600061121f836117c1565b90506000815167ffffffffffffffff81111561123e5761123d6140f5565b5b60405190808252806020026020018201604052801561126c5781602001602082028036833780820191505090505b5090506000805b835181101561132c573373ffffffffffffffffffffffffffffffffffffffff166112b68583815181106112a9576112a86140c6565b5b6020026020010151610dc4565b73ffffffffffffffffffffffffffffffffffffffff161415611319578381815181106112e5576112e46140c6565b5b6020026020010151838381518110611300576112ff6140c6565b5b6020026020010181815250508161131690613f90565b91505b808061132490613f90565b915050611273565b50819350505050919050565b611349611343611b06565b83611c09565b611388576040517f08c379a000000000000000000000000000000000000000000000000000000000815260040161137f90613bd8565b60405180910390fd5b61139484848484612181565b50505050565b60606000601280546113ab90613f2d565b80601f01602080910402602001604051908101604052809291908181526020018280546113d790613f2d565b80156114245780601f106113f957610100808354040283529160200191611424565b820191906000526020600020905b81548152906001019060200180831161140757829003601f168201915b50505050509050600e600084815260200190815260200160002060009054906101000a900460ff16156114df576013805461145e90613f2d565b80601f016020809104026020016040519081016040528092919081815260200182805461148a90613f2d565b80156114d75780601f106114ac576101008083540402835291602001916114d7565b820191906000526020600020905b8154815290600101906020018083116114ba57829003601f168201915b505050505090505b61179a6114eb846121dd565b611507600c6000878152602001908152602001600020546121dd565b600b60009054906101000a900473ffffffffffffffffffffffffffffffffffffffff1673ffffffffffffffffffffffffffffffffffffffff1663b3e2af06600c6000898152602001908152602001600020546040518263ffffffff1660e01b81526004016115759190613c18565b60006040518083038186803b15801561158d57600080fd5b505afa1580156115a1573d6000803e3d6000fd5b505050506040513d6000823e3d601f19601f820116820180604052508101906115ca9190613231565b6115fb6115f6600e60008a815260200190815260200160002060009054906101000a900460ff1661233e565b6121dd565b61162c611627600f60008b815260200190815260200160002060009054906101000a900460ff1661233e565b6121dd565b61176f600b60009054906101000a900473ffffffffffffffffffffffffffffffffffffffff1673ffffffffffffffffffffffffffffffffffffffff1663a18cefee600c60008d8152602001908152602001600020546040518263ffffffff1660e01b815260040161169d9190613c18565b60206040518083038186803b1580156116b557600080fd5b505afa1580156116c9573d6000803e3d6000fd5b505050506040513d601f19601f820116820180604052508101906116ed9190612f78565b73ffffffffffffffffffffffffffffffffffffffff1663b914a2196040518163ffffffff1660e01b815260040160206040518083038186803b15801561173257600080fd5b505afa158015611746573d6000803e3d6000fd5b505050506040513d601f19601f8201168201806040525081019061176a91906132a7565b6121dd565b87604051602001611786979695949392919061385f565b604051602081830303815290604052612359565b6040516020016117aa919061383d565b604051602081830303815290604052915050919050565b6060600d600083815260200190815260200160002080548060200260200160405190810160405280929190818152602001828054801561182057602002820191906000526020600020905b81548152602001906001019080831161180c575b50505050509050919050565b6000600560008473ffffffffffffffffffffffffffffffffffffffff1673ffffffffffffffffffffffffffffffffffffffff16815260200190815260200160002060008373ffffffffffffffffffffffffffffffffffffffff1673ffffffffffffffffffffffffffffffffffffffff16815260200190815260200160002060009054906101000a900460ff16905092915050565b6118c8611b06565b73ffffffffffffffffffffffffffffffffffffffff166118e6610fff565b73ffffffffffffffffffffffffffffffffffffffff161461193c576040517f08c379a000000000000000000000000000000000000000000000000000000000815260040161193390613b98565b60405180910390fd5b600073ffffffffffffffffffffffffffffffffffffffff168173ffffffffffffffffffffffffffffffffffffffff1614156119ac576040517f08c379a00000000000000000000000000000000000000000000000000000000081526004016119a390613a38565b60405180910390fd5b6119b581611f4e565b50565b60007f80ac58cd000000000000000000000000000000000000000000000000000000007bffffffffffffffffffffffffffffffffffffffffffffffffffffffff1916827bffffffffffffffffffffffffffffffffffffffffffffffffffffffff19161480611a8357507f5b5e139f000000000000000000000000000000000000000000000000000000007bffffffffffffffffffffffffffffffffffffffffffffffffffffffff1916827bffffffffffffffffffffffffffffffffffffffffffffffffffffffff1916145b80611a935750611a92826124bd565b5b9050919050565b60008073ffffffffffffffffffffffffffffffffffffffff166002600084815260200190815260200160002060009054906101000a900473ffffffffffffffffffffffffffffffffffffffff1673ffffffffffffffffffffffffffffffffffffffff1614159050919050565b600033905090565b816004600083815260200190815260200160002060006101000a81548173ffffffffffffffffffffffffffffffffffffffff021916908373ffffffffffffffffffffffffffffffffffffffff160217905550808273ffffffffffffffffffffffffffffffffffffffff16611b8183610dc4565b73ffffffffffffffffffffffffffffffffffffffff167f8c5be1e5ebec7d5bd14f71427d1e84f3dd0314c0f7b2291e5b200ac8c7c3b92560405160405180910390a45050565b600081600001549050919050565b6001816000016000828254019250508190555050565b611c05828260405180602001604052806000815250612527565b5050565b6000611c1482611a9a565b611c53576040517f08c379a0000000000000000000000000000000000000000000000000000000008152600401611c4a90613ad8565b60405180910390fd5b6000611c5e83610dc4565b90508073ffffffffffffffffffffffffffffffffffffffff168473ffffffffffffffffffffffffffffffffffffffff161480611ca05750611c9f818561182c565b5b80611cde57508373ffffffffffffffffffffffffffffffffffffffff16611cc68461077e565b73ffffffffffffffffffffffffffffffffffffffff16145b91505092915050565b8273ffffffffffffffffffffffffffffffffffffffff16611d0782610dc4565b73ffffffffffffffffffffffffffffffffffffffff1614611d5d576040517f08c379a0000000000000000000000000000000000000000000000000000000008152600401611d5490613a58565b60405180910390fd5b600073ffffffffffffffffffffffffffffffffffffffff168273ffffffffffffffffffffffffffffffffffffffff161415611dcd576040517f08c379a0000000000000000000000000000000000000000000000000000000008152600401611dc490613a98565b60405180910390fd5b611dd8838383612582565b611de3600082611b0e565b6001600360008573ffffffffffffffffffffffffffffffffffffffff1673ffffffffffffffffffffffffffffffffffffffff1681526020019081526020016000206000828254611e339190613e43565b925050819055506001600360008473ffffffffffffffffffffffffffffffffffffffff1673ffffffffffffffffffffffffffffffffffffffff1681526020019081526020016000206000828254611e8a9190613d62565b92505081905550816002600083815260200190815260200160002060006101000a81548173ffffffffffffffffffffffffffffffffffffffff021916908373ffffffffffffffffffffffffffffffffffffffff160217905550808273ffffffffffffffffffffffffffffffffffffffff168473ffffffffffffffffffffffffffffffffffffffff167fddf252ad1be2c89b69c2b068fc378daa952ba7f163c4a11628f55a4df523b3ef60405160405180910390a4611f49838383612696565b505050565b6000600a60009054906101000a900473ffffffffffffffffffffffffffffffffffffffff16905081600a60006101000a81548173ffffffffffffffffffffffffffffffffffffffff021916908373ffffffffffffffffffffffffffffffffffffffff1602179055508173ffffffffffffffffffffffffffffffffffffffff168173ffffffffffffffffffffffffffffffffffffffff167f8be0079c531659141344cd1fd0a4f28419497f9722a3daafe3b4186f6b6457e060405160405180910390a35050565b8173ffffffffffffffffffffffffffffffffffffffff168373ffffffffffffffffffffffffffffffffffffffff161415612083576040517f08c379a000000000000000000000000000000000000000000000000000000000815260040161207a90613ab8565b60405180910390fd5b80600560008573ffffffffffffffffffffffffffffffffffffffff1673ffffffffffffffffffffffffffffffffffffffff16815260200190815260200160002060008473ffffffffffffffffffffffffffffffffffffffff1673ffffffffffffffffffffffffffffffffffffffff16815260200190815260200160002060006101000a81548160ff0219169083151502179055508173ffffffffffffffffffffffffffffffffffffffff168373ffffffffffffffffffffffffffffffffffffffff167f17307eab39ab6107e8899845ad3d59bd9653f200f220920489ca2b5937696c318360405161217491906139bb565b60405180910390a3505050565b61218c848484611ce7565b6121988484848461269b565b6121d7576040517f08c379a00000000000000000000000000000000000000000000000000000000081526004016121ce90613a18565b60405180910390fd5b50505050565b60606000821415612225576040518060400160405280600181526020017f30000000000000000000000000000000000000000000000000000000000000008152509050612339565b600082905060005b6000821461225757808061224090613f90565b915050600a826122509190613db8565b915061222d565b60008167ffffffffffffffff811115612273576122726140f5565b5b6040519080825280601f01601f1916602001820160405280156122a55781602001600182028036833780820191505090505b5090505b60008514612332576001826122be9190613e43565b9150600a856122cd9190613fd9565b60306122d99190613d62565b60f81b8183815181106122ef576122ee6140c6565b5b60200101907effffffffffffffffffffffffffffffffffffffffffffffffffffffffffffff1916908160001a905350600a8561232b9190613db8565b94506122a9565b8093505050505b919050565b6000811561234f5760019050612354565b600090505b919050565b606060008251141561237c576040518060200160405280600081525090506124b8565b600060405180606001604052806040815260200161486160409139905060006003600285516123ab9190613d62565b6123b59190613db8565b60046123c19190613de9565b67ffffffffffffffff8111156123da576123d96140f5565b5b6040519080825280601f01601f19166020018201604052801561240c5781602001600182028036833780820191505090505b509050600182016020820185865187015b80821015612478576003820191508151603f8160121c168501518453600184019350603f81600c1c168501518453600184019350603f8160061c168501518453600184019350603f811685015184536001840193505061241d565b505060038651066001811461249457600281146124a7576124af565b603d6001830353603d60028303536124af565b603d60018303535b50505080925050505b919050565b60007f01ffc9a7000000000000000000000000000000000000000000000000000000007bffffffffffffffffffffffffffffffffffffffffffffffffffffffff1916827bffffffffffffffffffffffffffffffffffffffffffffffffffffffff1916149050919050565b6125318383612832565b61253e600084848461269b565b61257d576040517f08c379a000000000000000000000000000000000000000000000000000000000815260040161257490613a18565b60405180910390fd5b505050565b61258d838383612a0c565b600073ffffffffffffffffffffffffffffffffffffffff168373ffffffffffffffffffffffffffffffffffffffff1614156125d0576125cb81612a11565b61260f565b8173ffffffffffffffffffffffffffffffffffffffff168373ffffffffffffffffffffffffffffffffffffffff161461260e5761260d8382612a5a565b5b5b600073ffffffffffffffffffffffffffffffffffffffff168273ffffffffffffffffffffffffffffffffffffffff1614156126525761264d81612bc7565b612691565b8273ffffffffffffffffffffffffffffffffffffffff168273ffffffffffffffffffffffffffffffffffffffff16146126905761268f8282612c98565b5b5b505050565b505050565b60006126bc8473ffffffffffffffffffffffffffffffffffffffff16612d17565b15612825578373ffffffffffffffffffffffffffffffffffffffff1663150b7a026126e5611b06565b8786866040518563ffffffff1660e01b8152600401612707949392919061394d565b602060405180830381600087803b15801561272157600080fd5b505af192505050801561275257506040513d601f19601f8201168201806040525081019061274f9190613204565b60015b6127d5573d8060008114612782576040519150601f19603f3d011682016040523d82523d6000602084013e612787565b606091505b506000815114156127cd576040517f08c379a00000000000000000000000000000000000000000000000000000000081526004016127c490613a18565b60405180910390fd5b805181602001fd5b63150b7a0260e01b7bffffffffffffffffffffffffffffffffffffffffffffffffffffffff1916817bffffffffffffffffffffffffffffffffffffffffffffffffffffffff19161491505061282a565b600190505b949350505050565b600073ffffffffffffffffffffffffffffffffffffffff168273ffffffffffffffffffffffffffffffffffffffff1614156128a2576040517f08c379a000000000000000000000000000000000000000000000000000000000815260040161289990613b58565b60405180910390fd5b6128ab81611a9a565b156128eb576040517f08c379a00000000000000000000000000000000000000000000000000000000081526004016128e290613a78565b60405180910390fd5b6128f760008383612582565b6001600360008473ffffffffffffffffffffffffffffffffffffffff1673ffffffffffffffffffffffffffffffffffffffff16815260200190815260200160002060008282546129479190613d62565b92505081905550816002600083815260200190815260200160002060006101000a81548173ffffffffffffffffffffffffffffffffffffffff021916908373ffffffffffffffffffffffffffffffffffffffff160217905550808273ffffffffffffffffffffffffffffffffffffffff16600073ffffffffffffffffffffffffffffffffffffffff167fddf252ad1be2c89b69c2b068fc378daa952ba7f163c4a11628f55a4df523b3ef60405160405180910390a4612a0860008383612696565b5050565b505050565b6008805490506009600083815260200190815260200160002081905550600881908060018154018082558091505060019003906000526020600020016000909190919091505550565b60006001612a6784610e76565b612a719190613e43565b9050600060076000848152602001908152602001600020549050818114612b56576000600660008673ffffffffffffffffffffffffffffffffffffffff1673ffffffffffffffffffffffffffffffffffffffff168152602001908152602001600020600084815260200190815260200160002054905080600660008773ffffffffffffffffffffffffffffffffffffffff1673ffffffffffffffffffffffffffffffffffffffff168152602001908152602001600020600084815260200190815260200160002081905550816007600083815260200190815260200160002081905550505b6007600084815260200190815260200160002060009055600660008573ffffffffffffffffffffffffffffffffffffffff1673ffffffffffffffffffffffffffffffffffffffff16815260200190815260200160002060008381526020019081526020016000206000905550505050565b60006001600880549050612bdb9190613e43565b9050600060096000848152602001908152602001600020549050600060088381548110612c0b57612c0a6140c6565b5b906000526020600020015490508060088381548110612c2d57612c2c6140c6565b5b906000526020600020018190555081600960008381526020019081526020016000208190555060096000858152602001908152602001600020600090556008805480612c7c57612c7b614097565b5b6001900381819060005260206000200160009055905550505050565b6000612ca383610e76565b905081600660008573ffffffffffffffffffffffffffffffffffffffff1673ffffffffffffffffffffffffffffffffffffffff168152602001908152602001600020600083815260200190815260200160002081905550806007600084815260200190815260200160002081905550505050565b6000808273ffffffffffffffffffffffffffffffffffffffff163b119050919050565b6000612d4d612d4884613c58565b613c33565b90508083825260208201905082856020860282011115612d7057612d6f614129565b5b60005b85811015612da05781612d868882612f21565b845260208401935060208301925050600181019050612d73565b5050509392505050565b6000612dbd612db884613c84565b613c33565b905082815260208101848484011115612dd957612dd861412e565b5b612de4848285613eeb565b509392505050565b6000612dff612dfa84613cb5565b613c33565b905082815260208101848484011115612e1b57612e1a61412e565b5b612e26848285613efa565b509392505050565b600081359050612e3d81614804565b92915050565b600081519050612e5281614804565b92915050565b600082601f830112612e6d57612e6c614124565b5b8135612e7d848260208601612d3a565b91505092915050565b600081359050612e958161481b565b92915050565b600081359050612eaa81614832565b92915050565b600081519050612ebf81614832565b92915050565b600082601f830112612eda57612ed9614124565b5b8135612eea848260208601612daa565b91505092915050565b600082601f830112612f0857612f07614124565b5b8151612f18848260208601612dec565b91505092915050565b600081359050612f3081614849565b92915050565b600081519050612f4581614849565b92915050565b600060208284031215612f6157612f60614138565b5b6000612f6f84828501612e2e565b91505092915050565b600060208284031215612f8e57612f8d614138565b5b6000612f9c84828501612e43565b91505092915050565b60008060408385031215612fbc57612fbb614138565b5b6000612fca85828601612e2e565b9250506020612fdb85828601612e2e565b9150509250929050565b600080600060608486031215612ffe57612ffd614138565b5b600061300c86828701612e2e565b935050602061301d86828701612e2e565b925050604061302e86828701612f21565b9150509250925092565b6000806000806080858703121561305257613051614138565b5b600061306087828801612e2e565b945050602061307187828801612e2e565b935050604061308287828801612f21565b925050606085013567ffffffffffffffff8111156130a3576130a2614133565b5b6130af87828801612ec5565b91505092959194509250565b600080604083850312156130d2576130d1614138565b5b60006130e085828601612e2e565b92505060206130f185828601612e86565b9150509250929050565b6000806040838503121561311257613111614138565b5b600061312085828601612e2e565b925050602061313185828601612f21565b9150509250929050565b60008060006060848603121561315457613153614138565b5b600061316286828701612e2e565b935050602061317386828701612f21565b925050604061318486828701612f21565b9150509250925092565b6000602082840312156131a4576131a3614138565b5b600082013567ffffffffffffffff8111156131c2576131c1614133565b5b6131ce84828501612e58565b91505092915050565b6000602082840312156131ed576131ec614138565b5b60006131fb84828501612e9b565b91505092915050565b60006020828403121561321a57613219614138565b5b600061322884828501612eb0565b91505092915050565b60006020828403121561324757613246614138565b5b600082015167ffffffffffffffff81111561326557613264614133565b5b61327184828501612ef3565b91505092915050565b6000602082840312156132905761328f614138565b5b600061329e84828501612f21565b91505092915050565b6000602082840312156132bd576132bc614138565b5b60006132cb84828501612f36565b91505092915050565b600080604083850312156132eb576132ea614138565b5b60006132f985828601612f21565b925050602061330a85828601612f21565b9150509250929050565b6000613320838361381f565b60208301905092915050565b61333581613e77565b82525050565b600061334682613cf6565b6133508185613d24565b935061335b83613ce6565b8060005b8381101561338c5781516133738882613314565b975061337e83613d17565b92505060018101905061335f565b5085935050505092915050565b6133a281613e89565b82525050565b60006133b382613d01565b6133bd8185613d35565b93506133cd818560208601613efa565b6133d68161413d565b840191505092915050565b60006133ec82613d0c565b6133f68185613d46565b9350613406818560208601613efa565b61340f8161413d565b840191505092915050565b600061342582613d0c565b61342f8185613d57565b935061343f818560208601613efa565b80840191505092915050565b6000613458602783613d57565b91506134638261414e565b602782019050919050565b600061347b602b83613d46565b91506134868261419d565b604082019050919050565b600061349e603283613d46565b91506134a9826141ec565b604082019050919050565b60006134c1601283613d57565b91506134cc8261423b565b601282019050919050565b60006134e4602683613d46565b91506134ef82614264565b604082019050919050565b6000613507602583613d46565b9150613512826142b3565b604082019050919050565b600061352a601c83613d46565b915061353582614302565b602082019050919050565b600061354d602483613d46565b91506135588261432b565b604082019050919050565b6000613570601983613d46565b915061357b8261437a565b602082019050919050565b6000613593602c83613d46565b915061359e826143a3565b604082019050919050565b60006135b6603883613d46565b91506135c1826143f2565b604082019050919050565b60006135d9602a83613d46565b91506135e482614441565b604082019050919050565b60006135fc602983613d46565b915061360782614490565b604082019050919050565b600061361f601083613d57565b915061362a826144df565b601082019050919050565b6000613642600283613d57565b915061364d82614508565b600282019050919050565b6000613665603983613d57565b915061367082614531565b603982019050919050565b6000613688602083613d46565b915061369382614580565b602082019050919050565b60006136ab600d83613d57565b91506136b6826145a9565b600d82019050919050565b60006136ce602c83613d46565b91506136d9826145d2565b604082019050919050565b60006136f1601283613d57565b91506136fc82614621565b601282019050919050565b6000613714602083613d46565b915061371f8261464a565b602082019050919050565b6000613737601483613d57565b915061374282614673565b601482019050919050565b600061375a602183613d46565b91506137658261469c565b604082019050919050565b600061377d601d83613d57565b9150613788826146eb565b601d82019050919050565b60006137a0603183613d46565b91506137ab82614714565b604082019050919050565b60006137c3602c83613d46565b91506137ce82614763565b604082019050919050565b60006137e6600283613d57565b91506137f1826147b2565b600282019050919050565b6000613809601d83613d57565b9150613814826147db565b601d82019050919050565b61382881613ee1565b82525050565b61383781613ee1565b82525050565b600061384882613770565b9150613854828461341a565b915081905092915050565b600061386a826137fc565b9150613876828a61341a565b9150613881826136e4565b915061388c8261344b565b9150613898828961341a565b91506138a3826137d9565b91506138af828861341a565b91506138ba82613658565b91506138c582613612565b91506138d1828761341a565b91506138dc826134b4565b91506138e8828661341a565b91506138f38261372a565b91506138ff828561341a565b915061390a8261369e565b9150613916828461341a565b915061392182613635565b915081905098975050505050505050565b6000602082019050613947600083018461332c565b92915050565b6000608082019050613962600083018761332c565b61396f602083018661332c565b61397c604083018561382e565b818103606083015261398e81846133a8565b905095945050505050565b600060208201905081810360008301526139b3818461333b565b905092915050565b60006020820190506139d06000830184613399565b92915050565b600060208201905081810360008301526139f081846133e1565b905092915050565b60006020820190508181036000830152613a118161346e565b9050919050565b60006020820190508181036000830152613a3181613491565b9050919050565b60006020820190508181036000830152613a51816134d7565b9050919050565b60006020820190508181036000830152613a71816134fa565b9050919050565b60006020820190508181036000830152613a918161351d565b9050919050565b60006020820190508181036000830152613ab181613540565b9050919050565b60006020820190508181036000830152613ad181613563565b9050919050565b60006020820190508181036000830152613af181613586565b9050919050565b60006020820190508181036000830152613b11816135a9565b9050919050565b60006020820190508181036000830152613b31816135cc565b9050919050565b60006020820190508181036000830152613b51816135ef565b9050919050565b60006020820190508181036000830152613b718161367b565b9050919050565b60006020820190508181036000830152613b91816136c1565b9050919050565b60006020820190508181036000830152613bb181613707565b9050919050565b60006020820190508181036000830152613bd18161374d565b9050919050565b60006020820190508181036000830152613bf181613793565b9050919050565b60006020820190508181036000830152613c11816137b6565b9050919050565b6000602082019050613c2d600083018461382e565b92915050565b6000613c3d613c4e565b9050613c498282613f5f565b919050565b6000604051905090565b600067ffffffffffffffff821115613c7357613c726140f5565b5b602082029050602081019050919050565b600067ffffffffffffffff821115613c9f57613c9e6140f5565b5b613ca88261413d565b9050602081019050919050565b600067ffffffffffffffff821115613cd057613ccf6140f5565b5b613cd98261413d565b9050602081019050919050565b6000819050602082019050919050565b600081519050919050565b600081519050919050565b600081519050919050565b6000602082019050919050565b600082825260208201905092915050565b600082825260208201905092915050565b600082825260208201905092915050565b600081905092915050565b6000613d6d82613ee1565b9150613d7883613ee1565b9250827fffffffffffffffffffffffffffffffffffffffffffffffffffffffffffffffff03821115613dad57613dac61400a565b5b828201905092915050565b6000613dc382613ee1565b9150613dce83613ee1565b925082613dde57613ddd614039565b5b828204905092915050565b6000613df482613ee1565b9150613dff83613ee1565b9250817fffffffffffffffffffffffffffffffffffffffffffffffffffffffffffffffff0483118215151615613e3857613e3761400a565b5b828202905092915050565b6000613e4e82613ee1565b9150613e5983613ee1565b925082821015613e6c57613e6b61400a565b5b828203905092915050565b6000613e8282613ec1565b9050919050565b60008115159050919050565b60007fffffffff0000000000000000000000000000000000000000000000000000000082169050919050565b600073ffffffffffffffffffffffffffffffffffffffff82169050919050565b6000819050919050565b82818337600083830152505050565b60005b83811015613f18578082015181840152602081019050613efd565b83811115613f27576000848401525b50505050565b60006002820490506001821680613f4557607f821691505b60208210811415613f5957613f58614068565b5b50919050565b613f688261413d565b810181811067ffffffffffffffff82111715613f8757613f866140f5565b5b80604052505050565b6000613f9b82613ee1565b91507fffffffffffffffffffffffffffffffffffffffffffffffffffffffffffffffff821415613fce57613fcd61400a565b5b600182019050919050565b6000613fe482613ee1565b9150613fef83613ee1565b925082613fff57613ffe614039565b5b828206905092915050565b7f4e487b7100000000000000000000000000000000000000000000000000000000600052601160045260246000fd5b7f4e487b7100000000000000000000000000000000000000000000000000000000600052601260045260246000fd5b7f4e487b7100000000000000000000000000000000000000000000000000000000600052602260045260246000fd5b7f4e487b7100000000000000000000000000000000000000000000000000000000600052603160045260246000fd5b7f4e487b7100000000000000000000000000000000000000000000000000000000600052603260045260246000fd5b7f4e487b7100000000000000000000000000000000000000000000000000000000600052604160045260246000fd5b600080fd5b600080fd5b600080fd5b600080fd5b600080fd5b6000601f19601f8301169050919050565b7f54686973207469636b65742069732067656e6572617465642066726f6d204c6f60008201527f6f74626f78202300000000000000000000000000000000000000000000000000602082015250565b7f455243373231456e756d657261626c653a206f776e657220696e646578206f7560008201527f74206f6620626f756e6473000000000000000000000000000000000000000000602082015250565b7f4552433732313a207472616e7366657220746f206e6f6e20455243373231526560008201527f63656976657220696d706c656d656e7465720000000000000000000000000000602082015250565b7f222c20226973526566756e646564223a20220000000000000000000000000000600082015250565b7f4f776e61626c653a206e6577206f776e657220697320746865207a65726f206160008201527f6464726573730000000000000000000000000000000000000000000000000000602082015250565b7f4552433732313a207472616e736665722066726f6d20696e636f72726563742060008201527f6f776e6572000000000000000000000000000000000000000000000000000000602082015250565b7f4552433732313a20746f6b656e20616c7265616479206d696e74656400000000600082015250565b7f4552433732313a207472616e7366657220746f20746865207a65726f2061646460008201527f7265737300000000000000000000000000000000000000000000000000000000602082015250565b7f4552433732313a20617070726f766520746f2063616c6c657200000000000000600082015250565b7f4552433732313a206f70657261746f7220717565727920666f72206e6f6e657860008201527f697374656e7420746f6b656e0000000000000000000000000000000000000000602082015250565b7f4552433732313a20617070726f76652063616c6c6572206973206e6f74206f7760008201527f6e6572206e6f7220617070726f76656420666f7220616c6c0000000000000000602082015250565b7f4552433732313a2062616c616e636520717565727920666f7220746865207a6560008201527f726f206164647265737300000000000000000000000000000000000000000000602082015250565b7f4552433732313a206f776e657220717565727920666f72206e6f6e657869737460008201527f656e7420746f6b656e0000000000000000000000000000000000000000000000602082015250565b7f222c2022697357696e6e6572223a202200000000000000000000000000000000600082015250565b7f227d000000000000000000000000000000000000000000000000000000000000600082015250565b7f2120596f7520686176652061206368616e636520746f2077696e207072697a6560008201527f7320696e73696465207468652050616e646f726120426f782100000000000000602082015250565b7f4552433732313a206d696e7420746f20746865207a65726f2061646472657373600082015250565b7f222c2022696d616765223a202200000000000000000000000000000000000000600082015250565b7f4552433732313a20617070726f76656420717565727920666f72206e6f6e657860008201527f697374656e7420746f6b656e0000000000000000000000000000000000000000602082015250565b7f222c20226465736372697074696f6e223a220000000000000000000000000000600082015250565b7f4f776e61626c653a2063616c6c6572206973206e6f7420746865206f776e6572600082015250565b7f222c20226472617754696d657374616d70223a22000000000000000000000000600082015250565b7f4552433732313a20617070726f76616c20746f2063757272656e74206f776e6560008201527f7200000000000000000000000000000000000000000000000000000000000000602082015250565b7f646174613a6170706c69636174696f6e2f6a736f6e3b6261736536342c000000600082015250565b7f4552433732313a207472616e736665722063616c6c6572206973206e6f74206f60008201527f776e6572206e6f7220617070726f766564000000000000000000000000000000602082015250565b7f455243373231456e756d657261626c653a20676c6f62616c20696e646578206f60008201527f7574206f6620626f756e64730000000000000000000000000000000000000000602082015250565b7f3a20000000000000000000000000000000000000000000000000000000000000600082015250565b7f7b226e616d65223a225468652050616e646f7261205469636b65742023000000600082015250565b61480d81613e77565b811461481857600080fd5b50565b61482481613e89565b811461482f57600080fd5b50565b61483b81613e95565b811461484657600080fd5b50565b61485281613ee1565b811461485d57600080fd5b5056fe4142434445464748494a4b4c4d4e4f505152535455565758595a6162636465666768696a6b6c6d6e6f707172737475767778797a303132333435363738392b2fa2646970667358221220fa0fc12be9b61752f61f90cdeecac17acf4e1f11d78283bdfc943a9a146d975d64736f6c63430008070033697066733a2f2f62616679626569617637377633346c6e373276626e6f7a70726b7a666c6f717674776c623565616f68696e746b6a69766170327470346774716469697066733a2f2f6261666b726569676d356972377679697269636e6c323361376262627a69337665327472367635347069327175737666757932726c647563337765",
  "linkReferences": {},
  "deployedLinkReferences": {}
}