{
  "_format": "hh-sol-artifact-1",
  "contractName": "Lootbox",
  "sourceName": "contracts/Lootbox.sol",
  "abi": [
    {
      "inputs": [
        {
          "internalType": "string",
          "name": "_name",
          "type": "string"
        },
        {
          "internalType": "uint256",
          "name": "_id",
          "type": "uint256"
        },
        {
          "internalType": "uint256",
          "name": "_drawTimestamp",
          "type": "uint256"
        },
        {
          "internalType": "uint256",
          "name": "_ticketPrice",
          "type": "uint256"
        },
        {
          "internalType": "uint256",
          "name": "_minimumTicketRequired",
          "type": "uint256"
        },
        {
          "internalType": "uint256",
          "name": "_maxTicketPerWallet",
          "type": "uint256"
        },
        {
          "internalType": "address",
          "name": "_ticket",
          "type": "address"
        }
      ],
      "stateMutability": "nonpayable",
      "type": "constructor"
    },
    {
      "inputs": [],
      "name": "Lootbox__AlreadyDrawn",
      "type": "error"
    },
    {
      "inputs": [],
      "name": "Lootbox__ExceedMaxTicketsPerWallet",
      "type": "error"
    },
    {
      "inputs": [],
      "name": "Lootbox__NotDrawnYet",
      "type": "error"
    },
    {
      "inputs": [],
      "name": "Lootbox__NotEnoughEth",
      "type": "error"
    },
    {
      "inputs": [],
      "name": "Lootbox__NotEnoughRandomWords",
      "type": "error"
    },
    {
      "inputs": [],
      "name": "Lootbox__NotRefundable",
      "type": "error"
    },
    {
      "inputs": [],
      "name": "Lootbox__TooManyNFTsDeposited",
      "type": "error"
    },
    {
      "inputs": [],
      "name": "Lootbox__Unauthorized",
      "type": "error"
    },
    {
      "anonymous": false,
      "inputs": [
        {
          "indexed": false,
          "internalType": "uint256[]",
          "name": "winnerTickets",
          "type": "uint256[]"
        }
      ],
      "name": "Drawn",
      "type": "event"
    },
    {
      "anonymous": false,
      "inputs": [
        {
          "components": [
            {
              "internalType": "address",
              "name": "_address",
              "type": "address"
            },
            {
              "internalType": "uint256",
              "name": "_tokenId",
              "type": "uint256"
            }
          ],
          "indexed": false,
          "internalType": "struct Lootbox.NFT[]",
          "name": "nfts",
          "type": "tuple[]"
        }
      ],
      "name": "NFTSDeposited",
      "type": "event"
    },
    {
      "anonymous": false,
      "inputs": [
        {
          "indexed": true,
          "internalType": "address",
          "name": "previousOwner",
          "type": "address"
        },
        {
          "indexed": true,
          "internalType": "address",
          "name": "newOwner",
          "type": "address"
        }
      ],
      "name": "OwnershipTransferred",
      "type": "event"
    },
    {
      "inputs": [
        {
          "internalType": "uint256",
          "name": "",
          "type": "uint256"
        }
      ],
      "name": "NFTs",
      "outputs": [
        {
          "internalType": "address",
          "name": "_address",
          "type": "address"
        },
        {
          "internalType": "uint256",
          "name": "_tokenId",
          "type": "uint256"
        }
      ],
      "stateMutability": "view",
      "type": "function"
    },
    {
      "inputs": [
        {
          "internalType": "uint256",
          "name": "_amount",
          "type": "uint256"
        }
      ],
      "name": "buyTickets",
      "outputs": [],
      "stateMutability": "payable",
      "type": "function"
    },
    {
      "inputs": [
        {
          "internalType": "uint256",
          "name": "_ticketId",
          "type": "uint256"
        }
      ],
      "name": "claimNFT",
      "outputs": [],
      "stateMutability": "nonpayable",
      "type": "function"
    },
    {
      "inputs": [
        {
          "components": [
            {
              "internalType": "address",
              "name": "_address",
              "type": "address"
            },
            {
              "internalType": "uint256",
              "name": "_tokenId",
              "type": "uint256"
            }
          ],
          "internalType": "struct Lootbox.NFT[]",
          "name": "_nfts",
          "type": "tuple[]"
        }
      ],
      "name": "depositNFTs",
      "outputs": [],
      "stateMutability": "nonpayable",
      "type": "function"
    },
    {
      "inputs": [
        {
          "internalType": "uint256[]",
          "name": "_randomWords",
          "type": "uint256[]"
        }
      ],
      "name": "draw",
      "outputs": [],
      "stateMutability": "nonpayable",
      "type": "function"
    },
    {
      "inputs": [],
      "name": "drawTimestamp",
      "outputs": [
        {
          "internalType": "uint256",
          "name": "",
          "type": "uint256"
        }
      ],
      "stateMutability": "view",
      "type": "function"
    },
    {
      "inputs": [],
      "name": "getAllNFTs",
      "outputs": [
        {
          "components": [
            {
              "internalType": "address",
              "name": "_address",
              "type": "address"
            },
            {
              "internalType": "uint256",
              "name": "_tokenId",
              "type": "uint256"
            }
          ],
          "internalType": "struct Lootbox.NFT[]",
          "name": "",
          "type": "tuple[]"
        }
      ],
      "stateMutability": "view",
      "type": "function"
    },
    {
      "inputs": [],
      "name": "id",
      "outputs": [
        {
          "internalType": "uint256",
          "name": "",
          "type": "uint256"
        }
      ],
      "stateMutability": "view",
      "type": "function"
    },
    {
      "inputs": [],
      "name": "isDrawn",
      "outputs": [
        {
          "internalType": "bool",
          "name": "",
          "type": "bool"
        }
      ],
      "stateMutability": "view",
      "type": "function"
    },
    {
      "inputs": [],
      "name": "isRefundable",
      "outputs": [
        {
          "internalType": "bool",
          "name": "",
          "type": "bool"
        }
      ],
      "stateMutability": "view",
      "type": "function"
    },
    {
      "inputs": [],
      "name": "maxTicketPerWallet",
      "outputs": [
        {
          "internalType": "uint256",
          "name": "",
          "type": "uint256"
        }
      ],
      "stateMutability": "view",
      "type": "function"
    },
    {
      "inputs": [],
      "name": "minimumTicketRequired",
      "outputs": [
        {
          "internalType": "uint256",
          "name": "",
          "type": "uint256"
        }
      ],
      "stateMutability": "view",
      "type": "function"
    },
    {
      "inputs": [],
      "name": "name",
      "outputs": [
        {
          "internalType": "string",
          "name": "",
          "type": "string"
        }
      ],
      "stateMutability": "view",
      "type": "function"
    },
    {
      "inputs": [],
      "name": "numNFT",
      "outputs": [
        {
          "internalType": "uint256",
          "name": "",
          "type": "uint256"
        }
      ],
      "stateMutability": "view",
      "type": "function"
    },
    {
      "inputs": [
        {
          "internalType": "address",
          "name": "",
          "type": "address"
        },
        {
          "internalType": "address",
          "name": "",
          "type": "address"
        },
        {
          "internalType": "uint256",
          "name": "",
          "type": "uint256"
        },
        {
          "internalType": "bytes",
          "name": "",
          "type": "bytes"
        }
      ],
      "name": "onERC721Received",
      "outputs": [
        {
          "internalType": "bytes4",
          "name": "",
          "type": "bytes4"
        }
      ],
      "stateMutability": "nonpayable",
      "type": "function"
    },
    {
      "inputs": [],
      "name": "owner",
      "outputs": [
        {
          "internalType": "address",
          "name": "",
          "type": "address"
        }
      ],
      "stateMutability": "view",
      "type": "function"
    },
    {
      "inputs": [
        {
          "internalType": "uint256[]",
          "name": "tokenIds",
          "type": "uint256[]"
        }
      ],
      "name": "refund",
      "outputs": [],
      "stateMutability": "nonpayable",
      "type": "function"
    },
    {
      "inputs": [],
      "name": "renounceOwnership",
      "outputs": [],
      "stateMutability": "nonpayable",
      "type": "function"
    },
    {
      "inputs": [],
      "name": "ticketPrice",
      "outputs": [
        {
          "internalType": "uint256",
          "name": "",
          "type": "uint256"
        }
      ],
      "stateMutability": "view",
      "type": "function"
    },
    {
      "inputs": [],
      "name": "ticketSold",
      "outputs": [
        {
          "internalType": "uint256",
          "name": "",
          "type": "uint256"
        }
      ],
      "stateMutability": "view",
      "type": "function"
    },
    {
      "inputs": [
        {
          "internalType": "address",
          "name": "newOwner",
          "type": "address"
        }
      ],
      "name": "transferOwnership",
      "outputs": [],
      "stateMutability": "nonpayable",
      "type": "function"
    },
    {
      "inputs": [
        {
          "internalType": "uint256",
          "name": "",
          "type": "uint256"
        }
      ],
      "name": "winners",
      "outputs": [
        {
          "internalType": "uint256",
          "name": "",
          "type": "uint256"
        }
      ],
      "stateMutability": "view",
      "type": "function"
    },
    {
      "inputs": [],
      "name": "withdraw",
      "outputs": [],
      "stateMutability": "nonpayable",
      "type": "function"
    },
    {
      "inputs": [],
      "name": "withdrawNFT",
      "outputs": [],
      "stateMutability": "nonpayable",
      "type": "function"
    },
    {
      "inputs": [
        {
          "internalType": "uint256",
          "name": "",
          "type": "uint256"
        }
      ],
      "name": "wonTicket",
      "outputs": [
        {
          "internalType": "uint256",
          "name": "",
          "type": "uint256"
        }
      ],
      "stateMutability": "view",
      "type": "function"
    }
  ],
  "bytecode": "0x60a06040526101f4608052600060058190556006556007805461ffff191690553480156200002c57600080fd5b50604051620020b8380380620020b88339810160408190526200004f9162000256565b6200005a33620000c7565b86516200006f9060089060208a019062000117565b506009959095556001939093556002919091556003556004556007805462010000600160b01b031916336201000002179055600a80546001600160a01b0319166001600160a01b03909216919091179055506200045e565b600080546001600160a01b038381166001600160a01b0319831681178455604051919092169283917f8be0079c531659141344cd1fd0a4f28419497f9722a3daafe3b4186f6b6457e09190a35050565b8280546200012590620003b1565b90600052602060002090601f01602090048101928262000149576000855562000194565b82601f106200016457805160ff191683800117855562000194565b8280016001018555821562000194579182015b828111156200019457825182559160200191906001019062000177565b50620001a2929150620001a6565b5090565b5b80821115620001a25760008155600101620001a7565b6000620001d4620001ce846200033f565b62000320565b905082815260208101848484011115620001f157620001f1600080fd5b620001fe8482856200037e565b509392505050565b805162000213816200043d565b92915050565b600082601f8301126200022f576200022f600080fd5b815162000241848260208601620001bd565b949350505050565b8051620002138162000457565b600080600080600080600060e0888a031215620002765762000276600080fd5b87516001600160401b03811115620002915762000291600080fd5b6200029f8a828b0162000219565b9750506020620002b28a828b0162000249565b9650506040620002c58a828b0162000249565b9550506060620002d88a828b0162000249565b9450506080620002eb8a828b0162000249565b93505060a0620002fe8a828b0162000249565b92505060c0620003118a828b0162000206565b91505092959891949750929550565b60006200032c60405190565b90506200033a8282620003e2565b919050565b60006001600160401b038211156200035b576200035b62000427565b601f19601f83011660200192915050565b60006001600160a01b03821662000213565b60005b838110156200039b57818101518382015260200162000381565b83811115620003ab576000848401525b50505050565b600281046001821680620003c657607f821691505b60208210811415620003dc57620003dc62000411565b50919050565b601f19601f83011681018181106001600160401b03821117156200040a576200040a62000427565b6040525050565b634e487b7160e01b600052602260045260246000fd5b634e487b7160e01b600052604160045260246000fd5b62000448816200036c565b81146200045457600080fd5b50565b8062000448565b608051611c3e6200047a60003960006108160152611c3e6000f3fe6080604052600436106101665760003560e01c806362d9c9a8116100d1578063a3c0b95b1161008a578063b914a21911610064578063b914a2191461041c578063e0391b0914610432578063f2fde38b14610454578063fe5c873a1461047457600080fd5b8063a3c0b95b14610398578063aa613df5146103e6578063af640d0f1461040657600080fd5b806362d9c9a8146102c3578063657bc2e7146102f057806370d85d6f14610310578063715018a6146103305780638da5cb5b14610345578063a2fb11751461036b57600080fd5b80632f366637116101235780632f3666371461023e5780633c2bcadc146102535780633ccfd60b1461026d57806343eda39e14610282578063485cc439146102985780635e38c954146102ae57600080fd5b806306fdde031461016b5780630c47a792146101965780631209b1f6146101b9578063150b7a02146101cf5780632a086dd1146101fc5780632c1fecfe14610212575b600080fd5b34801561017757600080fd5b50610180610494565b60405161018d9190611959565b60405180910390f35b3480156101a257600080fd5b506101ac60065481565b60405161018d91906119ee565b3480156101c557600080fd5b506101ac60025481565b3480156101db57600080fd5b506101ef6101ea3660046115f8565b610522565b60405161018d919061194b565b34801561020857600080fd5b506101ac60035481565b34801561021e57600080fd5b5060075461023190610100900460ff1681565b60405161018d919061193d565b61025161024c36600461170e565b610533565b005b34801561025f57600080fd5b506007546102319060ff1681565b34801561027957600080fd5b5061025161062d565b34801561028e57600080fd5b506101ac60045481565b3480156102a457600080fd5b506101ac60055481565b3480156102ba57600080fd5b506102516106db565b3480156102cf57600080fd5b506101ac6102de36600461170e565b600d6020526000908152604090205481565b3480156102fc57600080fd5b5061025161030b366004611677565b6107c6565b34801561031c57600080fd5b5061025161032b3660046116b2565b6109f5565b34801561033c57600080fd5b50610251610d33565b34801561035157600080fd5b506000546001600160a01b031660405161018d9190611888565b34801561037757600080fd5b506101ac61038636600461170e565b600c6020526000908152604090205481565b3480156103a457600080fd5b506103d86103b336600461170e565b600b60205260009081526040902080546001909101546001600160a01b039091169082565b60405161018d9291906118be565b3480156103f257600080fd5b506102516104013660046116b2565b610d69565b34801561041257600080fd5b506101ac60095481565b34801561042857600080fd5b506101ac60015481565b34801561043e57600080fd5b50610447610fe1565b60405161018d91906118fb565b34801561046057600080fd5b5061025161046f3660046115b6565b6110bc565b34801561048057600080fd5b5061025161048f36600461170e565b611115565b600880546104a190611af5565b80601f01602080910402602001604051908101604052809291908181526020018280546104cd90611af5565b801561051a5780601f106104ef5761010080835404028352916020019161051a565b820191906000526020600020905b8154815290600101906020018083116104fd57829003601f168201915b505050505081565b630a85bd0160e11b5b949350505050565b60075460ff161561055757604051635dd633dd60e11b815260040160405180910390fd5b60045481111561057a5760405163ef07058b60e01b815260040160405180910390fd5b806002546105889190611a8d565b34146105a757604051631a8fabd760e11b815260040160405180910390fd5b60075460095460405163743865b360e11b8152620100009092046001600160a01b03169163e870cb66916105e191339186916004016118e0565b600060405180830381600087803b1580156105fb57600080fd5b505af115801561060f573d6000803e3d6000fd5b5050505080600560008282546106259190611a75565b909155505050565b6000546001600160a01b031633146106605760405162461bcd60e51b8152600401610657906119b4565b60405180910390fd5b60075460ff1661068357604051635a7c82d160e11b815260040160405180910390fd5b600754610100900460ff16156106ac57604051631b8541f760e21b815260040160405180910390fd5b60405133904780156108fc02916000818181858888f193505050501580156106d8573d6000803e3d6000fd5b50565b6000546001600160a01b031633146107055760405162461bcd60e51b8152600401610657906119b4565b600754610100900460ff1661072d5760405163bfbef1dd60e01b815260040160405180910390fd5b60005b6006548110156106d8576000818152600b60205260409081902080546001909101549151632142170760e11b81526001600160a01b03909116916342842e0e91610781913091339190600401611896565b600060405180830381600087803b15801561079b57600080fd5b505af11580156107af573d6000803e3d6000fd5b5050505080806107be90611b49565b915050610730565b6000546001600160a01b031633146107f05760405162461bcd60e51b8152600401610657906119b4565b60075460ff161561081457604051635dd633dd60e11b815260040160405180910390fd5b7f000000000000000000000000000000000000000000000000000000000000000081516006546108449190611a75565b111561086357604051630bf8105560e41b815260040160405180910390fd5b60005b81518110156109ba5781818151811061088157610881611bba565b6020026020010151600001516001600160a01b03166342842e0e33308585815181106108af576108af611bba565b6020026020010151602001516040518463ffffffff1660e01b81526004016108d993929190611896565b600060405180830381600087803b1580156108f357600080fd5b505af1158015610907573d6000803e3d6000fd5b5050505081818151811061091d5761091d611bba565b602090810291909101810151516006546000908152600b909252604090912080546001600160a01b0319166001600160a01b03909216919091179055815182908290811061096d5761096d611bba565b602002602001015160200151600b60006006548152602001908152602001600020600101819055506006600081546109a490611b49565b90915550806109b281611b49565b915050610866565b507fa961e4c946cc27cb5f996af2c94a2cc494908c3f492332744a94ed514b0b9883816040516109ea91906118fb565b60405180910390a150565b6007546201000090046001600160a01b03163314610a2657604051631b8541f760e21b815260040160405180910390fd5b60075460ff1615610a4a57604051635dd633dd60e11b815260040160405180910390fd5b600654815114610a6d57604051634de07a8160e11b815260040160405180910390fd5b600354600554111580610a835750600654600554105b15610a9c576007805461ff001916610100179055610d23565b600060065467ffffffffffffffff811115610ab957610ab9611bd0565b604051908082528060200260200182016040528015610ae2578160200160208202803683370190505b50905060005b600654811015610ce957600a5460095460055485516000936001600160a01b0316926378df3a52929091889087908110610b2457610b24611bba565b6020026020010151610b369190611b64565b6040518363ffffffff1660e01b8152600401610b539291906119fc565b60206040518083038186803b158015610b6b57600080fd5b505afa158015610b7f573d6000803e3d6000fd5b505050506040513d601f19601f82011682018060405250810190610ba3919061172f565b600a546040516301c7245160e31b81529192506001600160a01b031690630e39228890610bd49084906004016119ee565b60206040518083038186803b158015610bec57600080fd5b505afa158015610c00573d6000803e3d6000fd5b505050506040513d601f19601f82011682018060405250810190610c2491906116ed565b610ce3576007546009546040516368cbce3160e01b8152620100009092046001600160a01b0316916368cbce3191610c61918591906004016119fc565b600060405180830381600087803b158015610c7b57600080fd5b505af1158015610c8f573d6000803e3d6000fd5b5050506000838152600c60209081526040808320859055848352600d90915290208390555082518190849084908110610cca57610cca611bba565b602090810291909101015281610cdf81611b49565b9250505b50610ae8565b7f87b7fb8a3c2f4643bf00b96a21a524e0f5153da68019604de93ba8385461138782604051610d18919061190c565b60405180910390a150505b506007805460ff19166001179055565b6000546001600160a01b03163314610d5d5760405162461bcd60e51b8152600401610657906119b4565b610d676000611371565b565b600754610100900460ff16610d915760405163bfbef1dd60e01b815260040160405180910390fd5b60005b8151811015610f2e57600a54825133916001600160a01b031690636352211e90859085908110610dc657610dc6611bba565b60200260200101516040518263ffffffff1660e01b8152600401610dea91906119ee565b60206040518083038186803b158015610e0257600080fd5b505afa158015610e16573d6000803e3d6000fd5b505050506040513d601f19601f82011682018060405250810190610e3a91906115d7565b6001600160a01b031614610e6157604051631b8541f760e21b815260040160405180910390fd5b600a5482516001600160a01b03909116906355866c8d90849084908110610e8a57610e8a611bba565b60200260200101516040518263ffffffff1660e01b8152600401610eae91906119ee565b60206040518083038186803b158015610ec657600080fd5b505afa158015610eda573d6000803e3d6000fd5b505050506040513d601f19601f82011682018060405250810190610efe91906116ed565b15610f1c5760405163bfbef1dd60e01b815260040160405180910390fd5b80610f2681611b49565b915050610d94565b506007546009546040516219603d60eb1b8152620100009092046001600160a01b03169163cb01e80091610f679185919060040161191d565b600060405180830381600087803b158015610f8157600080fd5b505af1158015610f95573d6000803e3d6000fd5b50505050336001600160a01b03166108fc8251600254610fb59190611a8d565b6040518115909202916000818181858888f19350505050158015610fdd573d6000803e3d6000fd5b5050565b6060600060065467ffffffffffffffff81111561100057611000611bd0565b60405190808252806020026020018201604052801561104557816020015b604080518082019091526000808252602082015281526020019060019003908161101e5790505b50905060005b6006548110156110b6576000818152600b6020908152604091829020825180840190935280546001600160a01b031683526001015490820152825183908390811061109857611098611bba565b602002602001018190525080806110ae90611b49565b91505061104b565b50919050565b6000546001600160a01b031633146110e65760405162461bcd60e51b8152600401610657906119b4565b6001600160a01b03811661110c5760405162461bcd60e51b81526004016106579061196a565b6106d881611371565b60075460ff1661113857604051635a7c82d160e11b815260040160405180910390fd5b600a546040516331a9108f60e11b815233916001600160a01b031690636352211e906111689085906004016119ee565b60206040518083038186803b15801561118057600080fd5b505afa158015611194573d6000803e3d6000fd5b505050506040513d601f19601f820116820180604052508101906111b891906115d7565b6001600160a01b0316146111df57604051631b8541f760e21b815260040160405180910390fd5b600a54604051639e34070f60e01b81526001600160a01b0390911690639e34070f9061120f9084906004016119ee565b60206040518083038186803b15801561122757600080fd5b505afa15801561123b573d6000803e3d6000fd5b505050506040513d601f19601f8201168201806040525081019061125f91906116ed565b1561127d57604051631b8541f760e21b815260040160405180910390fd5b6000818152600d60209081526040808320548352600b9091529081902080546001909101549151632142170760e11b81526001600160a01b03909116916342842e0e916112d1913091339190600401611896565b600060405180830381600087803b1580156112eb57600080fd5b505af11580156112ff573d6000803e3d6000fd5b505060075460095460405163a16c6a7360e01b8152620100009092046001600160a01b0316935063a16c6a73925061133c918591906004016119fc565b600060405180830381600087803b15801561135657600080fd5b505af115801561136a573d6000803e3d6000fd5b5050505050565b600080546001600160a01b038381166001600160a01b0319831681178455604051919092169283917f8be0079c531659141344cd1fd0a4f28419497f9722a3daafe3b4186f6b6457e09190a35050565b60006113d46113cf84611a26565b611a0a565b838152905060208101826040850281018610156113f3576113f3600080fd5b60005b8581101561142157816114098882611556565b845250602090920191604091909101906001016113f6565b5050509392505050565b60006114396113cf84611a26565b9050808382526020820190508285602086028201111561145b5761145b600080fd5b60005b85811015611421578161147188826115a0565b845250602092830192919091019060010161145e565b60006114956113cf84611a4a565b9050828152602081018484840111156114b0576114b0600080fd5b6114bb848285611abd565b509392505050565b80356114ce81611be6565b92915050565b80516114ce81611be6565b600082601f8301126114f3576114f3600080fd5b813561052b8482602086016113c1565b600082601f83011261151757611517600080fd5b813561052b84826020860161142b565b80516114ce81611bfa565b600082601f83011261154657611546600080fd5b813561052b848260208601611487565b60006040828403121561156b5761156b600080fd5b6115756040611a0a565b9050600061158384846114c3565b8252506020611594848483016115a0565b60208301525092915050565b80356114ce81611c02565b80516114ce81611c02565b6000602082840312156115cb576115cb600080fd5b600061052b84846114c3565b6000602082840312156115ec576115ec600080fd5b600061052b84846114d4565b6000806000806080858703121561161157611611600080fd5b600061161d87876114c3565b945050602061162e878288016114c3565b935050604061163f878288016115a0565b925050606085013567ffffffffffffffff81111561165f5761165f600080fd5b61166b87828801611532565b91505092959194509250565b60006020828403121561168c5761168c600080fd5b813567ffffffffffffffff8111156116a6576116a6600080fd5b61052b848285016114df565b6000602082840312156116c7576116c7600080fd5b813567ffffffffffffffff8111156116e1576116e1600080fd5b61052b84828501611503565b60006020828403121561170257611702600080fd5b600061052b8484611527565b60006020828403121561172357611723600080fd5b600061052b84846115a0565b60006020828403121561174457611744600080fd5b600061052b84846115ab565b600061175c8383611858565b505060400190565b60006117708383611882565b505060200190565b61178181611aac565b82525050565b6000611791825190565b80845260209384019383018060005b838110156117c55781516117b48882611750565b9750602083019250506001016117a0565b509495945050505050565b60006117da825190565b80845260209384019383018060005b838110156117c55781516117fd8882611764565b9750602083019250506001016117e9565b801515611781565b6001600160e01b03198116611781565b6000611830825190565b808452602084019350611847818560208601611ac9565b601f01601f19169290920192915050565b805160408301906118698482611778565b50602082015161187c6020850182611882565b50505050565b80611781565b602081016114ce8284611778565b606081016118a48286611778565b6118b16020830185611778565b61052b6040830184611882565b604081016118cc8285611778565b6118d96020830184611882565b9392505050565b606081016118ee8286611778565b6118b16020830185611882565b602080825281016118d98184611787565b602080825281016118d981846117d0565b6040808252810161192e81856117d0565b90506118d96020830184611882565b602081016114ce828461180e565b602081016114ce8284611816565b602080825281016118d98184611826565b602080825281016114ce81602681527f4f776e61626c653a206e6577206f776e657220697320746865207a65726f206160208201526564647265737360d01b604082015260600190565b60208082528181019081527f4f776e61626c653a2063616c6c6572206973206e6f7420746865206f776e65726040830152606082016114ce565b602081016114ce8284611882565b604081016118cc8285611882565b6000611a1560405190565b9050611a218282611b1c565b919050565b600067ffffffffffffffff821115611a4057611a40611bd0565b5060209081020190565b600067ffffffffffffffff821115611a6457611a64611bd0565b601f19601f83011660200192915050565b60008219821115611a8857611a88611b78565b500190565b6000816000190483118215151615611aa757611aa7611b78565b500290565b60006001600160a01b0382166114ce565b82818337506000910152565b60005b83811015611ae4578181015183820152602001611acc565b8381111561187c5750506000910152565b600281046001821680611b0957607f821691505b602082108114156110b6576110b6611ba4565b601f19601f830116810181811067ffffffffffffffff82111715611b4257611b42611bd0565b6040525050565b6000600019821415611b5d57611b5d611b78565b5060010190565b600082611b7357611b73611b8e565b500690565b634e487b7160e01b600052601160045260246000fd5b634e487b7160e01b600052601260045260246000fd5b634e487b7160e01b600052602260045260246000fd5b634e487b7160e01b600052603260045260246000fd5b634e487b7160e01b600052604160045260246000fd5b611bef81611aac565b81146106d857600080fd5b801515611bef565b80611bef56fea264697066735822122004b6aa02273f693ec8a8d36198a86cbcedf192310aa2e7ddbd0f024081227bf264736f6c63430008070033",
  "linkReferences": {},
  "deployedLinkReferences": {}
}