{
  "_format": "hh-sol-artifact-1",
  "contractName": "Lootbox",
  "sourceName": "contracts/Lootbox.sol",
  "abi": [
    {
      "inputs": [
        {
          "internalType": "string",
          "name": "_name",
          "type": "string"
        },
        {
          "internalType": "uint256",
          "name": "_id",
          "type": "uint256"
        },
        {
          "internalType": "uint256",
          "name": "_drawTimestamp",
          "type": "uint256"
        },
        {
          "internalType": "uint256",
          "name": "_ticketPrice",
          "type": "uint256"
        },
        {
          "internalType": "uint256",
          "name": "_minimumTicketRequired",
          "type": "uint256"
        },
        {
          "internalType": "uint256",
          "name": "_maxTicketPerWallet",
          "type": "uint256"
        },
        {
          "internalType": "address",
          "name": "_ticket",
          "type": "address"
        }
      ],
      "stateMutability": "nonpayable",
      "type": "constructor"
    },
    {
      "inputs": [],
      "name": "Lootbox__AlreadyDrawn",
      "type": "error"
    },
    {
      "inputs": [],
      "name": "Lootbox__ExceedMaxTicketsPerWallet",
      "type": "error"
    },
    {
      "inputs": [],
      "name": "Lootbox__NotDrawnYet",
      "type": "error"
    },
    {
      "inputs": [],
      "name": "Lootbox__NotEnoughEth",
      "type": "error"
    },
    {
      "inputs": [],
      "name": "Lootbox__NotEnoughRandomWords",
      "type": "error"
    },
    {
      "inputs": [],
      "name": "Lootbox__NotRefundable",
      "type": "error"
    },
    {
      "inputs": [],
      "name": "Lootbox__TooManyNFTsDeposited",
      "type": "error"
    },
    {
      "inputs": [],
      "name": "Lootbox__Unauthorized",
      "type": "error"
    },
    {
      "anonymous": false,
      "inputs": [
        {
          "indexed": true,
          "internalType": "address",
          "name": "previousOwner",
          "type": "address"
        },
        {
          "indexed": true,
          "internalType": "address",
          "name": "newOwner",
          "type": "address"
        }
      ],
      "name": "OwnershipTransferred",
      "type": "event"
    },
    {
      "inputs": [
        {
          "internalType": "uint256",
          "name": "",
          "type": "uint256"
        }
      ],
      "name": "NFTs",
      "outputs": [
        {
          "internalType": "address",
          "name": "_address",
          "type": "address"
        },
        {
          "internalType": "uint256",
          "name": "_tokenId",
          "type": "uint256"
        }
      ],
      "stateMutability": "view",
      "type": "function"
    },
    {
      "inputs": [
        {
          "internalType": "uint256",
          "name": "_amount",
          "type": "uint256"
        }
      ],
      "name": "buyTickets",
      "outputs": [],
      "stateMutability": "payable",
      "type": "function"
    },
    {
      "inputs": [
        {
          "internalType": "uint256",
          "name": "_ticketId",
          "type": "uint256"
        }
      ],
      "name": "claimNFT",
      "outputs": [],
      "stateMutability": "nonpayable",
      "type": "function"
    },
    {
      "inputs": [
        {
          "components": [
            {
              "internalType": "address",
              "name": "_address",
              "type": "address"
            },
            {
              "internalType": "uint256",
              "name": "_tokenId",
              "type": "uint256"
            }
          ],
          "internalType": "struct Lootbox.NFT[]",
          "name": "_nfts",
          "type": "tuple[]"
        }
      ],
      "name": "depositNFTs",
      "outputs": [],
      "stateMutability": "nonpayable",
      "type": "function"
    },
    {
      "inputs": [
        {
          "internalType": "uint256[]",
          "name": "_randomWords",
          "type": "uint256[]"
        }
      ],
      "name": "draw",
      "outputs": [
        {
          "internalType": "uint256[]",
          "name": "",
          "type": "uint256[]"
        }
      ],
      "stateMutability": "nonpayable",
      "type": "function"
    },
    {
      "inputs": [],
      "name": "drawTimestamp",
      "outputs": [
        {
          "internalType": "uint256",
          "name": "",
          "type": "uint256"
        }
      ],
      "stateMutability": "view",
      "type": "function"
    },
    {
      "inputs": [],
      "name": "getAllNFTs",
      "outputs": [
        {
          "components": [
            {
              "internalType": "address",
              "name": "_address",
              "type": "address"
            },
            {
              "internalType": "uint256",
              "name": "_tokenId",
              "type": "uint256"
            }
          ],
          "internalType": "struct Lootbox.NFT[]",
          "name": "",
          "type": "tuple[]"
        }
      ],
      "stateMutability": "view",
      "type": "function"
    },
    {
      "inputs": [],
      "name": "id",
      "outputs": [
        {
          "internalType": "uint256",
          "name": "",
          "type": "uint256"
        }
      ],
      "stateMutability": "view",
      "type": "function"
    },
    {
      "inputs": [],
      "name": "isDrawn",
      "outputs": [
        {
          "internalType": "bool",
          "name": "",
          "type": "bool"
        }
      ],
      "stateMutability": "view",
      "type": "function"
    },
    {
      "inputs": [],
      "name": "isRefundable",
      "outputs": [
        {
          "internalType": "bool",
          "name": "",
          "type": "bool"
        }
      ],
      "stateMutability": "view",
      "type": "function"
    },
    {
      "inputs": [],
      "name": "maxTicketPerWallet",
      "outputs": [
        {
          "internalType": "uint256",
          "name": "",
          "type": "uint256"
        }
      ],
      "stateMutability": "view",
      "type": "function"
    },
    {
      "inputs": [],
      "name": "minimumTicketRequired",
      "outputs": [
        {
          "internalType": "uint256",
          "name": "",
          "type": "uint256"
        }
      ],
      "stateMutability": "view",
      "type": "function"
    },
    {
      "inputs": [],
      "name": "name",
      "outputs": [
        {
          "internalType": "string",
          "name": "",
          "type": "string"
        }
      ],
      "stateMutability": "view",
      "type": "function"
    },
    {
      "inputs": [],
      "name": "numNFT",
      "outputs": [
        {
          "internalType": "uint256",
          "name": "",
          "type": "uint256"
        }
      ],
      "stateMutability": "view",
      "type": "function"
    },
    {
      "inputs": [
        {
          "internalType": "address",
          "name": "",
          "type": "address"
        },
        {
          "internalType": "address",
          "name": "",
          "type": "address"
        },
        {
          "internalType": "uint256",
          "name": "",
          "type": "uint256"
        },
        {
          "internalType": "bytes",
          "name": "",
          "type": "bytes"
        }
      ],
      "name": "onERC721Received",
      "outputs": [
        {
          "internalType": "bytes4",
          "name": "",
          "type": "bytes4"
        }
      ],
      "stateMutability": "nonpayable",
      "type": "function"
    },
    {
      "inputs": [],
      "name": "owner",
      "outputs": [
        {
          "internalType": "address",
          "name": "",
          "type": "address"
        }
      ],
      "stateMutability": "view",
      "type": "function"
    },
    {
      "inputs": [
        {
          "internalType": "uint256[]",
          "name": "tokenIds",
          "type": "uint256[]"
        }
      ],
      "name": "refund",
      "outputs": [],
      "stateMutability": "nonpayable",
      "type": "function"
    },
    {
      "inputs": [],
      "name": "renounceOwnership",
      "outputs": [],
      "stateMutability": "nonpayable",
      "type": "function"
    },
    {
      "inputs": [],
      "name": "ticketPrice",
      "outputs": [
        {
          "internalType": "uint256",
          "name": "",
          "type": "uint256"
        }
      ],
      "stateMutability": "view",
      "type": "function"
    },
    {
      "inputs": [],
      "name": "ticketSold",
      "outputs": [
        {
          "internalType": "uint256",
          "name": "",
          "type": "uint256"
        }
      ],
      "stateMutability": "view",
      "type": "function"
    },
    {
      "inputs": [
        {
          "internalType": "address",
          "name": "newOwner",
          "type": "address"
        }
      ],
      "name": "transferOwnership",
      "outputs": [],
      "stateMutability": "nonpayable",
      "type": "function"
    },
    {
      "inputs": [
        {
          "internalType": "uint256",
          "name": "",
          "type": "uint256"
        }
      ],
      "name": "winners",
      "outputs": [
        {
          "internalType": "uint256",
          "name": "",
          "type": "uint256"
        }
      ],
      "stateMutability": "view",
      "type": "function"
    },
    {
      "inputs": [],
      "name": "withdraw",
      "outputs": [],
      "stateMutability": "nonpayable",
      "type": "function"
    },
    {
      "inputs": [],
      "name": "withdrawNFT",
      "outputs": [],
      "stateMutability": "nonpayable",
      "type": "function"
    },
    {
      "inputs": [
        {
          "internalType": "uint256",
          "name": "",
          "type": "uint256"
        }
      ],
      "name": "wonTicket",
      "outputs": [
        {
          "internalType": "uint256",
          "name": "",
          "type": "uint256"
        }
      ],
      "stateMutability": "view",
      "type": "function"
    }
  ],
  "bytecode": "0x60a06040526101f4608052600060058190556006556007805461ffff191690553480156200002c57600080fd5b50604051620020b8380380620020b88339810160408190526200004f9162000256565b6200005a33620000c7565b86516200006f9060089060208a019062000117565b506009959095556001939093556002919091556003556004556007805462010000600160b01b031916336201000002179055600a80546001600160a01b0319166001600160a01b03909216919091179055506200045e565b600080546001600160a01b038381166001600160a01b0319831681178455604051919092169283917f8be0079c531659141344cd1fd0a4f28419497f9722a3daafe3b4186f6b6457e09190a35050565b8280546200012590620003b1565b90600052602060002090601f01602090048101928262000149576000855562000194565b82601f106200016457805160ff191683800117855562000194565b8280016001018555821562000194579182015b828111156200019457825182559160200191906001019062000177565b50620001a2929150620001a6565b5090565b5b80821115620001a25760008155600101620001a7565b6000620001d4620001ce846200033f565b62000320565b905082815260208101848484011115620001f157620001f1600080fd5b620001fe8482856200037e565b509392505050565b805162000213816200043d565b92915050565b600082601f8301126200022f576200022f600080fd5b815162000241848260208601620001bd565b949350505050565b8051620002138162000457565b600080600080600080600060e0888a031215620002765762000276600080fd5b87516001600160401b03811115620002915762000291600080fd5b6200029f8a828b0162000219565b9750506020620002b28a828b0162000249565b9650506040620002c58a828b0162000249565b9550506060620002d88a828b0162000249565b9450506080620002eb8a828b0162000249565b93505060a0620002fe8a828b0162000249565b92505060c0620003118a828b0162000206565b91505092959891949750929550565b60006200032c60405190565b90506200033a8282620003e2565b919050565b60006001600160401b038211156200035b576200035b62000427565b601f19601f83011660200192915050565b60006001600160a01b03821662000213565b60005b838110156200039b57818101518382015260200162000381565b83811115620003ab576000848401525b50505050565b600281046001821680620003c657607f821691505b60208210811415620003dc57620003dc62000411565b50919050565b601f19601f83011681018181106001600160401b03821117156200040a576200040a62000427565b6040525050565b634e487b7160e01b600052602260045260246000fd5b634e487b7160e01b600052604160045260246000fd5b62000448816200036c565b81146200045457600080fd5b50565b8062000448565b608051611c3e6200047a60003960006108230152611c3e6000f3fe6080604052600436106101665760003560e01c806362d9c9a8116100d1578063a3c0b95b1161008a578063b914a21911610064578063b914a21914610429578063e0391b091461043f578063f2fde38b14610461578063fe5c873a1461048157600080fd5b8063a3c0b95b146103a5578063aa613df5146103f3578063af640d0f1461041357600080fd5b806362d9c9a8146102c3578063657bc2e7146102f057806370d85d6f14610310578063715018a61461033d5780638da5cb5b14610352578063a2fb11751461037857600080fd5b80632f366637116101235780632f3666371461023e5780633c2bcadc146102535780633ccfd60b1461026d57806343eda39e14610282578063485cc439146102985780635e38c954146102ae57600080fd5b806306fdde031461016b5780630c47a792146101965780631209b1f6146101b9578063150b7a02146101cf5780632a086dd1146101fc5780632c1fecfe14610212575b600080fd5b34801561017757600080fd5b506101806104a1565b60405161018d9190611959565b60405180910390f35b3480156101a257600080fd5b506101ac60065481565b60405161018d91906119ee565b3480156101c557600080fd5b506101ac60025481565b3480156101db57600080fd5b506101ef6101ea3660046115e7565b61052f565b60405161018d919061194b565b34801561020857600080fd5b506101ac60035481565b34801561021e57600080fd5b5060075461023190610100900460ff1681565b60405161018d919061193d565b61025161024c3660046116fd565b610540565b005b34801561025f57600080fd5b506007546102319060ff1681565b34801561027957600080fd5b5061025161063a565b34801561028e57600080fd5b506101ac60045481565b3480156102a457600080fd5b506101ac60055481565b3480156102ba57600080fd5b506102516106e8565b3480156102cf57600080fd5b506101ac6102de3660046116fd565b600d6020526000908152604090205481565b3480156102fc57600080fd5b5061025161030b366004611666565b6107d3565b34801561031c57600080fd5b5061033061032b3660046116a1565b610a36565b60405161018d919061191b565b34801561034957600080fd5b50610251610d57565b34801561035e57600080fd5b506000546001600160a01b031660405161018d9190611877565b34801561038457600080fd5b506101ac6103933660046116fd565b600c6020526000908152604090205481565b3480156103b157600080fd5b506103e56103c03660046116fd565b600b60205260009081526040902080546001909101546001600160a01b039091169082565b60405161018d9291906118ad565b3480156103ff57600080fd5b5061025161040e3660046116a1565b610d8d565b34801561041f57600080fd5b506101ac60095481565b34801561043557600080fd5b506101ac60015481565b34801561044b57600080fd5b50610454611005565b60405161018d91906118ea565b34801561046d57600080fd5b5061025161047c3660046115a5565b6110e0565b34801561048d57600080fd5b5061025161049c3660046116fd565b611139565b600880546104ae90611af5565b80601f01602080910402602001604051908101604052809291908181526020018280546104da90611af5565b80156105275780601f106104fc57610100808354040283529160200191610527565b820191906000526020600020905b81548152906001019060200180831161050a57829003601f168201915b505050505081565b630a85bd0160e11b5b949350505050565b60075460ff161561056457604051635dd633dd60e11b815260040160405180910390fd5b6004548111156105875760405163ef07058b60e01b815260040160405180910390fd5b806002546105959190611a8d565b34146105b457604051631a8fabd760e11b815260040160405180910390fd5b60075460095460405163743865b360e11b8152620100009092046001600160a01b03169163e870cb66916105ee91339186916004016118cf565b600060405180830381600087803b15801561060857600080fd5b505af115801561061c573d6000803e3d6000fd5b5050505080600560008282546106329190611a75565b909155505050565b6000546001600160a01b0316331461066d5760405162461bcd60e51b8152600401610664906119b4565b60405180910390fd5b60075460ff1661069057604051635a7c82d160e11b815260040160405180910390fd5b600754610100900460ff16156106b957604051631b8541f760e21b815260040160405180910390fd5b60405133904780156108fc02916000818181858888f193505050501580156106e5573d6000803e3d6000fd5b50565b6000546001600160a01b031633146107125760405162461bcd60e51b8152600401610664906119b4565b600754610100900460ff1661073a5760405163bfbef1dd60e01b815260040160405180910390fd5b60005b6006548110156106e5576000818152600b60205260409081902080546001909101549151632142170760e11b81526001600160a01b03909116916342842e0e9161078e913091339190600401611885565b600060405180830381600087803b1580156107a857600080fd5b505af11580156107bc573d6000803e3d6000fd5b5050505080806107cb90611b49565b91505061073d565b6000546001600160a01b031633146107fd5760405162461bcd60e51b8152600401610664906119b4565b60075460ff161561082157604051635dd633dd60e11b815260040160405180910390fd5b7f000000000000000000000000000000000000000000000000000000000000000081516006546108519190611a75565b111561087057604051630bf8105560e41b815260040160405180910390fd5b60005b81518110156109c75781818151811061088e5761088e611bba565b6020026020010151600001516001600160a01b03166342842e0e33308585815181106108bc576108bc611bba565b6020026020010151602001516040518463ffffffff1660e01b81526004016108e693929190611885565b600060405180830381600087803b15801561090057600080fd5b505af1158015610914573d6000803e3d6000fd5b5050505081818151811061092a5761092a611bba565b602090810291909101810151516006546000908152600b909252604090912080546001600160a01b0319166001600160a01b03909216919091179055815182908290811061097a5761097a611bba565b602002602001015160200151600b60006006548152602001908152602001600020600101819055506006600081546109b190611b49565b90915550806109bf81611b49565b915050610873565b5060075460095460405163b73008bd60e01b8152620100009092046001600160a01b03169163b73008bd91610a01918591906004016118fb565b600060405180830381600087803b158015610a1b57600080fd5b505af1158015610a2f573d6000803e3d6000fd5b5050505050565b6007546060906201000090046001600160a01b03163314610a6a57604051631b8541f760e21b815260040160405180910390fd5b60075460ff1615610a8e57604051635dd633dd60e11b815260040160405180910390fd5b600654825114610ab157604051634de07a8160e11b815260040160405180910390fd5b600354600554111580610ac75750600654600554105b15610ae0576007805461ff001916610100179055610d34565b600060065467ffffffffffffffff811115610afd57610afd611bd0565b604051908082528060200260200182016040528015610b26578160200160208202803683370190505b50905060005b600654811015610d2d57600a5460095460055486516000936001600160a01b0316926378df3a52929091899087908110610b6857610b68611bba565b6020026020010151610b7a9190611b64565b6040518363ffffffff1660e01b8152600401610b979291906119fc565b60206040518083038186803b158015610baf57600080fd5b505afa158015610bc3573d6000803e3d6000fd5b505050506040513d601f19601f82011682018060405250810190610be7919061171e565b600a546040516301c7245160e31b81529192506001600160a01b031690630e39228890610c189084906004016119ee565b60206040518083038186803b158015610c3057600080fd5b505afa158015610c44573d6000803e3d6000fd5b505050506040513d601f19601f82011682018060405250810190610c6891906116dc565b610d27576007546009546040516368cbce3160e01b8152620100009092046001600160a01b0316916368cbce3191610ca5918591906004016119fc565b600060405180830381600087803b158015610cbf57600080fd5b505af1158015610cd3573d6000803e3d6000fd5b5050506000838152600c60209081526040808320859055848352600d90915290208390555082518190849084908110610d0e57610d0e611bba565b602090810291909101015281610d2381611b49565b9250505b50610b2c565b5092915050565b6007805460ff191660011790556040805160008082526020820190925290610d2d565b6000546001600160a01b03163314610d815760405162461bcd60e51b8152600401610664906119b4565b610d8b6000611360565b565b600754610100900460ff16610db55760405163bfbef1dd60e01b815260040160405180910390fd5b60005b8151811015610f5257600a54825133916001600160a01b031690636352211e90859085908110610dea57610dea611bba565b60200260200101516040518263ffffffff1660e01b8152600401610e0e91906119ee565b60206040518083038186803b158015610e2657600080fd5b505afa158015610e3a573d6000803e3d6000fd5b505050506040513d601f19601f82011682018060405250810190610e5e91906115c6565b6001600160a01b031614610e8557604051631b8541f760e21b815260040160405180910390fd5b600a5482516001600160a01b03909116906355866c8d90849084908110610eae57610eae611bba565b60200260200101516040518263ffffffff1660e01b8152600401610ed291906119ee565b60206040518083038186803b158015610eea57600080fd5b505afa158015610efe573d6000803e3d6000fd5b505050506040513d601f19601f82011682018060405250810190610f2291906116dc565b15610f405760405163bfbef1dd60e01b815260040160405180910390fd5b80610f4a81611b49565b915050610db8565b506007546009546040516219603d60eb1b8152620100009092046001600160a01b03169163cb01e80091610f8b9185919060040161192c565b600060405180830381600087803b158015610fa557600080fd5b505af1158015610fb9573d6000803e3d6000fd5b50505050336001600160a01b03166108fc8251600254610fd99190611a8d565b6040518115909202916000818181858888f19350505050158015611001573d6000803e3d6000fd5b5050565b6060600060065467ffffffffffffffff81111561102457611024611bd0565b60405190808252806020026020018201604052801561106957816020015b60408051808201909152600080825260208201528152602001906001900390816110425790505b50905060005b6006548110156110da576000818152600b6020908152604091829020825180840190935280546001600160a01b03168352600101549082015282518390839081106110bc576110bc611bba565b602002602001018190525080806110d290611b49565b91505061106f565b50919050565b6000546001600160a01b0316331461110a5760405162461bcd60e51b8152600401610664906119b4565b6001600160a01b0381166111305760405162461bcd60e51b81526004016106649061196a565b6106e581611360565b60075460ff1661115c57604051635a7c82d160e11b815260040160405180910390fd5b600a546040516331a9108f60e11b815233916001600160a01b031690636352211e9061118c9085906004016119ee565b60206040518083038186803b1580156111a457600080fd5b505afa1580156111b8573d6000803e3d6000fd5b505050506040513d601f19601f820116820180604052508101906111dc91906115c6565b6001600160a01b03161461120357604051631b8541f760e21b815260040160405180910390fd5b600a54604051639e34070f60e01b81526001600160a01b0390911690639e34070f906112339084906004016119ee565b60206040518083038186803b15801561124b57600080fd5b505afa15801561125f573d6000803e3d6000fd5b505050506040513d601f19601f8201168201806040525081019061128391906116dc565b156112a157604051631b8541f760e21b815260040160405180910390fd5b6000818152600d60209081526040808320548352600b9091529081902080546001909101549151632142170760e11b81526001600160a01b03909116916342842e0e916112f5913091339190600401611885565b600060405180830381600087803b15801561130f57600080fd5b505af1158015611323573d6000803e3d6000fd5b505060075460095460405163a16c6a7360e01b8152620100009092046001600160a01b0316935063a16c6a739250610a01918591906004016119fc565b600080546001600160a01b038381166001600160a01b0319831681178455604051919092169283917f8be0079c531659141344cd1fd0a4f28419497f9722a3daafe3b4186f6b6457e09190a35050565b60006113c36113be84611a26565b611a0a565b838152905060208101826040850281018610156113e2576113e2600080fd5b60005b8581101561141057816113f88882611545565b845250602090920191604091909101906001016113e5565b5050509392505050565b60006114286113be84611a26565b9050808382526020820190508285602086028201111561144a5761144a600080fd5b60005b858110156114105781611460888261158f565b845250602092830192919091019060010161144d565b60006114846113be84611a4a565b90508281526020810184848401111561149f5761149f600080fd5b6114aa848285611abd565b509392505050565b80356114bd81611be6565b92915050565b80516114bd81611be6565b600082601f8301126114e2576114e2600080fd5b81356105388482602086016113b0565b600082601f83011261150657611506600080fd5b813561053884826020860161141a565b80516114bd81611bfa565b600082601f83011261153557611535600080fd5b8135610538848260208601611476565b60006040828403121561155a5761155a600080fd5b6115646040611a0a565b9050600061157284846114b2565b82525060206115838484830161158f565b60208301525092915050565b80356114bd81611c02565b80516114bd81611c02565b6000602082840312156115ba576115ba600080fd5b600061053884846114b2565b6000602082840312156115db576115db600080fd5b600061053884846114c3565b6000806000806080858703121561160057611600600080fd5b600061160c87876114b2565b945050602061161d878288016114b2565b935050604061162e8782880161158f565b925050606085013567ffffffffffffffff81111561164e5761164e600080fd5b61165a87828801611521565b91505092959194509250565b60006020828403121561167b5761167b600080fd5b813567ffffffffffffffff81111561169557611695600080fd5b610538848285016114ce565b6000602082840312156116b6576116b6600080fd5b813567ffffffffffffffff8111156116d0576116d0600080fd5b610538848285016114f2565b6000602082840312156116f1576116f1600080fd5b60006105388484611516565b60006020828403121561171257611712600080fd5b6000610538848461158f565b60006020828403121561173357611733600080fd5b6000610538848461159a565b600061174b8383611847565b505060400190565b600061175f8383611871565b505060200190565b61177081611aac565b82525050565b6000611780825190565b80845260209384019383018060005b838110156117b45781516117a3888261173f565b97506020830192505060010161178f565b509495945050505050565b60006117c9825190565b80845260209384019383018060005b838110156117b45781516117ec8882611753565b9750602083019250506001016117d8565b801515611770565b6001600160e01b03198116611770565b600061181f825190565b808452602084019350611836818560208601611ac9565b601f01601f19169290920192915050565b805160408301906118588482611767565b50602082015161186b6020850182611871565b50505050565b80611770565b602081016114bd8284611767565b606081016118938286611767565b6118a06020830185611767565b6105386040830184611871565b604081016118bb8285611767565b6118c86020830184611871565b9392505050565b606081016118dd8286611767565b6118a06020830185611871565b602080825281016118c88184611776565b6040808252810161190c8185611776565b90506118c86020830184611871565b602080825281016118c881846117bf565b6040808252810161190c81856117bf565b602081016114bd82846117fd565b602081016114bd8284611805565b602080825281016118c88184611815565b602080825281016114bd81602681527f4f776e61626c653a206e6577206f776e657220697320746865207a65726f206160208201526564647265737360d01b604082015260600190565b60208082528181019081527f4f776e61626c653a2063616c6c6572206973206e6f7420746865206f776e65726040830152606082016114bd565b602081016114bd8284611871565b604081016118bb8285611871565b6000611a1560405190565b9050611a218282611b1c565b919050565b600067ffffffffffffffff821115611a4057611a40611bd0565b5060209081020190565b600067ffffffffffffffff821115611a6457611a64611bd0565b601f19601f83011660200192915050565b60008219821115611a8857611a88611b78565b500190565b6000816000190483118215151615611aa757611aa7611b78565b500290565b60006001600160a01b0382166114bd565b82818337506000910152565b60005b83811015611ae4578181015183820152602001611acc565b8381111561186b5750506000910152565b600281046001821680611b0957607f821691505b602082108114156110da576110da611ba4565b601f19601f830116810181811067ffffffffffffffff82111715611b4257611b42611bd0565b6040525050565b6000600019821415611b5d57611b5d611b78565b5060010190565b600082611b7357611b73611b8e565b500690565b634e487b7160e01b600052601160045260246000fd5b634e487b7160e01b600052601260045260246000fd5b634e487b7160e01b600052602260045260246000fd5b634e487b7160e01b600052603260045260246000fd5b634e487b7160e01b600052604160045260246000fd5b611bef81611aac565b81146106e557600080fd5b801515611bef565b80611bef56fea2646970667358221220f3019c9420e5b06748c657fb36152bef6355169c47a0046b42fcc47b2350dbe364736f6c63430008070033",
  "linkReferences": {},
  "deployedLinkReferences": {}
}