{
  "_format": "hh-sol-artifact-1",
  "contractName": "LootboxFactory",
  "sourceName": "contracts/LootboxFactory.sol",
  "abi": [
    {
      "inputs": [
        {
          "internalType": "address",
          "name": "_vrfCoordinator",
          "type": "address"
        },
        {
          "internalType": "address",
          "name": "_linkTokenContract",
          "type": "address"
        },
        {
          "internalType": "bytes32",
          "name": "_gasLane",
          "type": "bytes32"
        }
      ],
      "stateMutability": "nonpayable",
      "type": "constructor"
    },
    {
      "inputs": [],
      "name": "LootboxFactory__Unauthorized",
      "type": "error"
    },
    {
      "inputs": [
        {
          "internalType": "address",
          "name": "have",
          "type": "address"
        },
        {
          "internalType": "address",
          "name": "want",
          "type": "address"
        }
      ],
      "name": "OnlyCoordinatorCanFulfill",
      "type": "error"
    },
    {
      "inputs": [],
      "name": "OnlySimulatedBackend",
      "type": "error"
    },
    {
      "anonymous": false,
      "inputs": [
        {
          "indexed": true,
          "internalType": "address",
          "name": "previousOwner",
          "type": "address"
        },
        {
          "indexed": true,
          "internalType": "address",
          "name": "newOwner",
          "type": "address"
        }
      ],
      "name": "OwnershipTransferred",
      "type": "event"
    },
    {
      "inputs": [
        {
          "internalType": "uint256",
          "name": "",
          "type": "uint256"
        }
      ],
      "name": "allLootboxes",
      "outputs": [
        {
          "internalType": "address",
          "name": "",
          "type": "address"
        }
      ],
      "stateMutability": "view",
      "type": "function"
    },
    {
      "inputs": [
        {
          "internalType": "bytes",
          "name": "",
          "type": "bytes"
        }
      ],
      "name": "checkUpkeep",
      "outputs": [
        {
          "internalType": "bool",
          "name": "upkeepNeeded",
          "type": "bool"
        },
        {
          "internalType": "bytes",
          "name": "performData",
          "type": "bytes"
        }
      ],
      "stateMutability": "view",
      "type": "function"
    },
    {
      "inputs": [
        {
          "internalType": "string",
          "name": "_name",
          "type": "string"
        },
        {
          "internalType": "uint256",
          "name": "_drawTimestamp",
          "type": "uint256"
        },
        {
          "internalType": "uint256",
          "name": "_ticketPrice",
          "type": "uint256"
        },
        {
          "internalType": "uint256",
          "name": "_minimumTicketRequired",
          "type": "uint256"
        }
      ],
      "name": "deployLootbox",
      "outputs": [],
      "stateMutability": "nonpayable",
      "type": "function"
    },
    {
      "inputs": [
        {
          "internalType": "string",
          "name": "_name",
          "type": "string"
        },
        {
          "internalType": "uint256",
          "name": "_drawTimestamp",
          "type": "uint256"
        },
        {
          "internalType": "uint256",
          "name": "_ticketPrice",
          "type": "uint256"
        },
        {
          "internalType": "uint256",
          "name": "_minimumTicketRequired",
          "type": "uint256"
        },
        {
          "internalType": "uint256",
          "name": "_maxTicketPerWallet",
          "type": "uint256"
        }
      ],
      "name": "deployLootbox",
      "outputs": [],
      "stateMutability": "nonpayable",
      "type": "function"
    },
    {
      "inputs": [],
      "name": "getAllLootboxes",
      "outputs": [
        {
          "internalType": "address[]",
          "name": "",
          "type": "address[]"
        }
      ],
      "stateMutability": "view",
      "type": "function"
    },
    {
      "inputs": [
        {
          "internalType": "uint256",
          "name": "_lootboxId",
          "type": "uint256"
        }
      ],
      "name": "getLootboxName",
      "outputs": [
        {
          "internalType": "string",
          "name": "",
          "type": "string"
        }
      ],
      "stateMutability": "view",
      "type": "function"
    },
    {
      "inputs": [
        {
          "internalType": "address",
          "name": "_user",
          "type": "address"
        }
      ],
      "name": "getLootboxesOwnedByUser",
      "outputs": [
        {
          "internalType": "address[]",
          "name": "",
          "type": "address[]"
        }
      ],
      "stateMutability": "view",
      "type": "function"
    },
    {
      "inputs": [
        {
          "internalType": "uint256",
          "name": "",
          "type": "uint256"
        }
      ],
      "name": "lootboxAddress",
      "outputs": [
        {
          "internalType": "address",
          "name": "",
          "type": "address"
        }
      ],
      "stateMutability": "view",
      "type": "function"
    },
    {
      "inputs": [
        {
          "internalType": "address",
          "name": "",
          "type": "address"
        },
        {
          "internalType": "uint256",
          "name": "",
          "type": "uint256"
        }
      ],
      "name": "lootboxOwned",
      "outputs": [
        {
          "internalType": "uint256",
          "name": "",
          "type": "uint256"
        }
      ],
      "stateMutability": "view",
      "type": "function"
    },
    {
      "inputs": [
        {
          "internalType": "address",
          "name": "_to",
          "type": "address"
        },
        {
          "internalType": "uint256",
          "name": "_amount",
          "type": "uint256"
        },
        {
          "internalType": "uint256",
          "name": "_lootboxId",
          "type": "uint256"
        }
      ],
      "name": "mintTicket",
      "outputs": [],
      "stateMutability": "nonpayable",
      "type": "function"
    },
    {
      "inputs": [],
      "name": "owner",
      "outputs": [
        {
          "internalType": "address",
          "name": "",
          "type": "address"
        }
      ],
      "stateMutability": "view",
      "type": "function"
    },
    {
      "inputs": [
        {
          "internalType": "bytes",
          "name": "performData",
          "type": "bytes"
        }
      ],
      "name": "performUpkeep",
      "outputs": [],
      "stateMutability": "nonpayable",
      "type": "function"
    },
    {
      "inputs": [
        {
          "internalType": "uint256",
          "name": "requestId",
          "type": "uint256"
        },
        {
          "internalType": "uint256[]",
          "name": "randomWords",
          "type": "uint256[]"
        }
      ],
      "name": "rawFulfillRandomWords",
      "outputs": [],
      "stateMutability": "nonpayable",
      "type": "function"
    },
    {
      "inputs": [
        {
          "internalType": "uint256[]",
          "name": "_tokenIds",
          "type": "uint256[]"
        },
        {
          "internalType": "uint256",
          "name": "_lootboxId",
          "type": "uint256"
        }
      ],
      "name": "refundTicket",
      "outputs": [],
      "stateMutability": "nonpayable",
      "type": "function"
    },
    {
      "inputs": [],
      "name": "renounceOwnership",
      "outputs": [],
      "stateMutability": "nonpayable",
      "type": "function"
    },
    {
      "inputs": [],
      "name": "s_subscriptionId",
      "outputs": [
        {
          "internalType": "uint64",
          "name": "",
          "type": "uint64"
        }
      ],
      "stateMutability": "view",
      "type": "function"
    },
    {
      "inputs": [
        {
          "internalType": "uint256",
          "name": "_tokenId",
          "type": "uint256"
        },
        {
          "internalType": "uint256",
          "name": "_lootboxId",
          "type": "uint256"
        }
      ],
      "name": "setClaim",
      "outputs": [],
      "stateMutability": "nonpayable",
      "type": "function"
    },
    {
      "inputs": [
        {
          "internalType": "uint256",
          "name": "_tokenId",
          "type": "uint256"
        },
        {
          "internalType": "uint256",
          "name": "_lootboxId",
          "type": "uint256"
        }
      ],
      "name": "setWinner",
      "outputs": [],
      "stateMutability": "nonpayable",
      "type": "function"
    },
    {
      "inputs": [],
      "name": "ticketAddress",
      "outputs": [
        {
          "internalType": "address",
          "name": "",
          "type": "address"
        }
      ],
      "stateMutability": "view",
      "type": "function"
    },
    {
      "inputs": [
        {
          "internalType": "uint256",
          "name": "amount",
          "type": "uint256"
        }
      ],
      "name": "topUpSubscription",
      "outputs": [],
      "stateMutability": "nonpayable",
      "type": "function"
    },
    {
      "inputs": [],
      "name": "totalLootbox",
      "outputs": [
        {
          "internalType": "uint256",
          "name": "",
          "type": "uint256"
        }
      ],
      "stateMutability": "view",
      "type": "function"
    },
    {
      "inputs": [
        {
          "internalType": "address",
          "name": "newOwner",
          "type": "address"
        }
      ],
      "name": "transferOwnership",
      "outputs": [],
      "stateMutability": "nonpayable",
      "type": "function"
    },
    {
      "inputs": [
        {
          "internalType": "uint256",
          "name": "amount",
          "type": "uint256"
        },
        {
          "internalType": "address",
          "name": "to",
          "type": "address"
        }
      ],
      "name": "withdrawLink",
      "outputs": [],
      "stateMutability": "nonpayable",
      "type": "function"
    }
  ],
  "bytecode": "0x60e060405260006007556207a12063ffffffff1660c09063ffffffff1660e01b8152503480156200002f57600080fd5b506040516200b6a03803806200b6a083398181016040528101906200005591906200066e565b82620000766200006a6200025b60201b60201c565b6200026360201b60201c565b8073ffffffffffffffffffffffffffffffffffffffff1660808173ffffffffffffffffffffffffffffffffffffffff1660601b815250505082600160006101000a81548173ffffffffffffffffffffffffffffffffffffffff021916908373ffffffffffffffffffffffffffffffffffffffff16021790555081600260006101000a81548173ffffffffffffffffffffffffffffffffffffffff021916908373ffffffffffffffffffffffffffffffffffffffff1602179055508060a08181525050620001486200032760201b60201c565b3060405162000157906200061b565b62000163919062000745565b604051809103906000f08015801562000180573d6000803e3d6000fd5b50600360006101000a81548173ffffffffffffffffffffffffffffffffffffffff021916908373ffffffffffffffffffffffffffffffffffffffff160217905550600360009054906101000a900473ffffffffffffffffffffffffffffffffffffffff1673ffffffffffffffffffffffffffffffffffffffff1663f2fde38b336040518263ffffffff1660e01b81526004016200021e919062000745565b600060405180830381600087803b1580156200023957600080fd5b505af11580156200024e573d6000803e3d6000fd5b50505050505050620008ee565b600033905090565b60008060009054906101000a900473ffffffffffffffffffffffffffffffffffffffff169050816000806101000a81548173ffffffffffffffffffffffffffffffffffffffff021916908373ffffffffffffffffffffffffffffffffffffffff1602179055508173ffffffffffffffffffffffffffffffffffffffff168173ffffffffffffffffffffffffffffffffffffffff167f8be0079c531659141344cd1fd0a4f28419497f9722a3daafe3b4186f6b6457e060405160405180910390a35050565b620003376200025b60201b60201c565b73ffffffffffffffffffffffffffffffffffffffff166200035d620005f260201b60201c565b73ffffffffffffffffffffffffffffffffffffffff1614620003b6576040517f08c379a0000000000000000000000000000000000000000000000000000000008152600401620003ad9062000762565b60405180910390fd5b6000600167ffffffffffffffff811115620003d657620003d562000843565b5b604051908082528060200260200182016040528015620004055781602001602082028036833780820191505090505b509050308160008151811062000420576200041f62000814565b5b602002602001019073ffffffffffffffffffffffffffffffffffffffff16908173ffffffffffffffffffffffffffffffffffffffff1681525050600160009054906101000a900473ffffffffffffffffffffffffffffffffffffffff1673ffffffffffffffffffffffffffffffffffffffff1663a21a23e46040518163ffffffff1660e01b8152600401602060405180830381600087803b158015620004c557600080fd5b505af1158015620004da573d6000803e3d6000fd5b505050506040513d601f19601f82011682018060405250810190620005009190620006ca565b600860006101000a81548167ffffffffffffffff021916908367ffffffffffffffff160217905550600160009054906101000a900473ffffffffffffffffffffffffffffffffffffffff1673ffffffffffffffffffffffffffffffffffffffff16637341c10c600860009054906101000a900467ffffffffffffffff168360008151811062000594576200059362000814565b5b60200260200101516040518363ffffffff1660e01b8152600401620005bb92919062000784565b600060405180830381600087803b158015620005d657600080fd5b505af1158015620005eb573d6000803e3d6000fd5b5050505050565b60008060009054906101000a900473ffffffffffffffffffffffffffffffffffffffff16905090565b614d8c806200691483390190565b6000815190506200063a81620008a0565b92915050565b6000815190506200065181620008ba565b92915050565b6000815190506200066881620008d4565b92915050565b6000806000606084860312156200068a576200068962000872565b5b60006200069a8682870162000629565b9350506020620006ad8682870162000629565b9250506040620006c08682870162000640565b9150509250925092565b600060208284031215620006e357620006e262000872565b5b6000620006f38482850162000657565b91505092915050565b6200070781620007c2565b82525050565b60006200071c602083620007b1565b9150620007298262000877565b602082019050919050565b6200073f8162000800565b82525050565b60006020820190506200075c6000830184620006fc565b92915050565b600060208201905081810360008301526200077d816200070d565b9050919050565b60006040820190506200079b600083018562000734565b620007aa6020830184620006fc565b9392505050565b600082825260208201905092915050565b6000620007cf82620007e0565b9050919050565b6000819050919050565b600073ffffffffffffffffffffffffffffffffffffffff82169050919050565b600067ffffffffffffffff82169050919050565b7f4e487b7100000000000000000000000000000000000000000000000000000000600052603260045260246000fd5b7f4e487b7100000000000000000000000000000000000000000000000000000000600052604160045260246000fd5b600080fd5b7f4f776e61626c653a2063616c6c6572206973206e6f7420746865206f776e6572600082015250565b620008ab81620007c2565b8114620008b757600080fd5b50565b620008c581620007d6565b8114620008d157600080fd5b50565b620008df8162000800565b8114620008eb57600080fd5b50565b60805160601c60a05160c05160e01c615fe96200092b6000396000611ca001526000611c6601526000818161080c01526108610152615fe96000f3fe60806040523480156200001157600080fd5b50600436106200016c5760003560e01c806386850e9311620000d5578063b3e2af061162000087578063b3e2af0614620003de578063b707be341462000414578063cb01e800146200044a578063e870cb66146200046a578063f2fde38b146200048a578063fa84ee3814620004aa576200016c565b806386850e9314620003045780638ac0002114620003245780638da5cb5b1462000346578063a16c6a731462000368578063a18cefee1462000388578063a46d458414620003be576200016c565b806341ea27ca116200012f57806341ea27ca146200023f5780634585e33b146200025f57806357a8e3fe146200027f57806368cbce3114620002a15780636e04ff0d14620002c1578063715018a614620002f8576200016c565b80630176805214620001715780631286f2b714620001a757806319aa987c14620001c75780631ce9f8fa14620001fd5780631fe543e3146200021f575b600080fd5b6200018f6004803603810190620001899190620023d9565b620004cc565b6040516200019e9190620027a2565b60405180910390f35b620001c56004803603810190620001bf9190620022a1565b6200050c565b005b620001e56004803603810190620001df9190620020c0565b62000748565b604051620001f4919062002a5f565b60405180910390f35b620002076200077a565b6040516200021691906200289a565b60405180910390f35b6200023d600480360381019062000237919062002484565b6200080a565b005b6200025d60048036038101906200025791906200243d565b620008cf565b005b6200027d6004803603810190620002779190620021fb565b62000a0c565b005b6200028962000c63565b604051620002989190620027a2565b60405180910390f35b620002bf6004803603810190620002b99190620024ea565b62000c8d565b005b620002df6004803603810190620002d99190620021fb565b62000dbb565b604051620002ef929190620028e2565b60405180910390f35b6200030262000f95565b005b6200032260048036038101906200031c9190620023d9565b62001026565b005b6200032e620011bd565b6040516200033d919062002a7c565b60405180910390f35b62000350620011d7565b6040516200035f9190620027a2565b60405180910390f35b620003866004803603810190620003809190620024ea565b62001200565b005b620003a66004803603810190620003a09190620023d9565b6200132e565b604051620003b59190620027a2565b60405180910390f35b620003dc6004803603810190620003d6919062002332565b62001361565b005b620003fc6004803603810190620003f69190620023d9565b6200157e565b6040516200040b919062002973565b60405180910390f35b6200043260048036038101906200042c91906200208e565b62001641565b6040516200044191906200289a565b60405180910390f35b62000468600480360381019062000462919062002163565b620017f8565b005b62000488600480360381019062000482919062002107565b62001926565b005b620004a86004803603810190620004a291906200208e565b62001a59565b005b620004b462001b5d565b604051620004c3919062002a5f565b60405180910390f35b60068181548110620004dd57600080fd5b906000526020600020016000915054906101000a900473ffffffffffffffffffffffffffffffffffffffff1681565b6000846007548585857fffffffffffffffffffffffffffffffffffffffffffffffffffffffffffffffff600360009054906101000a900473ffffffffffffffffffffffffffffffffffffffff16604051620005679062001e1b565b62000579979695949392919062002997565b604051809103906000f08015801562000596573d6000803e3d6000fd5b5090508073ffffffffffffffffffffffffffffffffffffffff1663f2fde38b336040518263ffffffff1660e01b8152600401620005d49190620027a2565b600060405180830381600087803b158015620005ef57600080fd5b505af115801562000604573d6000803e3d6000fd5b505050508060046000600754815260200190815260200160002060006101000a81548173ffffffffffffffffffffffffffffffffffffffff021916908373ffffffffffffffffffffffffffffffffffffffff160217905550600560003373ffffffffffffffffffffffffffffffffffffffff1673ffffffffffffffffffffffffffffffffffffffff16815260200190815260200160002060075490806001815401808255809150506001900390600052602060002001600090919091909150556006819080600181540180825580915050600190039060005260206000200160009091909190916101000a81548173ffffffffffffffffffffffffffffffffffffffff021916908373ffffffffffffffffffffffffffffffffffffffff160217905550600760008154809291906200073c9062002cd2565b91905055505050505050565b600560205281600052604060002081815481106200076557600080fd5b90600052602060002001600091509150505481565b606060068054806020026020016040519081016040528092919081815260200182805480156200080057602002820191906000526020600020905b8160009054906101000a900473ffffffffffffffffffffffffffffffffffffffff1673ffffffffffffffffffffffffffffffffffffffff1681526020019060010190808311620007b5575b5050505050905090565b7f000000000000000000000000000000000000000000000000000000000000000073ffffffffffffffffffffffffffffffffffffffff163373ffffffffffffffffffffffffffffffffffffffff1614620008bf57337f00000000000000000000000000000000000000000000000000000000000000006040517f1cf993f4000000000000000000000000000000000000000000000000000000008152600401620008b6929190620027bf565b60405180910390fd5b620008cb828262001b63565b5050565b620008d962001c1c565b73ffffffffffffffffffffffffffffffffffffffff16620008f9620011d7565b73ffffffffffffffffffffffffffffffffffffffff161462000952576040517f08c379a0000000000000000000000000000000000000000000000000000000008152600401620009499062002a3d565b60405180910390fd5b600260009054906101000a900473ffffffffffffffffffffffffffffffffffffffff1673ffffffffffffffffffffffffffffffffffffffff1663a9059cbb82846040518363ffffffff1660e01b8152600401620009b1929190620027ec565b602060405180830381600087803b158015620009cc57600080fd5b505af1158015620009e1573d6000803e3d6000fd5b505050506040513d601f19601f8201168201806040525081019062000a079190620021c9565b505050565b6000828281019062000a1f9190620023d9565b90506004600082815260200190815260200160002060009054906101000a900473ffffffffffffffffffffffffffffffffffffffff1673ffffffffffffffffffffffffffffffffffffffff16633c2bcadc6040518163ffffffff1660e01b815260040160206040518083038186803b15801562000a9b57600080fd5b505afa15801562000ab0573d6000803e3d6000fd5b505050506040513d601f19601f8201168201806040525081019062000ad69190620021c9565b15801562000b975750426004600083815260200190815260200160002060009054906101000a900473ffffffffffffffffffffffffffffffffffffffff1673ffffffffffffffffffffffffffffffffffffffff1663b914a2196040518163ffffffff1660e01b815260040160206040518083038186803b15801562000b5a57600080fd5b505afa15801562000b6f573d6000803e3d6000fd5b505050506040513d601f19601f8201168201806040525081019062000b9591906200240b565b105b1562000c5e5762000c5d6004600083815260200190815260200160002060009054906101000a900473ffffffffffffffffffffffffffffffffffffffff1673ffffffffffffffffffffffffffffffffffffffff16630c47a7926040518163ffffffff1660e01b815260040160206040518083038186803b15801562000c1b57600080fd5b505afa15801562000c30573d6000803e3d6000fd5b505050506040513d601f19601f8201168201806040525081019062000c5691906200240b565b8262001c24565b5b505050565b6000600360009054906101000a900473ffffffffffffffffffffffffffffffffffffffff16905090565b6004600082815260200190815260200160002060009054906101000a900473ffffffffffffffffffffffffffffffffffffffff1673ffffffffffffffffffffffffffffffffffffffff163373ffffffffffffffffffffffffffffffffffffffff161462000d26576040517f639fd10700000000000000000000000000000000000000000000000000000000815260040160405180910390fd5b600360009054906101000a900473ffffffffffffffffffffffffffffffffffffffff1673ffffffffffffffffffffffffffffffffffffffff16630df71602836040518263ffffffff1660e01b815260040162000d83919062002a5f565b600060405180830381600087803b15801562000d9e57600080fd5b505af115801562000db3573d6000803e3d6000fd5b505050505050565b6000606060005b60075481101562000f8d576004600082815260200190815260200160002060009054906101000a900473ffffffffffffffffffffffffffffffffffffffff1673ffffffffffffffffffffffffffffffffffffffff16633c2bcadc6040518163ffffffff1660e01b815260040160206040518083038186803b15801562000e4757600080fd5b505afa15801562000e5c573d6000803e3d6000fd5b505050506040513d601f19601f8201168201806040525081019062000e829190620021c9565b15801562000f435750426004600083815260200190815260200160002060009054906101000a900473ffffffffffffffffffffffffffffffffffffffff1673ffffffffffffffffffffffffffffffffffffffff1663b914a2196040518163ffffffff1660e01b815260040160206040518083038186803b15801562000f0657600080fd5b505afa15801562000f1b573d6000803e3d6000fd5b505050506040513d601f19601f8201168201806040525081019062000f4191906200240b565b105b1562000f7757600192508060405160200162000f60919062002a5f565b604051602081830303815290604052915062000f8d565b808062000f849062002cd2565b91505062000dc2565b509250929050565b62000f9f62001c1c565b73ffffffffffffffffffffffffffffffffffffffff1662000fbf620011d7565b73ffffffffffffffffffffffffffffffffffffffff161462001018576040517f08c379a00000000000000000000000000000000000000000000000000000000081526004016200100f9062002a3d565b60405180910390fd5b62001024600062001d57565b565b6200103062001c1c565b73ffffffffffffffffffffffffffffffffffffffff1662001050620011d7565b73ffffffffffffffffffffffffffffffffffffffff1614620010a9576040517f08c379a0000000000000000000000000000000000000000000000000000000008152600401620010a09062002a3d565b60405180910390fd5b600260009054906101000a900473ffffffffffffffffffffffffffffffffffffffff1673ffffffffffffffffffffffffffffffffffffffff16634000aea0600160009054906101000a900473ffffffffffffffffffffffffffffffffffffffff1683600860009054906101000a900467ffffffffffffffff1660405160200162001134919062002a7c565b6040516020818303038152906040526040518463ffffffff1660e01b8152600401620011639392919062002819565b602060405180830381600087803b1580156200117e57600080fd5b505af115801562001193573d6000803e3d6000fd5b505050506040513d601f19601f82011682018060405250810190620011b99190620021c9565b5050565b600860009054906101000a900467ffffffffffffffff1681565b60008060009054906101000a900473ffffffffffffffffffffffffffffffffffffffff16905090565b6004600082815260200190815260200160002060009054906101000a900473ffffffffffffffffffffffffffffffffffffffff1673ffffffffffffffffffffffffffffffffffffffff163373ffffffffffffffffffffffffffffffffffffffff161462001299576040517f639fd10700000000000000000000000000000000000000000000000000000000815260040160405180910390fd5b600360009054906101000a900473ffffffffffffffffffffffffffffffffffffffff1673ffffffffffffffffffffffffffffffffffffffff16639a86297c836040518263ffffffff1660e01b8152600401620012f6919062002a5f565b600060405180830381600087803b1580156200131157600080fd5b505af115801562001326573d6000803e3d6000fd5b505050505050565b60046020528060005260406000206000915054906101000a900473ffffffffffffffffffffffffffffffffffffffff1681565b60008560075486868686600360009054906101000a900473ffffffffffffffffffffffffffffffffffffffff166040516200139c9062001e1b565b620013ae979695949392919062002997565b604051809103906000f080158015620013cb573d6000803e3d6000fd5b5090508073ffffffffffffffffffffffffffffffffffffffff1663f2fde38b336040518263ffffffff1660e01b8152600401620014099190620027a2565b600060405180830381600087803b1580156200142457600080fd5b505af115801562001439573d6000803e3d6000fd5b505050508060046000600754815260200190815260200160002060006101000a81548173ffffffffffffffffffffffffffffffffffffffff021916908373ffffffffffffffffffffffffffffffffffffffff160217905550600560003373ffffffffffffffffffffffffffffffffffffffff1673ffffffffffffffffffffffffffffffffffffffff16815260200190815260200160002060075490806001815401808255809150506001900390600052602060002001600090919091909150556006819080600181540180825580915050600190039060005260206000200160009091909190916101000a81548173ffffffffffffffffffffffffffffffffffffffff021916908373ffffffffffffffffffffffffffffffffffffffff16021790555060076000815480929190620015719062002cd2565b9190505550505050505050565b60606004600083815260200190815260200160002060009054906101000a900473ffffffffffffffffffffffffffffffffffffffff1673ffffffffffffffffffffffffffffffffffffffff166306fdde036040518163ffffffff1660e01b815260040160006040518083038186803b158015620015fa57600080fd5b505afa1580156200160f573d6000803e3d6000fd5b505050506040513d6000823e3d601f19601f820116820180604052508101906200163a919062002250565b9050919050565b60606000600560008473ffffffffffffffffffffffffffffffffffffffff1673ffffffffffffffffffffffffffffffffffffffff168152602001908152602001600020805480602002602001604051908101604052809291908181526020018280548015620016d057602002820191906000526020600020905b815481526020019060010190808311620016bb575b505050505090506000815167ffffffffffffffff811115620016f757620016f662002d7e565b5b604051908082528060200260200182016040528015620017265781602001602082028036833780820191505090505b50905060005b8251811015620017ed576004600084838151811062001750576200174f62002d4f565b5b6020026020010151815260200190815260200160002060009054906101000a900473ffffffffffffffffffffffffffffffffffffffff168282815181106200179d576200179c62002d4f565b5b602002602001019073ffffffffffffffffffffffffffffffffffffffff16908173ffffffffffffffffffffffffffffffffffffffff16815250508080620017e49062002cd2565b9150506200172c565b508092505050919050565b6004600082815260200190815260200160002060009054906101000a900473ffffffffffffffffffffffffffffffffffffffff1673ffffffffffffffffffffffffffffffffffffffff163373ffffffffffffffffffffffffffffffffffffffff161462001891576040517f639fd10700000000000000000000000000000000000000000000000000000000815260040160405180910390fd5b600360009054906101000a900473ffffffffffffffffffffffffffffffffffffffff1673ffffffffffffffffffffffffffffffffffffffff16632a64da63836040518263ffffffff1660e01b8152600401620018ee9190620028be565b600060405180830381600087803b1580156200190957600080fd5b505af11580156200191e573d6000803e3d6000fd5b505050505050565b6004600082815260200190815260200160002060009054906101000a900473ffffffffffffffffffffffffffffffffffffffff1673ffffffffffffffffffffffffffffffffffffffff163373ffffffffffffffffffffffffffffffffffffffff1614620019bf576040517f639fd10700000000000000000000000000000000000000000000000000000000815260040160405180910390fd5b600360009054906101000a900473ffffffffffffffffffffffffffffffffffffffff1673ffffffffffffffffffffffffffffffffffffffff1663156e29f68484846040518463ffffffff1660e01b815260040162001a20939291906200285d565b600060405180830381600087803b15801562001a3b57600080fd5b505af115801562001a50573d6000803e3d6000fd5b50505050505050565b62001a6362001c1c565b73ffffffffffffffffffffffffffffffffffffffff1662001a83620011d7565b73ffffffffffffffffffffffffffffffffffffffff161462001adc576040517f08c379a000000000000000000000000000000000000000000000000000000000815260040162001ad39062002a3d565b60405180910390fd5b600073ffffffffffffffffffffffffffffffffffffffff168173ffffffffffffffffffffffffffffffffffffffff16141562001b4f576040517f08c379a000000000000000000000000000000000000000000000000000000000815260040162001b469062002a1b565b60405180910390fd5b62001b5a8162001d57565b50565b60075481565b600460006009600085815260200190815260200160002054815260200190815260200160002060009054906101000a900473ffffffffffffffffffffffffffffffffffffffff1673ffffffffffffffffffffffffffffffffffffffff166370d85d6f826040518263ffffffff1660e01b815260040162001be49190620028be565b600060405180830381600087803b15801562001bff57600080fd5b505af115801562001c14573d6000803e3d6000fd5b505050505050565b600033905090565b6000600160009054906101000a900473ffffffffffffffffffffffffffffffffffffffff1673ffffffffffffffffffffffffffffffffffffffff16635d3b1d307f0000000000000000000000000000000000000000000000000000000000000000600860009054906101000a900467ffffffffffffffff1660037f0000000000000000000000000000000000000000000000000000000000000000886040518663ffffffff1660e01b815260040162001ce295949392919062002916565b602060405180830381600087803b15801562001cfd57600080fd5b505af115801562001d12573d6000803e3d6000fd5b505050506040513d601f19601f8201168201806040525081019062001d3891906200240b565b9050816009600083815260200190815260200160002081905550505050565b60008060009054906101000a900473ffffffffffffffffffffffffffffffffffffffff169050816000806101000a81548173ffffffffffffffffffffffffffffffffffffffff021916908373ffffffffffffffffffffffffffffffffffffffff1602179055508173ffffffffffffffffffffffffffffffffffffffff168173ffffffffffffffffffffffffffffffffffffffff167f8be0079c531659141344cd1fd0a4f28419497f9722a3daafe3b4186f6b6457e060405160405180910390a35050565b6131118062002ea383390190565b600062001e4062001e3a8462002ac2565b62002a99565b9050808382526020820190508285602086028201111562001e665762001e6562002db7565b5b60005b8581101562001e9a578162001e7f888262002060565b84526020840193506020830192505060018101905062001e69565b5050509392505050565b600062001ebb62001eb58462002af1565b62002a99565b90508281526020810184848401111562001eda5762001ed962002dbc565b5b62001ee784828562002c57565b509392505050565b600062001f0662001f008462002af1565b62002a99565b90508281526020810184848401111562001f255762001f2462002dbc565b5b62001f3284828562002c66565b509392505050565b60008135905062001f4b8162002e54565b92915050565b600082601f83011262001f695762001f6862002db2565b5b813562001f7b84826020860162001e29565b91505092915050565b60008151905062001f958162002e6e565b92915050565b60008083601f84011262001fb45762001fb362002db2565b5b8235905067ffffffffffffffff81111562001fd45762001fd362002dad565b5b60208301915083600182028301111562001ff35762001ff262002db7565b5b9250929050565b600082601f83011262002012576200201162002db2565b5b81356200202484826020860162001ea4565b91505092915050565b600082601f83011262002045576200204462002db2565b5b81516200205784826020860162001eef565b91505092915050565b600081359050620020718162002e88565b92915050565b600081519050620020888162002e88565b92915050565b600060208284031215620020a757620020a662002dc6565b5b6000620020b78482850162001f3a565b91505092915050565b60008060408385031215620020da57620020d962002dc6565b5b6000620020ea8582860162001f3a565b9250506020620020fd8582860162002060565b9150509250929050565b60008060006060848603121562002123576200212262002dc6565b5b6000620021338682870162001f3a565b9350506020620021468682870162002060565b9250506040620021598682870162002060565b9150509250925092565b600080604083850312156200217d576200217c62002dc6565b5b600083013567ffffffffffffffff8111156200219e576200219d62002dc1565b5b620021ac8582860162001f51565b9250506020620021bf8582860162002060565b9150509250929050565b600060208284031215620021e257620021e162002dc6565b5b6000620021f28482850162001f84565b91505092915050565b6000806020838503121562002215576200221462002dc6565b5b600083013567ffffffffffffffff81111562002236576200223562002dc1565b5b620022448582860162001f9b565b92509250509250929050565b60006020828403121562002269576200226862002dc6565b5b600082015167ffffffffffffffff8111156200228a576200228962002dc1565b5b62002298848285016200202d565b91505092915050565b60008060008060808587031215620022be57620022bd62002dc6565b5b600085013567ffffffffffffffff811115620022df57620022de62002dc1565b5b620022ed8782880162001ffa565b9450506020620023008782880162002060565b9350506040620023138782880162002060565b9250506060620023268782880162002060565b91505092959194509250565b600080600080600060a0868803121562002351576200235062002dc6565b5b600086013567ffffffffffffffff81111562002372576200237162002dc1565b5b620023808882890162001ffa565b9550506020620023938882890162002060565b9450506040620023a68882890162002060565b9350506060620023b98882890162002060565b9250506080620023cc8882890162002060565b9150509295509295909350565b600060208284031215620023f257620023f162002dc6565b5b6000620024028482850162002060565b91505092915050565b60006020828403121562002424576200242362002dc6565b5b6000620024348482850162002077565b91505092915050565b6000806040838503121562002457576200245662002dc6565b5b6000620024678582860162002060565b92505060206200247a8582860162001f3a565b9150509250929050565b600080604083850312156200249e576200249d62002dc6565b5b6000620024ae8582860162002060565b925050602083013567ffffffffffffffff811115620024d257620024d162002dc1565b5b620024e08582860162001f51565b9150509250929050565b6000806040838503121562002504576200250362002dc6565b5b6000620025148582860162002060565b9250506020620025278582860162002060565b9150509250929050565b60006200253f838362002565565b60208301905092915050565b60006200255983836200275e565b60208301905092915050565b620025708162002bd1565b82525050565b620025818162002bd1565b82525050565b6000620025948262002b47565b620025a0818562002b8d565b9350620025ad8362002b27565b8060005b83811015620025e4578151620025c8888262002531565b9750620025d58362002b73565b925050600181019050620025b1565b5085935050505092915050565b6000620025fe8262002b52565b6200260a818562002b9e565b9350620026178362002b37565b8060005b838110156200264e5781516200263288826200254b565b97506200263f8362002b80565b9250506001810190506200261b565b5085935050505092915050565b620026668162002be5565b82525050565b620026778162002bf1565b82525050565b60006200268a8262002b5d565b62002696818562002baf565b9350620026a881856020860162002c66565b620026b38162002dcb565b840191505092915050565b6000620026cb8262002b68565b620026d7818562002bc0565b9350620026e981856020860162002c66565b620026f48162002dcb565b840191505092915050565b60006200270e60268362002bc0565b91506200271b8262002ddc565b604082019050919050565b60006200273560208362002bc0565b9150620027428262002e2b565b602082019050919050565b620027588162002bfb565b82525050565b620027698162002c29565b82525050565b6200277a8162002c29565b82525050565b6200278b8162002c33565b82525050565b6200279c8162002c43565b82525050565b6000602082019050620027b9600083018462002576565b92915050565b6000604082019050620027d6600083018562002576565b620027e5602083018462002576565b9392505050565b600060408201905062002803600083018562002576565b6200281260208301846200276f565b9392505050565b600060608201905062002830600083018662002576565b6200283f60208301856200276f565b81810360408301526200285381846200267d565b9050949350505050565b600060608201905062002874600083018662002576565b6200288360208301856200276f565b6200289260408301846200276f565b949350505050565b60006020820190508181036000830152620028b6818462002587565b905092915050565b60006020820190508181036000830152620028da8184620025f1565b905092915050565b6000604082019050620028f960008301856200265b565b81810360208301526200290d81846200267d565b90509392505050565b600060a0820190506200292d60008301886200266c565b6200293c602083018762002791565b6200294b60408301866200274d565b6200295a606083018562002780565b62002969608083018462002780565b9695505050505050565b600060208201905081810360008301526200298f8184620026be565b905092915050565b600060e0820190508181036000830152620029b3818a620026be565b9050620029c460208301896200276f565b620029d360408301886200276f565b620029e260608301876200276f565b620029f160808301866200276f565b62002a0060a08301856200276f565b62002a0f60c083018462002576565b98975050505050505050565b6000602082019050818103600083015262002a3681620026ff565b9050919050565b6000602082019050818103600083015262002a588162002726565b9050919050565b600060208201905062002a7660008301846200276f565b92915050565b600060208201905062002a93600083018462002791565b92915050565b600062002aa562002ab8565b905062002ab3828262002c9c565b919050565b6000604051905090565b600067ffffffffffffffff82111562002ae05762002adf62002d7e565b5b602082029050602081019050919050565b600067ffffffffffffffff82111562002b0f5762002b0e62002d7e565b5b62002b1a8262002dcb565b9050602081019050919050565b6000819050602082019050919050565b6000819050602082019050919050565b600081519050919050565b600081519050919050565b600081519050919050565b600081519050919050565b6000602082019050919050565b6000602082019050919050565b600082825260208201905092915050565b600082825260208201905092915050565b600082825260208201905092915050565b600082825260208201905092915050565b600062002bde8262002c09565b9050919050565b60008115159050919050565b6000819050919050565b600061ffff82169050919050565b600073ffffffffffffffffffffffffffffffffffffffff82169050919050565b6000819050919050565b600063ffffffff82169050919050565b600067ffffffffffffffff82169050919050565b82818337600083830152505050565b60005b8381101562002c8657808201518184015260208101905062002c69565b8381111562002c96576000848401525b50505050565b62002ca78262002dcb565b810181811067ffffffffffffffff8211171562002cc95762002cc862002d7e565b5b80604052505050565b600062002cdf8262002c29565b91507fffffffffffffffffffffffffffffffffffffffffffffffffffffffffffffffff82141562002d155762002d1462002d20565b5b600182019050919050565b7f4e487b7100000000000000000000000000000000000000000000000000000000600052601160045260246000fd5b7f4e487b7100000000000000000000000000000000000000000000000000000000600052603260045260246000fd5b7f4e487b7100000000000000000000000000000000000000000000000000000000600052604160045260246000fd5b600080fd5b600080fd5b600080fd5b600080fd5b600080fd5b600080fd5b6000601f19601f8301169050919050565b7f4f776e61626c653a206e6577206f776e657220697320746865207a65726f206160008201527f6464726573730000000000000000000000000000000000000000000000000000602082015250565b7f4f776e61626c653a2063616c6c6572206973206e6f7420746865206f776e6572600082015250565b62002e5f8162002bd1565b811462002e6b57600080fd5b50565b62002e798162002be5565b811462002e8557600080fd5b50565b62002e938162002c29565b811462002e9f57600080fd5b5056fe60a06040526101f4608090815250600060055560006006556000600760006101000a81548160ff0219169083151502179055506000600760016101000a81548160ff0219169083151502179055503480156200005a57600080fd5b506040516200311138038062003111833981810160405281019062000080919062000393565b620000a0620000946200016b60201b60201c565b6200017360201b60201c565b8660089080519060200190620000b892919062000237565b50856009819055508460018190555083600281905550826003819055508160048190555033600760026101000a81548173ffffffffffffffffffffffffffffffffffffffff021916908373ffffffffffffffffffffffffffffffffffffffff16021790555080600a60006101000a81548173ffffffffffffffffffffffffffffffffffffffff021916908373ffffffffffffffffffffffffffffffffffffffff160217905550505050505050506200065b565b600033905090565b60008060009054906101000a900473ffffffffffffffffffffffffffffffffffffffff169050816000806101000a81548173ffffffffffffffffffffffffffffffffffffffff021916908373ffffffffffffffffffffffffffffffffffffffff1602179055508173ffffffffffffffffffffffffffffffffffffffff168173ffffffffffffffffffffffffffffffffffffffff167f8be0079c531659141344cd1fd0a4f28419497f9722a3daafe3b4186f6b6457e060405160405180910390a35050565b828054620002459062000538565b90600052602060002090601f016020900481019282620002695760008555620002b5565b82601f106200028457805160ff1916838001178555620002b5565b82800160010185558215620002b5579182015b82811115620002b457825182559160200191906001019062000297565b5b509050620002c49190620002c8565b5090565b5b80821115620002e3576000816000905550600101620002c9565b5090565b6000620002fe620002f8846200048e565b62000465565b9050828152602081018484840111156200031d576200031c62000607565b5b6200032a84828562000502565b509392505050565b600081519050620003438162000627565b92915050565b600082601f83011262000361576200036062000602565b5b815162000373848260208601620002e7565b91505092915050565b6000815190506200038d8162000641565b92915050565b600080600080600080600060e0888a031215620003b557620003b462000611565b5b600088015167ffffffffffffffff811115620003d657620003d56200060c565b5b620003e48a828b0162000349565b9750506020620003f78a828b016200037c565b96505060406200040a8a828b016200037c565b95505060606200041d8a828b016200037c565b9450506080620004308a828b016200037c565b93505060a0620004438a828b016200037c565b92505060c0620004568a828b0162000332565b91505092959891949750929550565b60006200047162000484565b90506200047f82826200056e565b919050565b6000604051905090565b600067ffffffffffffffff821115620004ac57620004ab620005d3565b5b620004b78262000616565b9050602081019050919050565b6000620004d182620004d8565b9050919050565b600073ffffffffffffffffffffffffffffffffffffffff82169050919050565b6000819050919050565b60005b838110156200052257808201518184015260208101905062000505565b8381111562000532576000848401525b50505050565b600060028204905060018216806200055157607f821691505b60208210811415620005685762000567620005a4565b5b50919050565b620005798262000616565b810181811067ffffffffffffffff821117156200059b576200059a620005d3565b5b80604052505050565b7f4e487b7100000000000000000000000000000000000000000000000000000000600052602260045260246000fd5b7f4e487b7100000000000000000000000000000000000000000000000000000000600052604160045260246000fd5b600080fd5b600080fd5b600080fd5b600080fd5b6000601f19601f8301169050919050565b6200063281620004c4565b81146200063e57600080fd5b50565b6200064c81620004f8565b81146200065857600080fd5b50565b608051612a9a620006776000396000610bbf0152612a9a6000f3fe6080604052600436106101665760003560e01c806362d9c9a8116100d1578063a3c0b95b1161008a578063b914a21911610064578063b914a219146104ea578063e0391b0914610515578063f2fde38b14610540578063fe5c873a1461056957610166565b8063a3c0b95b14610458578063aa613df514610496578063af640d0f146104bf57610166565b806362d9c9a81461034a578063657bc2e71461038757806370d85d6f146103b0578063715018a6146103d95780638da5cb5b146103f0578063a2fb11751461041b57610166565b80632f366637116101235780632f3666371461027f5780633c2bcadc1461029b5780633ccfd60b146102c657806343eda39e146102dd578063485cc439146103085780635e38c9541461033357610166565b806306fdde031461016b5780630c47a792146101965780631209b1f6146101c1578063150b7a02146101ec5780632a086dd1146102295780632c1fecfe14610254575b600080fd5b34801561017757600080fd5b50610180610592565b60405161018d9190612468565b60405180910390f35b3480156101a257600080fd5b506101ab610620565b6040516101b891906124ca565b60405180910390f35b3480156101cd57600080fd5b506101d6610626565b6040516101e391906124ca565b60405180910390f35b3480156101f857600080fd5b50610213600480360381019061020e9190611f9e565b61062c565b604051610220919061244d565b60405180910390f35b34801561023557600080fd5b5061023e610640565b60405161024b91906124ca565b60405180910390f35b34801561026057600080fd5b50610269610646565b6040516102769190612432565b60405180910390f35b610299600480360381019061029491906120e0565b610659565b005b3480156102a757600080fd5b506102b06107d1565b6040516102bd9190612432565b60405180910390f35b3480156102d257600080fd5b506102db6107e4565b005b3480156102e957600080fd5b506102f2610936565b6040516102ff91906124ca565b60405180910390f35b34801561031457600080fd5b5061031d61093c565b60405161032a91906124ca565b60405180910390f35b34801561033f57600080fd5b50610348610942565b005b34801561035657600080fd5b50610371600480360381019061036c91906120e0565b610ae2565b60405161037e91906124ca565b60405180910390f35b34801561039357600080fd5b506103ae60048036038101906103a99190612021565b610afa565b005b3480156103bc57600080fd5b506103d760048036038101906103d2919061206a565b610db9565b005b3480156103e557600080fd5b506103ee611192565b005b3480156103fc57600080fd5b5061040561121a565b604051610412919061232e565b60405180910390f35b34801561042757600080fd5b50610442600480360381019061043d91906120e0565b611243565b60405161044f91906124ca565b60405180910390f35b34801561046457600080fd5b5061047f600480360381019061047a91906120e0565b61125b565b60405161048d929190612380565b60405180910390f35b3480156104a257600080fd5b506104bd60048036038101906104b8919061206a565b61129f565b005b3480156104cb57600080fd5b506104d4611613565b6040516104e191906124ca565b60405180910390f35b3480156104f657600080fd5b506104ff611619565b60405161050c91906124ca565b60405180910390f35b34801561052157600080fd5b5061052a61161f565b60405161053791906123e0565b60405180910390f35b34801561054c57600080fd5b5061056760048036038101906105629190611f44565b61173f565b005b34801561057557600080fd5b50610590600480360381019061058b91906120e0565b611837565b005b6008805461059f906127b0565b80601f01602080910402602001604051908101604052809291908181526020018280546105cb906127b0565b80156106185780601f106105ed57610100808354040283529160200191610618565b820191906000526020600020905b8154815290600101906020018083116105fb57829003601f168201915b505050505081565b60065481565b60025481565b600063150b7a0260e01b9050949350505050565b60035481565b600760019054906101000a900460ff1681565b600760009054906101000a900460ff16156106a0576040517fbbac67ba00000000000000000000000000000000000000000000000000000000815260040160405180910390fd5b6004548111156106dc576040517fef07058b00000000000000000000000000000000000000000000000000000000815260040160405180910390fd5b806002546106ea91906126a0565b3414610722576040517f351f57ae00000000000000000000000000000000000000000000000000000000815260040160405180910390fd5b600760029054906101000a900473ffffffffffffffffffffffffffffffffffffffff1673ffffffffffffffffffffffffffffffffffffffff1663e870cb6633836009546040518463ffffffff1660e01b8152600401610783939291906123a9565b600060405180830381600087803b15801561079d57600080fd5b505af11580156107b1573d6000803e3d6000fd5b5050505080600560008282546107c7919061264a565b9250508190555050565b600760009054906101000a900460ff1681565b6107ec611be3565b73ffffffffffffffffffffffffffffffffffffffff1661080a61121a565b73ffffffffffffffffffffffffffffffffffffffff1614610860576040517f08c379a0000000000000000000000000000000000000000000000000000000008152600401610857906124aa565b60405180910390fd5b600760009054906101000a900460ff166108a6576040517fb4f905a200000000000000000000000000000000000000000000000000000000815260040160405180910390fd5b600760019054906101000a900460ff16156108ed576040517f6e1507dc00000000000000000000000000000000000000000000000000000000815260040160405180910390fd5b3373ffffffffffffffffffffffffffffffffffffffff166108fc479081150290604051600060405180830381858888f19350505050158015610933573d6000803e3d6000fd5b50565b60045481565b60055481565b61094a611be3565b73ffffffffffffffffffffffffffffffffffffffff1661096861121a565b73ffffffffffffffffffffffffffffffffffffffff16146109be576040517f08c379a00000000000000000000000000000000000000000000000000000000081526004016109b5906124aa565b60405180910390fd5b600760019054906101000a900460ff16610a04576040517fbfbef1dd00000000000000000000000000000000000000000000000000000000815260040160405180910390fd5b60005b600654811015610adf57600b600082815260200190815260200160002060000160009054906101000a900473ffffffffffffffffffffffffffffffffffffffff1673ffffffffffffffffffffffffffffffffffffffff166342842e0e3033600b6000868152602001908152602001600020600101546040518463ffffffff1660e01b8152600401610a9a93929190612349565b600060405180830381600087803b158015610ab457600080fd5b505af1158015610ac8573d6000803e3d6000fd5b505050508080610ad790612813565b915050610a07565b50565b600d6020528060005260406000206000915090505481565b610b02611be3565b73ffffffffffffffffffffffffffffffffffffffff16610b2061121a565b73ffffffffffffffffffffffffffffffffffffffff1614610b76576040517f08c379a0000000000000000000000000000000000000000000000000000000008152600401610b6d906124aa565b60405180910390fd5b600760009054906101000a900460ff1615610bbd576040517fbbac67ba00000000000000000000000000000000000000000000000000000000815260040160405180910390fd5b7f00000000000000000000000000000000000000000000000000000000000000008151600654610bed919061264a565b1115610c25576040517fbf81055000000000000000000000000000000000000000000000000000000000815260040160405180910390fd5b60005b8151811015610db557818181518110610c4457610c4361291a565b5b60200260200101516000015173ffffffffffffffffffffffffffffffffffffffff166342842e0e3330858581518110610c8057610c7f61291a565b5b6020026020010151602001516040518463ffffffff1660e01b8152600401610caa93929190612349565b600060405180830381600087803b158015610cc457600080fd5b505af1158015610cd8573d6000803e3d6000fd5b50505050818181518110610cef57610cee61291a565b5b602002602001015160000151600b6000600654815260200190815260200160002060000160006101000a81548173ffffffffffffffffffffffffffffffffffffffff021916908373ffffffffffffffffffffffffffffffffffffffff160217905550818181518110610d6457610d6361291a565b5b602002602001015160200151600b6000600654815260200190815260200160002060010181905550600660008154610d9b90612813565b919050819055508080610dad90612813565b915050610c28565b5050565b600760029054906101000a900473ffffffffffffffffffffffffffffffffffffffff1673ffffffffffffffffffffffffffffffffffffffff163373ffffffffffffffffffffffffffffffffffffffff1614610e40576040517f6e1507dc00000000000000000000000000000000000000000000000000000000815260040160405180910390fd5b600760009054906101000a900460ff1615610e87576040517fbbac67ba00000000000000000000000000000000000000000000000000000000815260040160405180910390fd5b600654815114610ec3576040517f9bc0f50200000000000000000000000000000000000000000000000000000000815260040160405180910390fd5b600354600554111580610ed95750600654600554105b15610efe576001600760016101000a81548160ff021916908315150217905550611174565b60005b600654811015611172576000600a60009054906101000a900473ffffffffffffffffffffffffffffffffffffffff1673ffffffffffffffffffffffffffffffffffffffff166378df3a52600954600554868681518110610f6457610f6361291a565b5b6020026020010151610f76919061285c565b6040518363ffffffff1660e01b8152600401610f939291906124e5565b60206040518083038186803b158015610fab57600080fd5b505afa158015610fbf573d6000803e3d6000fd5b505050506040513d601f19601f82011682018060405250810190610fe3919061210d565b905060001515600a60009054906101000a900473ffffffffffffffffffffffffffffffffffffffff1673ffffffffffffffffffffffffffffffffffffffff16630e392288836040518263ffffffff1660e01b815260040161104491906124ca565b60206040518083038186803b15801561105c57600080fd5b505afa158015611070573d6000803e3d6000fd5b505050506040513d601f19601f8201168201806040525081019061109491906120b3565b1515141561116c57600760029054906101000a900473ffffffffffffffffffffffffffffffffffffffff1673ffffffffffffffffffffffffffffffffffffffff166368cbce31826009546040518363ffffffff1660e01b81526004016110fb9291906124e5565b600060405180830381600087803b15801561111557600080fd5b505af1158015611129573d6000803e3d6000fd5b5050505080600c60008481526020019081526020016000208190555081600d600083815260200190815260200160002081905550818061116890612813565b9250505b50610f01565b505b6001600760006101000a81548160ff02191690831515021790555050565b61119a611be3565b73ffffffffffffffffffffffffffffffffffffffff166111b861121a565b73ffffffffffffffffffffffffffffffffffffffff161461120e576040517f08c379a0000000000000000000000000000000000000000000000000000000008152600401611205906124aa565b60405180910390fd5b6112186000611beb565b565b60008060009054906101000a900473ffffffffffffffffffffffffffffffffffffffff16905090565b600c6020528060005260406000206000915090505481565b600b6020528060005260406000206000915090508060000160009054906101000a900473ffffffffffffffffffffffffffffffffffffffff16908060010154905082565b600760019054906101000a900460ff166112e5576040517fbfbef1dd00000000000000000000000000000000000000000000000000000000815260040160405180910390fd5b60005b8151811015611529573373ffffffffffffffffffffffffffffffffffffffff16600a60009054906101000a900473ffffffffffffffffffffffffffffffffffffffff1673ffffffffffffffffffffffffffffffffffffffff16636352211e8484815181106113595761135861291a565b5b60200260200101516040518263ffffffff1660e01b815260040161137d91906124ca565b60206040518083038186803b15801561139557600080fd5b505afa1580156113a9573d6000803e3d6000fd5b505050506040513d601f19601f820116820180604052508101906113cd9190611f71565b73ffffffffffffffffffffffffffffffffffffffff161461141a576040517f6e1507dc00000000000000000000000000000000000000000000000000000000815260040160405180910390fd5b600a60009054906101000a900473ffffffffffffffffffffffffffffffffffffffff1673ffffffffffffffffffffffffffffffffffffffff166355866c8d83838151811061146b5761146a61291a565b5b60200260200101516040518263ffffffff1660e01b815260040161148f91906124ca565b60206040518083038186803b1580156114a757600080fd5b505afa1580156114bb573d6000803e3d6000fd5b505050506040513d601f19601f820116820180604052508101906114df91906120b3565b15611516576040517fbfbef1dd00000000000000000000000000000000000000000000000000000000815260040160405180910390fd5b808061152190612813565b9150506112e8565b50600760029054906101000a900473ffffffffffffffffffffffffffffffffffffffff1673ffffffffffffffffffffffffffffffffffffffff1663cb01e800826009546040518363ffffffff1660e01b8152600401611589929190612402565b600060405180830381600087803b1580156115a357600080fd5b505af11580156115b7573d6000803e3d6000fd5b505050503373ffffffffffffffffffffffffffffffffffffffff166108fc82516002546115e491906126a0565b9081150290604051600060405180830381858888f1935050505015801561160f573d6000803e3d6000fd5b5050565b60095481565b60015481565b6060600060065467ffffffffffffffff81111561163f5761163e612949565b5b60405190808252806020026020018201604052801561167857816020015b611665611caf565b81526020019060019003908161165d5790505b50905060005b60065481101561173757600b60008281526020019081526020016000206040518060400160405290816000820160009054906101000a900473ffffffffffffffffffffffffffffffffffffffff1673ffffffffffffffffffffffffffffffffffffffff1673ffffffffffffffffffffffffffffffffffffffff1681526020016001820154815250508282815181106117195761171861291a565b5b6020026020010181905250808061172f90612813565b91505061167e565b508091505090565b611747611be3565b73ffffffffffffffffffffffffffffffffffffffff1661176561121a565b73ffffffffffffffffffffffffffffffffffffffff16146117bb576040517f08c379a00000000000000000000000000000000000000000000000000000000081526004016117b2906124aa565b60405180910390fd5b600073ffffffffffffffffffffffffffffffffffffffff168173ffffffffffffffffffffffffffffffffffffffff16141561182b576040517f08c379a00000000000000000000000000000000000000000000000000000000081526004016118229061248a565b60405180910390fd5b61183481611beb565b50565b600760009054906101000a900460ff1661187d576040517fb4f905a200000000000000000000000000000000000000000000000000000000815260040160405180910390fd5b3373ffffffffffffffffffffffffffffffffffffffff16600a60009054906101000a900473ffffffffffffffffffffffffffffffffffffffff1673ffffffffffffffffffffffffffffffffffffffff16636352211e836040518263ffffffff1660e01b81526004016118ef91906124ca565b60206040518083038186803b15801561190757600080fd5b505afa15801561191b573d6000803e3d6000fd5b505050506040513d601f19601f8201168201806040525081019061193f9190611f71565b73ffffffffffffffffffffffffffffffffffffffff161461198c576040517f6e1507dc00000000000000000000000000000000000000000000000000000000815260040160405180910390fd5b600a60009054906101000a900473ffffffffffffffffffffffffffffffffffffffff1673ffffffffffffffffffffffffffffffffffffffff16639e34070f826040518263ffffffff1660e01b81526004016119e791906124ca565b60206040518083038186803b1580156119ff57600080fd5b505afa158015611a13573d6000803e3d6000fd5b505050506040513d601f19601f82011682018060405250810190611a3791906120b3565b15611a6e576040517f6e1507dc00000000000000000000000000000000000000000000000000000000815260040160405180910390fd5b600b6000600d600084815260200190815260200160002054815260200190815260200160002060000160009054906101000a900473ffffffffffffffffffffffffffffffffffffffff1673ffffffffffffffffffffffffffffffffffffffff166342842e0e3033600b6000600d6000888152602001908152602001600020548152602001908152602001600020600101546040518463ffffffff1660e01b8152600401611b1d93929190612349565b600060405180830381600087803b158015611b3757600080fd5b505af1158015611b4b573d6000803e3d6000fd5b50505050600760029054906101000a900473ffffffffffffffffffffffffffffffffffffffff1673ffffffffffffffffffffffffffffffffffffffff1663a16c6a73826009546040518363ffffffff1660e01b8152600401611bae9291906124e5565b600060405180830381600087803b158015611bc857600080fd5b505af1158015611bdc573d6000803e3d6000fd5b5050505050565b600033905090565b60008060009054906101000a900473ffffffffffffffffffffffffffffffffffffffff169050816000806101000a81548173ffffffffffffffffffffffffffffffffffffffff021916908373ffffffffffffffffffffffffffffffffffffffff1602179055508173ffffffffffffffffffffffffffffffffffffffff168173ffffffffffffffffffffffffffffffffffffffff167f8be0079c531659141344cd1fd0a4f28419497f9722a3daafe3b4186f6b6457e060405160405180910390a35050565b6040518060400160405280600073ffffffffffffffffffffffffffffffffffffffff168152602001600081525090565b6000611cf2611ced84612533565b61250e565b90508083825260208201905082856040860282011115611d1557611d14612982565b5b60005b85811015611d455781611d2b8882611eca565b845260208401935060408301925050600181019050611d18565b5050509392505050565b6000611d62611d5d8461255f565b61250e565b90508083825260208201905082856020860282011115611d8557611d84612982565b5b60005b85811015611db55781611d9b8882611f1a565b845260208401935060208301925050600181019050611d88565b5050509392505050565b6000611dd2611dcd8461258b565b61250e565b905082815260208101848484011115611dee57611ded612987565b5b611df984828561276e565b509392505050565b600081359050611e1081612a1f565b92915050565b600081519050611e2581612a1f565b92915050565b600082601f830112611e4057611e3f612978565b5b8135611e50848260208601611cdf565b91505092915050565b600082601f830112611e6e57611e6d612978565b5b8135611e7e848260208601611d4f565b91505092915050565b600081519050611e9681612a36565b92915050565b600082601f830112611eb157611eb0612978565b5b8135611ec1848260208601611dbf565b91505092915050565b600060408284031215611ee057611edf61297d565b5b611eea604061250e565b90506000611efa84828501611e01565b6000830152506020611f0e84828501611f1a565b60208301525092915050565b600081359050611f2981612a4d565b92915050565b600081519050611f3e81612a4d565b92915050565b600060208284031215611f5a57611f59612991565b5b6000611f6884828501611e01565b91505092915050565b600060208284031215611f8757611f86612991565b5b6000611f9584828501611e16565b91505092915050565b60008060008060808587031215611fb857611fb7612991565b5b6000611fc687828801611e01565b9450506020611fd787828801611e01565b9350506040611fe887828801611f1a565b925050606085013567ffffffffffffffff8111156120095761200861298c565b5b61201587828801611e9c565b91505092959194509250565b60006020828403121561203757612036612991565b5b600082013567ffffffffffffffff8111156120555761205461298c565b5b61206184828501611e2b565b91505092915050565b6000602082840312156120805761207f612991565b5b600082013567ffffffffffffffff81111561209e5761209d61298c565b5b6120aa84828501611e59565b91505092915050565b6000602082840312156120c9576120c8612991565b5b60006120d784828501611e87565b91505092915050565b6000602082840312156120f6576120f5612991565b5b600061210484828501611f1a565b91505092915050565b60006020828403121561212357612122612991565b5b600061213184828501611f2f565b91505092915050565b600061214683836122e1565b60408301905092915050565b600061215e8383612310565b60208301905092915050565b612173816126fa565b82525050565b612182816126fa565b82525050565b6000612193826125dc565b61219d8185612617565b93506121a8836125bc565b8060005b838110156121d95781516121c0888261213a565b97506121cb836125fd565b9250506001810190506121ac565b5085935050505092915050565b60006121f1826125e7565b6121fb8185612628565b9350612206836125cc565b8060005b8381101561223757815161221e8882612152565b97506122298361260a565b92505060018101905061220a565b5085935050505092915050565b61224d8161270c565b82525050565b61225c81612718565b82525050565b600061226d826125f2565b6122778185612639565b935061228781856020860161277d565b61229081612996565b840191505092915050565b60006122a8602683612639565b91506122b3826129a7565b604082019050919050565b60006122cb602083612639565b91506122d6826129f6565b602082019050919050565b6040820160008201516122f7600085018261216a565b50602082015161230a6020850182612310565b50505050565b61231981612764565b82525050565b61232881612764565b82525050565b60006020820190506123436000830184612179565b92915050565b600060608201905061235e6000830186612179565b61236b6020830185612179565b612378604083018461231f565b949350505050565b60006040820190506123956000830185612179565b6123a2602083018461231f565b9392505050565b60006060820190506123be6000830186612179565b6123cb602083018561231f565b6123d8604083018461231f565b949350505050565b600060208201905081810360008301526123fa8184612188565b905092915050565b6000604082019050818103600083015261241c81856121e6565b905061242b602083018461231f565b9392505050565b60006020820190506124476000830184612244565b92915050565b60006020820190506124626000830184612253565b92915050565b600060208201905081810360008301526124828184612262565b905092915050565b600060208201905081810360008301526124a38161229b565b9050919050565b600060208201905081810360008301526124c3816122be565b9050919050565b60006020820190506124df600083018461231f565b92915050565b60006040820190506124fa600083018561231f565b612507602083018461231f565b9392505050565b6000612518612529565b905061252482826127e2565b919050565b6000604051905090565b600067ffffffffffffffff82111561254e5761254d612949565b5b602082029050602081019050919050565b600067ffffffffffffffff82111561257a57612579612949565b5b602082029050602081019050919050565b600067ffffffffffffffff8211156125a6576125a5612949565b5b6125af82612996565b9050602081019050919050565b6000819050602082019050919050565b6000819050602082019050919050565b600081519050919050565b600081519050919050565b600081519050919050565b6000602082019050919050565b6000602082019050919050565b600082825260208201905092915050565b600082825260208201905092915050565b600082825260208201905092915050565b600061265582612764565b915061266083612764565b9250827fffffffffffffffffffffffffffffffffffffffffffffffffffffffffffffffff038211156126955761269461288d565b5b828201905092915050565b60006126ab82612764565b91506126b683612764565b9250817fffffffffffffffffffffffffffffffffffffffffffffffffffffffffffffffff04831182151516156126ef576126ee61288d565b5b828202905092915050565b600061270582612744565b9050919050565b60008115159050919050565b60007fffffffff0000000000000000000000000000000000000000000000000000000082169050919050565b600073ffffffffffffffffffffffffffffffffffffffff82169050919050565b6000819050919050565b82818337600083830152505050565b60005b8381101561279b578082015181840152602081019050612780565b838111156127aa576000848401525b50505050565b600060028204905060018216806127c857607f821691505b602082108114156127dc576127db6128eb565b5b50919050565b6127eb82612996565b810181811067ffffffffffffffff8211171561280a57612809612949565b5b80604052505050565b600061281e82612764565b91507fffffffffffffffffffffffffffffffffffffffffffffffffffffffffffffffff8214156128515761285061288d565b5b600182019050919050565b600061286782612764565b915061287283612764565b925082612882576128816128bc565b5b828206905092915050565b7f4e487b7100000000000000000000000000000000000000000000000000000000600052601160045260246000fd5b7f4e487b7100000000000000000000000000000000000000000000000000000000600052601260045260246000fd5b7f4e487b7100000000000000000000000000000000000000000000000000000000600052602260045260246000fd5b7f4e487b7100000000000000000000000000000000000000000000000000000000600052603260045260246000fd5b7f4e487b7100000000000000000000000000000000000000000000000000000000600052604160045260246000fd5b600080fd5b600080fd5b600080fd5b600080fd5b600080fd5b600080fd5b6000601f19601f8301169050919050565b7f4f776e61626c653a206e6577206f776e657220697320746865207a65726f206160008201527f6464726573730000000000000000000000000000000000000000000000000000602082015250565b7f4f776e61626c653a2063616c6c6572206973206e6f7420746865206f776e6572600082015250565b612a28816126fa565b8114612a3357600080fd5b50565b612a3f8161270c565b8114612a4a57600080fd5b50565b612a5681612764565b8114612a6157600080fd5b5056fea2646970667358221220cee7785bf496f315e75d03ebd740c8759cf7037ee41d0d36af0685c54ec5617664736f6c63430008070033a2646970667358221220bb707f2c42e855b1a80e9c69573a3ced51ccc5e2578d4d539f69543c00c73f2564736f6c63430008070033608060405260405180608001604052806042815260200162004d4a60429139601290805190602001906200003592919062000271565b5060405180608001604052806042815260200162004d0860429139601390805190602001906200006792919062000271565b503480156200007557600080fd5b5060405162004d8c38038062004d8c83398181016040528101906200009b919062000338565b6040518060400160405280601281526020017f5468652050616e646f7261205469636b657400000000000000000000000000008152506040518060400160405280600781526020017f50414e444f52410000000000000000000000000000000000000000000000000081525081600090805190602001906200011f92919062000271565b5080600190805190602001906200013892919062000271565b5050506200015b6200014f620001a360201b60201c565b620001ab60201b60201c565b80600b60006101000a81548173ffffffffffffffffffffffffffffffffffffffff021916908373ffffffffffffffffffffffffffffffffffffffff1602179055505062000422565b600033905090565b6000600a60009054906101000a900473ffffffffffffffffffffffffffffffffffffffff16905081600a60006101000a81548173ffffffffffffffffffffffffffffffffffffffff021916908373ffffffffffffffffffffffffffffffffffffffff1602179055508173ffffffffffffffffffffffffffffffffffffffff168173ffffffffffffffffffffffffffffffffffffffff167f8be0079c531659141344cd1fd0a4f28419497f9722a3daafe3b4186f6b6457e060405160405180910390a35050565b8280546200027f906200039e565b90600052602060002090601f016020900481019282620002a35760008555620002ef565b82601f10620002be57805160ff1916838001178555620002ef565b82800160010185558215620002ef579182015b82811115620002ee578251825591602001919060010190620002d1565b5b509050620002fe919062000302565b5090565b5b808211156200031d57600081600090555060010162000303565b5090565b600081519050620003328162000408565b92915050565b60006020828403121562000351576200035062000403565b5b6000620003618482850162000321565b91505092915050565b600062000377826200037e565b9050919050565b600073ffffffffffffffffffffffffffffffffffffffff82169050919050565b60006002820490506001821680620003b757607f821691505b60208210811415620003ce57620003cd620003d4565b5b50919050565b7f4e487b7100000000000000000000000000000000000000000000000000000000600052602260045260246000fd5b600080fd5b62000413816200036a565b81146200041f57600080fd5b50565b6148d680620004326000396000f3fe608060405234801561001057600080fd5b50600436106101e55760003560e01c806370a082311161010f5780639e34070f116100a2578063c87b56dd11610071578063c87b56dd146105c6578063e7a3fc11146105f6578063e985e9c514610626578063f2fde38b14610656576101e5565b80639e34070f1461052e578063a22cb4651461055e578063b68c8fad1461057a578063b88d4fde146105aa576101e5565b80638da5cb5b116100de5780638da5cb5b146104b857806395d89b41146104d657806398bdf6f5146104f45780639a86297c14610512576101e5565b806370a082311461041e578063715018a61461044e578063781334af1461045857806378df3a5214610488576101e5565b806318160ddd1161018757806342842e0e1161015657806342842e0e146103725780634f6ccce71461038e57806355866c8d146103be5780636352211e146103ee576101e5565b806318160ddd146102ec57806323b872dd1461030a5780632a64da63146103265780632f745c5914610342576101e5565b8063095ea7b3116101c3578063095ea7b3146102685780630df71602146102845780630e392288146102a0578063156e29f6146102d0576101e5565b806301ffc9a7146101ea57806306fdde031461021a578063081812fc14610238575b600080fd5b61020460048036038101906101ff91906131d7565b610672565b60405161021191906139bb565b60405180910390f35b6102226106ec565b60405161022f91906139d6565b60405180910390f35b610252600480360381019061024d919061327a565b61077e565b60405161025f9190613932565b60405180910390f35b610282600480360381019061027d91906130fb565b610803565b005b61029e6004803603810190610299919061327a565b61091b565b005b6102ba60048036038101906102b5919061327a565b6109d1565b6040516102c791906139bb565b60405180910390f35b6102ea60048036038101906102e5919061313b565b6109f1565b005b6102f4610b11565b6040516103019190613c18565b60405180910390f35b610324600480360381019061031f9190612fe5565b610b1e565b005b610340600480360381019061033b919061318e565b610b7e565b005b61035c600480360381019061035791906130fb565b610c6e565b6040516103699190613c18565b60405180910390f35b61038c60048036038101906103879190612fe5565b610d13565b005b6103a860048036038101906103a3919061327a565b610d33565b6040516103b59190613c18565b60405180910390f35b6103d860048036038101906103d3919061327a565b610da4565b6040516103e591906139bb565b60405180910390f35b6104086004803603810190610403919061327a565b610dc4565b6040516104159190613932565b60405180910390f35b61043860048036038101906104339190612f4b565b610e76565b6040516104459190613c18565b60405180910390f35b610456610f2e565b005b610472600480360381019061046d919061327a565b610fb6565b60405161047f9190613c18565b60405180910390f35b6104a2600480360381019061049d91906132d4565b610fce565b6040516104af9190613c18565b60405180910390f35b6104c0610fff565b6040516104cd9190613932565b60405180910390f35b6104de611029565b6040516104eb91906139d6565b60405180910390f35b6104fc6110bb565b6040516105099190613c18565b60405180910390f35b61052c6004803603810190610527919061327a565b6110c7565b005b6105486004803603810190610543919061327a565b6111dc565b60405161055591906139bb565b60405180910390f35b610578600480360381019061057391906130bb565b6111fc565b005b610594600480360381019061058f919061327a565b611212565b6040516105a19190613999565b60405180910390f35b6105c460048036038101906105bf9190613038565b611338565b005b6105e060048036038101906105db919061327a565b61139a565b6040516105ed91906139d6565b60405180910390f35b610610600480360381019061060b919061327a565b6117c1565b60405161061d9190613999565b60405180910390f35b610640600480360381019061063b9190612fa5565b61182c565b60405161064d91906139bb565b60405180910390f35b610670600480360381019061066b9190612f4b565b6118c0565b005b60007f780e9d63000000000000000000000000000000000000000000000000000000007bffffffffffffffffffffffffffffffffffffffffffffffffffffffff1916827bffffffffffffffffffffffffffffffffffffffffffffffffffffffff191614806106e557506106e4826119b8565b5b9050919050565b6060600080546106fb90613f2d565b80601f016020809104026020016040519081016040528092919081815260200182805461072790613f2d565b80156107745780601f1061074957610100808354040283529160200191610774565b820191906000526020600020905b81548152906001019060200180831161075757829003601f168201915b5050505050905090565b600061078982611a9a565b6107c8576040517f08c379a00000000000000000000000000000000000000000000000000000000081526004016107bf90613b78565b60405180910390fd5b6004600083815260200190815260200160002060009054906101000a900473ffffffffffffffffffffffffffffffffffffffff169050919050565b600061080e82610dc4565b90508073ffffffffffffffffffffffffffffffffffffffff168373ffffffffffffffffffffffffffffffffffffffff16141561087f576040517f08c379a000000000000000000000000000000000000000000000000000000000815260040161087690613bb8565b60405180910390fd5b8073ffffffffffffffffffffffffffffffffffffffff1661089e611b06565b73ffffffffffffffffffffffffffffffffffffffff1614806108cd57506108cc816108c7611b06565b61182c565b5b61090c576040517f08c379a000000000000000000000000000000000000000000000000000000000815260040161090390613af8565b60405180910390fd5b6109168383611b0e565b505050565b600b60009054906101000a900473ffffffffffffffffffffffffffffffffffffffff1673ffffffffffffffffffffffffffffffffffffffff163373ffffffffffffffffffffffffffffffffffffffff16146109a2576040517f1ec1cc2c00000000000000000000000000000000000000000000000000000000815260040160405180910390fd5b6001600e600083815260200190815260200160002060006101000a81548160ff02191690831515021790555050565b600e6020528060005260406000206000915054906101000a900460ff1681565b600b60009054906101000a900473ffffffffffffffffffffffffffffffffffffffff1673ffffffffffffffffffffffffffffffffffffffff163373ffffffffffffffffffffffffffffffffffffffff1614610a78576040517f1ec1cc2c00000000000000000000000000000000000000000000000000000000815260040160405180910390fd5b60005b82811015610b0b576000610a8f6011611bc7565b9050610a9b6011611bd5565b610aa58582611beb565b82600c600083815260200190815260200160002081905550600d6000848152602001908152602001600020819080600181540180825580915050600190039060005260206000200160009091909190915055508080610b0390613f90565b915050610a7b565b50505050565b6000600880549050905090565b610b2f610b29611b06565b82611c09565b610b6e576040517f08c379a0000000000000000000000000000000000000000000000000000000008152600401610b6590613bd8565b60405180910390fd5b610b79838383611ce7565b505050565b600b60009054906101000a900473ffffffffffffffffffffffffffffffffffffffff1673ffffffffffffffffffffffffffffffffffffffff163373ffffffffffffffffffffffffffffffffffffffff1614610c05576040517f1ec1cc2c00000000000000000000000000000000000000000000000000000000815260040160405180910390fd5b60005b8151811015610c6a576001600f6000848481518110610c2a57610c296140c6565b5b6020026020010151815260200190815260200160002060006101000a81548160ff0219169083151502179055508080610c6290613f90565b915050610c08565b5050565b6000610c7983610e76565b8210610cba576040517f08c379a0000000000000000000000000000000000000000000000000000000008152600401610cb1906139f8565b60405180910390fd5b600660008473ffffffffffffffffffffffffffffffffffffffff1673ffffffffffffffffffffffffffffffffffffffff168152602001908152602001600020600083815260200190815260200160002054905092915050565b610d2e83838360405180602001604052806000815250611338565b505050565b6000610d3d610b11565b8210610d7e576040517f08c379a0000000000000000000000000000000000000000000000000000000008152600401610d7590613bf8565b60405180910390fd5b60088281548110610d9257610d916140c6565b5b90600052602060002001549050919050565b600f6020528060005260406000206000915054906101000a900460ff1681565b6000806002600084815260200190815260200160002060009054906101000a900473ffffffffffffffffffffffffffffffffffffffff169050600073ffffffffffffffffffffffffffffffffffffffff168173ffffffffffffffffffffffffffffffffffffffff161415610e6d576040517f08c379a0000000000000000000000000000000000000000000000000000000008152600401610e6490613b38565b60405180910390fd5b80915050919050565b60008073ffffffffffffffffffffffffffffffffffffffff168273ffffffffffffffffffffffffffffffffffffffff161415610ee7576040517f08c379a0000000000000000000000000000000000000000000000000000000008152600401610ede90613b18565b60405180910390fd5b600360008373ffffffffffffffffffffffffffffffffffffffff1673ffffffffffffffffffffffffffffffffffffffff168152602001908152602001600020549050919050565b610f36611b06565b73ffffffffffffffffffffffffffffffffffffffff16610f54610fff565b73ffffffffffffffffffffffffffffffffffffffff1614610faa576040517f08c379a0000000000000000000000000000000000000000000000000000000008152600401610fa190613b98565b60405180910390fd5b610fb46000611f4e565b565b600c6020528060005260406000206000915090505481565b600d6020528160005260406000208181548110610fea57600080fd5b90600052602060002001600091509150505481565b6000600a60009054906101000a900473ffffffffffffffffffffffffffffffffffffffff16905090565b60606001805461103890613f2d565b80601f016020809104026020016040519081016040528092919081815260200182805461106490613f2d565b80156110b15780601f10611086576101008083540402835291602001916110b1565b820191906000526020600020905b81548152906001019060200180831161109457829003601f168201915b5050505050905090565b60118060000154905081565b600b60009054906101000a900473ffffffffffffffffffffffffffffffffffffffff1673ffffffffffffffffffffffffffffffffffffffff163373ffffffffffffffffffffffffffffffffffffffff161461114e576040517f1ec1cc2c00000000000000000000000000000000000000000000000000000000815260040160405180910390fd5b60001515600e600083815260200190815260200160002060009054906101000a900460ff16151514156111ad576040517f1ec1cc2c00000000000000000000000000000000000000000000000000000000815260040160405180910390fd5b60016010600083815260200190815260200160002060006101000a81548160ff02191690831515021790555050565b60106020528060005260406000206000915054906101000a900460ff1681565b61120e611207611b06565b8383612014565b5050565b6060600061121f836117c1565b90506000815167ffffffffffffffff81111561123e5761123d6140f5565b5b60405190808252806020026020018201604052801561126c5781602001602082028036833780820191505090505b5090506000805b835181101561132c573373ffffffffffffffffffffffffffffffffffffffff166112b68583815181106112a9576112a86140c6565b5b6020026020010151610dc4565b73ffffffffffffffffffffffffffffffffffffffff161415611319578381815181106112e5576112e46140c6565b5b6020026020010151838381518110611300576112ff6140c6565b5b6020026020010181815250508161131690613f90565b91505b808061132490613f90565b915050611273565b50819350505050919050565b611349611343611b06565b83611c09565b611388576040517f08c379a000000000000000000000000000000000000000000000000000000000815260040161137f90613bd8565b60405180910390fd5b61139484848484612181565b50505050565b60606000601280546113ab90613f2d565b80601f01602080910402602001604051908101604052809291908181526020018280546113d790613f2d565b80156114245780601f106113f957610100808354040283529160200191611424565b820191906000526020600020905b81548152906001019060200180831161140757829003601f168201915b50505050509050600e600084815260200190815260200160002060009054906101000a900460ff16156114df576013805461145e90613f2d565b80601f016020809104026020016040519081016040528092919081815260200182805461148a90613f2d565b80156114d75780601f106114ac576101008083540402835291602001916114d7565b820191906000526020600020905b8154815290600101906020018083116114ba57829003601f168201915b505050505090505b61179a6114eb846121dd565b611507600c6000878152602001908152602001600020546121dd565b600b60009054906101000a900473ffffffffffffffffffffffffffffffffffffffff1673ffffffffffffffffffffffffffffffffffffffff1663b3e2af06600c6000898152602001908152602001600020546040518263ffffffff1660e01b81526004016115759190613c18565b60006040518083038186803b15801561158d57600080fd5b505afa1580156115a1573d6000803e3d6000fd5b505050506040513d6000823e3d601f19601f820116820180604052508101906115ca9190613231565b6115fb6115f6600e60008a815260200190815260200160002060009054906101000a900460ff1661233e565b6121dd565b61162c611627600f60008b815260200190815260200160002060009054906101000a900460ff1661233e565b6121dd565b61176f600b60009054906101000a900473ffffffffffffffffffffffffffffffffffffffff1673ffffffffffffffffffffffffffffffffffffffff1663a18cefee600c60008d8152602001908152602001600020546040518263ffffffff1660e01b815260040161169d9190613c18565b60206040518083038186803b1580156116b557600080fd5b505afa1580156116c9573d6000803e3d6000fd5b505050506040513d601f19601f820116820180604052508101906116ed9190612f78565b73ffffffffffffffffffffffffffffffffffffffff1663b914a2196040518163ffffffff1660e01b815260040160206040518083038186803b15801561173257600080fd5b505afa158015611746573d6000803e3d6000fd5b505050506040513d601f19601f8201168201806040525081019061176a91906132a7565b6121dd565b87604051602001611786979695949392919061385f565b604051602081830303815290604052612359565b6040516020016117aa919061383d565b604051602081830303815290604052915050919050565b6060600d600083815260200190815260200160002080548060200260200160405190810160405280929190818152602001828054801561182057602002820191906000526020600020905b81548152602001906001019080831161180c575b50505050509050919050565b6000600560008473ffffffffffffffffffffffffffffffffffffffff1673ffffffffffffffffffffffffffffffffffffffff16815260200190815260200160002060008373ffffffffffffffffffffffffffffffffffffffff1673ffffffffffffffffffffffffffffffffffffffff16815260200190815260200160002060009054906101000a900460ff16905092915050565b6118c8611b06565b73ffffffffffffffffffffffffffffffffffffffff166118e6610fff565b73ffffffffffffffffffffffffffffffffffffffff161461193c576040517f08c379a000000000000000000000000000000000000000000000000000000000815260040161193390613b98565b60405180910390fd5b600073ffffffffffffffffffffffffffffffffffffffff168173ffffffffffffffffffffffffffffffffffffffff1614156119ac576040517f08c379a00000000000000000000000000000000000000000000000000000000081526004016119a390613a38565b60405180910390fd5b6119b581611f4e565b50565b60007f80ac58cd000000000000000000000000000000000000000000000000000000007bffffffffffffffffffffffffffffffffffffffffffffffffffffffff1916827bffffffffffffffffffffffffffffffffffffffffffffffffffffffff19161480611a8357507f5b5e139f000000000000000000000000000000000000000000000000000000007bffffffffffffffffffffffffffffffffffffffffffffffffffffffff1916827bffffffffffffffffffffffffffffffffffffffffffffffffffffffff1916145b80611a935750611a92826124bd565b5b9050919050565b60008073ffffffffffffffffffffffffffffffffffffffff166002600084815260200190815260200160002060009054906101000a900473ffffffffffffffffffffffffffffffffffffffff1673ffffffffffffffffffffffffffffffffffffffff1614159050919050565b600033905090565b816004600083815260200190815260200160002060006101000a81548173ffffffffffffffffffffffffffffffffffffffff021916908373ffffffffffffffffffffffffffffffffffffffff160217905550808273ffffffffffffffffffffffffffffffffffffffff16611b8183610dc4565b73ffffffffffffffffffffffffffffffffffffffff167f8c5be1e5ebec7d5bd14f71427d1e84f3dd0314c0f7b2291e5b200ac8c7c3b92560405160405180910390a45050565b600081600001549050919050565b6001816000016000828254019250508190555050565b611c05828260405180602001604052806000815250612527565b5050565b6000611c1482611a9a565b611c53576040517f08c379a0000000000000000000000000000000000000000000000000000000008152600401611c4a90613ad8565b60405180910390fd5b6000611c5e83610dc4565b90508073ffffffffffffffffffffffffffffffffffffffff168473ffffffffffffffffffffffffffffffffffffffff161480611ca05750611c9f818561182c565b5b80611cde57508373ffffffffffffffffffffffffffffffffffffffff16611cc68461077e565b73ffffffffffffffffffffffffffffffffffffffff16145b91505092915050565b8273ffffffffffffffffffffffffffffffffffffffff16611d0782610dc4565b73ffffffffffffffffffffffffffffffffffffffff1614611d5d576040517f08c379a0000000000000000000000000000000000000000000000000000000008152600401611d5490613a58565b60405180910390fd5b600073ffffffffffffffffffffffffffffffffffffffff168273ffffffffffffffffffffffffffffffffffffffff161415611dcd576040517f08c379a0000000000000000000000000000000000000000000000000000000008152600401611dc490613a98565b60405180910390fd5b611dd8838383612582565b611de3600082611b0e565b6001600360008573ffffffffffffffffffffffffffffffffffffffff1673ffffffffffffffffffffffffffffffffffffffff1681526020019081526020016000206000828254611e339190613e43565b925050819055506001600360008473ffffffffffffffffffffffffffffffffffffffff1673ffffffffffffffffffffffffffffffffffffffff1681526020019081526020016000206000828254611e8a9190613d62565b92505081905550816002600083815260200190815260200160002060006101000a81548173ffffffffffffffffffffffffffffffffffffffff021916908373ffffffffffffffffffffffffffffffffffffffff160217905550808273ffffffffffffffffffffffffffffffffffffffff168473ffffffffffffffffffffffffffffffffffffffff167fddf252ad1be2c89b69c2b068fc378daa952ba7f163c4a11628f55a4df523b3ef60405160405180910390a4611f49838383612696565b505050565b6000600a60009054906101000a900473ffffffffffffffffffffffffffffffffffffffff16905081600a60006101000a81548173ffffffffffffffffffffffffffffffffffffffff021916908373ffffffffffffffffffffffffffffffffffffffff1602179055508173ffffffffffffffffffffffffffffffffffffffff168173ffffffffffffffffffffffffffffffffffffffff167f8be0079c531659141344cd1fd0a4f28419497f9722a3daafe3b4186f6b6457e060405160405180910390a35050565b8173ffffffffffffffffffffffffffffffffffffffff168373ffffffffffffffffffffffffffffffffffffffff161415612083576040517f08c379a000000000000000000000000000000000000000000000000000000000815260040161207a90613ab8565b60405180910390fd5b80600560008573ffffffffffffffffffffffffffffffffffffffff1673ffffffffffffffffffffffffffffffffffffffff16815260200190815260200160002060008473ffffffffffffffffffffffffffffffffffffffff1673ffffffffffffffffffffffffffffffffffffffff16815260200190815260200160002060006101000a81548160ff0219169083151502179055508173ffffffffffffffffffffffffffffffffffffffff168373ffffffffffffffffffffffffffffffffffffffff167f17307eab39ab6107e8899845ad3d59bd9653f200f220920489ca2b5937696c318360405161217491906139bb565b60405180910390a3505050565b61218c848484611ce7565b6121988484848461269b565b6121d7576040517f08c379a00000000000000000000000000000000000000000000000000000000081526004016121ce90613a18565b60405180910390fd5b50505050565b60606000821415612225576040518060400160405280600181526020017f30000000000000000000000000000000000000000000000000000000000000008152509050612339565b600082905060005b6000821461225757808061224090613f90565b915050600a826122509190613db8565b915061222d565b60008167ffffffffffffffff811115612273576122726140f5565b5b6040519080825280601f01601f1916602001820160405280156122a55781602001600182028036833780820191505090505b5090505b60008514612332576001826122be9190613e43565b9150600a856122cd9190613fd9565b60306122d99190613d62565b60f81b8183815181106122ef576122ee6140c6565b5b60200101907effffffffffffffffffffffffffffffffffffffffffffffffffffffffffffff1916908160001a905350600a8561232b9190613db8565b94506122a9565b8093505050505b919050565b6000811561234f5760019050612354565b600090505b919050565b606060008251141561237c576040518060200160405280600081525090506124b8565b600060405180606001604052806040815260200161486160409139905060006003600285516123ab9190613d62565b6123b59190613db8565b60046123c19190613de9565b67ffffffffffffffff8111156123da576123d96140f5565b5b6040519080825280601f01601f19166020018201604052801561240c5781602001600182028036833780820191505090505b509050600182016020820185865187015b80821015612478576003820191508151603f8160121c168501518453600184019350603f81600c1c168501518453600184019350603f8160061c168501518453600184019350603f811685015184536001840193505061241d565b505060038651066001811461249457600281146124a7576124af565b603d6001830353603d60028303536124af565b603d60018303535b50505080925050505b919050565b60007f01ffc9a7000000000000000000000000000000000000000000000000000000007bffffffffffffffffffffffffffffffffffffffffffffffffffffffff1916827bffffffffffffffffffffffffffffffffffffffffffffffffffffffff1916149050919050565b6125318383612832565b61253e600084848461269b565b61257d576040517f08c379a000000000000000000000000000000000000000000000000000000000815260040161257490613a18565b60405180910390fd5b505050565b61258d838383612a0c565b600073ffffffffffffffffffffffffffffffffffffffff168373ffffffffffffffffffffffffffffffffffffffff1614156125d0576125cb81612a11565b61260f565b8173ffffffffffffffffffffffffffffffffffffffff168373ffffffffffffffffffffffffffffffffffffffff161461260e5761260d8382612a5a565b5b5b600073ffffffffffffffffffffffffffffffffffffffff168273ffffffffffffffffffffffffffffffffffffffff1614156126525761264d81612bc7565b612691565b8273ffffffffffffffffffffffffffffffffffffffff168273ffffffffffffffffffffffffffffffffffffffff16146126905761268f8282612c98565b5b5b505050565b505050565b60006126bc8473ffffffffffffffffffffffffffffffffffffffff16612d17565b15612825578373ffffffffffffffffffffffffffffffffffffffff1663150b7a026126e5611b06565b8786866040518563ffffffff1660e01b8152600401612707949392919061394d565b602060405180830381600087803b15801561272157600080fd5b505af192505050801561275257506040513d601f19601f8201168201806040525081019061274f9190613204565b60015b6127d5573d8060008114612782576040519150601f19603f3d011682016040523d82523d6000602084013e612787565b606091505b506000815114156127cd576040517f08c379a00000000000000000000000000000000000000000000000000000000081526004016127c490613a18565b60405180910390fd5b805181602001fd5b63150b7a0260e01b7bffffffffffffffffffffffffffffffffffffffffffffffffffffffff1916817bffffffffffffffffffffffffffffffffffffffffffffffffffffffff19161491505061282a565b600190505b949350505050565b600073ffffffffffffffffffffffffffffffffffffffff168273ffffffffffffffffffffffffffffffffffffffff1614156128a2576040517f08c379a000000000000000000000000000000000000000000000000000000000815260040161289990613b58565b60405180910390fd5b6128ab81611a9a565b156128eb576040517f08c379a00000000000000000000000000000000000000000000000000000000081526004016128e290613a78565b60405180910390fd5b6128f760008383612582565b6001600360008473ffffffffffffffffffffffffffffffffffffffff1673ffffffffffffffffffffffffffffffffffffffff16815260200190815260200160002060008282546129479190613d62565b92505081905550816002600083815260200190815260200160002060006101000a81548173ffffffffffffffffffffffffffffffffffffffff021916908373ffffffffffffffffffffffffffffffffffffffff160217905550808273ffffffffffffffffffffffffffffffffffffffff16600073ffffffffffffffffffffffffffffffffffffffff167fddf252ad1be2c89b69c2b068fc378daa952ba7f163c4a11628f55a4df523b3ef60405160405180910390a4612a0860008383612696565b5050565b505050565b6008805490506009600083815260200190815260200160002081905550600881908060018154018082558091505060019003906000526020600020016000909190919091505550565b60006001612a6784610e76565b612a719190613e43565b9050600060076000848152602001908152602001600020549050818114612b56576000600660008673ffffffffffffffffffffffffffffffffffffffff1673ffffffffffffffffffffffffffffffffffffffff168152602001908152602001600020600084815260200190815260200160002054905080600660008773ffffffffffffffffffffffffffffffffffffffff1673ffffffffffffffffffffffffffffffffffffffff168152602001908152602001600020600084815260200190815260200160002081905550816007600083815260200190815260200160002081905550505b6007600084815260200190815260200160002060009055600660008573ffffffffffffffffffffffffffffffffffffffff1673ffffffffffffffffffffffffffffffffffffffff16815260200190815260200160002060008381526020019081526020016000206000905550505050565b60006001600880549050612bdb9190613e43565b9050600060096000848152602001908152602001600020549050600060088381548110612c0b57612c0a6140c6565b5b906000526020600020015490508060088381548110612c2d57612c2c6140c6565b5b906000526020600020018190555081600960008381526020019081526020016000208190555060096000858152602001908152602001600020600090556008805480612c7c57612c7b614097565b5b6001900381819060005260206000200160009055905550505050565b6000612ca383610e76565b905081600660008573ffffffffffffffffffffffffffffffffffffffff1673ffffffffffffffffffffffffffffffffffffffff168152602001908152602001600020600083815260200190815260200160002081905550806007600084815260200190815260200160002081905550505050565b6000808273ffffffffffffffffffffffffffffffffffffffff163b119050919050565b6000612d4d612d4884613c58565b613c33565b90508083825260208201905082856020860282011115612d7057612d6f614129565b5b60005b85811015612da05781612d868882612f21565b845260208401935060208301925050600181019050612d73565b5050509392505050565b6000612dbd612db884613c84565b613c33565b905082815260208101848484011115612dd957612dd861412e565b5b612de4848285613eeb565b509392505050565b6000612dff612dfa84613cb5565b613c33565b905082815260208101848484011115612e1b57612e1a61412e565b5b612e26848285613efa565b509392505050565b600081359050612e3d81614804565b92915050565b600081519050612e5281614804565b92915050565b600082601f830112612e6d57612e6c614124565b5b8135612e7d848260208601612d3a565b91505092915050565b600081359050612e958161481b565b92915050565b600081359050612eaa81614832565b92915050565b600081519050612ebf81614832565b92915050565b600082601f830112612eda57612ed9614124565b5b8135612eea848260208601612daa565b91505092915050565b600082601f830112612f0857612f07614124565b5b8151612f18848260208601612dec565b91505092915050565b600081359050612f3081614849565b92915050565b600081519050612f4581614849565b92915050565b600060208284031215612f6157612f60614138565b5b6000612f6f84828501612e2e565b91505092915050565b600060208284031215612f8e57612f8d614138565b5b6000612f9c84828501612e43565b91505092915050565b60008060408385031215612fbc57612fbb614138565b5b6000612fca85828601612e2e565b9250506020612fdb85828601612e2e565b9150509250929050565b600080600060608486031215612ffe57612ffd614138565b5b600061300c86828701612e2e565b935050602061301d86828701612e2e565b925050604061302e86828701612f21565b9150509250925092565b6000806000806080858703121561305257613051614138565b5b600061306087828801612e2e565b945050602061307187828801612e2e565b935050604061308287828801612f21565b925050606085013567ffffffffffffffff8111156130a3576130a2614133565b5b6130af87828801612ec5565b91505092959194509250565b600080604083850312156130d2576130d1614138565b5b60006130e085828601612e2e565b92505060206130f185828601612e86565b9150509250929050565b6000806040838503121561311257613111614138565b5b600061312085828601612e2e565b925050602061313185828601612f21565b9150509250929050565b60008060006060848603121561315457613153614138565b5b600061316286828701612e2e565b935050602061317386828701612f21565b925050604061318486828701612f21565b9150509250925092565b6000602082840312156131a4576131a3614138565b5b600082013567ffffffffffffffff8111156131c2576131c1614133565b5b6131ce84828501612e58565b91505092915050565b6000602082840312156131ed576131ec614138565b5b60006131fb84828501612e9b565b91505092915050565b60006020828403121561321a57613219614138565b5b600061322884828501612eb0565b91505092915050565b60006020828403121561324757613246614138565b5b600082015167ffffffffffffffff81111561326557613264614133565b5b61327184828501612ef3565b91505092915050565b6000602082840312156132905761328f614138565b5b600061329e84828501612f21565b91505092915050565b6000602082840312156132bd576132bc614138565b5b60006132cb84828501612f36565b91505092915050565b600080604083850312156132eb576132ea614138565b5b60006132f985828601612f21565b925050602061330a85828601612f21565b9150509250929050565b6000613320838361381f565b60208301905092915050565b61333581613e77565b82525050565b600061334682613cf6565b6133508185613d24565b935061335b83613ce6565b8060005b8381101561338c5781516133738882613314565b975061337e83613d17565b92505060018101905061335f565b5085935050505092915050565b6133a281613e89565b82525050565b60006133b382613d01565b6133bd8185613d35565b93506133cd818560208601613efa565b6133d68161413d565b840191505092915050565b60006133ec82613d0c565b6133f68185613d46565b9350613406818560208601613efa565b61340f8161413d565b840191505092915050565b600061342582613d0c565b61342f8185613d57565b935061343f818560208601613efa565b80840191505092915050565b6000613458602783613d57565b91506134638261414e565b602782019050919050565b600061347b602b83613d46565b91506134868261419d565b604082019050919050565b600061349e603283613d46565b91506134a9826141ec565b604082019050919050565b60006134c1601283613d57565b91506134cc8261423b565b601282019050919050565b60006134e4602683613d46565b91506134ef82614264565b604082019050919050565b6000613507602583613d46565b9150613512826142b3565b604082019050919050565b600061352a601c83613d46565b915061353582614302565b602082019050919050565b600061354d602483613d46565b91506135588261432b565b604082019050919050565b6000613570601983613d46565b915061357b8261437a565b602082019050919050565b6000613593602c83613d46565b915061359e826143a3565b604082019050919050565b60006135b6603883613d46565b91506135c1826143f2565b604082019050919050565b60006135d9602a83613d46565b91506135e482614441565b604082019050919050565b60006135fc602983613d46565b915061360782614490565b604082019050919050565b600061361f601083613d57565b915061362a826144df565b601082019050919050565b6000613642600283613d57565b915061364d82614508565b600282019050919050565b6000613665603983613d57565b915061367082614531565b603982019050919050565b6000613688602083613d46565b915061369382614580565b602082019050919050565b60006136ab600d83613d57565b91506136b6826145a9565b600d82019050919050565b60006136ce602c83613d46565b91506136d9826145d2565b604082019050919050565b60006136f1601283613d57565b91506136fc82614621565b601282019050919050565b6000613714602083613d46565b915061371f8261464a565b602082019050919050565b6000613737601483613d57565b915061374282614673565b601482019050919050565b600061375a602183613d46565b91506137658261469c565b604082019050919050565b600061377d601d83613d57565b9150613788826146eb565b601d82019050919050565b60006137a0603183613d46565b91506137ab82614714565b604082019050919050565b60006137c3602c83613d46565b91506137ce82614763565b604082019050919050565b60006137e6600283613d57565b91506137f1826147b2565b600282019050919050565b6000613809601d83613d57565b9150613814826147db565b601d82019050919050565b61382881613ee1565b82525050565b61383781613ee1565b82525050565b600061384882613770565b9150613854828461341a565b915081905092915050565b600061386a826137fc565b9150613876828a61341a565b9150613881826136e4565b915061388c8261344b565b9150613898828961341a565b91506138a3826137d9565b91506138af828861341a565b91506138ba82613658565b91506138c582613612565b91506138d1828761341a565b91506138dc826134b4565b91506138e8828661341a565b91506138f38261372a565b91506138ff828561341a565b915061390a8261369e565b9150613916828461341a565b915061392182613635565b915081905098975050505050505050565b6000602082019050613947600083018461332c565b92915050565b6000608082019050613962600083018761332c565b61396f602083018661332c565b61397c604083018561382e565b818103606083015261398e81846133a8565b905095945050505050565b600060208201905081810360008301526139b3818461333b565b905092915050565b60006020820190506139d06000830184613399565b92915050565b600060208201905081810360008301526139f081846133e1565b905092915050565b60006020820190508181036000830152613a118161346e565b9050919050565b60006020820190508181036000830152613a3181613491565b9050919050565b60006020820190508181036000830152613a51816134d7565b9050919050565b60006020820190508181036000830152613a71816134fa565b9050919050565b60006020820190508181036000830152613a918161351d565b9050919050565b60006020820190508181036000830152613ab181613540565b9050919050565b60006020820190508181036000830152613ad181613563565b9050919050565b60006020820190508181036000830152613af181613586565b9050919050565b60006020820190508181036000830152613b11816135a9565b9050919050565b60006020820190508181036000830152613b31816135cc565b9050919050565b60006020820190508181036000830152613b51816135ef565b9050919050565b60006020820190508181036000830152613b718161367b565b9050919050565b60006020820190508181036000830152613b91816136c1565b9050919050565b60006020820190508181036000830152613bb181613707565b9050919050565b60006020820190508181036000830152613bd18161374d565b9050919050565b60006020820190508181036000830152613bf181613793565b9050919050565b60006020820190508181036000830152613c11816137b6565b9050919050565b6000602082019050613c2d600083018461382e565b92915050565b6000613c3d613c4e565b9050613c498282613f5f565b919050565b6000604051905090565b600067ffffffffffffffff821115613c7357613c726140f5565b5b602082029050602081019050919050565b600067ffffffffffffffff821115613c9f57613c9e6140f5565b5b613ca88261413d565b9050602081019050919050565b600067ffffffffffffffff821115613cd057613ccf6140f5565b5b613cd98261413d565b9050602081019050919050565b6000819050602082019050919050565b600081519050919050565b600081519050919050565b600081519050919050565b6000602082019050919050565b600082825260208201905092915050565b600082825260208201905092915050565b600082825260208201905092915050565b600081905092915050565b6000613d6d82613ee1565b9150613d7883613ee1565b9250827fffffffffffffffffffffffffffffffffffffffffffffffffffffffffffffffff03821115613dad57613dac61400a565b5b828201905092915050565b6000613dc382613ee1565b9150613dce83613ee1565b925082613dde57613ddd614039565b5b828204905092915050565b6000613df482613ee1565b9150613dff83613ee1565b9250817fffffffffffffffffffffffffffffffffffffffffffffffffffffffffffffffff0483118215151615613e3857613e3761400a565b5b828202905092915050565b6000613e4e82613ee1565b9150613e5983613ee1565b925082821015613e6c57613e6b61400a565b5b828203905092915050565b6000613e8282613ec1565b9050919050565b60008115159050919050565b60007fffffffff0000000000000000000000000000000000000000000000000000000082169050919050565b600073ffffffffffffffffffffffffffffffffffffffff82169050919050565b6000819050919050565b82818337600083830152505050565b60005b83811015613f18578082015181840152602081019050613efd565b83811115613f27576000848401525b50505050565b60006002820490506001821680613f4557607f821691505b60208210811415613f5957613f58614068565b5b50919050565b613f688261413d565b810181811067ffffffffffffffff82111715613f8757613f866140f5565b5b80604052505050565b6000613f9b82613ee1565b91507fffffffffffffffffffffffffffffffffffffffffffffffffffffffffffffffff821415613fce57613fcd61400a565b5b600182019050919050565b6000613fe482613ee1565b9150613fef83613ee1565b925082613fff57613ffe614039565b5b828206905092915050565b7f4e487b7100000000000000000000000000000000000000000000000000000000600052601160045260246000fd5b7f4e487b7100000000000000000000000000000000000000000000000000000000600052601260045260246000fd5b7f4e487b7100000000000000000000000000000000000000000000000000000000600052602260045260246000fd5b7f4e487b7100000000000000000000000000000000000000000000000000000000600052603160045260246000fd5b7f4e487b7100000000000000000000000000000000000000000000000000000000600052603260045260246000fd5b7f4e487b7100000000000000000000000000000000000000000000000000000000600052604160045260246000fd5b600080fd5b600080fd5b600080fd5b600080fd5b600080fd5b6000601f19601f8301169050919050565b7f54686973207469636b65742069732067656e6572617465642066726f6d204c6f60008201527f6f74626f78202300000000000000000000000000000000000000000000000000602082015250565b7f455243373231456e756d657261626c653a206f776e657220696e646578206f7560008201527f74206f6620626f756e6473000000000000000000000000000000000000000000602082015250565b7f4552433732313a207472616e7366657220746f206e6f6e20455243373231526560008201527f63656976657220696d706c656d656e7465720000000000000000000000000000602082015250565b7f222c20226973526566756e646564223a20220000000000000000000000000000600082015250565b7f4f776e61626c653a206e6577206f776e657220697320746865207a65726f206160008201527f6464726573730000000000000000000000000000000000000000000000000000602082015250565b7f4552433732313a207472616e736665722066726f6d20696e636f72726563742060008201527f6f776e6572000000000000000000000000000000000000000000000000000000602082015250565b7f4552433732313a20746f6b656e20616c7265616479206d696e74656400000000600082015250565b7f4552433732313a207472616e7366657220746f20746865207a65726f2061646460008201527f7265737300000000000000000000000000000000000000000000000000000000602082015250565b7f4552433732313a20617070726f766520746f2063616c6c657200000000000000600082015250565b7f4552433732313a206f70657261746f7220717565727920666f72206e6f6e657860008201527f697374656e7420746f6b656e0000000000000000000000000000000000000000602082015250565b7f4552433732313a20617070726f76652063616c6c6572206973206e6f74206f7760008201527f6e6572206e6f7220617070726f76656420666f7220616c6c0000000000000000602082015250565b7f4552433732313a2062616c616e636520717565727920666f7220746865207a6560008201527f726f206164647265737300000000000000000000000000000000000000000000602082015250565b7f4552433732313a206f776e657220717565727920666f72206e6f6e657869737460008201527f656e7420746f6b656e0000000000000000000000000000000000000000000000602082015250565b7f222c2022697357696e6e6572223a202200000000000000000000000000000000600082015250565b7f227d000000000000000000000000000000000000000000000000000000000000600082015250565b7f2120596f7520686176652061206368616e636520746f2077696e207072697a6560008201527f7320696e73696465207468652050616e646f726120426f782100000000000000602082015250565b7f4552433732313a206d696e7420746f20746865207a65726f2061646472657373600082015250565b7f222c2022696d616765223a202200000000000000000000000000000000000000600082015250565b7f4552433732313a20617070726f76656420717565727920666f72206e6f6e657860008201527f697374656e7420746f6b656e0000000000000000000000000000000000000000602082015250565b7f222c20226465736372697074696f6e223a220000000000000000000000000000600082015250565b7f4f776e61626c653a2063616c6c6572206973206e6f7420746865206f776e6572600082015250565b7f222c20226472617754696d657374616d70223a22000000000000000000000000600082015250565b7f4552433732313a20617070726f76616c20746f2063757272656e74206f776e6560008201527f7200000000000000000000000000000000000000000000000000000000000000602082015250565b7f646174613a6170706c69636174696f6e2f6a736f6e3b6261736536342c000000600082015250565b7f4552433732313a207472616e736665722063616c6c6572206973206e6f74206f60008201527f776e6572206e6f7220617070726f766564000000000000000000000000000000602082015250565b7f455243373231456e756d657261626c653a20676c6f62616c20696e646578206f60008201527f7574206f6620626f756e64730000000000000000000000000000000000000000602082015250565b7f3a20000000000000000000000000000000000000000000000000000000000000600082015250565b7f7b226e616d65223a225468652050616e646f7261205469636b65742023000000600082015250565b61480d81613e77565b811461481857600080fd5b50565b61482481613e89565b811461482f57600080fd5b50565b61483b81613e95565b811461484657600080fd5b50565b61485281613ee1565b811461485d57600080fd5b5056fe4142434445464748494a4b4c4d4e4f505152535455565758595a6162636465666768696a6b6c6d6e6f707172737475767778797a303132333435363738392b2fa2646970667358221220fa0fc12be9b61752f61f90cdeecac17acf4e1f11d78283bdfc943a9a146d975d64736f6c63430008070033697066733a2f2f62616679626569617637377633346c6e373276626e6f7a70726b7a666c6f717674776c623565616f68696e746b6a69766170327470346774716469697066733a2f2f6261666b726569676d356972377679697269636e6c323361376262627a69337665327472367635347069327175737666757932726c647563337765",
  "linkReferences": {},
  "deployedLinkReferences": {}
}