{
  "_format": "hh-sol-artifact-1",
  "contractName": "LootboxFactory",
  "sourceName": "contracts/LootboxFactory.sol",
  "abi": [
    {
      "inputs": [
        {
          "internalType": "address",
          "name": "_vrfCoordinator",
          "type": "address"
        },
        {
          "internalType": "address",
          "name": "_linkTokenContract",
          "type": "address"
        },
        {
          "internalType": "bytes32",
          "name": "_gasLane",
          "type": "bytes32"
        }
      ],
      "stateMutability": "nonpayable",
      "type": "constructor"
    },
    {
      "inputs": [],
      "name": "LootboxFactory__Unauthorized",
      "type": "error"
    },
    {
      "inputs": [
        {
          "internalType": "address",
          "name": "have",
          "type": "address"
        },
        {
          "internalType": "address",
          "name": "want",
          "type": "address"
        }
      ],
      "name": "OnlyCoordinatorCanFulfill",
      "type": "error"
    },
    {
      "inputs": [],
      "name": "OnlySimulatedBackend",
      "type": "error"
    },
    {
      "anonymous": false,
      "inputs": [
        {
          "indexed": true,
          "internalType": "uint256",
          "name": "lootboxId",
          "type": "uint256"
        },
        {
          "indexed": true,
          "internalType": "address",
          "name": "lootboxAddress",
          "type": "address"
        },
        {
          "indexed": false,
          "internalType": "address",
          "name": "owner",
          "type": "address"
        }
      ],
      "name": "LootboxDeployed",
      "type": "event"
    },
    {
      "anonymous": false,
      "inputs": [
        {
          "indexed": true,
          "internalType": "address",
          "name": "previousOwner",
          "type": "address"
        },
        {
          "indexed": true,
          "internalType": "address",
          "name": "newOwner",
          "type": "address"
        }
      ],
      "name": "OwnershipTransferred",
      "type": "event"
    },
    {
      "inputs": [
        {
          "internalType": "uint256",
          "name": "",
          "type": "uint256"
        }
      ],
      "name": "allLootboxes",
      "outputs": [
        {
          "internalType": "address",
          "name": "",
          "type": "address"
        }
      ],
      "stateMutability": "view",
      "type": "function"
    },
    {
      "inputs": [
        {
          "internalType": "bytes",
          "name": "",
          "type": "bytes"
        }
      ],
      "name": "checkUpkeep",
      "outputs": [
        {
          "internalType": "bool",
          "name": "upkeepNeeded",
          "type": "bool"
        },
        {
          "internalType": "bytes",
          "name": "performData",
          "type": "bytes"
        }
      ],
      "stateMutability": "view",
      "type": "function"
    },
    {
      "inputs": [
        {
          "internalType": "string",
          "name": "_name",
          "type": "string"
        },
        {
          "internalType": "uint256",
          "name": "_drawTimestamp",
          "type": "uint256"
        },
        {
          "internalType": "uint256",
          "name": "_ticketPrice",
          "type": "uint256"
        },
        {
          "internalType": "uint256",
          "name": "_minimumTicketRequired",
          "type": "uint256"
        }
      ],
      "name": "deployLootbox",
      "outputs": [],
      "stateMutability": "nonpayable",
      "type": "function"
    },
    {
      "inputs": [
        {
          "internalType": "string",
          "name": "_name",
          "type": "string"
        },
        {
          "internalType": "uint256",
          "name": "_drawTimestamp",
          "type": "uint256"
        },
        {
          "internalType": "uint256",
          "name": "_ticketPrice",
          "type": "uint256"
        },
        {
          "internalType": "uint256",
          "name": "_minimumTicketRequired",
          "type": "uint256"
        },
        {
          "internalType": "uint256",
          "name": "_maxTicketPerWallet",
          "type": "uint256"
        }
      ],
      "name": "deployLootbox",
      "outputs": [],
      "stateMutability": "nonpayable",
      "type": "function"
    },
    {
      "inputs": [],
      "name": "getAllLootboxes",
      "outputs": [
        {
          "internalType": "address[]",
          "name": "",
          "type": "address[]"
        }
      ],
      "stateMutability": "view",
      "type": "function"
    },
    {
      "inputs": [
        {
          "internalType": "uint256",
          "name": "_lootboxId",
          "type": "uint256"
        }
      ],
      "name": "getLootboxName",
      "outputs": [
        {
          "internalType": "string",
          "name": "",
          "type": "string"
        }
      ],
      "stateMutability": "view",
      "type": "function"
    },
    {
      "inputs": [
        {
          "internalType": "address",
          "name": "_user",
          "type": "address"
        }
      ],
      "name": "getLootboxesOwnedByUser",
      "outputs": [
        {
          "internalType": "address[]",
          "name": "",
          "type": "address[]"
        }
      ],
      "stateMutability": "view",
      "type": "function"
    },
    {
      "inputs": [
        {
          "internalType": "uint256",
          "name": "",
          "type": "uint256"
        }
      ],
      "name": "lootboxAddress",
      "outputs": [
        {
          "internalType": "address",
          "name": "",
          "type": "address"
        }
      ],
      "stateMutability": "view",
      "type": "function"
    },
    {
      "inputs": [
        {
          "internalType": "address",
          "name": "",
          "type": "address"
        },
        {
          "internalType": "uint256",
          "name": "",
          "type": "uint256"
        }
      ],
      "name": "lootboxOwned",
      "outputs": [
        {
          "internalType": "uint256",
          "name": "",
          "type": "uint256"
        }
      ],
      "stateMutability": "view",
      "type": "function"
    },
    {
      "inputs": [
        {
          "internalType": "address",
          "name": "_to",
          "type": "address"
        },
        {
          "internalType": "uint256",
          "name": "_amount",
          "type": "uint256"
        },
        {
          "internalType": "uint256",
          "name": "_lootboxId",
          "type": "uint256"
        }
      ],
      "name": "mintTicket",
      "outputs": [],
      "stateMutability": "nonpayable",
      "type": "function"
    },
    {
      "inputs": [],
      "name": "owner",
      "outputs": [
        {
          "internalType": "address",
          "name": "",
          "type": "address"
        }
      ],
      "stateMutability": "view",
      "type": "function"
    },
    {
      "inputs": [
        {
          "internalType": "bytes",
          "name": "performData",
          "type": "bytes"
        }
      ],
      "name": "performUpkeep",
      "outputs": [],
      "stateMutability": "nonpayable",
      "type": "function"
    },
    {
      "inputs": [
        {
          "internalType": "uint256",
          "name": "requestId",
          "type": "uint256"
        },
        {
          "internalType": "uint256[]",
          "name": "randomWords",
          "type": "uint256[]"
        }
      ],
      "name": "rawFulfillRandomWords",
      "outputs": [],
      "stateMutability": "nonpayable",
      "type": "function"
    },
    {
      "inputs": [
        {
          "internalType": "uint256[]",
          "name": "_tokenIds",
          "type": "uint256[]"
        },
        {
          "internalType": "uint256",
          "name": "_lootboxId",
          "type": "uint256"
        }
      ],
      "name": "refundTicket",
      "outputs": [],
      "stateMutability": "nonpayable",
      "type": "function"
    },
    {
      "inputs": [],
      "name": "renounceOwnership",
      "outputs": [],
      "stateMutability": "nonpayable",
      "type": "function"
    },
    {
      "inputs": [],
      "name": "s_subscriptionId",
      "outputs": [
        {
          "internalType": "uint64",
          "name": "",
          "type": "uint64"
        }
      ],
      "stateMutability": "view",
      "type": "function"
    },
    {
      "inputs": [
        {
          "internalType": "uint256",
          "name": "_tokenId",
          "type": "uint256"
        },
        {
          "internalType": "uint256",
          "name": "_lootboxId",
          "type": "uint256"
        }
      ],
      "name": "setClaim",
      "outputs": [],
      "stateMutability": "nonpayable",
      "type": "function"
    },
    {
      "inputs": [
        {
          "internalType": "uint256",
          "name": "_tokenId",
          "type": "uint256"
        },
        {
          "internalType": "uint256",
          "name": "_lootboxId",
          "type": "uint256"
        }
      ],
      "name": "setWinner",
      "outputs": [],
      "stateMutability": "nonpayable",
      "type": "function"
    },
    {
      "inputs": [],
      "name": "ticketAddress",
      "outputs": [
        {
          "internalType": "address",
          "name": "",
          "type": "address"
        }
      ],
      "stateMutability": "view",
      "type": "function"
    },
    {
      "inputs": [
        {
          "internalType": "uint256",
          "name": "amount",
          "type": "uint256"
        }
      ],
      "name": "topUpSubscription",
      "outputs": [],
      "stateMutability": "nonpayable",
      "type": "function"
    },
    {
      "inputs": [],
      "name": "totalLootbox",
      "outputs": [
        {
          "internalType": "uint256",
          "name": "",
          "type": "uint256"
        }
      ],
      "stateMutability": "view",
      "type": "function"
    },
    {
      "inputs": [
        {
          "internalType": "address",
          "name": "newOwner",
          "type": "address"
        }
      ],
      "name": "transferOwnership",
      "outputs": [],
      "stateMutability": "nonpayable",
      "type": "function"
    },
    {
      "inputs": [
        {
          "internalType": "uint256",
          "name": "amount",
          "type": "uint256"
        },
        {
          "internalType": "address",
          "name": "to",
          "type": "address"
        }
      ],
      "name": "withdrawLink",
      "outputs": [],
      "stateMutability": "nonpayable",
      "type": "function"
    }
  ],
  "bytecode": "0x60e06040526000600755613d0960e51b60c0523480156200001f57600080fd5b50604051620071973803806200719783398101604081905262000042916200038b565b826200004e3362000157565b60601b6001600160601b031916608052600180546001600160a01b03199081166001600160a01b03868116919091179092556002805490911691841691909117905560a08190526200009f620001a7565b30604051620000ae9062000350565b620000ba919062000431565b604051809103906000f080158015620000d7573d6000803e3d6000fd5b50600380546001600160a01b0319166001600160a01b0392909216918217905560405163f2fde38b60e01b815263f2fde38b906200011a90339060040162000431565b600060405180830381600087803b1580156200013557600080fd5b505af11580156200014a573d6000803e3d6000fd5b50505050505050620004fb565b600080546001600160a01b038381166001600160a01b0319831681178455604051919092169283917f8be0079c531659141344cd1fd0a4f28419497f9722a3daafe3b4186f6b6457e09190a35050565b6000546001600160a01b03163314620001dd5760405162461bcd60e51b8152600401620001d49062000441565b60405180910390fd5b604080516001808252818301909252600091602080830190803683370190505090503081600081518110620002165762000216620004b4565b6001600160a01b039283166020918202929092018101919091526001546040805163288688f960e21b81529051919093169263a21a23e49260048083019391928290030181600087803b1580156200026d57600080fd5b505af115801562000282573d6000803e3d6000fd5b505050506040513d601f19601f82011682018060405250810190620002a89190620003e3565b600880546001600160401b0319166001600160401b0392909216918217905560015482516001600160a01b0390911691637341c10c918490600090620002f257620002f2620004b4565b60200260200101516040518363ffffffff1660e01b8152600401620003199291906200047c565b600060405180830381600087803b1580156200033457600080fd5b505af115801562000349573d6000803e3d6000fd5b5050505050565b612e5a806200433d83390190565b80516200036b81620004ca565b92915050565b80516200036b81620004e4565b80516200036b81620004eb565b600080600060608486031215620003a557620003a5600080fd5b6000620003b386866200035e565b9350506020620003c6868287016200035e565b9250506040620003d98682870162000371565b9150509250925092565b600060208284031215620003fa57620003fa600080fd5b60006200040884846200037e565b949350505050565b6200041b81620004a2565b82525050565b6001600160401b0381166200041b565b602081016200036b828462000410565b60208082528181019081527f4f776e61626c653a2063616c6c6572206973206e6f7420746865206f776e65726040830152606082016200036b565b604081016200048c828562000421565b6200049b602083018462000410565b9392505050565b60006001600160a01b0382166200036b565b634e487b7160e01b600052603260045260246000fd5b620004d581620004a2565b8114620004e157600080fd5b50565b80620004d5565b6001600160401b038116620004d5565b60805160601c60a05160c05160e01c613e05620005386000396000611118015260006110e70152600081816104a901526104d20152613e056000f3fe60806040523480156200001157600080fd5b5060043610620001695760003560e01c806386850e9311620000d3578063b3e2af061162000086578063b3e2af06146200033a578063b707be341462000360578063cb01e8001462000377578063e870cb66146200038e578063f2fde38b14620003a5578063fa84ee3814620003bc57600080fd5b806386850e9314620002945780638ac0002114620002ab5780638da5cb5b14620002ce578063a16c6a7314620002e0578063a18cefee14620002f7578063a46d4584146200032357600080fd5b806341ea27ca116200012c57806341ea27ca146200020c5780634585e33b146200022357806357a8e3fe146200023a57806368cbce31146200024c5780636e04ff0d1462000263578063715018a6146200028a57600080fd5b806301768052146200016e5780631286f2b7146200019d57806319aa987c14620001b65780631ce9f8fa14620001dc5780631fe543e314620001f5575b600080fd5b620001856200017f366004620016de565b620003c6565b6040516200019491906200190f565b60405180910390f35b620001b4620001ae366004620015b6565b620003f1565b005b620001cd620001c736600462001428565b62000408565b60405162000194919062001b82565b620001e66200043a565b604051620001949190620019ce565b620001b46200020636600462001761565b6200049e565b620001b46200021d36600462001728565b62000527565b620001b46200023436600462001529565b620005e3565b6003546001600160a01b031662000185565b620001b46200025d366004620017b6565b620007b1565b6200027a6200027436600462001529565b62000853565b60405162000194929190620019f4565b620001b4620009d7565b620001b4620002a5366004620016de565b62000a12565b600854620002bf906001600160401b031681565b60405162000194919062001b92565b6000546001600160a01b031662000185565b620001b4620002f1366004620017b6565b62000afe565b6200018562000308366004620016de565b6004602052600090815260409020546001600160a01b031681565b620001b4620003343660046200163f565b62000b68565b620003516200034b366004620016de565b62000d17565b60405162000194919062001a6e565b620001e66200037136600462001403565b62000dad565b620001b462000388366004620014c3565b62000efa565b620001b46200039f3660046200146b565b62000f64565b620001b4620003b636600462001403565b6200100b565b620001cd60075481565b60068181548110620003d757600080fd5b6000918252602090912001546001600160a01b0316905081565b620004028484848460001962000b68565b50505050565b600560205281600052604060002081815481106200042557600080fd5b90600052602060002001600091509150505481565b606060068054806020026020016040519081016040528092919081815260200182805480156200049457602002820191906000526020600020905b81546001600160a01b0316815260019091019060200180831162000475575b5050505050905090565b336001600160a01b037f000000000000000000000000000000000000000000000000000000000000000016146200051757337f000000000000000000000000000000000000000000000000000000000000000060405163073e64fd60e21b81526004016200050e9291906200191f565b60405180910390fd5b6200052382826200106f565b5050565b6000546001600160a01b03163314620005545760405162461bcd60e51b81526004016200050e9062001b47565b60025460405163a9059cbb60e01b81526001600160a01b039091169063a9059cbb9062000588908490869060040162001945565b602060405180830381600087803b158015620005a357600080fd5b505af1158015620005b8573d6000803e3d6000fd5b505050506040513d601f19601f82011682018060405250810190620005de919062001504565b505050565b6000620005f382840184620016de565b600081815260046020818152604092839020548351630f0af2b760e21b815293519495506001600160a01b031693633c2bcadc938084019390829003018186803b1580156200064157600080fd5b505afa15801562000656573d6000803e3d6000fd5b505050506040513d601f19601f820116820180604052508101906200067c919062001504565b15801562000714575060008181526004602081815260409283902054835163b914a21960e01b8152935142946001600160a01b039092169363b914a219938382019390929190829003018186803b158015620006d757600080fd5b505afa158015620006ec573d6000803e3d6000fd5b505050506040513d601f19601f8201168201806040525081019062000712919062001703565b105b15620005de57600081815260046020818152604092839020548351630623d3c960e11b81529351620005de946001600160a01b0390921693630c47a792938382019390929190829003018186803b1580156200076f57600080fd5b505afa15801562000784573d6000803e3d6000fd5b505050506040513d601f19601f82011682018060405250810190620007aa919062001703565b82620010ba565b6000818152600460205260409020546001600160a01b03163314620007e95760405163639fd10760e01b815260040160405180910390fd5b6003546040516306fb8b0160e11b81526001600160a01b0390911690630df71602906200081b90859060040162001b82565b600060405180830381600087803b1580156200083657600080fd5b505af11580156200084b573d6000803e3d6000fd5b505050505050565b6000606060005b600754811015620009cf57600081815260046020818152604092839020548351630f0af2b760e21b815293516001600160a01b0390911693633c2bcadc93818101939291829003018186803b158015620008b357600080fd5b505afa158015620008c8573d6000803e3d6000fd5b505050506040513d601f19601f82011682018060405250810190620008ee919062001504565b15801562000986575060008181526004602081815260409283902054835163b914a21960e01b8152935142946001600160a01b039092169363b914a219938382019390929190829003018186803b1580156200094957600080fd5b505afa1580156200095e573d6000803e3d6000fd5b505050506040513d601f19601f8201168201806040525081019062000984919062001703565b105b15620009ba576001925080604051602001620009a3919062001b82565b6040516020818303038152906040529150620009cf565b80620009c68162001c90565b9150506200085a565b509250929050565b6000546001600160a01b0316331462000a045760405162461bcd60e51b81526004016200050e9062001b47565b62000a106000620011af565b565b6000546001600160a01b0316331462000a3f5760405162461bcd60e51b81526004016200050e9062001b47565b6002546001546008546040516001600160a01b0393841693634000aea0931691859162000a79916001600160401b03169060200162001b92565b6040516020818303038152906040526040518463ffffffff1660e01b815260040162000aa89392919062001964565b602060405180830381600087803b15801562000ac357600080fd5b505af115801562000ad8573d6000803e3d6000fd5b505050506040513d601f19601f8201168201806040525081019062000523919062001504565b6000818152600460205260409020546001600160a01b0316331462000b365760405163639fd10760e01b815260040160405180910390fd5b6003546040516326a18a5f60e21b81526001600160a01b0390911690639a86297c906200081b90859060040162001b82565b60008560075486868686600360009054906101000a90046001600160a01b031660405162000b9690620011ff565b62000ba8979695949392919062001a81565b604051809103906000f08015801562000bc5573d6000803e3d6000fd5b5060405163f2fde38b60e01b81529091506001600160a01b0382169063f2fde38b9062000bf79033906004016200190f565b600060405180830381600087803b15801562000c1257600080fd5b505af115801562000c27573d6000803e3d6000fd5b505060078054600090815260046020908152604080832080546001600160a01b0389166001600160a01b0319918216811790925533808652600585528386208754815460018181018455928952968820909601959095556006805495860181559095527ff652222313e28459528d920b65115c16c04f3efc82aaedc97be59f3f377c0d3f90930180549093168117909255925492519094509192507fdb20029c93fc1373f5a324bb07829a311f0a1812137dee42063290ea89dc4d699162000cf091906200190f565b60405180910390a36007805490600062000d0a8362001c90565b9190505550505050505050565b60008181526004602081905260408083205481516306fdde0360e01b815291516060946001600160a01b03909216936306fdde039380820193929190829003018186803b15801562000d6857600080fd5b505afa15801562000d7d573d6000803e3d6000fd5b505050506040513d6000823e601f3d908101601f1916820160405262000da7919081019062001576565b92915050565b6001600160a01b038116600090815260056020908152604080832080548251818502810185019093528083526060949383018282801562000e0e57602002820191906000526020600020905b81548152602001906001019080831162000df9575b50505050509050600081516001600160401b0381111562000e335762000e3362001cda565b60405190808252806020026020018201604052801562000e5d578160200160208202803683370190505b50905060005b825181101562000ef2576004600084838151811062000e865762000e8662001cc4565b6020026020010151815260200190815260200160002060009054906101000a90046001600160a01b031682828151811062000ec55762000ec562001cc4565b6001600160a01b03909216602092830291909101909101528062000ee98162001c90565b91505062000e63565b509392505050565b6000818152600460205260409020546001600160a01b0316331462000f325760405163639fd10760e01b815260040160405180910390fd5b600354604051632a64da6360e01b81526001600160a01b0390911690632a64da63906200081b908590600401620019e1565b6000818152600460205260409020546001600160a01b0316331462000f9c5760405163639fd10760e01b815260040160405180910390fd5b600354604051630ab714fb60e11b81526001600160a01b039091169063156e29f69062000fd290869086908690600401620019a0565b600060405180830381600087803b15801562000fed57600080fd5b505af115801562001002573d6000803e3d6000fd5b50505050505050565b6000546001600160a01b03163314620010385760405162461bcd60e51b81526004016200050e9062001b47565b6001600160a01b038116620010615760405162461bcd60e51b81526004016200050e9062001afc565b6200106c81620011af565b50565b6000828152600960209081526040808320548352600491829052918290205491516370d85d6f60e01b81526001600160a01b03909216916370d85d6f916200081b91859101620019e1565b6001546008546040516305d3b1d360e41b81526000926001600160a01b031691635d3b1d309162001143917f0000000000000000000000000000000000000000000000000000000000000000916001600160401b03909116906003907f0000000000000000000000000000000000000000000000000000000000000000908a9060040162001a18565b602060405180830381600087803b1580156200115e57600080fd5b505af115801562001173573d6000803e3d6000fd5b505050506040513d601f19601f8201168201806040525081019062001199919062001703565b6000908152600960205260409020919091555050565b600080546001600160a01b038381166001600160a01b0319831681178455604051919092169283917f8be0079c531659141344cd1fd0a4f28419497f9722a3daafe3b4186f6b6457e09190a35050565b6120b88062001d1883390190565b6000620012246200121e8462001bc1565b62001ba2565b90508083825260208201905082856020860282011115620012485762001248600080fd5b60005b85811015620012785781620012618882620013e9565b84525060209283019291909101906001016200124b565b5050509392505050565b6000620012936200121e8462001be7565b905082815260208101848484011115620012b057620012b0600080fd5b62000ef284828562001c26565b6000620012ce6200121e8462001be7565b905082815260208101848484011115620012eb57620012eb600080fd5b62000ef284828562001c32565b803562000da78162001cf0565b600082601f8301126200131b576200131b600080fd5b81356200132d8482602086016200120d565b949350505050565b805162000da78162001d07565b60008083601f840112620013595762001359600080fd5b5081356001600160401b03811115620013755762001375600080fd5b602083019150836001820283011115620013925762001392600080fd5b9250929050565b600082601f830112620013af57620013af600080fd5b81356200132d84826020860162001282565b600082601f830112620013d757620013d7600080fd5b81516200132d848260208601620012bd565b803562000da78162001d10565b805162000da78162001d10565b6000602082840312156200141a576200141a600080fd5b60006200132d8484620012f8565b60008060408385031215620014405762001440600080fd5b60006200144e8585620012f8565b92505060206200146185828601620013e9565b9150509250929050565b600080600060608486031215620014855762001485600080fd5b6000620014938686620012f8565b9350506020620014a686828701620013e9565b9250506040620014b986828701620013e9565b9150509250925092565b60008060408385031215620014db57620014db600080fd5b82356001600160401b03811115620014f657620014f6600080fd5b6200144e8582860162001305565b6000602082840312156200151b576200151b600080fd5b60006200132d848462001335565b60008060208385031215620015415762001541600080fd5b82356001600160401b038111156200155c576200155c600080fd5b6200156a8582860162001342565b92509250509250929050565b6000602082840312156200158d576200158d600080fd5b81516001600160401b03811115620015a857620015a8600080fd5b6200132d84828501620013c1565b60008060008060808587031215620015d157620015d1600080fd5b84356001600160401b03811115620015ec57620015ec600080fd5b620015fa8782880162001399565b94505060206200160d87828801620013e9565b93505060406200162087828801620013e9565b92505060606200163387828801620013e9565b91505092959194509250565b600080600080600060a086880312156200165c576200165c600080fd5b85356001600160401b03811115620016775762001677600080fd5b620016858882890162001399565b95505060206200169888828901620013e9565b9450506040620016ab88828901620013e9565b9350506060620016be88828901620013e9565b9250506080620016d188828901620013e9565b9150509295509295909350565b600060208284031215620016f557620016f5600080fd5b60006200132d8484620013e9565b6000602082840312156200171a576200171a600080fd5b60006200132d8484620013f6565b60008060408385031215620017405762001740600080fd5b60006200174e8585620013e9565b92505060206200146185828601620012f8565b60008060408385031215620017795762001779600080fd5b6000620017878585620013e9565b92505060208301356001600160401b03811115620017a857620017a8600080fd5b620014618582860162001305565b60008060408385031215620017ce57620017ce600080fd5b60006200144e8585620013e9565b6000620017ea838362001800565b505060200190565b6000620017ea8383620018ab565b6200180b8162001c14565b82525050565b60006200181c825190565b80845260209384019383018060005b8381101562001854578151620018428882620017dc565b9750602083019250506001016200182b565b509495945050505050565b60006200186a825190565b80845260209384019383018060005b8381101562001854578151620018908882620017f2565b97506020830192505060010162001879565b8015156200180b565b806200180b565b6000620018bd825190565b808452602084019350620018d681856020860162001c32565b601f01601f19169290920192915050565b61ffff81166200180b565b63ffffffff81166200180b565b6001600160401b0381166200180b565b6020810162000da7828462001800565b604081016200192f828562001800565b6200193e602083018462001800565b9392505050565b6040810162001955828562001800565b6200193e6020830184620018ab565b6060810162001974828662001800565b620019836020830185620018ab565b8181036040830152620019978184620018b2565b95945050505050565b60608101620019b0828662001800565b620019bf6020830185620018ab565b6200132d6040830184620018ab565b602080825281016200193e818462001811565b602080825281016200193e81846200185f565b6040810162001a048285620018a2565b81810360208301526200132d8184620018b2565b60a0810162001a288288620018ab565b62001a376020830187620018ff565b62001a466040830186620018e7565b62001a556060830185620018f2565b62001a646080830184620018f2565b9695505050505050565b602080825281016200193e8184620018b2565b60e0808252810162001a94818a620018b2565b905062001aa56020830189620018ab565b62001ab46040830188620018ab565b62001ac36060830187620018ab565b62001ad26080830186620018ab565b62001ae160a0830185620018ab565b62001af060c083018462001800565b98975050505050505050565b6020808252810162000da781602681527f4f776e61626c653a206e6577206f776e657220697320746865207a65726f206160208201526564647265737360d01b604082015260600190565b60208082528181019081527f4f776e61626c653a2063616c6c6572206973206e6f7420746865206f776e657260408301526060820162000da7565b6020810162000da78284620018ab565b6020810162000da78284620018ff565b600062001bae60405190565b905062001bbc828262001c61565b919050565b60006001600160401b0382111562001bdd5762001bdd62001cda565b5060209081020190565b60006001600160401b0382111562001c035762001c0362001cda565b601f19601f83011660200192915050565b60006001600160a01b03821662000da7565b82818337506000910152565b60005b8381101562001c4f57818101518382015260200162001c35565b83811115620004025750506000910152565b601f19601f83011681018181106001600160401b038211171562001c895762001c8962001cda565b6040525050565b600060001982141562001ca75762001ca762001cae565b5060010190565b634e487b7160e01b600052601160045260246000fd5b634e487b7160e01b600052603260045260246000fd5b634e487b7160e01b600052604160045260246000fd5b62001cfb8162001c14565b81146200106c57600080fd5b80151562001cfb565b8062001cfb56fe60a06040526101f4608052600060058190556006556007805461ffff191690553480156200002c57600080fd5b50604051620020b8380380620020b88339810160408190526200004f9162000256565b6200005a33620000c7565b86516200006f9060089060208a019062000117565b506009959095556001939093556002919091556003556004556007805462010000600160b01b031916336201000002179055600a80546001600160a01b0319166001600160a01b03909216919091179055506200045e565b600080546001600160a01b038381166001600160a01b0319831681178455604051919092169283917f8be0079c531659141344cd1fd0a4f28419497f9722a3daafe3b4186f6b6457e09190a35050565b8280546200012590620003b1565b90600052602060002090601f01602090048101928262000149576000855562000194565b82601f106200016457805160ff191683800117855562000194565b8280016001018555821562000194579182015b828111156200019457825182559160200191906001019062000177565b50620001a2929150620001a6565b5090565b5b80821115620001a25760008155600101620001a7565b6000620001d4620001ce846200033f565b62000320565b905082815260208101848484011115620001f157620001f1600080fd5b620001fe8482856200037e565b509392505050565b805162000213816200043d565b92915050565b600082601f8301126200022f576200022f600080fd5b815162000241848260208601620001bd565b949350505050565b8051620002138162000457565b600080600080600080600060e0888a031215620002765762000276600080fd5b87516001600160401b03811115620002915762000291600080fd5b6200029f8a828b0162000219565b9750506020620002b28a828b0162000249565b9650506040620002c58a828b0162000249565b9550506060620002d88a828b0162000249565b9450506080620002eb8a828b0162000249565b93505060a0620002fe8a828b0162000249565b92505060c0620003118a828b0162000206565b91505092959891949750929550565b60006200032c60405190565b90506200033a8282620003e2565b919050565b60006001600160401b038211156200035b576200035b62000427565b601f19601f83011660200192915050565b60006001600160a01b03821662000213565b60005b838110156200039b57818101518382015260200162000381565b83811115620003ab576000848401525b50505050565b600281046001821680620003c657607f821691505b60208210811415620003dc57620003dc62000411565b50919050565b601f19601f83011681018181106001600160401b03821117156200040a576200040a62000427565b6040525050565b634e487b7160e01b600052602260045260246000fd5b634e487b7160e01b600052604160045260246000fd5b62000448816200036c565b81146200045457600080fd5b50565b8062000448565b608051611c3e6200047a60003960006108160152611c3e6000f3fe6080604052600436106101665760003560e01c806362d9c9a8116100d1578063a3c0b95b1161008a578063b914a21911610064578063b914a2191461041c578063e0391b0914610432578063f2fde38b14610454578063fe5c873a1461047457600080fd5b8063a3c0b95b14610398578063aa613df5146103e6578063af640d0f1461040657600080fd5b806362d9c9a8146102c3578063657bc2e7146102f057806370d85d6f14610310578063715018a6146103305780638da5cb5b14610345578063a2fb11751461036b57600080fd5b80632f366637116101235780632f3666371461023e5780633c2bcadc146102535780633ccfd60b1461026d57806343eda39e14610282578063485cc439146102985780635e38c954146102ae57600080fd5b806306fdde031461016b5780630c47a792146101965780631209b1f6146101b9578063150b7a02146101cf5780632a086dd1146101fc5780632c1fecfe14610212575b600080fd5b34801561017757600080fd5b50610180610494565b60405161018d9190611959565b60405180910390f35b3480156101a257600080fd5b506101ac60065481565b60405161018d91906119ee565b3480156101c557600080fd5b506101ac60025481565b3480156101db57600080fd5b506101ef6101ea3660046115f8565b610522565b60405161018d919061194b565b34801561020857600080fd5b506101ac60035481565b34801561021e57600080fd5b5060075461023190610100900460ff1681565b60405161018d919061193d565b61025161024c36600461170e565b610533565b005b34801561025f57600080fd5b506007546102319060ff1681565b34801561027957600080fd5b5061025161062d565b34801561028e57600080fd5b506101ac60045481565b3480156102a457600080fd5b506101ac60055481565b3480156102ba57600080fd5b506102516106db565b3480156102cf57600080fd5b506101ac6102de36600461170e565b600d6020526000908152604090205481565b3480156102fc57600080fd5b5061025161030b366004611677565b6107c6565b34801561031c57600080fd5b5061025161032b3660046116b2565b6109f5565b34801561033c57600080fd5b50610251610d33565b34801561035157600080fd5b506000546001600160a01b031660405161018d9190611888565b34801561037757600080fd5b506101ac61038636600461170e565b600c6020526000908152604090205481565b3480156103a457600080fd5b506103d86103b336600461170e565b600b60205260009081526040902080546001909101546001600160a01b039091169082565b60405161018d9291906118be565b3480156103f257600080fd5b506102516104013660046116b2565b610d69565b34801561041257600080fd5b506101ac60095481565b34801561042857600080fd5b506101ac60015481565b34801561043e57600080fd5b50610447610fe1565b60405161018d91906118fb565b34801561046057600080fd5b5061025161046f3660046115b6565b6110bc565b34801561048057600080fd5b5061025161048f36600461170e565b611115565b600880546104a190611af5565b80601f01602080910402602001604051908101604052809291908181526020018280546104cd90611af5565b801561051a5780601f106104ef5761010080835404028352916020019161051a565b820191906000526020600020905b8154815290600101906020018083116104fd57829003601f168201915b505050505081565b630a85bd0160e11b5b949350505050565b60075460ff161561055757604051635dd633dd60e11b815260040160405180910390fd5b60045481111561057a5760405163ef07058b60e01b815260040160405180910390fd5b806002546105889190611a8d565b34146105a757604051631a8fabd760e11b815260040160405180910390fd5b60075460095460405163743865b360e11b8152620100009092046001600160a01b03169163e870cb66916105e191339186916004016118e0565b600060405180830381600087803b1580156105fb57600080fd5b505af115801561060f573d6000803e3d6000fd5b5050505080600560008282546106259190611a75565b909155505050565b6000546001600160a01b031633146106605760405162461bcd60e51b8152600401610657906119b4565b60405180910390fd5b60075460ff1661068357604051635a7c82d160e11b815260040160405180910390fd5b600754610100900460ff16156106ac57604051631b8541f760e21b815260040160405180910390fd5b60405133904780156108fc02916000818181858888f193505050501580156106d8573d6000803e3d6000fd5b50565b6000546001600160a01b031633146107055760405162461bcd60e51b8152600401610657906119b4565b600754610100900460ff1661072d5760405163bfbef1dd60e01b815260040160405180910390fd5b60005b6006548110156106d8576000818152600b60205260409081902080546001909101549151632142170760e11b81526001600160a01b03909116916342842e0e91610781913091339190600401611896565b600060405180830381600087803b15801561079b57600080fd5b505af11580156107af573d6000803e3d6000fd5b5050505080806107be90611b49565b915050610730565b6000546001600160a01b031633146107f05760405162461bcd60e51b8152600401610657906119b4565b60075460ff161561081457604051635dd633dd60e11b815260040160405180910390fd5b7f000000000000000000000000000000000000000000000000000000000000000081516006546108449190611a75565b111561086357604051630bf8105560e41b815260040160405180910390fd5b60005b81518110156109ba5781818151811061088157610881611bba565b6020026020010151600001516001600160a01b03166342842e0e33308585815181106108af576108af611bba565b6020026020010151602001516040518463ffffffff1660e01b81526004016108d993929190611896565b600060405180830381600087803b1580156108f357600080fd5b505af1158015610907573d6000803e3d6000fd5b5050505081818151811061091d5761091d611bba565b602090810291909101810151516006546000908152600b909252604090912080546001600160a01b0319166001600160a01b03909216919091179055815182908290811061096d5761096d611bba565b602002602001015160200151600b60006006548152602001908152602001600020600101819055506006600081546109a490611b49565b90915550806109b281611b49565b915050610866565b507fa961e4c946cc27cb5f996af2c94a2cc494908c3f492332744a94ed514b0b9883816040516109ea91906118fb565b60405180910390a150565b6007546201000090046001600160a01b03163314610a2657604051631b8541f760e21b815260040160405180910390fd5b60075460ff1615610a4a57604051635dd633dd60e11b815260040160405180910390fd5b600654815114610a6d57604051634de07a8160e11b815260040160405180910390fd5b600354600554111580610a835750600654600554105b15610a9c576007805461ff001916610100179055610d23565b600060065467ffffffffffffffff811115610ab957610ab9611bd0565b604051908082528060200260200182016040528015610ae2578160200160208202803683370190505b50905060005b600654811015610ce957600a5460095460055485516000936001600160a01b0316926378df3a52929091889087908110610b2457610b24611bba565b6020026020010151610b369190611b64565b6040518363ffffffff1660e01b8152600401610b539291906119fc565b60206040518083038186803b158015610b6b57600080fd5b505afa158015610b7f573d6000803e3d6000fd5b505050506040513d601f19601f82011682018060405250810190610ba3919061172f565b600a546040516301c7245160e31b81529192506001600160a01b031690630e39228890610bd49084906004016119ee565b60206040518083038186803b158015610bec57600080fd5b505afa158015610c00573d6000803e3d6000fd5b505050506040513d601f19601f82011682018060405250810190610c2491906116ed565b610ce3576007546009546040516368cbce3160e01b8152620100009092046001600160a01b0316916368cbce3191610c61918591906004016119fc565b600060405180830381600087803b158015610c7b57600080fd5b505af1158015610c8f573d6000803e3d6000fd5b5050506000838152600c60209081526040808320859055848352600d90915290208390555082518190849084908110610cca57610cca611bba565b602090810291909101015281610cdf81611b49565b9250505b50610ae8565b7f87b7fb8a3c2f4643bf00b96a21a524e0f5153da68019604de93ba8385461138782604051610d18919061190c565b60405180910390a150505b506007805460ff19166001179055565b6000546001600160a01b03163314610d5d5760405162461bcd60e51b8152600401610657906119b4565b610d676000611371565b565b600754610100900460ff16610d915760405163bfbef1dd60e01b815260040160405180910390fd5b60005b8151811015610f2e57600a54825133916001600160a01b031690636352211e90859085908110610dc657610dc6611bba565b60200260200101516040518263ffffffff1660e01b8152600401610dea91906119ee565b60206040518083038186803b158015610e0257600080fd5b505afa158015610e16573d6000803e3d6000fd5b505050506040513d601f19601f82011682018060405250810190610e3a91906115d7565b6001600160a01b031614610e6157604051631b8541f760e21b815260040160405180910390fd5b600a5482516001600160a01b03909116906355866c8d90849084908110610e8a57610e8a611bba565b60200260200101516040518263ffffffff1660e01b8152600401610eae91906119ee565b60206040518083038186803b158015610ec657600080fd5b505afa158015610eda573d6000803e3d6000fd5b505050506040513d601f19601f82011682018060405250810190610efe91906116ed565b15610f1c5760405163bfbef1dd60e01b815260040160405180910390fd5b80610f2681611b49565b915050610d94565b506007546009546040516219603d60eb1b8152620100009092046001600160a01b03169163cb01e80091610f679185919060040161191d565b600060405180830381600087803b158015610f8157600080fd5b505af1158015610f95573d6000803e3d6000fd5b50505050336001600160a01b03166108fc8251600254610fb59190611a8d565b6040518115909202916000818181858888f19350505050158015610fdd573d6000803e3d6000fd5b5050565b6060600060065467ffffffffffffffff81111561100057611000611bd0565b60405190808252806020026020018201604052801561104557816020015b604080518082019091526000808252602082015281526020019060019003908161101e5790505b50905060005b6006548110156110b6576000818152600b6020908152604091829020825180840190935280546001600160a01b031683526001015490820152825183908390811061109857611098611bba565b602002602001018190525080806110ae90611b49565b91505061104b565b50919050565b6000546001600160a01b031633146110e65760405162461bcd60e51b8152600401610657906119b4565b6001600160a01b03811661110c5760405162461bcd60e51b81526004016106579061196a565b6106d881611371565b60075460ff1661113857604051635a7c82d160e11b815260040160405180910390fd5b600a546040516331a9108f60e11b815233916001600160a01b031690636352211e906111689085906004016119ee565b60206040518083038186803b15801561118057600080fd5b505afa158015611194573d6000803e3d6000fd5b505050506040513d601f19601f820116820180604052508101906111b891906115d7565b6001600160a01b0316146111df57604051631b8541f760e21b815260040160405180910390fd5b600a54604051639e34070f60e01b81526001600160a01b0390911690639e34070f9061120f9084906004016119ee565b60206040518083038186803b15801561122757600080fd5b505afa15801561123b573d6000803e3d6000fd5b505050506040513d601f19601f8201168201806040525081019061125f91906116ed565b1561127d57604051631b8541f760e21b815260040160405180910390fd5b6000818152600d60209081526040808320548352600b9091529081902080546001909101549151632142170760e11b81526001600160a01b03909116916342842e0e916112d1913091339190600401611896565b600060405180830381600087803b1580156112eb57600080fd5b505af11580156112ff573d6000803e3d6000fd5b505060075460095460405163a16c6a7360e01b8152620100009092046001600160a01b0316935063a16c6a73925061133c918591906004016119fc565b600060405180830381600087803b15801561135657600080fd5b505af115801561136a573d6000803e3d6000fd5b5050505050565b600080546001600160a01b038381166001600160a01b0319831681178455604051919092169283917f8be0079c531659141344cd1fd0a4f28419497f9722a3daafe3b4186f6b6457e09190a35050565b60006113d46113cf84611a26565b611a0a565b838152905060208101826040850281018610156113f3576113f3600080fd5b60005b8581101561142157816114098882611556565b845250602090920191604091909101906001016113f6565b5050509392505050565b60006114396113cf84611a26565b9050808382526020820190508285602086028201111561145b5761145b600080fd5b60005b85811015611421578161147188826115a0565b845250602092830192919091019060010161145e565b60006114956113cf84611a4a565b9050828152602081018484840111156114b0576114b0600080fd5b6114bb848285611abd565b509392505050565b80356114ce81611be6565b92915050565b80516114ce81611be6565b600082601f8301126114f3576114f3600080fd5b813561052b8482602086016113c1565b600082601f83011261151757611517600080fd5b813561052b84826020860161142b565b80516114ce81611bfa565b600082601f83011261154657611546600080fd5b813561052b848260208601611487565b60006040828403121561156b5761156b600080fd5b6115756040611a0a565b9050600061158384846114c3565b8252506020611594848483016115a0565b60208301525092915050565b80356114ce81611c02565b80516114ce81611c02565b6000602082840312156115cb576115cb600080fd5b600061052b84846114c3565b6000602082840312156115ec576115ec600080fd5b600061052b84846114d4565b6000806000806080858703121561161157611611600080fd5b600061161d87876114c3565b945050602061162e878288016114c3565b935050604061163f878288016115a0565b925050606085013567ffffffffffffffff81111561165f5761165f600080fd5b61166b87828801611532565b91505092959194509250565b60006020828403121561168c5761168c600080fd5b813567ffffffffffffffff8111156116a6576116a6600080fd5b61052b848285016114df565b6000602082840312156116c7576116c7600080fd5b813567ffffffffffffffff8111156116e1576116e1600080fd5b61052b84828501611503565b60006020828403121561170257611702600080fd5b600061052b8484611527565b60006020828403121561172357611723600080fd5b600061052b84846115a0565b60006020828403121561174457611744600080fd5b600061052b84846115ab565b600061175c8383611858565b505060400190565b60006117708383611882565b505060200190565b61178181611aac565b82525050565b6000611791825190565b80845260209384019383018060005b838110156117c55781516117b48882611750565b9750602083019250506001016117a0565b509495945050505050565b60006117da825190565b80845260209384019383018060005b838110156117c55781516117fd8882611764565b9750602083019250506001016117e9565b801515611781565b6001600160e01b03198116611781565b6000611830825190565b808452602084019350611847818560208601611ac9565b601f01601f19169290920192915050565b805160408301906118698482611778565b50602082015161187c6020850182611882565b50505050565b80611781565b602081016114ce8284611778565b606081016118a48286611778565b6118b16020830185611778565b61052b6040830184611882565b604081016118cc8285611778565b6118d96020830184611882565b9392505050565b606081016118ee8286611778565b6118b16020830185611882565b602080825281016118d98184611787565b602080825281016118d981846117d0565b6040808252810161192e81856117d0565b90506118d96020830184611882565b602081016114ce828461180e565b602081016114ce8284611816565b602080825281016118d98184611826565b602080825281016114ce81602681527f4f776e61626c653a206e6577206f776e657220697320746865207a65726f206160208201526564647265737360d01b604082015260600190565b60208082528181019081527f4f776e61626c653a2063616c6c6572206973206e6f7420746865206f776e65726040830152606082016114ce565b602081016114ce8284611882565b604081016118cc8285611882565b6000611a1560405190565b9050611a218282611b1c565b919050565b600067ffffffffffffffff821115611a4057611a40611bd0565b5060209081020190565b600067ffffffffffffffff821115611a6457611a64611bd0565b601f19601f83011660200192915050565b60008219821115611a8857611a88611b78565b500190565b6000816000190483118215151615611aa757611aa7611b78565b500290565b60006001600160a01b0382166114ce565b82818337506000910152565b60005b83811015611ae4578181015183820152602001611acc565b8381111561187c5750506000910152565b600281046001821680611b0957607f821691505b602082108114156110b6576110b6611ba4565b601f19601f830116810181811067ffffffffffffffff82111715611b4257611b42611bd0565b6040525050565b6000600019821415611b5d57611b5d611b78565b5060010190565b600082611b7357611b73611b8e565b500690565b634e487b7160e01b600052601160045260246000fd5b634e487b7160e01b600052601260045260246000fd5b634e487b7160e01b600052602260045260246000fd5b634e487b7160e01b600052603260045260246000fd5b634e487b7160e01b600052604160045260246000fd5b611bef81611aac565b81146106d857600080fd5b801515611bef565b80611bef56fea264697066735822122004b6aa02273f693ec8a8d36198a86cbcedf192310aa2e7ddbd0f024081227bf264736f6c63430008070033a264697066735822122051fd0d592fb2609d01be5c1f274a90d6cef0f8452473c1910d21ada50543a3f564736f6c63430008070033610100604052604260808181529062002e1860a03980516200002a9160129160209091019062000194565b5060405180608001604052806042815260200162002dd66042913980516200005b9160139160209091019062000194565b503480156200006957600080fd5b5060405162002e5a38038062002e5a8339810160408190526200008c916200024d565b6040805180820182526012815271151a194814185b991bdc9848151a58dad95d60721b60208083019182528351808501909452600784526650414e444f524160c81b908401528151919291620000e59160009162000194565b508051620000fb90600190602084019062000194565b50505062000118620001126200013e60201b60201c565b62000142565b600b80546001600160a01b0319166001600160a01b0392909216919091179055620002ed565b3390565b600a80546001600160a01b038381166001600160a01b0319831681179093556040519116919082907f8be0079c531659141344cd1fd0a4f28419497f9722a3daafe3b4186f6b6457e090600090a35050565b828054620001a2906200028c565b90600052602060002090601f016020900481019282620001c6576000855562000211565b82601f10620001e157805160ff191683800117855562000211565b8280016001018555821562000211579182015b8281111562000211578251825591602001919060010190620001f4565b506200021f92915062000223565b5090565b5b808211156200021f576000815560010162000224565b80516200024781620002d3565b92915050565b600060208284031215620002645762000264600080fd5b60006200027284846200023a565b949350505050565b60006001600160a01b03821662000247565b600281046001821680620002a157607f821691505b60208210811415620002b757620002b7620002bd565b50919050565b634e487b7160e01b600052602260045260246000fd5b620002de816200027a565b8114620002ea57600080fd5b50565b612ad980620002fd6000396000f3fe608060405234801561001057600080fd5b50600436106101e55760003560e01c806370a082311161010f5780639e34070f116100a2578063c87b56dd11610071578063c87b56dd14610439578063e7a3fc111461044c578063e985e9c51461045f578063f2fde38b1461049b57600080fd5b80639e34070f146103d0578063a22cb465146103f3578063b68c8fad14610406578063b88d4fde1461042657600080fd5b80638da5cb5b116100de5780638da5cb5b1461039a57806395d89b41146103ab57806398bdf6f5146103b35780639a86297c146103bd57600080fd5b806370a082311461034c578063715018a61461035f578063781334af1461036757806378df3a521461038757600080fd5b806318160ddd1161018757806342842e0e1161015657806342842e0e146102f05780634f6ccce71461030357806355866c8d146103165780636352211e1461033957600080fd5b806318160ddd146102a657806323b872dd146102b75780632a64da63146102ca5780632f745c59146102dd57600080fd5b8063095ea7b3116101c3578063095ea7b3146102485780630df716021461025d5780630e39228814610270578063156e29f61461029357600080fd5b806301ffc9a7146101ea57806306fdde0314610213578063081812fc14610228575b600080fd5b6101fd6101f8366004611e0a565b6104ae565b60405161020a91906126d6565b60405180910390f35b61021b6104d9565b60405161020a91906126e4565b61023b610236366004611e87565b61056b565b60405161020a9190612673565b61025b610256366004611d67565b6105c4565b005b61025b61026b366004611e87565b61064a565b6101fd61027e366004611e87565b600e6020526000908152604090205460ff1681565b61025b6102a1366004611d9a565b610690565b6008545b60405161020a9190612805565b61025b6102c5366004611c65565b61072f565b61025b6102d8366004611dcf565b610760565b6102aa6102eb366004611d67565b6107f3565b61025b6102fe366004611c65565b610845565b6102aa610311366004611e87565b610860565b6101fd610324366004611e87565b600f6020526000908152604090205460ff1681565b61023b610347366004611e87565b6108ae565b6102aa61035a366004611be6565b6108e3565b61025b610927565b6102aa610375366004611e87565b600c6020526000908152604090205481565b6102aa610395366004611ec9565b61095d565b600a546001600160a01b031661023b565b61021b61098e565b6011546102aa9081565b61025b6103cb366004611e87565b61099d565b6101fd6103de366004611e87565b60106020526000908152604090205460ff1681565b61025b610401366004611d34565b610a12565b610419610414366004611e87565b610a1d565b60405161020a91906126c5565b61025b610434366004611cb5565b610b1b565b61021b610447366004611e87565b610b4d565b61041961045a366004611e87565b610ed0565b6101fd61046d366004611c28565b6001600160a01b03918216600090815260056020908152604080832093909416825291909152205460ff1690565b61025b6104a9366004611be6565b610f32565b60006001600160e01b0319821663780e9d6360e01b14806104d357506104d382610f8e565b92915050565b6060600080546104e890612924565b80601f016020809104026020016040519081016040528092919081815260200182805461051490612924565b80156105615780601f1061053657610100808354040283529160200191610561565b820191906000526020600020905b81548152906001019060200180831161054457829003601f168201915b5050505050905090565b6000818152600260205260408120546001600160a01b03166105a85760405162461bcd60e51b815260040161059f906127b5565b60405180910390fd5b506000908152600460205260409020546001600160a01b031690565b60006105cf826108ae565b9050806001600160a01b0316836001600160a01b031614156106035760405162461bcd60e51b815260040161059f906127d5565b336001600160a01b038216148061061f575061061f813361046d565b61063b5760405162461bcd60e51b815260040161059f90612775565b6106458383610fde565b505050565b600b546001600160a01b03163314610675576040516307b0730b60e21b815260040160405180910390fd5b6000908152600e60205260409020805460ff19166001179055565b600b546001600160a01b031633146106bb576040516307b0730b60e21b815260040160405180910390fd5b60005b828110156107295760006106d160115490565b90506106e1601180546001019055565b6106eb858261104c565b6000818152600c60209081526040808320869055858352600d82528220805460018101825590835291200155806107218161297e565b9150506106be565b50505050565b6107393382611066565b6107555760405162461bcd60e51b815260040161059f906127e5565b610645838383611118565b600b546001600160a01b0316331461078b576040516307b0730b60e21b815260040160405180910390fd5b60005b81518110156107ef576001600f60008484815181106107af576107af612a05565b6020026020010151815260200190815260200160002060006101000a81548160ff02191690831515021790555080806107e79061297e565b91505061078e565b5050565b60006107fe836108e3565b821061081c5760405162461bcd60e51b815260040161059f906126f5565b506001600160a01b03919091166000908152600660209081526040808320938352929052205490565b61064583838360405180602001604052806000815250610b1b565b600061086b60085490565b82106108895760405162461bcd60e51b815260040161059f906127f5565b6008828154811061089c5761089c612a05565b90600052602060002001549050919050565b6000818152600260205260408120546001600160a01b0316806104d35760405162461bcd60e51b815260040161059f90612795565b60006001600160a01b03821661090b5760405162461bcd60e51b815260040161059f90612785565b506001600160a01b031660009081526003602052604090205490565b600a546001600160a01b031633146109515760405162461bcd60e51b815260040161059f906127c5565b61095b6000611245565b565b600d602052816000526040600020818154811061097957600080fd5b90600052602060002001600091509150505481565b6060600180546104e890612924565b600b546001600160a01b031633146109c8576040516307b0730b60e21b815260040160405180910390fd5b6000818152600e602052604090205460ff166109f7576040516307b0730b60e21b815260040160405180910390fd5b6000908152601060205260409020805460ff19166001179055565b6107ef338383611297565b60606000610a2a83610ed0565b90506000815167ffffffffffffffff811115610a4857610a48612a1b565b604051908082528060200260200182016040528015610a71578160200160208202803683370190505b5090506000805b8351811015610b1157336001600160a01b0316610aad858381518110610aa057610aa0612a05565b60200260200101516108ae565b6001600160a01b03161415610aff57838181518110610ace57610ace612a05565b6020026020010151838381518110610ae857610ae8612a05565b6020908102919091010152610afc8261297e565b91505b80610b098161297e565b915050610a78565b5090949350505050565b610b253383611066565b610b415760405162461bcd60e51b815260040161059f906127e5565b6107298484848461133a565b6060600060128054610b5e90612924565b80601f0160208091040260200160405190810160405280929190818152602001828054610b8a90612924565b8015610bd75780601f10610bac57610100808354040283529160200191610bd7565b820191906000526020600020905b815481529060010190602001808311610bba57829003601f168201915b5050506000868152600e6020526040902054929350505060ff1615610c845760138054610c0390612924565b80601f0160208091040260200160405190810160405280929190818152602001828054610c2f90612924565b8015610c7c5780601f10610c5157610100808354040283529160200191610c7c565b820191906000526020600020905b815481529060010190602001808311610c5f57829003601f168201915b505050505090505b610ea9610c908461136d565b6000858152600c6020526040902054610ca89061136d565b600b546000878152600c6020526040908190205490516359f1578360e11b81526001600160a01b039092169163b3e2af0691610ce691600401612805565b60006040518083038186803b158015610cfe57600080fd5b505afa158015610d12573d6000803e3d6000fd5b505050506040513d6000823e601f3d908101601f19168201604052610d3a9190810190611e4c565b6000878152600e6020526040902054610d5e90610d599060ff1661146b565b61136d565b6000888152600f6020526040902054610d7d90610d599060ff1661146b565b600b5460008a8152600c6020526040908190205490516350c677f760e11b8152610e7e926001600160a01b03169163a18cefee91610dbe9190600401612805565b60206040518083038186803b158015610dd657600080fd5b505afa158015610dea573d6000803e3d6000fd5b505050506040513d601f19601f82011682018060405250810190610e0e9190611c07565b6001600160a01b031663b914a2196040518163ffffffff1660e01b815260040160206040518083038186803b158015610e4657600080fd5b505afa158015610e5a573d6000803e3d6000fd5b505050506040513d601f19601f82011682018060405250810190610d599190611ea8565b87604051602001610e95979695949392919061250d565b604051602081830303815290604052611488565b604051602001610eb991906124ef565b604051602081830303815290604052915050919050565b6000818152600d6020908152604091829020805483518184028101840190945280845260609392830182828015610f2657602002820191906000526020600020905b815481526020019060010190808311610f12575b50505050509050919050565b600a546001600160a01b03163314610f5c5760405162461bcd60e51b815260040161059f906127c5565b6001600160a01b038116610f825760405162461bcd60e51b815260040161059f90612715565b610f8b81611245565b50565b60006001600160e01b031982166380ac58cd60e01b1480610fbf57506001600160e01b03198216635b5e139f60e01b145b806104d357506301ffc9a760e01b6001600160e01b03198316146104d3565b600081815260046020526040902080546001600160a01b0319166001600160a01b0384169081179091558190611013826108ae565b6001600160a01b03167f8c5be1e5ebec7d5bd14f71427d1e84f3dd0314c0f7b2291e5b200ac8c7c3b92560405160405180910390a45050565b6107ef8282604051806020016040528060008152506115dc565b6000818152600260205260408120546001600160a01b031661109a5760405162461bcd60e51b815260040161059f90612765565b60006110a5836108ae565b9050806001600160a01b0316846001600160a01b031614806110ec57506001600160a01b0380821660009081526005602090815260408083209388168352929052205460ff165b806111105750836001600160a01b03166111058461056b565b6001600160a01b0316145b949350505050565b826001600160a01b031661112b826108ae565b6001600160a01b0316146111515760405162461bcd60e51b815260040161059f90612725565b6001600160a01b0382166111775760405162461bcd60e51b815260040161059f90612745565b61118283838361160f565b61118d600082610fde565b6001600160a01b03831660009081526003602052604081208054600192906111b69084906128c4565b90915550506001600160a01b03821660009081526003602052604081208054600192906111e4908490612879565b909155505060008181526002602052604080822080546001600160a01b0319166001600160a01b0386811691821790925591518493918716917fddf252ad1be2c89b69c2b068fc378daa952ba7f163c4a11628f55a4df523b3ef91a4505050565b600a80546001600160a01b038381166001600160a01b0319831681179093556040519116919082907f8be0079c531659141344cd1fd0a4f28419497f9722a3daafe3b4186f6b6457e090600090a35050565b816001600160a01b0316836001600160a01b031614156112c95760405162461bcd60e51b815260040161059f90612755565b6001600160a01b0383811660008181526005602090815260408083209487168084529490915290819020805460ff1916851515179055517f17307eab39ab6107e8899845ad3d59bd9653f200f220920489ca2b5937696c319061132d9085906126d6565b60405180910390a3505050565b611345848484611118565b611351848484846116c7565b6107295760405162461bcd60e51b815260040161059f90612705565b6060816113915750506040805180820190915260018152600360fc1b602082015290565b8160005b81156113bb57806113a58161297e565b91506113b49050600a83612891565b9150611395565b60008167ffffffffffffffff8111156113d6576113d6612a1b565b6040519080825280601f01601f191660200182016040528015611400576020820181803683370190505b5090505b8415611110576114156001836128c4565b9150611422600a86612999565b61142d906030612879565b60f81b81838151811061144257611442612a05565b60200101906001600160f81b031916908160001a905350611464600a86612891565b9450611404565b6000811561147b57506001919050565b506000919050565b919050565b60608151600014156114a857505060408051602081019091526000815290565b6000604051806060016040528060408152602001612a6460409139905060006003845160026114d79190612879565b6114e19190612891565b6114ec9060046128a5565b67ffffffffffffffff81111561150457611504612a1b565b6040519080825280601f01601f19166020018201604052801561152e576020820181803683370190505b509050600182016020820185865187015b8082101561159a576003820191508151603f8160121c168501518453600184019350603f81600c1c168501518453600184019350603f8160061c168501518453600184019350603f811685015184536001840193505061153f565b50506003865106600181146115b657600281146115c9576115d1565b603d6001830353603d60028303536115d1565b603d60018303535b509195945050505050565b6115e683836117d4565b6115f360008484846116c7565b6106455760405162461bcd60e51b815260040161059f90612705565b6001600160a01b03831661166a5761166581600880546000838152600960205260408120829055600182018355919091527ff3f7a9fe364faab93b216da50a3214154f22a0a2b415b23a84c8169e8b636ee30155565b61168d565b816001600160a01b0316836001600160a01b03161461168d5761168d83826118c2565b6001600160a01b0382166116a4576106458161195f565b826001600160a01b0316826001600160a01b031614610645576106458282611a0e565b60006001600160a01b0384163b156117c957604051630a85bd0160e11b81526001600160a01b0385169063150b7a029061170b903390899088908890600401612681565b602060405180830381600087803b15801561172557600080fd5b505af1925050508015611755575060408051601f3d908101601f1916820190925261175291810190611e2b565b60015b6117af573d808015611783576040519150601f19603f3d011682016040523d82523d6000602084013e611788565b606091505b5080516117a75760405162461bcd60e51b815260040161059f90612705565b805181602001fd5b6001600160e01b031916630a85bd0160e11b149050611110565b506001949350505050565b6001600160a01b0382166117fa5760405162461bcd60e51b815260040161059f906127a5565b6000818152600260205260409020546001600160a01b03161561182f5760405162461bcd60e51b815260040161059f90612735565b61183b6000838361160f565b6001600160a01b0382166000908152600360205260408120805460019290611864908490612879565b909155505060008181526002602052604080822080546001600160a01b0319166001600160a01b03861690811790915590518392907fddf252ad1be2c89b69c2b068fc378daa952ba7f163c4a11628f55a4df523b3ef908290a45050565b600060016118cf846108e3565b6118d991906128c4565b60008381526007602052604090205490915080821461192c576001600160a01b03841660009081526006602090815260408083208584528252808320548484528184208190558352600790915290208190555b5060009182526007602090815260408084208490556001600160a01b039094168352600681528383209183525290812055565b600854600090611971906001906128c4565b6000838152600960205260408120546008805493945090928490811061199957611999612a05565b9060005260206000200154905080600883815481106119ba576119ba612a05565b60009182526020808320909101929092558281526009909152604080822084905585825281205560088054806119f2576119f26129ef565b6001900381819060005260206000200160009055905550505050565b6000611a19836108e3565b6001600160a01b039093166000908152600660209081526040808320868452825280832085905593825260079052919091209190915550565b6000611a65611a608461282a565b612813565b90508083825260208201905082856020860282011115611a8757611a87600080fd5b60005b85811015611ab35781611a9d8882611bd0565b8452506020928301929190910190600101611a8a565b5050509392505050565b6000611acb611a608461284e565b905082815260208101848484011115611ae657611ae6600080fd5b611af18482856128ec565b509392505050565b6000611b07611a608461284e565b905082815260208101848484011115611b2257611b22600080fd5b611af18482856128f8565b80356104d381612a31565b80516104d381612a31565b600082601f830112611b5757611b57600080fd5b8135611110848260208601611a52565b80356104d381612a45565b80356104d381612a4d565b80516104d381612a4d565b600082601f830112611b9c57611b9c600080fd5b8135611110848260208601611abd565b600082601f830112611bc057611bc0600080fd5b8151611110848260208601611af9565b80356104d381612a5d565b80516104d381612a5d565b600060208284031215611bfb57611bfb600080fd5b60006111108484611b2d565b600060208284031215611c1c57611c1c600080fd5b60006111108484611b38565b60008060408385031215611c3e57611c3e600080fd5b6000611c4a8585611b2d565b9250506020611c5b85828601611b2d565b9150509250929050565b600080600060608486031215611c7d57611c7d600080fd5b6000611c898686611b2d565b9350506020611c9a86828701611b2d565b9250506040611cab86828701611bd0565b9150509250925092565b60008060008060808587031215611cce57611cce600080fd5b6000611cda8787611b2d565b9450506020611ceb87828801611b2d565b9350506040611cfc87828801611bd0565b925050606085013567ffffffffffffffff811115611d1c57611d1c600080fd5b611d2887828801611b88565b91505092959194509250565b60008060408385031215611d4a57611d4a600080fd5b6000611d568585611b2d565b9250506020611c5b85828601611b67565b60008060408385031215611d7d57611d7d600080fd5b6000611d898585611b2d565b9250506020611c5b85828601611bd0565b600080600060608486031215611db257611db2600080fd5b6000611dbe8686611b2d565b9350506020611c9a86828701611bd0565b600060208284031215611de457611de4600080fd5b813567ffffffffffffffff811115611dfe57611dfe600080fd5b61111084828501611b43565b600060208284031215611e1f57611e1f600080fd5b60006111108484611b72565b600060208284031215611e4057611e40600080fd5b60006111108484611b7d565b600060208284031215611e6157611e61600080fd5b815167ffffffffffffffff811115611e7b57611e7b600080fd5b61111084828501611bac565b600060208284031215611e9c57611e9c600080fd5b60006111108484611bd0565b600060208284031215611ebd57611ebd600080fd5b60006111108484611bdb565b60008060408385031215611edf57611edf600080fd5b6000611d898585611bd0565b6000611ef783836124e9565b505060200190565b611f08816128db565b82525050565b6000611f18825190565b80845260209384019383018060005b83811015611f4c578151611f3b8882611eeb565b975060208301925050600101611f27565b509495945050505050565b801515611f08565b6000611f69825190565b808452602084019350611f808185602086016128f8565b601f01601f19169290920192915050565b6000611f9b825190565b611fa98185602086016128f8565b9290920192915050565b602b81526000602082017f455243373231456e756d657261626c653a206f776e657220696e646578206f7581526a74206f6620626f756e647360a81b602082015291505b5060400190565b603281526000602082017f4552433732313a207472616e7366657220746f206e6f6e20455243373231526581527131b2b4bb32b91034b6b83632b6b2b73a32b960711b60208201529150611ff7565b711116101134b9a932b33ab73232b2111d101160711b815260005b5060120190565b602681526000602082017f4f776e61626c653a206e6577206f776e657220697320746865207a65726f206181526564647265737360d01b60208201529150611ff7565b602581526000602082017f4552433732313a207472616e736665722066726f6d20696e636f72726563742081526437bbb732b960d91b60208201529150611ff7565b601c81526000602082017f4552433732313a20746f6b656e20616c7265616479206d696e74656400000000815291505b5060200190565b602481526000602082017f4552433732313a207472616e7366657220746f20746865207a65726f206164648152637265737360e01b60208201529150611ff7565b601981526000602082017f4552433732313a20617070726f766520746f2063616c6c65720000000000000081529150612124565b602c81526000602082017f4552433732313a206f70657261746f7220717565727920666f72206e6f6e657881526b34b9ba32b73a103a37b5b2b760a11b60208201529150611ff7565b603881526000602082017f4552433732313a20617070726f76652063616c6c6572206973206e6f74206f7781527f6e6572206e6f7220617070726f76656420666f7220616c6c000000000000000060208201529150611ff7565b602a81526000602082017f4552433732313a2062616c616e636520717565727920666f7220746865207a65815269726f206164647265737360b01b60208201529150611ff7565b602981526000602082017f4552433732313a206f776e657220717565727920666f72206e6f6e657869737481526832b73a103a37b5b2b760b91b60208201529150611ff7565b61227d60f01b815260005b5060020190565b60208082527f4552433732313a206d696e7420746f20746865207a65726f206164647265737391019081526000612124565b602c81526000602082017f4552433732313a20617070726f76656420717565727920666f72206e6f6e657881526b34b9ba32b73a103a37b5b2b760a11b60208201529150611ff7565b71111610113232b9b1b934b83a34b7b7111d1160711b81526000612068565b60208082527f4f776e61626c653a2063616c6c6572206973206e6f7420746865206f776e657291019081526000612124565b602181526000602082017f4552433732313a20617070726f76616c20746f2063757272656e74206f776e658152603960f91b60208201529150611ff7565b7f646174613a6170706c69636174696f6e2f6a736f6e3b6261736536342c000000815260005b50601d0190565b603181526000602082017f4552433732313a207472616e736665722063616c6c6572206973206e6f74206f8152701ddb995c881b9bdc88185c1c1c9bdd9959607a1b60208201529150611ff7565b602c81526000602082017f455243373231456e756d657261626c653a20676c6f62616c20696e646578206f81526b7574206f6620626f756e647360a01b60208201529150611ff7565b6101d160f51b815260006122db565b7f7b226e616d65223a225468652050616e646f7261205469636b6574202300000081526000612412565b80611f08565b60006124fa826123ec565b91506125068284611f91565b9392505050565b6000612518826124bf565b9150612524828a611f91565b915061252f8261235d565b7f54686973207469636b65742069732067656e6572617465642066726f6d204c6f8152666f74626f78202360c81b602082015260270191506125718289611f91565b915061257c826124b0565b91506125888288611f91565b7f2120596f7520686176652061206368616e636520746f2077696e207072697a6581527f7320696e73696465207468652050616e646f726120426f78210000000000000060208201526f1116101134b9abb4b73732b9111d101160811b603982015260490191506125f98287611f91565b91506126048261204d565b91506126108286611f91565b7311161011323930bbaa34b6b2b9ba30b6b8111d1160611b815260140191506126398285611f91565b6c1116101134b6b0b3b2911d101160991b8152600d01915061265b8284611f91565b9150612666826122d0565b9998505050505050505050565b602081016104d38284611eff565b6080810161268f8287611eff565b61269c6020830186611eff565b6126a960408301856124e9565b81810360608301526126bb8184611f5f565b9695505050505050565b602080825281016125068184611f0e565b602081016104d38284611f57565b602080825281016125068184611f5f565b602080825281016104d381611fb3565b602080825281016104d381611ffe565b602080825281016104d38161206f565b602080825281016104d3816120b2565b602080825281016104d3816120f4565b602080825281016104d38161212b565b602080825281016104d38161216c565b602080825281016104d3816121a0565b602080825281016104d3816121e9565b602080825281016104d381612243565b602080825281016104d38161228a565b602080825281016104d3816122e2565b602080825281016104d381612314565b602080825281016104d38161237c565b602080825281016104d3816123ae565b602080825281016104d381612419565b602080825281016104d381612467565b602081016104d382846124e9565b600061281e60405190565b90506114838282612951565b600067ffffffffffffffff82111561284457612844612a1b565b5060209081020190565b600067ffffffffffffffff82111561286857612868612a1b565b601f19601f83011660200192915050565b6000821982111561288c5761288c6129ad565b500190565b6000826128a0576128a06129c3565b500490565b60008160001904831182151516156128bf576128bf6129ad565b500290565b6000828210156128d6576128d66129ad565b500390565b60006001600160a01b0382166104d3565b82818337506000910152565b60005b838110156129135781810151838201526020016128fb565b838111156107295750506000910152565b60028104600182168061293857607f821691505b6020821081141561294b5761294b6129d9565b50919050565b601f19601f830116810181811067ffffffffffffffff8211171561297757612977612a1b565b6040525050565b6000600019821415612992576129926129ad565b5060010190565b6000826129a8576129a86129c3565b500690565b634e487b7160e01b600052601160045260246000fd5b634e487b7160e01b600052601260045260246000fd5b634e487b7160e01b600052602260045260246000fd5b634e487b7160e01b600052603160045260246000fd5b634e487b7160e01b600052603260045260246000fd5b634e487b7160e01b600052604160045260246000fd5b612a3a816128db565b8114610f8b57600080fd5b801515612a3a565b6001600160e01b03198116612a3a565b80612a3a56fe4142434445464748494a4b4c4d4e4f505152535455565758595a6162636465666768696a6b6c6d6e6f707172737475767778797a303132333435363738392b2fa2646970667358221220e76ef5d1ff5a5f2eceed2b949ca1485e112749ad09c1c2501feddb5cff800b2a64736f6c63430008070033697066733a2f2f62616679626569617637377633346c6e373276626e6f7a70726b7a666c6f717674776c623565616f68696e746b6a69766170327470346774716469697066733a2f2f6261666b726569676d356972377679697269636e6c323361376262627a69337665327472367635347069327175737666757932726c647563337765",
  "linkReferences": {},
  "deployedLinkReferences": {}
}