{
  "_format": "hh-sol-artifact-1",
  "contractName": "LootboxFactory",
  "sourceName": "contracts/LootboxFactory.sol",
  "abi": [
    {
      "inputs": [
        {
          "internalType": "address",
          "name": "_vrfCoordinator",
          "type": "address"
        },
        {
          "internalType": "address",
          "name": "_linkTokenContract",
          "type": "address"
        },
        {
          "internalType": "bytes32",
          "name": "_gasLane",
          "type": "bytes32"
        }
      ],
      "stateMutability": "nonpayable",
      "type": "constructor"
    },
    {
      "inputs": [],
      "name": "LootboxFactory__Unauthorized",
      "type": "error"
    },
    {
      "inputs": [
        {
          "internalType": "address",
          "name": "have",
          "type": "address"
        },
        {
          "internalType": "address",
          "name": "want",
          "type": "address"
        }
      ],
      "name": "OnlyCoordinatorCanFulfill",
      "type": "error"
    },
    {
      "inputs": [],
      "name": "OnlySimulatedBackend",
      "type": "error"
    },
    {
      "anonymous": false,
      "inputs": [
        {
          "indexed": true,
          "internalType": "uint256",
          "name": "tokenId",
          "type": "uint256"
        },
        {
          "indexed": true,
          "internalType": "uint256",
          "name": "lootboxId",
          "type": "uint256"
        }
      ],
      "name": "Claimed",
      "type": "event"
    },
    {
      "anonymous": false,
      "inputs": [
        {
          "indexed": true,
          "internalType": "uint256",
          "name": "lootboxId",
          "type": "uint256"
        },
        {
          "indexed": false,
          "internalType": "address",
          "name": "lootboxAddress",
          "type": "address"
        },
        {
          "indexed": false,
          "internalType": "uint256[]",
          "name": "winners",
          "type": "uint256[]"
        }
      ],
      "name": "Drawn",
      "type": "event"
    },
    {
      "anonymous": false,
      "inputs": [
        {
          "indexed": true,
          "internalType": "uint256",
          "name": "lootboxId",
          "type": "uint256"
        },
        {
          "indexed": false,
          "internalType": "address",
          "name": "lootboxAddress",
          "type": "address"
        },
        {
          "indexed": false,
          "internalType": "address",
          "name": "owner",
          "type": "address"
        }
      ],
      "name": "LootboxDeployed",
      "type": "event"
    },
    {
      "anonymous": false,
      "inputs": [
        {
          "components": [
            {
              "internalType": "address",
              "name": "_address",
              "type": "address"
            },
            {
              "internalType": "uint256",
              "name": "_tokenId",
              "type": "uint256"
            }
          ],
          "indexed": false,
          "internalType": "struct Lootbox.NFT[]",
          "name": "nfts",
          "type": "tuple[]"
        },
        {
          "indexed": true,
          "internalType": "uint256",
          "name": "lootboxId",
          "type": "uint256"
        }
      ],
      "name": "NFTDeposited",
      "type": "event"
    },
    {
      "anonymous": false,
      "inputs": [
        {
          "indexed": true,
          "internalType": "address",
          "name": "previousOwner",
          "type": "address"
        },
        {
          "indexed": true,
          "internalType": "address",
          "name": "newOwner",
          "type": "address"
        }
      ],
      "name": "OwnershipTransferred",
      "type": "event"
    },
    {
      "anonymous": false,
      "inputs": [
        {
          "indexed": false,
          "internalType": "uint256[]",
          "name": "tokenIds",
          "type": "uint256[]"
        },
        {
          "indexed": false,
          "internalType": "uint256",
          "name": "lootboxId",
          "type": "uint256"
        }
      ],
      "name": "Refunded",
      "type": "event"
    },
    {
      "inputs": [
        {
          "internalType": "uint256",
          "name": "",
          "type": "uint256"
        }
      ],
      "name": "allLootboxes",
      "outputs": [
        {
          "internalType": "address",
          "name": "",
          "type": "address"
        }
      ],
      "stateMutability": "view",
      "type": "function"
    },
    {
      "inputs": [
        {
          "internalType": "bytes",
          "name": "",
          "type": "bytes"
        }
      ],
      "name": "checkUpkeep",
      "outputs": [
        {
          "internalType": "bool",
          "name": "upkeepNeeded",
          "type": "bool"
        },
        {
          "internalType": "bytes",
          "name": "performData",
          "type": "bytes"
        }
      ],
      "stateMutability": "view",
      "type": "function"
    },
    {
      "inputs": [
        {
          "internalType": "string",
          "name": "_name",
          "type": "string"
        },
        {
          "internalType": "uint256",
          "name": "_drawTimestamp",
          "type": "uint256"
        },
        {
          "internalType": "uint256",
          "name": "_ticketPrice",
          "type": "uint256"
        },
        {
          "internalType": "uint256",
          "name": "_minimumTicketRequired",
          "type": "uint256"
        }
      ],
      "name": "deployLootbox",
      "outputs": [],
      "stateMutability": "nonpayable",
      "type": "function"
    },
    {
      "inputs": [
        {
          "internalType": "string",
          "name": "_name",
          "type": "string"
        },
        {
          "internalType": "uint256",
          "name": "_drawTimestamp",
          "type": "uint256"
        },
        {
          "internalType": "uint256",
          "name": "_ticketPrice",
          "type": "uint256"
        },
        {
          "internalType": "uint256",
          "name": "_minimumTicketRequired",
          "type": "uint256"
        },
        {
          "internalType": "uint256",
          "name": "_maxTicketPerWallet",
          "type": "uint256"
        }
      ],
      "name": "deployLootbox",
      "outputs": [],
      "stateMutability": "nonpayable",
      "type": "function"
    },
    {
      "inputs": [
        {
          "components": [
            {
              "internalType": "address",
              "name": "_address",
              "type": "address"
            },
            {
              "internalType": "uint256",
              "name": "_tokenId",
              "type": "uint256"
            }
          ],
          "internalType": "struct Lootbox.NFT[]",
          "name": "_nfts",
          "type": "tuple[]"
        },
        {
          "internalType": "uint256",
          "name": "_lootboxId",
          "type": "uint256"
        }
      ],
      "name": "depositNFT",
      "outputs": [],
      "stateMutability": "nonpayable",
      "type": "function"
    },
    {
      "inputs": [],
      "name": "getAllLootboxes",
      "outputs": [
        {
          "internalType": "address[]",
          "name": "",
          "type": "address[]"
        }
      ],
      "stateMutability": "view",
      "type": "function"
    },
    {
      "inputs": [
        {
          "internalType": "uint256",
          "name": "_lootboxId",
          "type": "uint256"
        }
      ],
      "name": "getLootboxName",
      "outputs": [
        {
          "internalType": "string",
          "name": "",
          "type": "string"
        }
      ],
      "stateMutability": "view",
      "type": "function"
    },
    {
      "inputs": [
        {
          "internalType": "uint256",
          "name": "",
          "type": "uint256"
        }
      ],
      "name": "lootboxAddress",
      "outputs": [
        {
          "internalType": "address",
          "name": "",
          "type": "address"
        }
      ],
      "stateMutability": "view",
      "type": "function"
    },
    {
      "inputs": [
        {
          "internalType": "address",
          "name": "",
          "type": "address"
        },
        {
          "internalType": "uint256",
          "name": "",
          "type": "uint256"
        }
      ],
      "name": "lootboxOwned",
      "outputs": [
        {
          "internalType": "uint256",
          "name": "",
          "type": "uint256"
        }
      ],
      "stateMutability": "view",
      "type": "function"
    },
    {
      "inputs": [
        {
          "internalType": "address",
          "name": "_to",
          "type": "address"
        },
        {
          "internalType": "uint256",
          "name": "_amount",
          "type": "uint256"
        },
        {
          "internalType": "uint256",
          "name": "_lootboxId",
          "type": "uint256"
        }
      ],
      "name": "mintTicket",
      "outputs": [],
      "stateMutability": "nonpayable",
      "type": "function"
    },
    {
      "inputs": [],
      "name": "owner",
      "outputs": [
        {
          "internalType": "address",
          "name": "",
          "type": "address"
        }
      ],
      "stateMutability": "view",
      "type": "function"
    },
    {
      "inputs": [
        {
          "internalType": "bytes",
          "name": "performData",
          "type": "bytes"
        }
      ],
      "name": "performUpkeep",
      "outputs": [],
      "stateMutability": "nonpayable",
      "type": "function"
    },
    {
      "inputs": [
        {
          "internalType": "uint256",
          "name": "requestId",
          "type": "uint256"
        },
        {
          "internalType": "uint256[]",
          "name": "randomWords",
          "type": "uint256[]"
        }
      ],
      "name": "rawFulfillRandomWords",
      "outputs": [],
      "stateMutability": "nonpayable",
      "type": "function"
    },
    {
      "inputs": [
        {
          "internalType": "uint256[]",
          "name": "_tokenIds",
          "type": "uint256[]"
        },
        {
          "internalType": "uint256",
          "name": "_lootboxId",
          "type": "uint256"
        }
      ],
      "name": "refundTicket",
      "outputs": [],
      "stateMutability": "nonpayable",
      "type": "function"
    },
    {
      "inputs": [],
      "name": "renounceOwnership",
      "outputs": [],
      "stateMutability": "nonpayable",
      "type": "function"
    },
    {
      "inputs": [],
      "name": "s_subscriptionId",
      "outputs": [
        {
          "internalType": "uint64",
          "name": "",
          "type": "uint64"
        }
      ],
      "stateMutability": "view",
      "type": "function"
    },
    {
      "inputs": [
        {
          "internalType": "uint256",
          "name": "_tokenId",
          "type": "uint256"
        },
        {
          "internalType": "uint256",
          "name": "_lootboxId",
          "type": "uint256"
        }
      ],
      "name": "setClaim",
      "outputs": [],
      "stateMutability": "nonpayable",
      "type": "function"
    },
    {
      "inputs": [
        {
          "internalType": "uint256",
          "name": "_tokenId",
          "type": "uint256"
        },
        {
          "internalType": "uint256",
          "name": "_lootboxId",
          "type": "uint256"
        }
      ],
      "name": "setWinner",
      "outputs": [],
      "stateMutability": "nonpayable",
      "type": "function"
    },
    {
      "inputs": [],
      "name": "ticketAddress",
      "outputs": [
        {
          "internalType": "address",
          "name": "",
          "type": "address"
        }
      ],
      "stateMutability": "view",
      "type": "function"
    },
    {
      "inputs": [
        {
          "internalType": "uint256",
          "name": "amount",
          "type": "uint256"
        }
      ],
      "name": "topUpSubscription",
      "outputs": [],
      "stateMutability": "nonpayable",
      "type": "function"
    },
    {
      "inputs": [],
      "name": "totalLootbox",
      "outputs": [
        {
          "internalType": "uint256",
          "name": "",
          "type": "uint256"
        }
      ],
      "stateMutability": "view",
      "type": "function"
    },
    {
      "inputs": [
        {
          "internalType": "address",
          "name": "newOwner",
          "type": "address"
        }
      ],
      "name": "transferOwnership",
      "outputs": [],
      "stateMutability": "nonpayable",
      "type": "function"
    },
    {
      "inputs": [
        {
          "internalType": "uint256",
          "name": "amount",
          "type": "uint256"
        },
        {
          "internalType": "address",
          "name": "to",
          "type": "address"
        }
      ],
      "name": "withdrawLink",
      "outputs": [],
      "stateMutability": "nonpayable",
      "type": "function"
    }
  ],
  "bytecode": "0x60e06040526000600755613d0960e51b60c0523480156200001f57600080fd5b5060405162007d3e38038062007d3e83398101604081905262000042916200038b565b826200004e3362000157565b60601b6001600160601b031916608052600180546001600160a01b03199081166001600160a01b03868116919091179092556002805490911691841691909117905560a08190526200009f620001a7565b30604051620000ae9062000350565b620000ba919062000431565b604051809103906000f080158015620000d7573d6000803e3d6000fd5b50600380546001600160a01b0319166001600160a01b0392909216918217905560405163f2fde38b60e01b815263f2fde38b906200011a90339060040162000431565b600060405180830381600087803b1580156200013557600080fd5b505af11580156200014a573d6000803e3d6000fd5b50505050505050620004fb565b600080546001600160a01b038381166001600160a01b0319831681178455604051919092169283917f8be0079c531659141344cd1fd0a4f28419497f9722a3daafe3b4186f6b6457e09190a35050565b6000546001600160a01b03163314620001dd5760405162461bcd60e51b8152600401620001d49062000441565b60405180910390fd5b604080516001808252818301909252600091602080830190803683370190505090503081600081518110620002165762000216620004b4565b6001600160a01b039283166020918202929092018101919091526001546040805163288688f960e21b81529051919093169263a21a23e49260048083019391928290030181600087803b1580156200026d57600080fd5b505af115801562000282573d6000803e3d6000fd5b505050506040513d601f19601f82011682018060405250810190620002a89190620003e3565b600880546001600160401b0319166001600160401b0392909216918217905560015482516001600160a01b0390911691637341c10c918490600090620002f257620002f2620004b4565b60200260200101516040518363ffffffff1660e01b8152600401620003199291906200047c565b600060405180830381600087803b1580156200033457600080fd5b505af115801562000349573d6000803e3d6000fd5b5050505050565b61368180620046bd83390190565b80516200036b81620004ca565b92915050565b80516200036b81620004e4565b80516200036b81620004eb565b600080600060608486031215620003a557620003a5600080fd5b6000620003b386866200035e565b9350506020620003c6868287016200035e565b9250506040620003d98682870162000371565b9150509250925092565b600060208284031215620003fa57620003fa600080fd5b60006200040884846200037e565b949350505050565b6200041b81620004a2565b82525050565b6001600160401b0381166200041b565b602081016200036b828462000410565b60208082528181019081527f4f776e61626c653a2063616c6c6572206973206e6f7420746865206f776e65726040830152606082016200036b565b604081016200048c828562000421565b6200049b602083018462000410565b9392505050565b60006001600160a01b0382166200036b565b634e487b7160e01b600052603260045260246000fd5b620004d581620004a2565b8114620004e157600080fd5b50565b80620004d5565b6001600160401b038116620004d5565b60805160601c60a05160c05160e01c6141856200053860003960006111de015260006111ad0152600081816104a901526104d201526141856000f3fe60806040523480156200001157600080fd5b5060043610620001695760003560e01c806386850e9311620000d3578063b3e2af061162000086578063b3e2af06146200033a578063b73008bd1462000360578063cb01e8001462000377578063e870cb66146200038e578063f2fde38b14620003a5578063fa84ee3814620003bc57600080fd5b806386850e9314620002945780638ac0002114620002ab5780638da5cb5b14620002ce578063a16c6a7314620002e0578063a18cefee14620002f7578063a46d4584146200032357600080fd5b806341ea27ca116200012c57806341ea27ca146200020c5780634585e33b146200022357806357a8e3fe146200023a57806368cbce31146200024c5780636e04ff0d1462000263578063715018a6146200028a57600080fd5b806301768052146200016e5780631286f2b7146200019d57806319aa987c14620001b65780631ce9f8fa14620001dc5780631fe543e314620001f5575b600080fd5b620001856200017f36600462001998565b620003c6565b60405162000194919062001c4a565b60405180910390f35b620001b4620001ae36600462001870565b620003f1565b005b620001cd620001c736600462001661565b62000408565b60405162000194919062001f18565b620001e66200043a565b60405162000194919062001d2d565b620001b46200020636600462001a1b565b6200049e565b620001b46200021d366004620019e2565b62000527565b620001b462000234366004620017e3565b620005e3565b6003546001600160a01b031662000185565b620001b46200025d36600462001a70565b620007b1565b6200027a62000274366004620017e3565b62000853565b6040516200019492919062001d8a565b620001b4620009d7565b620001b4620002a536600462001998565b62000a12565b600854620002bf906001600160401b031681565b60405162000194919062001f28565b6000546001600160a01b031662000185565b620001b4620002f136600462001a70565b62000afe565b620001856200030836600462001998565b6004602052600090815260409020546001600160a01b031681565b620001b462000334366004620018f9565b62000bcd565b620003516200034b36600462001998565b62000d7b565b60405162000194919062001e04565b620001b462000371366004620016fc565b62000e11565b620001b4620003883660046200177d565b62000e87565b620001b46200039f366004620016a4565b62000f64565b620001b4620003b63660046200163c565b6200100b565b620001cd60075481565b60068181548110620003d757600080fd5b6000918252602090912001546001600160a01b0316905081565b620004028484848460001962000bcd565b50505050565b600560205281600052604060002081815481106200042557600080fd5b90600052602060002001600091509150505481565b606060068054806020026020016040519081016040528092919081815260200182805480156200049457602002820191906000526020600020905b81546001600160a01b0316815260019091019060200180831162000475575b5050505050905090565b336001600160a01b037f000000000000000000000000000000000000000000000000000000000000000016146200051757337f000000000000000000000000000000000000000000000000000000000000000060405163073e64fd60e21b81526004016200050e92919062001c5a565b60405180910390fd5b6200052382826200106f565b5050565b6000546001600160a01b03163314620005545760405162461bcd60e51b81526004016200050e9062001edd565b60025460405163a9059cbb60e01b81526001600160a01b039091169063a9059cbb9062000588908490869060040162001ca4565b602060405180830381600087803b158015620005a357600080fd5b505af1158015620005b8573d6000803e3d6000fd5b505050506040513d601f19601f82011682018060405250810190620005de9190620017be565b505050565b6000620005f38284018462001998565b600081815260046020818152604092839020548351630f0af2b760e21b815293519495506001600160a01b031693633c2bcadc938084019390829003018186803b1580156200064157600080fd5b505afa15801562000656573d6000803e3d6000fd5b505050506040513d601f19601f820116820180604052508101906200067c9190620017be565b15801562000714575060008181526004602081815260409283902054835163b914a21960e01b8152935142946001600160a01b039092169363b914a219938382019390929190829003018186803b158015620006d757600080fd5b505afa158015620006ec573d6000803e3d6000fd5b505050506040513d601f19601f82011682018060405250810190620007129190620019bd565b105b15620005de57600081815260046020818152604092839020548351630623d3c960e11b81529351620005de946001600160a01b0390921693630c47a792938382019390929190829003018186803b1580156200076f57600080fd5b505afa15801562000784573d6000803e3d6000fd5b505050506040513d601f19601f82011682018060405250810190620007aa9190620019bd565b8262001180565b6000818152600460205260409020546001600160a01b03163314620007e95760405163639fd10760e01b815260040160405180910390fd5b6003546040516306fb8b0160e11b81526001600160a01b0390911690630df71602906200081b90859060040162001f18565b600060405180830381600087803b1580156200083657600080fd5b505af11580156200084b573d6000803e3d6000fd5b505050505050565b6000606060005b600754811015620009cf57600081815260046020818152604092839020548351630f0af2b760e21b815293516001600160a01b0390911693633c2bcadc93818101939291829003018186803b158015620008b357600080fd5b505afa158015620008c8573d6000803e3d6000fd5b505050506040513d601f19601f82011682018060405250810190620008ee9190620017be565b15801562000986575060008181526004602081815260409283902054835163b914a21960e01b8152935142946001600160a01b039092169363b914a219938382019390929190829003018186803b1580156200094957600080fd5b505afa1580156200095e573d6000803e3d6000fd5b505050506040513d601f19601f82011682018060405250810190620009849190620019bd565b105b15620009ba576001925080604051602001620009a3919062001f18565b6040516020818303038152906040529150620009cf565b80620009c68162002026565b9150506200085a565b509250929050565b6000546001600160a01b0316331462000a045760405162461bcd60e51b81526004016200050e9062001edd565b62000a10600062001275565b565b6000546001600160a01b0316331462000a3f5760405162461bcd60e51b81526004016200050e9062001edd565b6002546001546008546040516001600160a01b0393841693634000aea0931691859162000a79916001600160401b03169060200162001f28565b6040516020818303038152906040526040518463ffffffff1660e01b815260040162000aa89392919062001cc3565b602060405180830381600087803b15801562000ac357600080fd5b505af115801562000ad8573d6000803e3d6000fd5b505050506040513d601f19601f82011682018060405250810190620005239190620017be565b6000818152600460205260409020546001600160a01b0316331462000b365760405163639fd10760e01b815260040160405180910390fd5b6003546040516326a18a5f60e21b81526001600160a01b0390911690639a86297c9062000b6890859060040162001f18565b600060405180830381600087803b15801562000b8357600080fd5b505af115801562000b98573d6000803e3d6000fd5b50506040518392508491507fc83b5086ce94ec8d5a88a9f5fea4b18a522bb238ed0d2d8abd959549a80c16b890600090a35050565b60008560075486868686600360009054906101000a90046001600160a01b031660405162000bfb90620012c5565b62000c0d979695949392919062001e17565b604051809103906000f08015801562000c2a573d6000803e3d6000fd5b5060405163f2fde38b60e01b81529091506001600160a01b0382169063f2fde38b9062000c5c90339060040162001c4a565b600060405180830381600087803b15801562000c7757600080fd5b505af115801562000c8c573d6000803e3d6000fd5b505060078054600090815260046020908152604080832080546001600160a01b0389166001600160a01b0319918216811790925533808652600585528386208754815460018181018455928952968820909601959095556006805495860181559095527ff652222313e28459528d920b65115c16c04f3efc82aaedc97be59f3f377c0d3f909301805490931617909155915491519193507fdb20029c93fc1373f5a324bb07829a311f0a1812137dee42063290ea89dc4d69925062000d549185919062001c5a565b60405180910390a26007805490600062000d6e8362002026565b9190505550505050505050565b60008181526004602081905260408083205481516306fdde0360e01b815291516060946001600160a01b03909216936306fdde039380820193929190829003018186803b15801562000dcc57600080fd5b505afa15801562000de1573d6000803e3d6000fd5b505050506040513d6000823e601f3d908101601f1916820160405262000e0b919081019062001830565b92915050565b6000818152600460205260409020546001600160a01b0316331462000e495760405163639fd10760e01b815260040160405180910390fd5b807f77281690ed7fe65029761745c5d032ec1011444022e4434438c3cfd4ba1684c68360405162000e7b919062001d40565b60405180910390a25050565b6000818152600460205260409020546001600160a01b0316331462000ebf5760405163639fd10760e01b815260040160405180910390fd5b600354604051632a64da6360e01b81526001600160a01b0390911690632a64da639062000ef190859060040162001d53565b600060405180830381600087803b15801562000f0c57600080fd5b505af115801562000f21573d6000803e3d6000fd5b505050507f5afc43e3f0b9b28ff50cc27282097f50562bf118eb02bb27776654913fdcdc56828260405162000f5892919062001d66565b60405180910390a15050565b6000818152600460205260409020546001600160a01b0316331462000f9c5760405163639fd10760e01b815260040160405180910390fd5b600354604051630ab714fb60e11b81526001600160a01b039091169063156e29f69062000fd29086908690869060040162001cff565b600060405180830381600087803b15801562000fed57600080fd5b505af115801562001002573d6000803e3d6000fd5b50505050505050565b6000546001600160a01b03163314620010385760405162461bcd60e51b81526004016200050e9062001edd565b6001600160a01b038116620010615760405162461bcd60e51b81526004016200050e9062001e92565b6200106c8162001275565b50565b60008281526009602090815260408083205483526004918290528083205490516370d85d6f60e01b81526001600160a01b03909116916370d85d6f91620010b99186910162001d53565b600060405180830381600087803b158015620010d457600080fd5b505af1158015620010e9573d6000803e3d6000fd5b505050506040513d6000823e601f3d908101601f191682016040526200111391908101906200173d565b600084815260096020908152604080832054808452600490925291829020549151929350917fc3f6b13a510d52a8789da621ecd7a639080952dcf341c9b864b949a88034d2b69162001173916001600160a01b0390911690859062001c80565b60405180910390a2505050565b6001546008546040516305d3b1d360e41b81526000926001600160a01b031691635d3b1d309162001209917f0000000000000000000000000000000000000000000000000000000000000000916001600160401b03909116906003907f0000000000000000000000000000000000000000000000000000000000000000908a9060040162001dae565b602060405180830381600087803b1580156200122457600080fd5b505af115801562001239573d6000803e3d6000fd5b505050506040513d601f19601f820116820180604052508101906200125f9190620019bd565b6000908152600960205260409020919091555050565b600080546001600160a01b038381166001600160a01b0319831681178455604051919092169283917f8be0079c531659141344cd1fd0a4f28419497f9722a3daafe3b4186f6b6457e09190a35050565b6120b8806200209883390190565b6000620012ea620012e48462001f57565b62001f38565b838152905060208101826040850281018610156200130b576200130b600080fd5b60005b858110156200133d5781620013248882620015d0565b845250602090920191604091909101906001016200130e565b5050509392505050565b600062001358620012e48462001f57565b905080838252602082019050828560208602820111156200137c576200137c600080fd5b60005b858110156200133d578162001395888262001622565b84525060209283019291909101906001016200137f565b6000620013bd620012e48462001f57565b90508083825260208201905082856020860282011115620013e157620013e1600080fd5b60005b858110156200133d5781620013fa88826200162f565b8452506020928301929190910190600101620013e4565b600062001422620012e48462001f7d565b9050828152602081018484840111156200143f576200143f600080fd5b6200144c84828562001fbc565b509392505050565b600062001465620012e48462001f7d565b905082815260208101848484011115620014825762001482600080fd5b6200144c84828562001fc8565b803562000e0b8162002070565b600082601f830112620014b257620014b2600080fd5b8135620014c4848260208601620012d3565b949350505050565b600082601f830112620014e257620014e2600080fd5b8135620014c484826020860162001347565b600082601f8301126200150a576200150a600080fd5b8151620014c4848260208601620013ac565b805162000e0b8162002087565b60008083601f840112620015405762001540600080fd5b5081356001600160401b038111156200155c576200155c600080fd5b602083019150836001820283011115620015795762001579600080fd5b9250929050565b600082601f830112620015965762001596600080fd5b8135620014c484826020860162001411565b600082601f830112620015be57620015be600080fd5b8151620014c484826020860162001454565b600060408284031215620015e757620015e7600080fd5b620015f3604062001f38565b905060006200160384846200148f565b8252506020620016168484830162001622565b60208301525092915050565b803562000e0b8162002090565b805162000e0b8162002090565b600060208284031215620016535762001653600080fd5b6000620014c484846200148f565b60008060408385031215620016795762001679600080fd5b60006200168785856200148f565b92505060206200169a8582860162001622565b9150509250929050565b600080600060608486031215620016be57620016be600080fd5b6000620016cc86866200148f565b9350506020620016df8682870162001622565b9250506040620016f28682870162001622565b9150509250925092565b60008060408385031215620017145762001714600080fd5b82356001600160401b038111156200172f576200172f600080fd5b62001687858286016200149c565b600060208284031215620017545762001754600080fd5b81516001600160401b038111156200176f576200176f600080fd5b620014c484828501620014f4565b60008060408385031215620017955762001795600080fd5b82356001600160401b03811115620017b057620017b0600080fd5b6200168785828601620014cc565b600060208284031215620017d557620017d5600080fd5b6000620014c484846200151c565b60008060208385031215620017fb57620017fb600080fd5b82356001600160401b03811115620018165762001816600080fd5b620018248582860162001529565b92509250509250929050565b600060208284031215620018475762001847600080fd5b81516001600160401b03811115620018625762001862600080fd5b620014c484828501620015a8565b600080600080608085870312156200188b576200188b600080fd5b84356001600160401b03811115620018a657620018a6600080fd5b620018b48782880162001580565b9450506020620018c78782880162001622565b9350506040620018da8782880162001622565b9250506060620018ed8782880162001622565b91505092959194509250565b600080600080600060a08688031215620019165762001916600080fd5b85356001600160401b03811115620019315762001931600080fd5b6200193f8882890162001580565b9550506020620019528882890162001622565b9450506040620019658882890162001622565b9350506060620019788882890162001622565b92505060806200198b8882890162001622565b9150509295509295909350565b600060208284031215620019af57620019af600080fd5b6000620014c4848462001622565b600060208284031215620019d457620019d4600080fd5b6000620014c484846200162f565b60008060408385031215620019fa57620019fa600080fd5b600062001a08858562001622565b92505060206200169a858286016200148f565b6000806040838503121562001a335762001a33600080fd5b600062001a41858562001622565b92505060208301356001600160401b0381111562001a625762001a62600080fd5b6200169a85828601620014cc565b6000806040838503121562001a885762001a88600080fd5b600062001687858562001622565b600062001aa4838362001ad0565b505060200190565b600062001aba838362001bfa565b505060400190565b600062001aa4838362001bbe565b62001adb8162001faa565b82525050565b600062001aec825190565b80845260209384019383018060005b8381101562001b2457815162001b12888262001a96565b97506020830192505060010162001afb565b509495945050505050565b600062001b3a825190565b80845260209384019383018060005b8381101562001b2457815162001b60888262001aac565b97506020830192505060010162001b49565b600062001b7d825190565b80845260209384019383018060005b8381101562001b2457815162001ba3888262001ac2565b97506020830192505060010162001b8c565b80151562001adb565b8062001adb565b600062001bd0825190565b80845260208401935062001be981856020860162001fc8565b601f01601f19169290920192915050565b8051604083019062001c0d848262001ad0565b50602082015162000402602085018262001bbe565b61ffff811662001adb565b63ffffffff811662001adb565b6001600160401b03811662001adb565b6020810162000e0b828462001ad0565b6040810162001c6a828562001ad0565b62001c79602083018462001ad0565b9392505050565b6040810162001c90828562001ad0565b8181036020830152620014c4818462001b72565b6040810162001cb4828562001ad0565b62001c79602083018462001bbe565b6060810162001cd3828662001ad0565b62001ce2602083018562001bbe565b818103604083015262001cf6818462001bc5565b95945050505050565b6060810162001d0f828662001ad0565b62001d1e602083018562001bbe565b620014c4604083018462001bbe565b6020808252810162001c79818462001ae1565b6020808252810162001c79818462001b2f565b6020808252810162001c79818462001b72565b6040808252810162001d79818562001b72565b905062001c79602083018462001bbe565b6040810162001d9a828562001bb5565b8181036020830152620014c4818462001bc5565b60a0810162001dbe828862001bbe565b62001dcd602083018762001c3a565b62001ddc604083018662001c22565b62001deb606083018562001c2d565b62001dfa608083018462001c2d565b9695505050505050565b6020808252810162001c79818462001bc5565b60e0808252810162001e2a818a62001bc5565b905062001e3b602083018962001bbe565b62001e4a604083018862001bbe565b62001e59606083018762001bbe565b62001e68608083018662001bbe565b62001e7760a083018562001bbe565b62001e8660c083018462001ad0565b98975050505050505050565b6020808252810162000e0b81602681527f4f776e61626c653a206e6577206f776e657220697320746865207a65726f206160208201526564647265737360d01b604082015260600190565b60208082528181019081527f4f776e61626c653a2063616c6c6572206973206e6f7420746865206f776e657260408301526060820162000e0b565b6020810162000e0b828462001bbe565b6020810162000e0b828462001c3a565b600062001f4460405190565b905062001f52828262001ff7565b919050565b60006001600160401b0382111562001f735762001f736200205a565b5060209081020190565b60006001600160401b0382111562001f995762001f996200205a565b601f19601f83011660200192915050565b60006001600160a01b03821662000e0b565b82818337506000910152565b60005b8381101562001fe557818101518382015260200162001fcb565b83811115620004025750506000910152565b601f19601f83011681018181106001600160401b03821117156200201f576200201f6200205a565b6040525050565b60006000198214156200203d576200203d62002044565b5060010190565b634e487b7160e01b600052601160045260246000fd5b634e487b7160e01b600052604160045260246000fd5b6200207b8162001faa565b81146200106c57600080fd5b8015156200207b565b806200207b56fe60a06040526101f4608052600060058190556006556007805461ffff191690553480156200002c57600080fd5b50604051620020b8380380620020b88339810160408190526200004f9162000256565b6200005a33620000c7565b86516200006f9060089060208a019062000117565b506009959095556001939093556002919091556003556004556007805462010000600160b01b031916336201000002179055600a80546001600160a01b0319166001600160a01b03909216919091179055506200045e565b600080546001600160a01b038381166001600160a01b0319831681178455604051919092169283917f8be0079c531659141344cd1fd0a4f28419497f9722a3daafe3b4186f6b6457e09190a35050565b8280546200012590620003b1565b90600052602060002090601f01602090048101928262000149576000855562000194565b82601f106200016457805160ff191683800117855562000194565b8280016001018555821562000194579182015b828111156200019457825182559160200191906001019062000177565b50620001a2929150620001a6565b5090565b5b80821115620001a25760008155600101620001a7565b6000620001d4620001ce846200033f565b62000320565b905082815260208101848484011115620001f157620001f1600080fd5b620001fe8482856200037e565b509392505050565b805162000213816200043d565b92915050565b600082601f8301126200022f576200022f600080fd5b815162000241848260208601620001bd565b949350505050565b8051620002138162000457565b600080600080600080600060e0888a031215620002765762000276600080fd5b87516001600160401b03811115620002915762000291600080fd5b6200029f8a828b0162000219565b9750506020620002b28a828b0162000249565b9650506040620002c58a828b0162000249565b9550506060620002d88a828b0162000249565b9450506080620002eb8a828b0162000249565b93505060a0620002fe8a828b0162000249565b92505060c0620003118a828b0162000206565b91505092959891949750929550565b60006200032c60405190565b90506200033a8282620003e2565b919050565b60006001600160401b038211156200035b576200035b62000427565b601f19601f83011660200192915050565b60006001600160a01b03821662000213565b60005b838110156200039b57818101518382015260200162000381565b83811115620003ab576000848401525b50505050565b600281046001821680620003c657607f821691505b60208210811415620003dc57620003dc62000411565b50919050565b601f19601f83011681018181106001600160401b03821117156200040a576200040a62000427565b6040525050565b634e487b7160e01b600052602260045260246000fd5b634e487b7160e01b600052604160045260246000fd5b62000448816200036c565b81146200045457600080fd5b50565b8062000448565b608051611c3e6200047a60003960006108230152611c3e6000f3fe6080604052600436106101665760003560e01c806362d9c9a8116100d1578063a3c0b95b1161008a578063b914a21911610064578063b914a21914610429578063e0391b091461043f578063f2fde38b14610461578063fe5c873a1461048157600080fd5b8063a3c0b95b146103a5578063aa613df5146103f3578063af640d0f1461041357600080fd5b806362d9c9a8146102c3578063657bc2e7146102f057806370d85d6f14610310578063715018a61461033d5780638da5cb5b14610352578063a2fb11751461037857600080fd5b80632f366637116101235780632f3666371461023e5780633c2bcadc146102535780633ccfd60b1461026d57806343eda39e14610282578063485cc439146102985780635e38c954146102ae57600080fd5b806306fdde031461016b5780630c47a792146101965780631209b1f6146101b9578063150b7a02146101cf5780632a086dd1146101fc5780632c1fecfe14610212575b600080fd5b34801561017757600080fd5b506101806104a1565b60405161018d9190611959565b60405180910390f35b3480156101a257600080fd5b506101ac60065481565b60405161018d91906119ee565b3480156101c557600080fd5b506101ac60025481565b3480156101db57600080fd5b506101ef6101ea3660046115e7565b61052f565b60405161018d919061194b565b34801561020857600080fd5b506101ac60035481565b34801561021e57600080fd5b5060075461023190610100900460ff1681565b60405161018d919061193d565b61025161024c3660046116fd565b610540565b005b34801561025f57600080fd5b506007546102319060ff1681565b34801561027957600080fd5b5061025161063a565b34801561028e57600080fd5b506101ac60045481565b3480156102a457600080fd5b506101ac60055481565b3480156102ba57600080fd5b506102516106e8565b3480156102cf57600080fd5b506101ac6102de3660046116fd565b600d6020526000908152604090205481565b3480156102fc57600080fd5b5061025161030b366004611666565b6107d3565b34801561031c57600080fd5b5061033061032b3660046116a1565b610a36565b60405161018d919061191b565b34801561034957600080fd5b50610251610d57565b34801561035e57600080fd5b506000546001600160a01b031660405161018d9190611877565b34801561038457600080fd5b506101ac6103933660046116fd565b600c6020526000908152604090205481565b3480156103b157600080fd5b506103e56103c03660046116fd565b600b60205260009081526040902080546001909101546001600160a01b039091169082565b60405161018d9291906118ad565b3480156103ff57600080fd5b5061025161040e3660046116a1565b610d8d565b34801561041f57600080fd5b506101ac60095481565b34801561043557600080fd5b506101ac60015481565b34801561044b57600080fd5b50610454611005565b60405161018d91906118ea565b34801561046d57600080fd5b5061025161047c3660046115a5565b6110e0565b34801561048d57600080fd5b5061025161049c3660046116fd565b611139565b600880546104ae90611af5565b80601f01602080910402602001604051908101604052809291908181526020018280546104da90611af5565b80156105275780601f106104fc57610100808354040283529160200191610527565b820191906000526020600020905b81548152906001019060200180831161050a57829003601f168201915b505050505081565b630a85bd0160e11b5b949350505050565b60075460ff161561056457604051635dd633dd60e11b815260040160405180910390fd5b6004548111156105875760405163ef07058b60e01b815260040160405180910390fd5b806002546105959190611a8d565b34146105b457604051631a8fabd760e11b815260040160405180910390fd5b60075460095460405163743865b360e11b8152620100009092046001600160a01b03169163e870cb66916105ee91339186916004016118cf565b600060405180830381600087803b15801561060857600080fd5b505af115801561061c573d6000803e3d6000fd5b5050505080600560008282546106329190611a75565b909155505050565b6000546001600160a01b0316331461066d5760405162461bcd60e51b8152600401610664906119b4565b60405180910390fd5b60075460ff1661069057604051635a7c82d160e11b815260040160405180910390fd5b600754610100900460ff16156106b957604051631b8541f760e21b815260040160405180910390fd5b60405133904780156108fc02916000818181858888f193505050501580156106e5573d6000803e3d6000fd5b50565b6000546001600160a01b031633146107125760405162461bcd60e51b8152600401610664906119b4565b600754610100900460ff1661073a5760405163bfbef1dd60e01b815260040160405180910390fd5b60005b6006548110156106e5576000818152600b60205260409081902080546001909101549151632142170760e11b81526001600160a01b03909116916342842e0e9161078e913091339190600401611885565b600060405180830381600087803b1580156107a857600080fd5b505af11580156107bc573d6000803e3d6000fd5b5050505080806107cb90611b49565b91505061073d565b6000546001600160a01b031633146107fd5760405162461bcd60e51b8152600401610664906119b4565b60075460ff161561082157604051635dd633dd60e11b815260040160405180910390fd5b7f000000000000000000000000000000000000000000000000000000000000000081516006546108519190611a75565b111561087057604051630bf8105560e41b815260040160405180910390fd5b60005b81518110156109c75781818151811061088e5761088e611bba565b6020026020010151600001516001600160a01b03166342842e0e33308585815181106108bc576108bc611bba565b6020026020010151602001516040518463ffffffff1660e01b81526004016108e693929190611885565b600060405180830381600087803b15801561090057600080fd5b505af1158015610914573d6000803e3d6000fd5b5050505081818151811061092a5761092a611bba565b602090810291909101810151516006546000908152600b909252604090912080546001600160a01b0319166001600160a01b03909216919091179055815182908290811061097a5761097a611bba565b602002602001015160200151600b60006006548152602001908152602001600020600101819055506006600081546109b190611b49565b90915550806109bf81611b49565b915050610873565b5060075460095460405163b73008bd60e01b8152620100009092046001600160a01b03169163b73008bd91610a01918591906004016118fb565b600060405180830381600087803b158015610a1b57600080fd5b505af1158015610a2f573d6000803e3d6000fd5b5050505050565b6007546060906201000090046001600160a01b03163314610a6a57604051631b8541f760e21b815260040160405180910390fd5b60075460ff1615610a8e57604051635dd633dd60e11b815260040160405180910390fd5b600654825114610ab157604051634de07a8160e11b815260040160405180910390fd5b600354600554111580610ac75750600654600554105b15610ae0576007805461ff001916610100179055610d34565b600060065467ffffffffffffffff811115610afd57610afd611bd0565b604051908082528060200260200182016040528015610b26578160200160208202803683370190505b50905060005b600654811015610d2d57600a5460095460055486516000936001600160a01b0316926378df3a52929091899087908110610b6857610b68611bba565b6020026020010151610b7a9190611b64565b6040518363ffffffff1660e01b8152600401610b979291906119fc565b60206040518083038186803b158015610baf57600080fd5b505afa158015610bc3573d6000803e3d6000fd5b505050506040513d601f19601f82011682018060405250810190610be7919061171e565b600a546040516301c7245160e31b81529192506001600160a01b031690630e39228890610c189084906004016119ee565b60206040518083038186803b158015610c3057600080fd5b505afa158015610c44573d6000803e3d6000fd5b505050506040513d601f19601f82011682018060405250810190610c6891906116dc565b610d27576007546009546040516368cbce3160e01b8152620100009092046001600160a01b0316916368cbce3191610ca5918591906004016119fc565b600060405180830381600087803b158015610cbf57600080fd5b505af1158015610cd3573d6000803e3d6000fd5b5050506000838152600c60209081526040808320859055848352600d90915290208390555082518190849084908110610d0e57610d0e611bba565b602090810291909101015281610d2381611b49565b9250505b50610b2c565b5092915050565b6007805460ff191660011790556040805160008082526020820190925290610d2d565b6000546001600160a01b03163314610d815760405162461bcd60e51b8152600401610664906119b4565b610d8b6000611360565b565b600754610100900460ff16610db55760405163bfbef1dd60e01b815260040160405180910390fd5b60005b8151811015610f5257600a54825133916001600160a01b031690636352211e90859085908110610dea57610dea611bba565b60200260200101516040518263ffffffff1660e01b8152600401610e0e91906119ee565b60206040518083038186803b158015610e2657600080fd5b505afa158015610e3a573d6000803e3d6000fd5b505050506040513d601f19601f82011682018060405250810190610e5e91906115c6565b6001600160a01b031614610e8557604051631b8541f760e21b815260040160405180910390fd5b600a5482516001600160a01b03909116906355866c8d90849084908110610eae57610eae611bba565b60200260200101516040518263ffffffff1660e01b8152600401610ed291906119ee565b60206040518083038186803b158015610eea57600080fd5b505afa158015610efe573d6000803e3d6000fd5b505050506040513d601f19601f82011682018060405250810190610f2291906116dc565b15610f405760405163bfbef1dd60e01b815260040160405180910390fd5b80610f4a81611b49565b915050610db8565b506007546009546040516219603d60eb1b8152620100009092046001600160a01b03169163cb01e80091610f8b9185919060040161192c565b600060405180830381600087803b158015610fa557600080fd5b505af1158015610fb9573d6000803e3d6000fd5b50505050336001600160a01b03166108fc8251600254610fd99190611a8d565b6040518115909202916000818181858888f19350505050158015611001573d6000803e3d6000fd5b5050565b6060600060065467ffffffffffffffff81111561102457611024611bd0565b60405190808252806020026020018201604052801561106957816020015b60408051808201909152600080825260208201528152602001906001900390816110425790505b50905060005b6006548110156110da576000818152600b6020908152604091829020825180840190935280546001600160a01b03168352600101549082015282518390839081106110bc576110bc611bba565b602002602001018190525080806110d290611b49565b91505061106f565b50919050565b6000546001600160a01b0316331461110a5760405162461bcd60e51b8152600401610664906119b4565b6001600160a01b0381166111305760405162461bcd60e51b81526004016106649061196a565b6106e581611360565b60075460ff1661115c57604051635a7c82d160e11b815260040160405180910390fd5b600a546040516331a9108f60e11b815233916001600160a01b031690636352211e9061118c9085906004016119ee565b60206040518083038186803b1580156111a457600080fd5b505afa1580156111b8573d6000803e3d6000fd5b505050506040513d601f19601f820116820180604052508101906111dc91906115c6565b6001600160a01b03161461120357604051631b8541f760e21b815260040160405180910390fd5b600a54604051639e34070f60e01b81526001600160a01b0390911690639e34070f906112339084906004016119ee565b60206040518083038186803b15801561124b57600080fd5b505afa15801561125f573d6000803e3d6000fd5b505050506040513d601f19601f8201168201806040525081019061128391906116dc565b156112a157604051631b8541f760e21b815260040160405180910390fd5b6000818152600d60209081526040808320548352600b9091529081902080546001909101549151632142170760e11b81526001600160a01b03909116916342842e0e916112f5913091339190600401611885565b600060405180830381600087803b15801561130f57600080fd5b505af1158015611323573d6000803e3d6000fd5b505060075460095460405163a16c6a7360e01b8152620100009092046001600160a01b0316935063a16c6a739250610a01918591906004016119fc565b600080546001600160a01b038381166001600160a01b0319831681178455604051919092169283917f8be0079c531659141344cd1fd0a4f28419497f9722a3daafe3b4186f6b6457e09190a35050565b60006113c36113be84611a26565b611a0a565b838152905060208101826040850281018610156113e2576113e2600080fd5b60005b8581101561141057816113f88882611545565b845250602090920191604091909101906001016113e5565b5050509392505050565b60006114286113be84611a26565b9050808382526020820190508285602086028201111561144a5761144a600080fd5b60005b858110156114105781611460888261158f565b845250602092830192919091019060010161144d565b60006114846113be84611a4a565b90508281526020810184848401111561149f5761149f600080fd5b6114aa848285611abd565b509392505050565b80356114bd81611be6565b92915050565b80516114bd81611be6565b600082601f8301126114e2576114e2600080fd5b81356105388482602086016113b0565b600082601f83011261150657611506600080fd5b813561053884826020860161141a565b80516114bd81611bfa565b600082601f83011261153557611535600080fd5b8135610538848260208601611476565b60006040828403121561155a5761155a600080fd5b6115646040611a0a565b9050600061157284846114b2565b82525060206115838484830161158f565b60208301525092915050565b80356114bd81611c02565b80516114bd81611c02565b6000602082840312156115ba576115ba600080fd5b600061053884846114b2565b6000602082840312156115db576115db600080fd5b600061053884846114c3565b6000806000806080858703121561160057611600600080fd5b600061160c87876114b2565b945050602061161d878288016114b2565b935050604061162e8782880161158f565b925050606085013567ffffffffffffffff81111561164e5761164e600080fd5b61165a87828801611521565b91505092959194509250565b60006020828403121561167b5761167b600080fd5b813567ffffffffffffffff81111561169557611695600080fd5b610538848285016114ce565b6000602082840312156116b6576116b6600080fd5b813567ffffffffffffffff8111156116d0576116d0600080fd5b610538848285016114f2565b6000602082840312156116f1576116f1600080fd5b60006105388484611516565b60006020828403121561171257611712600080fd5b6000610538848461158f565b60006020828403121561173357611733600080fd5b6000610538848461159a565b600061174b8383611847565b505060400190565b600061175f8383611871565b505060200190565b61177081611aac565b82525050565b6000611780825190565b80845260209384019383018060005b838110156117b45781516117a3888261173f565b97506020830192505060010161178f565b509495945050505050565b60006117c9825190565b80845260209384019383018060005b838110156117b45781516117ec8882611753565b9750602083019250506001016117d8565b801515611770565b6001600160e01b03198116611770565b600061181f825190565b808452602084019350611836818560208601611ac9565b601f01601f19169290920192915050565b805160408301906118588482611767565b50602082015161186b6020850182611871565b50505050565b80611770565b602081016114bd8284611767565b606081016118938286611767565b6118a06020830185611767565b6105386040830184611871565b604081016118bb8285611767565b6118c86020830184611871565b9392505050565b606081016118dd8286611767565b6118a06020830185611871565b602080825281016118c88184611776565b6040808252810161190c8185611776565b90506118c86020830184611871565b602080825281016118c881846117bf565b6040808252810161190c81856117bf565b602081016114bd82846117fd565b602081016114bd8284611805565b602080825281016118c88184611815565b602080825281016114bd81602681527f4f776e61626c653a206e6577206f776e657220697320746865207a65726f206160208201526564647265737360d01b604082015260600190565b60208082528181019081527f4f776e61626c653a2063616c6c6572206973206e6f7420746865206f776e65726040830152606082016114bd565b602081016114bd8284611871565b604081016118bb8285611871565b6000611a1560405190565b9050611a218282611b1c565b919050565b600067ffffffffffffffff821115611a4057611a40611bd0565b5060209081020190565b600067ffffffffffffffff821115611a6457611a64611bd0565b601f19601f83011660200192915050565b60008219821115611a8857611a88611b78565b500190565b6000816000190483118215151615611aa757611aa7611b78565b500290565b60006001600160a01b0382166114bd565b82818337506000910152565b60005b83811015611ae4578181015183820152602001611acc565b8381111561186b5750506000910152565b600281046001821680611b0957607f821691505b602082108114156110da576110da611ba4565b601f19601f830116810181811067ffffffffffffffff82111715611b4257611b42611bd0565b6040525050565b6000600019821415611b5d57611b5d611b78565b5060010190565b600082611b7357611b73611b8e565b500690565b634e487b7160e01b600052601160045260246000fd5b634e487b7160e01b600052601260045260246000fd5b634e487b7160e01b600052602260045260246000fd5b634e487b7160e01b600052603260045260246000fd5b634e487b7160e01b600052604160045260246000fd5b611bef81611aac565b81146106e557600080fd5b801515611bef565b80611bef56fea2646970667358221220f3019c9420e5b06748c657fb36152bef6355169c47a0046b42fcc47b2350dbe364736f6c63430008070033a2646970667358221220bb8f49826388afd036e5c448eeb71a754e78192c993373a701941ec6a99e748d64736f6c6343000807003361010060405260426080818152906200363f60a03980516200002a9160129160209091019062000258565b50604051806080016040528060428152602001620035376042913980516200005b9160139160209091019062000258565b50604051806080016040528060428152602001620035796042913980516200008c9160149160209091019062000258565b50604051806080016040528060428152602001620035fd604291398051620000bd9160159160209091019062000258565b50604051806080016040528060428152602001620035bb604291398051620000ee9160169160209091019062000258565b50604051806080016040528060428152602001620034f56042913980516200011f9160179160209091019062000258565b503480156200012d57600080fd5b506040516200368138038062003681833981016040819052620001509162000311565b6040805180820182526012815271151a194814185b991bdc9848151a58dad95d60721b60208083019182528351808501909452600784526650414e444f524160c81b908401528151919291620001a99160009162000258565b508051620001bf90600190602084019062000258565b505050620001dc620001d66200020260201b60201c565b62000206565b600b80546001600160a01b0319166001600160a01b0392909216919091179055620003b1565b3390565b600a80546001600160a01b038381166001600160a01b0319831681179093556040519116919082907f8be0079c531659141344cd1fd0a4f28419497f9722a3daafe3b4186f6b6457e090600090a35050565b828054620002669062000350565b90600052602060002090601f0160209004810192826200028a5760008555620002d5565b82601f10620002a557805160ff1916838001178555620002d5565b82800160010185558215620002d5579182015b82811115620002d5578251825591602001919060010190620002b8565b50620002e3929150620002e7565b5090565b5b80821115620002e35760008155600101620002e8565b80516200030b8162000397565b92915050565b600060208284031215620003285762000328600080fd5b6000620003368484620002fe565b949350505050565b60006001600160a01b0382166200030b565b6002810460018216806200036557607f821691505b602082108114156200037b576200037b62000381565b50919050565b634e487b7160e01b600052602260045260246000fd5b620003a2816200033e565b8114620003ae57600080fd5b50565b61313480620003c16000396000f3fe608060405234801561001057600080fd5b50600436106101e55760003560e01c806370a082311161010f5780639e34070f116100a2578063c87b56dd11610071578063c87b56dd14610439578063e7a3fc111461044c578063e985e9c51461045f578063f2fde38b1461049b57600080fd5b80639e34070f146103d0578063a22cb465146103f3578063b68c8fad14610406578063b88d4fde1461042657600080fd5b80638da5cb5b116100de5780638da5cb5b1461039a57806395d89b41146103ab57806398bdf6f5146103b35780639a86297c146103bd57600080fd5b806370a082311461034c578063715018a61461035f578063781334af1461036757806378df3a521461038757600080fd5b806318160ddd1161018757806342842e0e1161015657806342842e0e146102f05780634f6ccce71461030357806355866c8d146103165780636352211e1461033957600080fd5b806318160ddd146102a657806323b872dd146102b75780632a64da63146102ca5780632f745c59146102dd57600080fd5b8063095ea7b3116101c3578063095ea7b3146102485780630df716021461025d5780630e39228814610270578063156e29f61461029357600080fd5b806301ffc9a7146101ea57806306fdde0314610213578063081812fc14610228575b600080fd5b6101fd6101f83660046123b3565b6104ae565b60405161020a9190612c5b565b60405180910390f35b61021b6104d9565b60405161020a9190612c69565b61023b610236366004612430565b61056b565b60405161020a9190612bdd565b61025b6102563660046122ef565b6105c4565b005b61025b61026b366004612430565b61064a565b6101fd61027e366004612430565b600e6020526000908152604090205460ff1681565b61025b6102a1366004612322565b610690565b6008545b60405161020a9190612d8a565b61025b6102c53660046121ed565b61076f565b61025b6102d8366004612357565b6107a0565b6102aa6102eb3660046122ef565b610833565b61025b6102fe3660046121ed565b610885565b6102aa610311366004612430565b6108a0565b6101fd610324366004612430565b600f6020526000908152604090205460ff1681565b61023b610347366004612430565b6108ee565b6102aa61035a36600461216e565b610923565b61025b610967565b6102aa610375366004612430565b600c6020526000908152604090205481565b6102aa610395366004612472565b61099d565b600a546001600160a01b031661023b565b61021b6109ce565b6011546102aa9081565b61025b6103cb366004612430565b6109dd565b6101fd6103de366004612430565b60106020526000908152604090205460ff1681565b61025b6104013660046122bc565b610a52565b610419610414366004612430565b610a5d565b60405161020a9190612c4a565b61025b61043436600461223d565b610b5b565b61021b610447366004612430565b610b8d565b61041961045a366004612430565b61144d565b6101fd61046d3660046121b0565b6001600160a01b03918216600090815260056020908152604080832093909416825291909152205460ff1690565b61025b6104a936600461216e565b6114af565b60006001600160e01b0319821663780e9d6360e01b14806104d357506104d38261150b565b92915050565b6060600080546104e890612ea9565b80601f016020809104026020016040519081016040528092919081815260200182805461051490612ea9565b80156105615780601f1061053657610100808354040283529160200191610561565b820191906000526020600020905b81548152906001019060200180831161054457829003601f168201915b5050505050905090565b6000818152600260205260408120546001600160a01b03166105a85760405162461bcd60e51b815260040161059f90612d3a565b60405180910390fd5b506000908152600460205260409020546001600160a01b031690565b60006105cf826108ee565b9050806001600160a01b0316836001600160a01b031614156106035760405162461bcd60e51b815260040161059f90612d5a565b336001600160a01b038216148061061f575061061f813361046d565b61063b5760405162461bcd60e51b815260040161059f90612cfa565b610645838361155b565b505050565b600b546001600160a01b03163314610675576040516307b0730b60e21b815260040160405180910390fd5b6000908152600e60205260409020805460ff19166001179055565b600b546001600160a01b031633146106bb576040516307b0730b60e21b815260040160405180910390fd5b60005b828110156107695760006106d160115490565b90506106e1601180546001019055565b6106eb85826115c9565b6000818152600c60209081526040808320869055858352600d8252808320805460018101825590845291909220018290555181907f5c1c9352d51031acc9a558d7cdcca15b0ce5fe4f46d7315cca355248175b0a379061074e9088908790612c2f565b60405180910390a2508061076181612f03565b9150506106be565b50505050565b61077933826115e3565b6107955760405162461bcd60e51b815260040161059f90612d6a565b610645838383611695565b600b546001600160a01b031633146107cb576040516307b0730b60e21b815260040160405180910390fd5b60005b815181101561082f576001600f60008484815181106107ef576107ef612f8a565b6020026020010151815260200190815260200160002060006101000a81548160ff021916908315150217905550808061082790612f03565b9150506107ce565b5050565b600061083e83610923565b821061085c5760405162461bcd60e51b815260040161059f90612c7a565b506001600160a01b03919091166000908152600660209081526040808320938352929052205490565b61064583838360405180602001604052806000815250610b5b565b60006108ab60085490565b82106108c95760405162461bcd60e51b815260040161059f90612d7a565b600882815481106108dc576108dc612f8a565b90600052602060002001549050919050565b6000818152600260205260408120546001600160a01b0316806104d35760405162461bcd60e51b815260040161059f90612d1a565b60006001600160a01b03821661094b5760405162461bcd60e51b815260040161059f90612d0a565b506001600160a01b031660009081526003602052604090205490565b600a546001600160a01b031633146109915760405162461bcd60e51b815260040161059f90612d4a565b61099b60006117c2565b565b600d60205281600052604060002081815481106109b957600080fd5b90600052602060002001600091509150505481565b6060600180546104e890612ea9565b600b546001600160a01b03163314610a08576040516307b0730b60e21b815260040160405180910390fd5b6000818152600e602052604090205460ff16610a37576040516307b0730b60e21b815260040160405180910390fd5b6000908152601060205260409020805460ff19166001179055565b61082f338383611814565b60606000610a6a8361144d565b90506000815167ffffffffffffffff811115610a8857610a88612fa0565b604051908082528060200260200182016040528015610ab1578160200160208202803683370190505b5090506000805b8351811015610b5157336001600160a01b0316610aed858381518110610ae057610ae0612f8a565b60200260200101516108ee565b6001600160a01b03161415610b3f57838181518110610b0e57610b0e612f8a565b6020026020010151838381518110610b2857610b28612f8a565b6020908102919091010152610b3c82612f03565b91505b80610b4981612f03565b915050610ab8565b5090949350505050565b610b6533836115e3565b610b815760405162461bcd60e51b815260040161059f90612d6a565b610769848484846118b7565b6040805160208082018352600080835283518083018552818152600b54868352600c909352908490205493516350c677f760e11b815260609491926001600160a01b03169163a18cefee91610be59190600401612d8a565b60206040518083038186803b158015610bfd57600080fd5b505afa158015610c11573d6000803e3d6000fd5b505050506040513d601f19601f82011682018060405250810190610c35919061218f565b6001600160a01b0316633c2bcadc6040518163ffffffff1660e01b815260040160206040518083038186803b158015610c6d57600080fd5b505afa158015610c81573d6000803e3d6000fd5b505050506040513d601f19601f82011682018060405250810190610ca59190612392565b610d565760128054610cb690612ea9565b80601f0160208091040260200160405190810160405280929190818152602001828054610ce290612ea9565b8015610d2f5780601f10610d0457610100808354040283529160200191610d2f565b820191906000526020600020905b815481529060010190602001808311610d1257829003601f168201915b505050505091506040518060600160405280603981526020016130926039913990506111fd565b600b546000858152600c6020526040908190205490516350c677f760e11b81526001600160a01b039092169163a18cefee91610d9491600401612d8a565b60206040518083038186803b158015610dac57600080fd5b505afa158015610dc0573d6000803e3d6000fd5b505050506040513d601f19601f82011682018060405250810190610de4919061218f565b6001600160a01b0316632c1fecfe6040518163ffffffff1660e01b815260040160206040518083038186803b158015610e1c57600080fd5b505afa158015610e30573d6000803e3d6000fd5b505050506040513d601f19601f82011682018060405250810190610e549190612392565b15610fe7576000848152600f602052604090205460ff1615610f1d5760148054610e7d90612ea9565b80601f0160208091040260200160405190810160405280929190818152602001828054610ea990612ea9565b8015610ef65780601f10610ecb57610100808354040283529160200191610ef6565b820191906000526020600020905b815481529060010190602001808311610ed957829003601f168201915b50505050509150604051806060016040528060318152602001612fe96031913990506111fd565b60168054610f2a90612ea9565b80601f0160208091040260200160405190810160405280929190818152602001828054610f5690612ea9565b8015610fa35780601f10610f7857610100808354040283529160200191610fa3565b820191906000526020600020905b815481529060010190602001808311610f8657829003601f168201915b505050505091506040518060400160405280601d81526020017f212054686973207469636b65742063616e20626520726566756e64656400000081525090506111fd565b6000848152600e602052604090205460ff161561116f5760008481526010602052604090205460ff16156110c2576015805461102290612ea9565b80601f016020809104026020016040519081016040528092919081815260200182805461104e90612ea9565b801561109b5780601f106110705761010080835404028352916020019161109b565b820191906000526020600020905b81548152906001019060200180831161107e57829003601f168201915b505050505091506040518060600160405280603481526020016130cb6034913990506111fd565b601380546110cf90612ea9565b80601f01602080910402602001604051908101604052809291908181526020018280546110fb90612ea9565b80156111485780601f1061111d57610100808354040283529160200191611148565b820191906000526020600020905b81548152906001019060200180831161112b57829003601f168201915b5050505050915060405180606001604052806038815260200161301a6038913990506111fd565b6017805461117c90612ea9565b80601f01602080910402602001604051908101604052809291908181526020018280546111a890612ea9565b80156111f55780601f106111ca576101008083540402835291602001916111f5565b820191906000526020600020905b8154815290600101906020018083116111d857829003601f168201915b505050505091505b611425611209856118ea565b6000868152600c6020526040902054611221906118ea565b600b546000888152600c6020526040908190205490516359f1578360e11b81526001600160a01b039092169163b3e2af069161125f91600401612d8a565b60006040518083038186803b15801561127757600080fd5b505afa15801561128b573d6000803e3d6000fd5b505050506040513d6000823e601f3d908101601f191682016040526112b391908101906123f5565b6000888152600e602052604090205485906112d9906112d49060ff166119e8565b6118ea565b60008a8152600f60205260409020546112f8906112d49060ff166119e8565b600b5460008c8152600c6020526040908190205490516350c677f760e11b81526113f9926001600160a01b03169163a18cefee916113399190600401612d8a565b60206040518083038186803b15801561135157600080fd5b505afa158015611365573d6000803e3d6000fd5b505050506040513d601f19601f82011682018060405250810190611389919061218f565b6001600160a01b031663b914a2196040518163ffffffff1660e01b815260040160206040518083038186803b1580156113c157600080fd5b505afa1580156113d5573d6000803e3d6000fd5b505050506040513d601f19601f820116820180604052508101906112d49190612451565b89604051602001611411989796959493929190612ab6565b604051602081830303815290604052611a05565b6040516020016114359190612a98565b60405160208183030381529060405292505050919050565b6000818152600d60209081526040918290208054835181840281018401909452808452606093928301828280156114a357602002820191906000526020600020905b81548152602001906001019080831161148f575b50505050509050919050565b600a546001600160a01b031633146114d95760405162461bcd60e51b815260040161059f90612d4a565b6001600160a01b0381166114ff5760405162461bcd60e51b815260040161059f90612c9a565b611508816117c2565b50565b60006001600160e01b031982166380ac58cd60e01b148061153c57506001600160e01b03198216635b5e139f60e01b145b806104d357506301ffc9a760e01b6001600160e01b03198316146104d3565b600081815260046020526040902080546001600160a01b0319166001600160a01b0384169081179091558190611590826108ee565b6001600160a01b03167f8c5be1e5ebec7d5bd14f71427d1e84f3dd0314c0f7b2291e5b200ac8c7c3b92560405160405180910390a45050565b61082f828260405180602001604052806000815250611b59565b6000818152600260205260408120546001600160a01b03166116175760405162461bcd60e51b815260040161059f90612cea565b6000611622836108ee565b9050806001600160a01b0316846001600160a01b0316148061166957506001600160a01b0380821660009081526005602090815260408083209388168352929052205460ff165b8061168d5750836001600160a01b03166116828461056b565b6001600160a01b0316145b949350505050565b826001600160a01b03166116a8826108ee565b6001600160a01b0316146116ce5760405162461bcd60e51b815260040161059f90612caa565b6001600160a01b0382166116f45760405162461bcd60e51b815260040161059f90612cca565b6116ff838383611b8c565b61170a60008261155b565b6001600160a01b0383166000908152600360205260408120805460019290611733908490612e49565b90915550506001600160a01b0382166000908152600360205260408120805460019290611761908490612dfe565b909155505060008181526002602052604080822080546001600160a01b0319166001600160a01b0386811691821790925591518493918716917fddf252ad1be2c89b69c2b068fc378daa952ba7f163c4a11628f55a4df523b3ef91a4505050565b600a80546001600160a01b038381166001600160a01b0319831681179093556040519116919082907f8be0079c531659141344cd1fd0a4f28419497f9722a3daafe3b4186f6b6457e090600090a35050565b816001600160a01b0316836001600160a01b031614156118465760405162461bcd60e51b815260040161059f90612cda565b6001600160a01b0383811660008181526005602090815260408083209487168084529490915290819020805460ff1916851515179055517f17307eab39ab6107e8899845ad3d59bd9653f200f220920489ca2b5937696c31906118aa908590612c5b565b60405180910390a3505050565b6118c2848484611695565b6118ce84848484611c44565b6107695760405162461bcd60e51b815260040161059f90612c8a565b60608161190e5750506040805180820190915260018152600360fc1b602082015290565b8160005b8115611938578061192281612f03565b91506119319050600a83612e16565b9150611912565b60008167ffffffffffffffff81111561195357611953612fa0565b6040519080825280601f01601f19166020018201604052801561197d576020820181803683370190505b5090505b841561168d57611992600183612e49565b915061199f600a86612f1e565b6119aa906030612dfe565b60f81b8183815181106119bf576119bf612f8a565b60200101906001600160f81b031916908160001a9053506119e1600a86612e16565b9450611981565b600081156119f857506001919050565b506000919050565b919050565b6060815160001415611a2557505060408051602081019091526000815290565b60006040518060600160405280604081526020016130526040913990506000600384516002611a549190612dfe565b611a5e9190612e16565b611a69906004612e2a565b67ffffffffffffffff811115611a8157611a81612fa0565b6040519080825280601f01601f191660200182016040528015611aab576020820181803683370190505b509050600182016020820185865187015b80821015611b17576003820191508151603f8160121c168501518453600184019350603f81600c1c168501518453600184019350603f8160061c168501518453600184019350603f8116850151845360018401935050611abc565b5050600386510660018114611b335760028114611b4657611b4e565b603d6001830353603d6002830353611b4e565b603d60018303535b509195945050505050565b611b638383611d51565b611b706000848484611c44565b6106455760405162461bcd60e51b815260040161059f90612c8a565b6001600160a01b038316611be757611be281600880546000838152600960205260408120829055600182018355919091527ff3f7a9fe364faab93b216da50a3214154f22a0a2b415b23a84c8169e8b636ee30155565b611c0a565b816001600160a01b0316836001600160a01b031614611c0a57611c0a8382611e3f565b6001600160a01b038216611c215761064581611edc565b826001600160a01b0316826001600160a01b031614610645576106458282611f8b565b60006001600160a01b0384163b15611d4657604051630a85bd0160e11b81526001600160a01b0385169063150b7a0290611c88903390899088908890600401612beb565b602060405180830381600087803b158015611ca257600080fd5b505af1925050508015611cd2575060408051601f3d908101601f19168201909252611ccf918101906123d4565b60015b611d2c573d808015611d00576040519150601f19603f3d011682016040523d82523d6000602084013e611d05565b606091505b508051611d245760405162461bcd60e51b815260040161059f90612c8a565b805181602001fd5b6001600160e01b031916630a85bd0160e11b14905061168d565b506001949350505050565b6001600160a01b038216611d775760405162461bcd60e51b815260040161059f90612d2a565b6000818152600260205260409020546001600160a01b031615611dac5760405162461bcd60e51b815260040161059f90612cba565b611db860008383611b8c565b6001600160a01b0382166000908152600360205260408120805460019290611de1908490612dfe565b909155505060008181526002602052604080822080546001600160a01b0319166001600160a01b03861690811790915590518392907fddf252ad1be2c89b69c2b068fc378daa952ba7f163c4a11628f55a4df523b3ef908290a45050565b60006001611e4c84610923565b611e569190612e49565b600083815260076020526040902054909150808214611ea9576001600160a01b03841660009081526006602090815260408083208584528252808320548484528184208190558352600790915290208190555b5060009182526007602090815260408084208490556001600160a01b039094168352600681528383209183525290812055565b600854600090611eee90600190612e49565b60008381526009602052604081205460088054939450909284908110611f1657611f16612f8a565b906000526020600020015490508060088381548110611f3757611f37612f8a565b6000918252602080832090910192909255828152600990915260408082208490558582528120556008805480611f6f57611f6f612f74565b6001900381819060005260206000200160009055905550505050565b6000611f9683610923565b6001600160a01b039093166000908152600660209081526040808320868452825280832085905593825260079052919091209190915550565b6000611fe2611fdd84612daf565b612d98565b9050808382526020820190508285602086028201111561200457612004600080fd5b60005b85811015612030578161201a8882612158565b8452506020928301929190910190600101612007565b5050509392505050565b6000612048611fdd84612dd3565b90508281526020810184848401111561206357612063600080fd5b61206e848285612e71565b509392505050565b6000612084611fdd84612dd3565b90508281526020810184848401111561209f5761209f600080fd5b61206e848285612e7d565b80356104d381612fb6565b80516104d381612fb6565b600082601f8301126120d4576120d4600080fd5b813561168d848260208601611fcf565b80356104d381612fca565b80516104d381612fca565b80356104d381612fd2565b80516104d381612fd2565b600082601f83011261212457612124600080fd5b813561168d84826020860161203a565b600082601f83011261214857612148600080fd5b815161168d848260208601612076565b80356104d381612fe2565b80516104d381612fe2565b60006020828403121561218357612183600080fd5b600061168d84846120aa565b6000602082840312156121a4576121a4600080fd5b600061168d84846120b5565b600080604083850312156121c6576121c6600080fd5b60006121d285856120aa565b92505060206121e3858286016120aa565b9150509250929050565b60008060006060848603121561220557612205600080fd5b600061221186866120aa565b9350506020612222868287016120aa565b925050604061223386828701612158565b9150509250925092565b6000806000806080858703121561225657612256600080fd5b600061226287876120aa565b9450506020612273878288016120aa565b935050604061228487828801612158565b925050606085013567ffffffffffffffff8111156122a4576122a4600080fd5b6122b087828801612110565b91505092959194509250565b600080604083850312156122d2576122d2600080fd5b60006122de85856120aa565b92505060206121e3858286016120e4565b6000806040838503121561230557612305600080fd5b600061231185856120aa565b92505060206121e385828601612158565b60008060006060848603121561233a5761233a600080fd5b600061234686866120aa565b935050602061222286828701612158565b60006020828403121561236c5761236c600080fd5b813567ffffffffffffffff81111561238657612386600080fd5b61168d848285016120c0565b6000602082840312156123a7576123a7600080fd5b600061168d84846120ef565b6000602082840312156123c8576123c8600080fd5b600061168d84846120fa565b6000602082840312156123e9576123e9600080fd5b600061168d8484612105565b60006020828403121561240a5761240a600080fd5b815167ffffffffffffffff81111561242457612424600080fd5b61168d84828501612134565b60006020828403121561244557612445600080fd5b600061168d8484612158565b60006020828403121561246657612466600080fd5b600061168d8484612163565b6000806040838503121561248857612488600080fd5b60006123118585612158565b60006124a08383612a92565b505060200190565b6124b181612e60565b82525050565b60006124c1825190565b80845260209384019383018060005b838110156124f55781516124e48882612494565b9750602083019250506001016124d0565b509495945050505050565b8015156124b1565b6000612512825190565b808452602084019350612529818560208601612e7d565b601f01601f19169290920192915050565b6000612544825190565b612552818560208601612e7d565b9290920192915050565b602b81526000602082017f455243373231456e756d657261626c653a206f776e657220696e646578206f7581526a74206f6620626f756e647360a81b602082015291505b5060400190565b603281526000602082017f4552433732313a207472616e7366657220746f206e6f6e20455243373231526581527131b2b4bb32b91034b6b83632b6b2b73a32b960711b602082015291506125a0565b711116101134b9a932b33ab73232b2111d101160711b815260005b5060120190565b602681526000602082017f4f776e61626c653a206e6577206f776e657220697320746865207a65726f206181526564647265737360d01b602082015291506125a0565b602581526000602082017f4552433732313a207472616e736665722066726f6d20696e636f72726563742081526437bbb732b960d91b602082015291506125a0565b601c81526000602082017f4552433732313a20746f6b656e20616c7265616479206d696e74656400000000815291505b5060200190565b602481526000602082017f4552433732313a207472616e7366657220746f20746865207a65726f206164648152637265737360e01b602082015291506125a0565b601981526000602082017f4552433732313a20617070726f766520746f2063616c6c657200000000000000815291506126cd565b602c81526000602082017f4552433732313a206f70657261746f7220717565727920666f72206e6f6e657881526b34b9ba32b73a103a37b5b2b760a11b602082015291506125a0565b603881526000602082017f4552433732313a20617070726f76652063616c6c6572206973206e6f74206f7781527f6e6572206e6f7220617070726f76656420666f7220616c6c0000000000000000602082015291506125a0565b602a81526000602082017f4552433732313a2062616c616e636520717565727920666f7220746865207a65815269726f206164647265737360b01b602082015291506125a0565b602981526000602082017f4552433732313a206f776e657220717565727920666f72206e6f6e657869737481526832b73a103a37b5b2b760b91b602082015291506125a0565b61227d60f01b815260005b5060020190565b60208082527f4552433732313a206d696e7420746f20746865207a65726f2061646472657373910190815260006126cd565b602c81526000602082017f4552433732313a20617070726f76656420717565727920666f72206e6f6e657881526b34b9ba32b73a103a37b5b2b760a11b602082015291506125a0565b71111610113232b9b1b934b83a34b7b7111d1160711b81526000612611565b60208082527f4f776e61626c653a2063616c6c6572206973206e6f7420746865206f776e6572910190815260006126cd565b602181526000602082017f4552433732313a20617070726f76616c20746f2063757272656e74206f776e658152603960f91b602082015291506125a0565b7f646174613a6170706c69636174696f6e2f6a736f6e3b6261736536342c000000815260005b50601d0190565b603181526000602082017f4552433732313a207472616e736665722063616c6c6572206973206e6f74206f8152701ddb995c881b9bdc88185c1c1c9bdd9959607a1b602082015291506125a0565b602c81526000602082017f455243373231456e756d657261626c653a20676c6f62616c20696e646578206f81526b7574206f6620626f756e647360a01b602082015291506125a0565b6101d160f51b81526000612884565b7f7b226e616d65223a225468652050616e646f7261205469636b65742023000000815260006129bb565b806124b1565b6000612aa382612995565b9150612aaf828461253a565b9392505050565b6000612ac182612a68565b9150612acd828b61253a565b9150612ad882612906565b7f54686973207469636b65742069732067656e6572617465642066726f6d204c6f8152666f74626f78202360c81b60208201526027019150612b1a828a61253a565b9150612b2582612a59565b9150612b31828961253a565b9150612b3d828861253a565b6f1116101134b9abb4b73732b9111d101160811b81526010019150612b62828761253a565b9150612b6d826125f6565b9150612b79828661253a565b7311161011323930bbaa34b6b2b9ba30b6b8111d1160611b81526014019150612ba2828561253a565b6c1116101134b6b0b3b2911d101160991b8152600d019150612bc4828461253a565b9150612bcf82612879565b9a9950505050505050505050565b602081016104d382846124a8565b60808101612bf982876124a8565b612c0660208301866124a8565b612c136040830185612a92565b8181036060830152612c258184612508565b9695505050505050565b60408101612c3d82856124a8565b612aaf6020830184612a92565b60208082528101612aaf81846124b7565b602081016104d38284612500565b60208082528101612aaf8184612508565b602080825281016104d38161255c565b602080825281016104d3816125a7565b602080825281016104d381612618565b602080825281016104d38161265b565b602080825281016104d38161269d565b602080825281016104d3816126d4565b602080825281016104d381612715565b602080825281016104d381612749565b602080825281016104d381612792565b602080825281016104d3816127ec565b602080825281016104d381612833565b602080825281016104d38161288b565b602080825281016104d3816128bd565b602080825281016104d381612925565b602080825281016104d381612957565b602080825281016104d3816129c2565b602080825281016104d381612a10565b602081016104d38284612a92565b6000612da360405190565b9050611a008282612ed6565b600067ffffffffffffffff821115612dc957612dc9612fa0565b5060209081020190565b600067ffffffffffffffff821115612ded57612ded612fa0565b601f19601f83011660200192915050565b60008219821115612e1157612e11612f32565b500190565b600082612e2557612e25612f48565b500490565b6000816000190483118215151615612e4457612e44612f32565b500290565b600082821015612e5b57612e5b612f32565b500390565b60006001600160a01b0382166104d3565b82818337506000910152565b60005b83811015612e98578181015183820152602001612e80565b838111156107695750506000910152565b600281046001821680612ebd57607f821691505b60208210811415612ed057612ed0612f5e565b50919050565b601f19601f830116810181811067ffffffffffffffff82111715612efc57612efc612fa0565b6040525050565b6000600019821415612f1757612f17612f32565b5060010190565b600082612f2d57612f2d612f48565b500690565b634e487b7160e01b600052601160045260246000fd5b634e487b7160e01b600052601260045260246000fd5b634e487b7160e01b600052602260045260246000fd5b634e487b7160e01b600052603160045260246000fd5b634e487b7160e01b600052603260045260246000fd5b634e487b7160e01b600052604160045260246000fd5b612fbf81612e60565b811461150857600080fd5b801515612fbf565b6001600160e01b03198116612fbf565b80612fbf56fe2120596f75206861766520616c7265616479206265656e20726566756e64656420666f722074686973207469636b65742e2120436f6e67726174756c6174696f6e732c20596f75206861766520776f6e204e4654207072697a652e20436c61696d206974206e6f77214142434445464748494a4b4c4d4e4f505152535455565758595a6162636465666768696a6b6c6d6e6f707172737475767778797a303132333435363738392b2f2120596f7520686176652061206368616e636520746f2077696e207072697a657320696e73696465207468652050616e646f726120426f7821212054686973207469636b6574206861766520616c7265616479206265656e20636c61696d656420666f722061207072697a652ea2646970667358221220064b3f1cf207286da0bb14670bee5fff2f88275b01aada56d17de13f7236e10a64736f6c63430008070033697066733a2f2f6261666b726569666366733336717037747436786d6d7972746a3264716f79746668666f36626375623437637362616e7775746c32676375616875697066733a2f2f6261667962656961696f7836656f6e3572666a6d336d623337343278696f77743774706e79373372746d7279727164786d6f756c6374356a696e61697066733a2f2f6261666b726569653435757079676a326f74646e637963646c32666c75716d797176786d65376a36787369367a76366e647a727163617273703675697066733a2f2f6261666b726569617a6c726e356d72327333643572323461636d6f707a75657a736769377336616d78326d3362706e366d76656b67643567633765697066733a2f2f6261666b726569633478376c627761376c6f337667786b3272677234366e627577726f32696164636475726e37356d786f3376346a7a7736667871697066733a2f2f6261666b726569676d356972377679697269636e6c323361376262627a69337665327472367635347069327175737666757932726c647563337765",
  "linkReferences": {},
  "deployedLinkReferences": {}
}